:020000040800F2
:10000000000002205909000855090008C58E0008A3
:1000100055090008550900085509000800000000AE
:10002000000000000000000000000000550900086A
:10003000550900080000000055090008498E000815
:100040005509000855090008550900085509000818
:100050005509000855090008550900085509000808
:10006000550900085509000855090008518A00087B
:100070005D8A0008A9790008698A0008758A000865
:10008000DD2F01087D7F000855090008550900088B
:1000900055090008550900085509000855090008C8
:1000A00055090008550900085509000855090008B8
:1000B000B1230108BD230108C9230108B17F00084D
:1000C00055090008BD7F000855090008211C0108DA
:1000D0002D1C0108112E0108412E0108752E010862
:1000E00055090008550900080000000055090008DE
:1000F0005509000855090008550900085509000868
:100100005509000855090008D5230108391C0108C4
:10011000A92E0108DD2E010855090008550900081F
:1001200055090008550900085D1C0108911C0108CB
:100130001130010855090008550900085509000843
:1001400000000000000000000000000000000000AF
:10015000550900085509000855090008112F010824
:10016000C97F000855090008598E00087D8E0008D7
:1001700055090008A18E0008550900085509000816
:100180005509000855090008452F0108752F010879
:10019000451C0108511C01085509000855090008B3
:1001A00055090008550900085509000855090008B7
:1001B000718700085509000855090008550900080D
:1001C0005509000855090008550900085509000897
:1001D0005509000855090008550900085509000887
:1001E0005509000855090008550900085509000877
:1001F0005509000855090008550900085509000867
:100200005509000855090008550900085509000856
:100210005509000855090008550900085509000846
:10022000550900085509000855090008000000009C
:10023000550900085509000800000000550900088C
:100240005509000855090008550900085509000816
:100250005509000855090008550900085509000806
:1002600055090008550900085509000855090008F6
:100270005509000855090008A92F010800000000D1
:10028000550900085509000855090008000000003C
:08029000000000005509000800
:1002980010B5054C237833B9044B13B10448AFF3B8
:1002A80000800123237010BDB0040024000000006A
:1002B80020C3010808B5034B1BB103490348AFF33A
:1002C800008008BD00000000B404002420C3010819
:1002D80081F0004102E000BF83F0004330B54FEAEF
:1002E80041044FEA430594EA050F08BF90EA020F5C
:1002F8001FBF54EA000C55EA020C7FEA645C7FEAEF
:10030800655C00F0E2804FEA5454D4EB5555B8BF11
:100318006D420CDD2C4480EA020281EA030382EA82
:10032800000083EA010180EA020281EA0303362D14
:1003380088BF30BD11F0004F4FEA01314FF4801CE7
:100348004CEA113102D0404261EB410113F0004FF9
:100358004FEA03334CEA133302D0524263EB4303B0
:1003680094EA050F00F0A780A4F10104D5F1200E4E
:100378000DDB02FA0EFC22FA05F2801841F10001A9
:1003880003FA0EF2801843FA05F359410EE0A5F17D
:1003980020050EF1200E012A03FA0EFC28BF4CF0AE
:1003A800020C43FA05F3C01851EBE37101F0004564
:1003B80007D54FF0000EDCF1000C7EEB00006EEB71
:1003C8000101B1F5801F1BD3B1F5001F0CD34908FB
:1003D8005FEA30004FEA3C0C04F101044FEA445252
:1003E80012F5800F80F09A80BCF1004F08BF5FEAD9
:1003F800500C50F1000041EB045141EA050130BDB9
:100408005FEA4C0C404141EB0101013C28BFB1F5CA
:10041800801FE9D291F0000F04BF01460020B1FA15
:1004280081F308BF2033A3F10B03B3F120020CDAE8
:100438000C3208DD02F1140CC2F10C0201FA0CF0C6
:1004480021FA02F10CE002F11402D8BFC2F1200C2B
:1004580001FA02F120FA0CFCDCBF41EA0C019040E1
:10046800E41AA2BF01EB0451294330BD6FEA04042A
:100478001F3C1CDA0C340EDC04F11404C4F1200215
:1004880020FA04F001FA02F340EA030021FA04F327
:1004980045EA030130BDC4F10C04C4F1200220FA7E
:1004A80002F001FA04F340EA0300294630BD21FABC
:1004B80004F0294630BD94F0000F83F4801306BF82
:1004C80081F480110134013D4EE77FEA645C18BF76
:1004D8007FEA655C29D094EA050F08BF90EA020F0D
:1004E80005D054EA000C04BF1946104630BD91EA05
:1004F800030F1EBF0021002030BD5FEA545C05D108
:100508004000494128BF41F0004130BD14F5800446
:100518003CBF01F5801130BD01F0004545F0FE41BA
:1005280041F470014FF0000030BD7FEA645C1ABFEF
:10053800194610467FEA655C1CBF0B46024650EA26
:10054800013406BF52EA033591EA030F41F4002152
:1005580030BD00BF90F0000F04BF0021704730B5D8
:100568004FF4806404F132044FF000054FF00001AD
:1005780050E700BF90F0000F04BF0021704730B56E
:100588004FF4806404F1320410F0004548BF404243
:100598004FF000013EE700BF42004FEAE2014FEA98
:1005A80031014FEA02701FBF12F07F4393F07F4F73
:1005B80081F06051704732F07F4208BF704793F076
:1005C8007F4F04BF41F40021704730B54FF4607489
:1005D80001F0004521F000411CE700BF50EA01028C
:1005E80008BF704730B54FF000050AE050EA010235
:1005F80008BF704730B511F0004502D5404261EBA5
:1006080041014FF4806404F132045FEA915C3FF4E5
:10061800D8AE4FF003025FEADC0C18BF03325FEA82
:10062800DC0C18BF033202EBDC02C2F1200300FA33
:1006380003FC20FA02F001FA03FE40EA0E0021FA58
:1006480002F11444BDE600BF53B94AB9002908BFF6
:1006580000281CBF4FF0FF314FF0FF3000F074B995
:10066800ADF1080C6DE904CE00F006F8DDF804E001
:10067800DDE9022304B070472DE9F047089D0446E0
:100688008E46002B4DD18A42944669D9B2FA82F23D
:1006980052B101FA02F3C2F1200120FA01F10CFA79
:1006A80002FC41EA030E94404FEA1C48210CBEFBB1
:1006B800F8F61FFA8CF708FB16E341EA034306FB3A
:1006C80007F199420AD91CEB030306F1FF3080F0C9
:1006D8001F81994240F21C81023E63445B1AA4B216
:1006E800B3FBF8F008FB103344EA034400FB07F7B8
:1006F800A7420AD91CEB040400F1FF3380F00A81F9
:10070800A74240F207816444023840EA0640E41BED
:1007180000261DB1D4400023C5E900433146BDE899
:10072800F0878B4209D9002D00F0EF800026C5E93B
:10073800000130463146BDE8F087B3FA83F6002E53
:100748004AD18B4202D3824200F2F980841A61EBCB
:10075800030301209E46002DE0D0C5E9004EDDE7E9
:1007680002B9FFDEB2FA82F2002A40F09280A1EBD1
:100778000C014FEA1C471FFA8CFE0126200CB1FB26
:10078800F7F307FB131140EA01410EFB03F088421F
:1007980008D91CEB010103F1FF3802D2884200F2AC
:1007A800CB804346091AA4B2B1FBF7F007FB10113E
:1007B80044EA01440EFB00FEA64508D91CEB0404DC
:1007C80000F1FF3102D2A64500F2BB800846A4EB37
:1007D8000E0440EA03409CE7C6F12007B34022FA22
:1007E80007FC4CEA030C20FA07F401FA06F31C4351
:1007F800F9404FEA1C4900FA06F3B1FBF9F8200C5E
:100808001FFA8CFE09FB181140EA014108FB0EF0A3
:10081800884202FA06F20BD91CEB010108F1FF3AF3
:1008280080F08880884240F28580A8F102086144FF
:10083800091AA4B2B1FBF9F009FB101144EA01410D
:1008480000FB0EFE8E4508D91CEB010100F1FF34B8
:100858006CD28E456AD90238614440EA0840A0FB50
:100868000294A1EB0E01A142C846A64656D353D026
:100878005DB1B3EB080261EB0E0101FA07F722FA4A
:1008880006F3F1401F43C5E9007100263146BDE873
:10089800F087C2F12003D8400CFA02FC21FA03F3D6
:1008A800914001434FEA1C471FFA8CFEB3FBF7F057
:1008B80007FB10360B0C43EA064300FB0EF69E427C
:1008C80004FA02F408D91CEB030300F1FF382FD215
:1008D8009E422DD9023863449B1B89B2B3FBF7F6BD
:1008E80007FB163341EA034106FB0EF38B4208D996
:1008F8001CEB010106F1FF3816D28B4214D9023ED7
:100908006144C91A46EA004638E72E46284605E7F4
:100918000646E3E61846F8E64B45A9D2B9EB0208C5
:1009280064EB0C0E0138A3E74646EAE7204694E755
:100938004046D1E7D0467BE7023B614432E7304688
:1009480009E76444023842E7704700BFFEE700BF8A
:100958000B480C4A904203D0121A0B4918F0D0FEEB
:100968000A480B4A904203D0121A002118F0F0FEF0
:1009780008F0CEFC18F090FE05F0B8F8FEE700BFCE
:1009880000000024AC04002454C30108B00400246F
:1009980030D60724704700BF704700BF704700BFBC
:1009A800704700BF704700BF704700BF704700BF67
:1009B800704700BF704700BF704700BF704700BF57
:1009C800704700BF704700BF704700BF704700BF47
:1009D800704700BF704700BF4020704780207047B5
:1009E80049424FF480621030C9B218F0B1BE00BF5E
:1009F800704700BF10B504464FF4826117F039FC08
:100A0800204610BD10B50446006818B1A168091A3F
:100A180017F02FFC204610BD10B50446006818B129
:100A2800A168091A17F025FC204610BDA1EB000C9F
:100A38004FEAAC034FEA2C1CBCF1000F40DD1368F1
:100A480000EB0C1C10B40BE04468A3420ED0846881
:100A5800A3420FD0C468A34210D01030844511D0EF
:100A680004689C42F0D15DF8044B704704305DF88F
:100A7800044B704708305DF8044B70470C305DF844
:100A8800044B70470B1A9B10022B13D0032B0BD06F
:100A9800012B03D008465DF8044B704713680268C1
:100AA8009A42E0D00846F6E7136802689A42DAD01C
:100AB800043000E0136802689A42D4D00430EEE7AC
:100AC800022B05D0032B0ED0012B0AD00846704705
:100AD800136802689A4203D0043002689A42F5D13A
:100AE80070471368F9E7136802689A42F8D004302F
:100AF800EFE700BF704700BF2DE9F04F4FF0B00897
:100B080085B0054600F1080700F18F0600F28F490D
:100B18004FF47A7B4FF0000A297B022303AA384658
:100B2800CDF800B0A6F180048DF80CA08DF80D80EA
:100B380007F0E2FA297B022303AA3846CDF800B071
:100B48008DF80CA08DF80DA007F0D6FA4FF0100C18
:100B5800297B022303AA3846CDF800B08DF80CA0F3
:100B68008DF80DC007F0C8FA4FF47A7014F801CF69
:100B78004FF0400E297B0223009003AA38468DF8D7
:100B88000CE08DF80DC007F0B7FAB442ECD104F1CF
:100B9800800608F101084E455FFA88F8B8D105B01B
:100BA800BDE8F08F7F291ED83F2A1CD86BB1D30827
:100BB8004FF0010C02F0070201EBC3130CFA02F22A
:100BC800C1180B7C1A430A747047D3084FF0010C04
:100BD80002F0070201EBC3130CFA02FCC1180A7CED
:100BE80022EA0C020A7470472DE9F04F83B05C1AB0
:100BF8000C9E002C9DF83490A6EB0208B8BF644206
:100C0800B8F1000FB8BFC8F100088B428CBF4FF095
:100C1800010A4FF0FF3A9642A4EB080C51D84FF066
:100C2800FF357F2B019512D83F2E10D8F50806F016
:100C3800070E012703EBC5150544B9F1000F47D08E
:100C480007FA0EF795F810E047EA0E072F74964258
:100C580001D18B4229D0C8F100077F2914D83F2A37
:100C680012D8D50802F0070B4FF0010E01EBC5159D
:100C78000544B9F1000F1BD00EFA0BFE95F810B021
:100C88004EEA0B0E85F810E0B7EB4C0F4FEA4C0517
:100C980002DAACEB080C5144AC4202DD019DA444DD
:100CA8002A449942D9D19642D7D103B0BDE8F08FF2
:100CB8000EFA0BFB95F810E02EEA0B0E85F810E003
:100CC800E2E701257F2B0195C5D83F2EAED9C2E7B3
:100CD80007FA0EFE2F7C964227EA0E072F74B8D02B
:100CE800B9E700BF000000002DE9F04F2DED068B9D
:100CF80083B01F4680460D469DF850301646019336
:100D0800139B002BC0F22182129A134406EE103A6C
:100D1800DDED127AB8EEC66B9FEDCD4BB8EEE77BF2
:100D28009FEDCD5B27EE047B26EE046B87EE050B6B
:100D380086EE05ABF7EEC08BB0EE680A17F00CFC38
:100D480007EE907AB7EECAABF8EE679AB0EE408A33
:100D5800B0EE680A18F02CFA60EE698AB0EE4A0A1A
:100D680017F0FAFBB0EE409AB0EE4A0A18F020FAF3
:100D780020EE690A29EE888A29EE899A70EE687A47
:100D8800F0EE006A39EE487A67EEA77AE7EE077A5E
:100D9800F4EEE67AF1EE10FA06D5139BB42B40F385
:100DA80096804FF0010901E04FF0000901247842D4
:100DB8004FF0000C0095E31B214627462246A3402E
:100DC800B9F1000F6AD1424206EE90CACCF1000197
:100DD80007EE102AB8EEE66A07EE901A06EE900AB9
:100DE800B8EEC77A139A66EE084AF8EEE77AB42A9C
:100DF80027EE284AF8EEE66A67EE885A74EEC43A97
:100E080026EEA85A26EE096A66EE806A67EE897AA7
:100E180027EE007AF5EEC03A40F3F280F1EE10FAD0
:100E280000F17F8176EE473A74EEC54AF5EEC03A96
:100E3800F1EE10FAF5EEC04ACCBF01220022F1EE25
:100E480010FA00F1778136EE666A35EEC55AB5EECE
:100E5800C06AF1EE10FAB5EEC05ACCBF01210021EC
:100E6800F1EE10FA00F16F8177EEE66AF5EEC06AEE
:100E7800F1EE10FACCBF0127002775EEC45AF5EE43
:100E8800C05AF1EE10FA00F1478177EEC77AF5EE15
:100E9800C07AF1EE10FACCBF01240024002A40F0F9
:100EA8008A80002964D1BFB9C4BB9C4558DB0CF1CA
:100EB800010C03EB4C0E1CEB000F0EF1010E00F0C1
:100EC800C08098424FDB734600287FF779AF03B0A4
:100ED800BDEC068BBDE8F08F009DA6EB0C0E00EB79
:100EE800050ABAF17F0FDFD8BEF13F0FDCD84FEA11
:100EF800DE0B019D0AEBCB1A002D00F0B1800EF03D
:100F0800070BC2444FF0010E0EFA0BFE9AF810B010
:100F18004EEA0B0E8AF810E0002CC6D0009DA6EB16
:100F28000C0EA5EB000ABAF17F0FBED8BEF13F0F39
:100F3800BBD84FEADE0B019D0AEBCB1A002D00F05F
:100F4800AE800EF0070BC2444FF0010E9C450EFA1E
:100F58000BFE9AF810B04EEA0B0E8AF810E0A6DAEB
:100F680098429E46AFDA01300EEB40030133ABE7FF
:100F7800009D0CEB060E00EB050ABAF17F0F92D824
:100F8800BEF13F0F8FD84FEADE0B019D0AEBCB1A5B
:100F9800002D73D00EF0070BC2444FF0010E0EFA6D
:100FA8000BFE9AF810B04EEA0B0E8AF810E0002FEC
:100FB8003FF47AAF90E7009D0CEB060EA5EB000A14
:100FC800BAF17F0F3FF66DAFBEF13F0F3FF669AF45
:100FD8004FEADE0B019D0AEBCB1A002D6DD00EF007
:100FE800070BC2444FF0010E0EFA0BFE9AF810B030
:100FF8004EEA0B0E8AF810E000293FF454AFB7E729
:10100800F1EE10FA7ED44A4674EEC54AF5EEC04AAF
:10101800F1EE10FA6CD4002135EEC55AB5EEC05A7F
:10102800F1EE10FA5AD4002775EEC45AF5EEC05AFC
:10103800F1EE10FA3FF529AF0024002A3FF431AF52
:10104800B9E798428FDB00233BE700BFAFF300808E
:101058007A008BFCFA2109400000000000806640FD
:10106800C2444FF0010B0EF0070E0BFA0EFE9AF871
:1010780010B02BEA0E0E8AF810E015E7C2444FF0C4
:10108800010B0EF0070E0BFA0EFE9AF810B02BEAC1
:101098000E0E8AF810E0002F3FF406AF1CE7C2449A
:1010A8004FF0010B0EF0070E0BFA0EFE9AF810B077
:1010B8002BEA0E0E8AF810E0F7E6C2444FF0010B57
:1010C8000EF0070E0BFA0EFE9AF810B02BEA0E0E71
:1010D8008AF810E000293FF4E6AE49E777EEE66AC1
:1010E800F5EEC06AF1EE10FACCBF012700279BE7A6
:1010F80036EE666AB5EEC06AF1EE10FACCBF012191
:10110800002189E776EE473AF5EEC03AF1EE10FA9B
:10111800CCBF0122002277E70124002A3FF4C1AEA8
:1011280049E774EEC54A0122F5EEC04AF1EE10FA1D
:101138007FF589AE35EEC55A0121B5EEC05AF1EEFC
:1011480010FA7FF591AE012797E6DDE912231344E3
:1011580006EE102A1293139B5B421393D8E500BF47
:101168002DE9F04F89B008AC9DF84870019104E969
:101178000C000B78002B00F0AB801A469DF8188005
:101188009DF819300646454690460393079B0593FC
:10119800A8F12004E3B25E2B00F29E8033685E4A19
:1011A800DB68934240F09B808020B3882B448342C5
:1011B80000F392803368594A9B68934240F09280CA
:1011C8004020F188039A02918B18834200F38480AF
:1011D800002A00F0918002FB04F46FF00049059B9F
:1011E800A1441444B6F804B003EB4909023BCDF816
:1011F800108003EB44030C469A4639F802CFA5B396
:1012080004F007034FF0010EE20859460EFA03FEF8
:101218000BF110034FFA8EFE03EBC21200236FEAA4
:101228000E0832440DE07F2906D83F2C04D81078E8
:1012380097B14EEA00001070013301320131AB4220
:1012480013D00CFA03F00004EDD47F29F4D83F2C16
:10125800F2D81078002FECD0013308EA00000132F0
:101268000131AB4202F8010CEBD1D14504F1010484
:10127800C3D1DDF8108032680BEB05042649D3682A
:10128800A4B28B4234D18020844204D3D36822494B
:101298008B423AD17F249368204AB480934224D168
:1012A8004020029B834206D333681C4A9B689342C2
:1012B80025D13F230293029BF380019B1878404578
:1012C80007D113F8018F0193B8F1000F7FF460AFD5
:1012D800002009B0BDE8F08F4FF00008EDE7304678
:1012E800984762E7304698476BE730469847D8E713
:1012F800304698473268C7E7B6F804B0BBE73046CF
:101308009847013883B20293D5E7304698470138A9
:10131800326884B2BFE700BFE5090008E1090008A8
:101328002DE9F04F964683B006461F461EF8014B3E
:1013380091460D460C9B0D989DF83880002C00F0C6
:1013480010814FF0000C1EF8014B0CF1010C002C21
:10135800F9D11FFA8CFC3C787A7814FB0CFC11B29A
:101368000FFA8CFC2CEAEC7C082800F2E580DFE818
:1013780000F04A5DBAD174849DA405009A88B3F838
:1013880000A09244B3F90620AAEB0C0A002A1FFA1F
:101398008AFA49DB5C88F18004EB6204A6F804C091
:1013A800A6F800A0A4EB51018CB274802B68DFF87A
:1013B800D4B1DA685A454CD18020504505D8DA684E
:1013C8005A4540F0D5804FF07F0A9B68A5F804A0E5
:1013D800DFF8B4A1534540F0C1804020A04205D8B1
:1013E8002B689B68534540F0BE803F24EC804946FB
:1013F800CDF80080284697E80C00FFF7B1FE30468C
:1014080003B0BDE8F08FB3F90420B3F800A0002AB8
:10141800B8BF01320AEB620AB3F90620AAEB6C0ADC
:10142800002A1FFA8AFAB5DA0132B3E7B3F900A045
:10143800B3F902402B68DFF84CB1DA68A6F800A0CF
:101448001FFA8AFA5A457480A6F804C0A4B2F1803B
:10145800B2D0284690472B68AFE75C88D888B3F9A4
:1014680000A00444A6F804C0A6F800A01FFA8AFA4F
:10147800A21AF18094B2748098E7B3F90400B3F823
:1014880000A00028B8BF01300AEB600AAAEB6C0A7A
:101498005C881FFA8AFADB88A6F804C01C44F1802D
:1014A800A6F800A0A21A94B274807FE7B3F800A04F
:1014B80098888244AAEB0C0AEAE7B3F906205C880C
:1014C800002AB3F900A0F180B8BF0132A6F800A045
:1014D800A6F804C01FFA8AFA04EB6204A4EB5101CF
:1014E8008CB2748062E7B3F90420B3F800A0002A34
:1014F800B3F90240A6F804C0B8BF01327480F18085
:10150800A4B20AEB620AAAEB6C0C1FFA8CFAA6F8D2
:1015180000A04BE7B3F800A09A88B3F902409244C0
:10152800A6F804C07480A4B2AAEB0C0CF1801FFAD0
:101538008CFAA6F800A039E72B680024DFF844B03D
:10154800DA6834805A457480B480F48017D19B6877
:10155800DFF834A0AC8053453FF448AF284698479D
:101568003CE7A446F7E628469847013884B23DE7A9
:101578002846904701382B681FFA80FA25E7A246CB
:1015880067E700BFE5090008E10900082DE9F04F09
:1015980087B09DF84850109C2E4601959DF8445000
:1015A8009EB399422ED89946A24228D87F2916463A
:1015B80094BF0023012308E09CF810804EEA080E2F
:1015C8008CF810E00136B44219D33F2EFAD8002B1C
:1015D800F8D14FEAD60C06F0070E4FF0010801EBE0
:1015E800CC1C08FA0EFE8444002DE5D19CF810B0FE
:1015F80001362BEA0E0AB4428CF810A0E5D201316C
:101608008945D1D207B0BDE8F08FA3EB0108B8F146
:10161800000FB8BFC8F100089942C0F04E817F2B77
:101628004FF0FF3A94BF002601263F2A009694BF48
:10163800002701270297A6B99FB9D60802F0070C20
:10164800012703EBC6160644002D00F0948107FA23
:101658000CF796F810C047EA0C0737740026029674
:101668000096994200F09781464694468E46BEF110
:101678007F0F16D8BCF13F0F13D84FEADC070CF0E8
:10168800070B4FF001090EEBC7170744002D00F0B8
:10169800398109FA0BF997F810B049EA0B0987F86C
:1016A8001090770018BFD644B84502DD46440CF1C7
:1016B800FF3C7345DBD16245D9D100260496A4EBE3
:1016C8000209009FB9F1000FB8BFC9F100093F2C0A
:1016D80094BF00260126A242C9F100080396C0F073
:1016E8002381002F40F05081002E40F04D814FF0B3
:1016F800FF360096E60803EBC6160644002D00F0F8
:101708001E814FF0010C04F007070CFA07F796F852
:1017180010C047EA0C07377400260396A24200F06F
:101728003D81C44616461F4605927F2F15D83F2E89
:1017380013D84FEAD60E06F0070B4FF0010A07EB55
:10174800CE1E8644002D00F0E6800AFA0BFA9EF8B9
:1017580010B04AEA0B0A8EF810A0B8EB4C0F4FEA0B
:101768004C0E02DAACEB090C013FBEF1000F01D0C0
:10177800009A1644BB42D8D1B442D6D1059AA1EBFF
:10178800030EBEF1000FB8BFCEF1000E7F2994BF43
:101798004FF0000A4FF0010A99428CBF4FF001093F
:1017A8004FF0FF39BAF1000F13D1039E8EB9E60846
:1017B80001EBC6160644002D00F0D3804FF0010C53
:1017C80004F007070CFA07F796F810C047EA0C0769
:1017D8003774049E26BB774626467F2B14D83F2EA7
:1017E80012D84FEAD60C06F0070B4FF0010803EBAE
:1017F800CC1C8444002D73D008FA0BF89CF810B068
:1018080048EA0B088CF810805FEA470C18BF4B4475
:10181800E64501DD7744013E9942DED1B442DCD190
:10182800A2EB040EBEF1000FB8BFCEF1000EA2422B
:101838008CBF4FF001084FF0FF38CEF1000CBAF121
:10184800000F0ED1029B63B9D30802F007070126E7
:1018580001EBC3130344002D7CD0BE401F7C3E43E4
:101868001E74019B002B7FF4CDAE66460B467F2B82
:1018780012D83F2C10D8E70804F0070A4FF00109E6
:1018880003EBC7170744A5B309FA0AF997F810A09C
:1018980049EA0A0987F81090BCEB460F4FEA460759
:1018A80002DAA6EB0E06013B07B144449942DED1A9
:1018B800A242DCD107B0BDE8F08F3F2A4FF0010A01
:1018C80094BF002601267F2B029694BF002701278C
:1018D8000097002E7FF4C8AE002F3FF4AEAEC3E6EB
:1018E80008FA0BFB9CF8108028EA0B088CF810808B
:1018F8008AE709FA0AFA97F8109029EA0A0987F894
:101908001090C9E709FA0BFB97F8109029EA0B0920
:1019180087F81090C5E60AFA0BFB9EF810A02AEA91
:101928000B0A8EF810A018E797BB8EBB012600960D
:10193800E60803EBC6160644002D7FF4E2AE012745
:1019480004F0070C039507FA0CFC377C27EA0C0710
:101958003774E3E606FA07F71E7C26EA07061E74C4
:101968007FE7012704F0070C07FA0CFC377C27EA0D
:101978000C0737742DE707FA0CFC377C029527EA29
:101988000C07009537746CE64FF0FF360096C5E6F5
:1019980001260096C5E60126049690E601260196E2
:1019A800EDE600BF2DE9F04F85B0A1F1200504ACAC
:1019B8009DF83870009104E90C00EBB25E2B00F240
:1019C8009580036880465D4ADB689DF8084093422D
:1019D8009DF8096040F094808020B8F804302344D2
:1019E800834200F38380D8F80030554A9B689342BD
:1019F80040F088804020B8F806209319019283426D
:101A080074DC002E00F0898006FB05F56FF00040BD
:101A1800039B964628442E44B8F804A003EB4000E4
:101A2800023B03EB460B30F8026FBCB30EF0070322
:101A38004FF0010C4FEADE0251460CFA03FC0AF1A2
:101A480010034FFA8CFC03EBC21200236FEA0C0957
:101A580042440EE07F2907D8BEF13F0F04D815781D
:101A68009FB14CEA050515700133013201319C42E2
:101A780014D006FA03F52D04ECD47F29F4D8BEF16E
:101A88003F0FF1D81578002FEBD0013309EA05058F
:101A9800013201319C4202F8015CEAD158450EF14D
:101AA800010EC0D1D8F8003054442449DA68A4B2F1
:101AB8008A422DD1802084421CD29B68204AA8F8F3
:101AC8000440934221D14020019B834207D3D8F898
:101AD80000301B4A9B68934229D13F230193DDE9DB
:101AE8000003A8F8063005B0BDE8F08F002005B067
:101AF800BDE8F08FDA6811498A4211D17F24DCE70A
:101B080098476AE74046984775E740469847DBE7B5
:101B180040469047D8F80030CDE7B8F804A0C1E7B0
:101B2800404690470138D8F8003084B2C5E74046AF
:101B38009847013883B20193D1E700BFE50900084F
:101B4800E109000870B545680446012D2DED028BAA
:101B5800F0EE408A40F29F80027FB7EE008AF6EEF0
:101B6800007A437F002A08FE278A0BB1B1EE488A23
:101B7800A669DFED8B7A07EE106A9FED8A0AF8EE08
:101B8800476A66EEA76A26EE800A17F011FB022D57
:101B9800F0EE407A84ED050A3BD0032D40F0F88042
:101BA80094ED047AA268BCEEC77A2168022917EE80
:101BB800103A02EB830393ED000A00F0DC8003295E
:101BC80000F0D080B0EE407AA8EEA77A83ED007AD4
:101BD80040F2AE439E4201D80136A661236AD4ED95
:101BE800047A013B38EE278A07EE903AF8EE677AD6
:101BF80084ED048AB4EEE78AF1EE10FA40F3C0806F
:101C08000023236101295BD1022200236260A361C2
:101C180095E094ED047A40F2AE41A268FCEEC76A02
:101C28008E4216EE903A02EB830393ED000A0DD82C
:101C3800B7EE007A013677EE677AB0EE407AA7EE13
:101C4800A87A83ED007A94ED047AA661236A38EEC7
:101C5800078A013B84ED048A07EE903AF8EE677A2A
:101C6800B4EEE78AF1EE10FA79DCB5EEC08AF1EE4F
:101C780010FA64D5C4ED047A94F82430002B5ED0B1
:101C88002368012B5BD100220321134684F824200A
:101C98006160A26115E086699FED417A07EE906A5E
:101CA8009FED400AF8EE677A67EE877A27EE800A9A
:101CB80017F07EFA012D84ED050A07D09FED3A0A48
:101CC800002384F82530BDEC028B70BDD4ED047A76
:101CD80040F2AE42A36828EE807AFCEEE77A96429C
:101CE80017EE901A03EB810383ED007A01D80136D1
:101CF800A661D4ED047AF7EE006AE368BCEEE77AF1
:101D0800013B77EEA67A17EE102A07EE103AC4EDDB
:101D1800047AB8EE477A2262F4EEC77AF1EE10FA46
:101D2800CCDD77EEE67A9FED207A0223B0EE470A03
:101D380084ED047AFCEEE77A6360C4ED087A94EDEA
:101D4800047ADFED1A7AB4EEE77ABDEC028BF1EE95
:101D580010FA4CBF0123002384F8253070BD0023FE
:101D6800236189E79FED127A20EE077AA8EEA77A19
:101D780083ED007A2CE768EEA77AC3ED007A27E7AF
:101D8800B5EEC08AF1EE10FA9AD5C4ED047A39E7B7
:101D980025F002059FED040A012DD0D190E700BF80
:101DA8000E745A3ADB0FC93F000000000000964548
:101DB800F304353F30B5052087B000240421012203
:101DC80007238DF809001848184D8DF80D108DF867
:101DD80010208DF811308DF808408DF80C4004F073
:101DE80041F802991248DDE9032305F0C5FA9FED91
:101DF800110A8DF8144028468DF8154005998DED87
:101E0800010A05F027FB03220B239DED010A05F1CA
:101E180010008DF814208DF81530059907B0BDE82D
:101E2800304005F017BB00BFC40500248C05002412
:101E3800188B072400000000F0B50224A3B0042783
:101E480001258DF8084008A88DF809700626029922
:101E580005F048FB8DF80C408DF80D5000240399CF
:101E68000DF1310005F03EFB8DF810408DF8116042
:101E78000DF14200049905F035FB07238DF8144055
:101E88000DF153008DF81530059905F02BFB8DF8F1
:101E980018508DF8195019A8069905F023FB03234B
:101EA8008DF81C400DF175008DF81D300799154D02
:101EB80005F018FB3B46324608A9134805F020FBFD
:101EC800E1B2114805F016FD0146104801340191B0
:101ED80003F0C8FF0023DFED0E0A019928461A46D1
:101EE80005F0C8F9094803F09DFF284605F018FADF
:101EF800062C05F12005E3D1034805F0E5FC23B0E5
:101F0800F0BD00BFCC040024DC050024C405002477
:101F18006F12033B10B5094C82B0019001AAD4E9B5
:101F28000001FEF783FD6368834204D02368C01A6A
:101F3800801002B010BD4FF0FF30FAE700A0072470
:101F480070B5154D284605F047FA2B7903B16B6A31
:101F58001248134A0468134923440C78D2E90062F2
:101F6800921BB3FBF2FC02FB1C33036074B92C7B9D
:101F780024B1AC7C7F2C01D101240C7023EAE373DB
:101F88009342036003D2F25C074B1A7070BD064B94
:101F980000221A7070BD00BF188B07249C9B072471
:101FA800F09F0724B19F0724FC9F0724834B2DE94A
:101FB800F04F1C7891B00590002C40F05483804B72
:101FC80080491A6802EB4203032A4FEA830381FB24
:101FD80003014FEAE370C0EBE10101EB4101A3EB20
:101FE80001130C9340F39886053A032A00F23E83C6
:101FF800754B2146DFF8E0B1184608930F23CBF85C
:1020080004400093714B426816F01CFA704B059A15
:102018001D7892F800A007935A785B680B920D938D
:10202800BAF1000F74D0059B0693AAF12003DAB227
:102038005E2A01F2C081BBF804E00EEB0502802A9B
:102048000A9201F3B881BBF806200B9909920A4459
:10205800402A01F3B081002943D00B9A6FF0004C5D
:10206800099C02FB03F39C4413440D9AA2F1020954
:1020780002EB4C0C09EB43093CF8026F6DB304F01A
:1020880007030127E20871469F400EF110037FB253
:1020980003EBC21200236FEA07085A440BE07F29BA
:1020A80004D83F2C02D8107838431070013301321D
:1020B8000131AB4211D006FA03F00004EFD47F29B6
:1020C800F4D83F2CF2D8107801330132013108EAF4
:1020D8000000AB4202F8010CEDD1E14504F1010426
:1020E800CAD1099ABDF828303F2A28BF3F227F2B42
:1020F80028BF7F23ABF80620ABF80430069A137884
:10210800534505D112F801AF0692BAF1000F8CD1F0
:102118000F23089A00212C4800934FF4402352685B
:10212800CBF804302B4B16F08DF9079B059A59789C
:102138001D7892F800A05B680B910D93BAF1000F1F
:1021480000F086800692AAF12003DAB25E2A01F234
:102158002E81BBF804E00EEB0502802A0A9201F3F7
:102168002681BBF806200B9909920A44402A01F3FC
:102178001E81002954D00B9A6FF0004C099C02FB79
:1021880003F39C4413440D9AA2F1020902EB4C0C90
:1021980009EB43093CF8026F002D3DD004F007031A
:1021A8000127E20871469F400EF110037FB203EB4E
:1021B800C21200236FEA07085A441BE0B19F0724A4
:1021C8009C9B0724ABAAAA2AAC050024D09A010834
:1021D80018010024E09A0108A09B07247F2904D84D
:1021E8003F2C02D810783843107001330132013186
:1021F800AB4211D006FA03F00004EFD47F29F4D8DB
:102208003F2CF2D8107801330132013108EA00007E
:10221800AB4202F8010CEDD1CC4504F10104B9D16F
:10222800099ABDF828303F2A28BF3F227F2B28BFB4
:102238007F23ABF80620ABF80430069A1378534591
:1022480006D112F801AF0692BAF1000F7FF47BAF06
:102258000F23089A00216F4800934FF4C013526867
:10226800CBF804306C4B16F0EDF8079B059A5978BB
:102278001D7892F800A05B680B910D93BAF1000FDE
:1022880073D00692AAF12003DAB25E2A01F28B809B
:10229800BBF804E00EEB0502802A0A9201F3838062
:1022A800BBF806200B9909920A44402A01F37B8067
:1022B800002943D00B9A6FF0004C099C02FB03F3F2
:1022C8009C4413440D9AA2F1020902EB4C0C09EB51
:1022D80043093CF8026F6DB304F007030127E208D5
:1022E80071469F400EF110037FB203EBC212002328
:1022F8006FEA07085A440BE07F2904D83F2C02D81C
:102308001078384310700133013201319D4211D0E9
:1023180006FA03F00004EFD47F29F4D83F2CF2D852
:10232800107801330132013108EA00009D4202F8B9
:10233800010CEDD1E14504F10104CAD1099ABDF8B7
:1023480028303F2A28BF3F227F2B28BF7F23ABF8A6
:102358000620ABF80430069A1378534505D112F8D5
:1023680001AF0692BAF1000F8CD10F23089A002111
:10237800284800934FF410135268CBF80430274BC9
:1023880016F060F8079B059A59781D7892F800A016
:102398005B680B910D93BAF1000F7AD00692AAF1FF
:1023A8002003DAB25E2A00F2FA87BBF804E00EEBEB
:1023B8000502802A0A9200F3F287BBF806200B99DF
:1023C80009920A44402A00F3EA8700294AD00B9A66
:1023D8006FF0004C099C02FB03F39C4413440D9AD4
:1023E800A2F1020902EB4C0C09EB43093CF8026F1D
:1023F800A5B304F007030127E20871469F400EF1D8
:1024080010037FB203EBC21200236FEA07085A4495
:1024180012E000BFAC050024F09A0108009B0108F7
:102428007F2904D83F2C02D8107838431070013324
:10243800013201319D4211D006FA03F00004EFD4B5
:102448007F29F4D83F2CF2D81078013301320131BA
:1024580008EA00009D4202F8010CEDD1E14504F1C3
:102468000104C3D1099ABDF828303F2A28BF3F226A
:102478007F2B28BF7F23ABF80620ABF80430069AE1
:102488001378534505D112F801AF0692BAF1000F3F
:1024980085D1089B0021A8485A680F2300934FF460
:1024A8004013CBF80430A54B15F0CCFF079B059AD9
:1024B8001C7892F800A05A785B6807920993BAF1E1
:1024C800000F77D0DDF81490AAF12003DAB25E2A63
:1024D80000F25D87BBF804E00EEB0402802A069246
:1024E80000F35587BBF80620079905920A44402A4D
:1024F80000F34D87002947D0079A6FF0004CCDF8BC
:1025080020A002FB03F3059D9C441344099A02EBA7
:102518004C0C023A02EB43039A463CF8026F6CB348
:1025280005F007030127EA0871469F400EF11003E2
:102538007FB203EBC21200236FEA07085A440BE08C
:102548007F2904D83F2D02D8107838431070013302
:1025580001320131A34211D006FA03F00004EFD48E
:102568007F29F4D83F2DF2D8107801330132013198
:1025780008EA0000A34202F8010CEDD1E24505F19A
:102588000105CAD1DDF820A0059ABDF818303F2A08
:1025980028BF3F227F2B28BF7F23ABF80620ABF84C
:1025A800043099F80030534504D119F801AFBAF155
:1025B800000F89D10FAC01214FF4B4730020DFF86C
:1025C80090814FF0B009A24600900C9A5C48CDE982
:1025D800013103236421FEF787FB4FF47A75002449
:1025E800022352469BF80C10009556488DF83C4043
:1025F8008DF83D9005F080FD022352469BF80C10A3
:10260800009550488DF83C408DF83D4005F074FD2C
:1026180010220095A8F1800502238DF83D2052462E
:102628009BF80C1047488DF83C4005F065FD4FF4C9
:102638007A7415F8016F4027022352469BF80C1054
:10264800404800948DF83C708DF83D6005F054FDCD
:10265800A845ECD109F1010908F180085FFA89F968
:10266800B9F1B80FB9D111B0BDE8F08FDFF8D0B02B
:102678004FF4B4730C9A6421584602940C3ACDE98D
:1026880000430323FEF730FB2B4A0F232146104655
:10269800089200932C4B5268CBF8044015F0D2FEF8
:1026A8002A4B059A1D7892F800A007935A785B6820
:1026B8000B920D93BAF1000F00F08680059B0693EC
:1026C800AAF12003DAB25E2A00F26586BBF804E0BC
:1026D8000EEB0502802A0A9200F35D86BBF80620FD
:1026E8000B9909920A44402A00F35586002953D0D1
:1026F8000B9A6FF0004C099C02FB03F39C441344B3
:102708000D9AA2F1020902EB4C0C09EB43093CF8C3
:10271800026F002D3CD004F007030127E208714640
:102728009F400EF110037FB203EBC21200236FEA41
:1027380007085A441AE000BFAC050024109B0108A2
:10274800A09B0724A89B0724209B010818010024AC
:102758002F9C07247F2904D83F2C02D810783843AF
:102768001070013301320131AB4211D006FA03F087
:102778000004EFD47F29F4D83F2CF2D81078013325
:102788000132013108EA0000AB4202F8010CEDD138
:10279800E14504F10104BAD1099ABDF828303F2A6D
:1027A80028BF3F227F2B28BF7F23ABF80620ABF83A
:1027B8000430069A1378534506D112F801AF0692F1
:1027C800BAF1000F7FF47CAF0F23089A00216F48FD
:1027D80000934FF440235268CBF804306C4B15F04B
:1027E80031FE079B059A59781D7892F800A05B681E
:1027F8000B910D93BAF1000F73D00692AAF1200342
:10280800DAB25E2A00F2DF85BBF804E00EEB0502BF
:10281800802A0A9200F3D785BBF806200B99099203
:102828000A44402A00F3CF85002943D00B9A6FF061
:10283800004C099C02FB03F39C4413440D9AA2F13B
:10284800020902EB4C0C09EB43093CF8026F6DB32B
:1028580004F007030127E20871469F400EF11003B8
:102868007FB203EBC21200236FEA07085A440BE059
:102878007F2904D83F2C02D81078384310700133D0
:1028880001320131AB4211D006FA03F00004EFD453
:102898007F29F4D83F2CF2D8107801330132013166
:1028A80008EA0000AB4202F8010CEDD1CC4504F176
:1028B8000104CAD1099ABDF828303F2A28BF3F220F
:1028C8007F2B28BF7F23ABF80620ABF80430069A8D
:1028D8001378534505D112F801AF0692BAF1000FEB
:1028E8008CD10F23089A0021284800934FF4C01375
:1028F8005268CBF80430274B15F0A4FD079B059AC6
:1029080059781D7892F800A05B680B910D93BAF185
:10291800000F7AD00692AAF12003DAB25E2A00F2FA
:102928004E85BBF804E00EEB0502802A0A9200F3FC
:102938004685BBF806200B9909920A44402A00F301
:102948003E8500294AD00B9A6FF0004C099C02FB87
:1029580003F39C4413440D9AA2F1020902EB4C0CB8
:1029680009EB43093CF8026FA5B304F007030127FC
:10297800E20871469F400EF110037FB203EBC212CA
:1029880000236FEA07085A4412E000BFAC05002490
:10299800309B0108409B01087F2904D83F2C02D8AE
:1029A800107838431070013301320131AB4211D035
:1029B80006FA03F00004EFD47F29F4D83F2CF2D8AC
:1029C800107801330132013108EA0000AB4202F805
:1029D800010CEDD1E14504F10104C3D1099ABDF818
:1029E80028303F2A28BF3F227F2B28BF7F23ABF800
:1029F8000620ABF80430069A1378534505D112F82F
:102A080001AF0692BAF1000F85D10F23089A002171
:102A1800BB4800934FF410135268CBF80430B94BFD
:102A280015F010FD079B059A59781D7892F800A0BB
:102A38005B680B910D93BAF1000F73D00692AAF15F
:102A48002003DAB25E2A00F29E84BBF804E00EEBA3
:102A58000502802A0A9200F39684BBF806200B9997
:102A680009920A44402A00F38E84002943D00B9A25
:102A78006FF0004C099C02FB03F39C4413440D9A2D
:102A8800A2F1020902EB4C0C09EB43093CF8026F76
:102A98006DB304F007030127E20871469F400EF169
:102AA80010037FB203EBC21200236FEA07085A44EF
:102AB8000BE07F2904D83F2C02D8107838431070D7
:102AC800013301320131AB4211D006FA03F00004A0
:102AD800EFD47F29F4D83F2CF2D810780133013293
:102AE800013108EA0000AB4202F8010CEDD1CC45F7
:102AF80004F10104CAD1099ABDF828303F2A28BF39
:102B08003F227F2B28BF7F23ABF80620ABF8043089
:102B1800069A1378534505D112F801AF0692BAF117
:102B2800000F8CD1089B002175485A680F23009329
:102B38004FF44013CBF80430734B15F083FC079B1C
:102B4800059A1D7892F800A05A785B680792099355
:102B5800BAF1000F77D0DDF81490AAF12003DAB2A9
:102B68005E2A00F20D84BBF804E00EEB0502802A11
:102B7800069200F30584BBF80620079905920A44DB
:102B8800402A00F3FD83002947D0079A6FF0004CD4
:102B9800CDF820A002FB03F3059C9C441344099A3A
:102BA80002EB4C0C023A02EB43039A463CF8026FE4
:102BB8006DB304F007030127E20871469F400EF148
:102BC80010037FB203EBC21200236FEA07085A44CE
:102BD8000BE07F2904D83F2C02D8107838431070B6
:102BE800013301320131AB4211D006FA03F000047F
:102BF800EFD47F29F4D83F2CF2D810780133013272
:102C0800013108EA0000AB4202F8010CEDD1E245BF
:102C180004F10104CAD1DDF820A0059ABDF81830E6
:102C28003F2A28BF3F227F2B28BF7F23ABF80620EF
:102C3800ABF8043099F80030534504D119F801AFC6
:102C4800BAF1000F89D10FAC01214FF4B473002001
:102C5800DFF8C0804FF0B009A24600900C9A2B48CC
:102C6800CDE9013103236421FEF73EF84FF47A756C
:102C78000024022352469BF80C10009524488DF836
:102C88003C408DF83D9005F037FA022352469BF8F8
:102C98000C1000951E488DF83C408DF83D4005F01D
:102CA8002BFA10220095A8F1800502238DF83D200B
:102CB80052469BF80C1016488DF83C4005F01CFA5B
:102CC8004FF47A7415F8016F4027022352469BF897
:102CD8000C100F4800948DF83C708DF83D6005F09D
:102CE8000BFA4545ECD109F1010908F180085FFAB2
:102CF80089F9B9F1B80FB9D111B0BDE8F08F00BFAB
:102D0800AC050024509B0108609B0108A09B072488
:102D1800A89B07242F9C0724714B2146DFF8D0B1CC
:102D2800184608930F23CBF8044000936D4B426874
:102D380015F088FB6C4B059A1D7892F800A0079354
:102D48005A785B680B920D93BAF1000F74D0059B0B
:102D58000693AAF12003DAB25E2A00F23883BBF8A0
:102D680004E00EEB0502802A0A9200F33083BBF8D8
:102D780006200B9909920A44402A00F32883002967
:102D880043D00B9A6FF0004C099C02FB03F39C4460
:102D980013440D9AA2F1020902EB4C0C09EB43090A
:102DA8003CF8026F6DB304F007030127E20871468F
:102DB8009F400EF110037FB203EBC21200236FEAAB
:102DC80007085A440BE07F2904D83F2C02D8107812
:102DD80038431070013301320131AB4211D006FA89
:102DE80003F00004EFD47F29F4D83F2CF2D81078F0
:102DF80001330132013108EA0000AB4202F8010C4C
:102E0800EDD1E14504F10104CAD1099ABDF8283091
:102E18003F2A28BF3F227F2B28BF7F23ABF80620FD
:102E2800ABF80430069A1378534505D112F801AF70
:102E38000692BAF1000F8CD10F23089A0021284876
:102E480000934FF440235268CBF80430274B15F019
:102E5800F9FA079B059A59781D7892F800A05B68E3
:102E68000B910D93BAF1000F7DD00692AAF12003C1
:102E7800DAB25E2A00F2B782BBF804E00EEB050274
:102E8800802A0A9200F3AF82BBF806200B990992B8
:102E98000A44402A00F3A78200294DD00B9A6FF00C
:102EA800004C099C02FB03F39C4413440D9AA2F1C5
:102EB800020902EB4C0C09EB43093CF8026FBDB365
:102EC80004F007030127E20871469F400EF1100342
:102ED8007FB203EBC21200236FEA07085A4415E0D9
:102EE800AC050024809A010818010024909A010872
:102EF800A09B07247F2904D83F2C02D81078384398
:102F08001070013301320131AB4211D006FA03F0DF
:102F18000004EFD47F29F4D83F2CF2D8107801337D
:102F28000132013108EA0000AB4202F8010CEDD190
:102F3800E14504F10104C0D1099ABDF828303F2ABF
:102F480028BF3F227F2B28BF7F23ABF80620ABF892
:102F58000430069A1378534505D112F801AF06924A
:102F6800BAF1000F82D10F23089A00216E4800930E
:102F78004FF4C0135268CBF804306C4B15F062FA6A
:102F8800079B059A59781D7892F800A05B680B9109
:102F98000D93BAF1000F73D00692AAF12003DAB2AA
:102FA8005E2A00F21D82BBF804E00EEB0502802ABF
:102FB8000A9200F31582BBF806200B9909920A447D
:102FC800402A00F30D82002943D00B9A6FF0004C81
:102FD800099C02FB03F39C4413440D9AA2F10209D5
:102FE80002EB4C0C09EB43093CF8026F6DB304F09B
:102FF80007030127E20871469F400EF110037FB2D4
:1030080003EBC21200236FEA07085A440BE07F293A
:1030180004D83F2C02D8107838431070013301329D
:103028000131AB4211D006FA03F00004EFD47F2936
:10303800F4D83F2CF2D8107801330132013108EA74
:103048000000AB4202F8010CEDD1E14504F10104A6
:10305800CAD1099ABDF828303F2A28BF3F227F2BC2
:1030680028BF7F23ABF80620ABF80430069A137804
:10307800534505D112F801AF0692BAF1000F8CD171
:103088000F23089A0021284800934FF41013526820
:10309800CBF80430264B15F0D5F9079B059A5978DB
:1030A8001D7892F800A05B680B910D93BAF1000FA0
:1030B80079D00692AAF12003DAB25E2A00F28D8155
:1030C800BBF804E00EEB0502802A0A9200F3858122
:1030D800BBF806200B9909920A44402A00F37D8127
:1030E800002949D00B9A6FF0004C099C02FB03F3AE
:1030F8009C4413440D9AA2F1020902EB4C0C09EB13
:1031080043093CF8026F9DB304F007030127E20866
:1031180071469F400EF110037FB203EBC2120023E9
:103128006FEA07085A4411E0AC050024A09A010888
:10313800B09A01087F2904D83F2C02D81078384368
:103148001070013301320131AB4211D006FA03F09D
:103158000004EFD47F29F4D83F2CF2D8107801333B
:103168000132013108EA0000AB4202F8010CEDD14E
:10317800E14504F10104C4D1099ABDF828303F2A79
:1031880028BF3F227F2B28BF7F23ABF80620ABF850
:103198000430069A1378534505D112F801AF069208
:1031A800BAF1000F86D1089B002190485A680F2376
:1031B80000934FF44013CBF804308D4B15F042F9CF
:1031C800079B059A1D7892F800A05A785B680792C9
:1031D8000993BAF1000F77D0DDF81490AAF1200313
:1031E800DAB25E2A00F2F680BBF804E00EEB0502C4
:1031F800802A069200F3EE80BBF806200799059214
:103208000A44402A00F3E680002947D0079A6FF065
:10321800004CCDF820A002FB03F3059C9C4413440A
:10322800099A02EB4C0C023A02EB43039A463CF82B
:10323800026F6DB304F007030127E20871469F404F
:103248000EF110037FB203EBC21200236FEA0708E6
:103258005A440BE07F2904D83F2C02D81078384311
:103268001070013301320131AB4211D006FA03F07C
:103278000004EFD47F29F4D83F2CF2D8107801331A
:103288000132013108EA0000AB4202F8010CEDD12D
:10329800D44504F10104CAD1DDF820A0059ABDF88F
:1032A80018303F2A28BF3F227F2B28BF7F23ABF847
:1032B8000620ABF8043099F80030534504D119F8CA
:1032C80001AFBAF1000F89D10FAC01214FF4B473EB
:1032D8000020DFF828814FF0B009A24600900C9A30
:1032E8004448CDE9013103236421FDF7FDFC4FF487
:1032F8007A750024022352469BF80C1000953E482C
:103308008DF83D908DF83C4004F0F6FE02235246BD
:103318009BF80C10009538488DF83C408DF83D40DE
:1033280004F0EAFE1022009502239BF80C108DF899
:103338003D2052463048A8F180058DF83C4004F005
:10334800DBFE4FF47A7415F8016F402702235246CA
:103358009BF80C10284800948DF83C708DF83D605F
:1033680004F0CAFE4545ECD109F1010908F18008CD
:103378005FFA89F9B9F1B80FB9D111B0BDE8F08F8A
:103388004FF0000A56E44FF0000AFFF7C1BB4FF0B8
:10339800000AFFF706B94FF0000AFFF70ABA4FF024
:1033A800000AFFF76CB84FF0000AFEF7D4BF4FF0E1
:1033B800000AFEF742BF4FF0000AFEF79FBE4FF02B
:1033C800000AFFF718BB4FF0000AFFF780BA4FF06A
:1033D800000A27E54FF0000A6DE74FF0000AD8E62B
:1033E8004FF0000A42E64FF0000AB2E5AC050024AF
:1033F800C09A0108A09B0724A89B07242F9C072498
:10340800F0B5964D8BB01021002405F108063C2339
:10341800934A4FF47A778DF82010304669448DF836
:1034280024302B73CDE90442CDE9064404F0CEFDE7
:10343800AE2303AA297B8DF80D303046022300976E
:103448008DF80C4004F058FED52303AA297B30469A
:103458008DF80D30022300978DF80C4004F04CFED7
:10346800802303AA297B30468DF80D30022300976C
:103478008DF80C4004F040FEA82303AA297B3046AF
:103488008DF80D30022300978DF80C4004F034FEBF
:103498003F2303AA297B30468DF80D30022300977D
:1034A8008DF80C4004F028FEDA2303AA297B304665
:1034B8008DF80D30022300978DF80C4004F01CFEA7
:1034C800122303AA297B30468DF80D30022300977A
:1034D8008DF80C4004F010FED32303AA297B304654
:1034E8008DF80D30022300978DF80C4004F004FE8F
:1034F80003AA297B0223304600978DF80C408DF8EB
:103508000D4004F0F9FD402303AA297B30468DF8CD
:103518000D30022300978DF80C4004F0EDFDA62332
:1035280003AA297B30468DF80D30022300978DF8C9
:103538000C4004F0E1FDA42303AA297B30468DF852
:103548000D30022300978DF80C4004F0D5FD8D2333
:1035580003AA297B30468DF80D30022300978DF899
:103568000C4004F0C9FD142303AA297B30468DF8CA
:103578000D30022300978DF80C4004F0BDFDA12307
:1035880003AA297B30468DF80D30022300978DF869
:103598000C4004F0B1FDC82303AA297B30468DF8FE
:1035A8000D30022300978DF80C4004F0A5FD81230F
:1035B80003AA297B30468DF80D30022300978DF839
:1035C8000C4004F099FD8F2303AA297B30468DF81F
:1035D8000D30022300978DF80C4004F08DFDD9239F
:1035E80003AA297B30468DF80D30022300978DF809
:1035F8000C4004F081FD252303AA297B30468DF871
:103608000D30022300978DF80C4004F075FDDB2384
:1036180003AA297B30468DF80D30022300978DF8D8
:103628000C4004F069FD342303AA297B30468DF849
:103638000D30022300978DF80C4004F05DFD8DF8E5
:103648000C4003AA297B0223AF24304600978DF84B
:103658000D4004F051FD0BB0F0BD00BFA09B072446
:1036680001080109894B8A4893ED000A70B513F0E7
:10367800D7F9884B864893ED000A13F0E5F9864B95
:10368800834893ED000A13F0B7F9844B804893ED13
:10369800000A13F0F5F9824B824893ED000A13F003
:1036A80085F8814B7F4893ED000A13F0A7F87F4B0C
:1036B8007C4893ED000A13F023F87D4B794893ED8D
:1036C800000A13F039F87B4B7B4893ED000A13F09E
:1036D80079FD7A4B784893ED000A13F03FFD784B5B
:1036E800754893ED000A13F01DFC764B724893ED74
:1036F800000A13F049FC744B6F48D3ED007A734C01
:10370800FDEEE77A17EE901A13F000FC704B94ED7B
:103718000E7AD3ED007A87EE270AC4ED027AB1EE6D
:10372800400A15F013FB94ED0D7AD4ED027A84ED7E
:103738000A0A87EE270AB1EE400A15F007FB654A28
:10374800B7EE007A644B92ED006AD3ED006AC7EEDB
:10375800067AD4ED0E4A614B84ED080A1B6884EDA5
:10376800006A84EEA65A2361C4ED036A77EE405AD4
:1037780077EEC77A67EEA57AB1EE450AC4ED097A05
:1037880015F0E4FA564A94F83C30D2ED007A84ED0C
:103798000B0AC4ED017A6BB194ED006AB6EE007ABB
:1037A800C7EE866A77EEE67AF0EEE77A67EE877A12
:1037B800C4ED047A4B4ADFED4C7A92ED007ADFEDE6
:1037C8004B6A27EE277A4A494A4B91ED000AC7EE21
:1037D800267A494A49484A4C4A4E4B4DBDEEE77A4B
:1037E80017EE101AF8EEC76A994277EEE67A28BF04
:1037F8001946C2ED007A916014F032F8434B3F4805
:1038080093ED000A14F022F8414B424893ED000A68
:1038180013F00CFA404B414AD3ED007A2468404B30
:10382800FDEEE77A3F4940481268D6F800C00068C4
:103838001C600C683D495A603D4A3E4BC1F800C0C7
:1038480048602968C2ED027A54603B483B4A996156
:103858003B490468126891ED000A3A481A615C61B4
:1038680014F0F8FA384B374893ED000A14F000FBCF
:10387800364B344893ED000A14F0D6FA344B3148ED
:1038880093ED000ABDE8704014F0D6BA5400002445
:10389800408B07245C0000245800002450000024BA
:1038A8000800002434120624100000240C00002410
:1038B8001400002480000024905D06248C0000245D
:1038C8007C00002484000024880000249C11062425
:1038D8001C000024240000242800002420000024C8
:1038E8002C0000244000002400803B4700007A445C
:1038F800B0000024FF76010000E86EC3E41106243E
:1039080064000024AC000024C4000024B400002497
:10391800480000242812062404000024680000241B
:10392800DC11062434000024A80000240806002422
:103938001C1206244C110624C0000024BC000024DC
:1039480094000024649A0724980000249C00002412
:10395800A000002408B58E4B1B780D2B15D8DFE886
:1039680013F00E007500B9003901EB01AB025504E4
:10397800A10313053F03B404E103FF0518008548BC
:1039880003F0AAFC844B83ED000ABDE80840FFF76A
:1039980069BE824803F0A0FCB5EE400AF0EE407A1A
:1039A800F1EE10FA00F13E87B1EEE70A7C4B9FED8D
:1039B8007D7AD3ED007A77EEC07AF0EEE77AF4EE0E
:1039C800C77AF1EE10FA08DDDFED777A83ED000AA9
:1039D80030EE270A754A82ED000A6E4803F07CFC37
:1039E8006D4B9FED707AD3ED007A77EEC07AF0EEEA
:1039F800E77AF4EEC77AF1EE10FA00F3F0866C4835
:103A080003F06AFCB5EE400AF0EE407AF1EE10FAE7
:103A180000F1B887B1EEE70A664B9FED627AD3ED05
:103A2800007A77EEC07AF0EEE77AF4EEC77AF1EE34
:103A380010FAAADD9FED607ADFED5B7A5F4AE0EE6F
:103A4800077A83ED000AC2ED007A9EE7534803F037
:103A580043FCB5EE400AF0EE407AF1EE10FA00F1C0
:103A6800DD86B1EEE70A4E4B9FED4E7AD3ED007A34
:103A780077EEC07AF0EEE77AF4EEC77AF1EE10FA54
:103A88000ADDB0EE007ADFED487A4D4A83ED000A90
:103A9800E0EE077AC2ED007A3E4803F01DFC3E4B8B
:103AA8009FED407AD3ED007A77EEC07AF0EEE77AB0
:103AB800F4EEC77AF1EE10FA7FF767AFB0EE007A4E
:103AC800DFED397A3F4A83ED000AE0EE077AC2ED6E
:103AD800007A5AE7314803F0FFFBB5EE400AF0EEF2
:103AE800407AF1EE10FA00F1A586B1EEE70A2C4B08
:103AF8009FED2C7AD3ED007A77EEC07AF0EEE77A74
:103B0800F4EEC77AF1EE10FA0ADDF7EE007A9FEDCF
:103B18002E7A2E4A83ED000AE0EE077AC2ED007A8B
:103B28001C4803F0D9FB1C4B9FED1E7AD3ED007A9D
:103B380077EEC07AF0EEE77AF4EEC77AF1EE10FA93
:103B480000F342861A4803F0C7FBB5EE400AF0EED0
:103B5800407AF1EE10FA00F11187B1EEE70A154B41
:103B68009FED107AD3ED007A77EEC07AF0EEE77A1F
:103B7800F4EEC77AF1EE10FA7FF707AFDFED0A7AB5
:103B880083ED000A30EE270A114A82ED000AFCE6AE
:103B9800FC9F0724EC040024B49F0724CC040024D1
:103BA800700000240AD7A33B00000000BC000024DA
:103BB8000C050024B89F07240000C842C400002454
:103BC800740000247800002400E0F9444000002438
:103BD80044000024A24803F07FFBB5EE400AF0EE53
:103BE800407AF1EE10FA00F12186B1EEE70A9D4B1A
:103BF8009FED9D7AD3ED007A77EEC07AF0EEE77A02
:103C0800F4EEC77AF1EE10FA0ADD9FED987ADFED4F
:103C1800987A984AE0EE077A83ED000AC2ED007AB6
:103C2800954803F059FB954B9FED8F7AD3ED007AB9
:103C380077EEC07AF0EEE77AF4EEC77AF1EE10FA92
:103C480000F3B7858E4803F047FBB5EE400AF0EE67
:103C5800407AF1EE10FA00F13D86B1EEE70A894BA1
:103C68009FED817AD3ED007A77EEC07AF0EEE77AAD
:103C7800F4EEC77AF1EE10FA0ADD9FED7C7ADFEDFB
:103C88007C7A814AE0EE077A83ED000AC2ED007A79
:103C98007E4803F021FB7E4B9FED737AD3ED007ACB
:103CA80077EEC07AF0EEE77AF4EEC77AF1EE10FA22
:103CB80000F36E85774803F00FFBB5EE400AF0EE8F
:103CC800407AF1EE10FA00F10186B1EEE70A724B84
:103CD8009FED657AD3ED007A77EEC07AF0EEE77A59
:103CE800F4EEC77AF1EE10FA00F347856B4803F05B
:103CF800F3FAB5EE400AF0EE407AF1EE10FA00F170
:103D0800E185B1EEE70A664B9FED577AD3ED007A6D
:103D180077EEC07AF0EEE77AF4EEC77AF1EE10FAB1
:103D28007FF733AEDFED5F7A83ED000A30EE270AC6
:103D38005D4A82ED000A28E6494803F0CDFAB5EE5F
:103D4800400AF0EE407AF1EE10FA00F17B85B1EE10
:103D5800E70A444B9FED447AD3ED007A77EEC07AB8
:103D6800F0EEE77AF4EEC77AF1EE10FA0ADD9FED8D
:103D78003F7ADFED3F7A4D4AE0EE077A83ED000A9D
:103D8800C2ED007A3C4803F0A7FA3C4B9FED367A27
:103D9800D3ED007A77EEC07AF0EEE77AF4EEC77AE0
:103DA800F1EE10FA00F3DE84354803F095FAB5EE2B
:103DB800400AF0EE407AF1EE10FA00F17F85B1EE9C
:103DC800E70A304B9FED287AD3ED007A77EEC07A78
:103DD800F0EEE77AF4EEC77AF1EE10FA08DDDFEDDF
:103DE800317A83ED000A30EE270A314A82ED000A63
:103DF800264803F071FA264B9FED1B7AD3ED007A23
:103E080077EEC07AF0EEE77AF4EEC77AF1EE10FAC0
:103E180000F39B841F4803F05FFAB5EE400AF0EE0A
:103E2800407AF1EE10FA00F14585B1EEE70A1A4B37
:103E38009FED0D7AD3ED007A77EEC07AF0EEE77A4F
:103E4800F4EEC77AF1EE10FA7FF79FADDFED157A41
:103E580083ED000A30EE270A164A82ED000A94E53F
:103E6800CC040024700000240AD7A33B0AD76F4172
:103E78000AD7233C8C000024EC040024B49F0724B8
:103E88000C050024B89F0724840000242C05002476
:103E9800BC9F07244C050024C09F07246C05002400
:103EA800C49F072400000000900000241400002490
:103EB8001000002418000024BC4803F00DFAB5EEE9
:103EC800400AF0EE407AF1EE10FA00F1B784B1EE54
:103ED800E70AB74B9FEDB77AD3ED007A77EEC07A51
:103EE800F0EEE77AF4EEC77AF1EE10FA0ADD9FED0C
:103EF800B27ADFEDB27AB24AE0EE077A83ED000AD1
:103F0800C2ED007AAF4803F0E7F9AF4B9FEDA97A0D
:103F1800D3ED007A77EEC07AF0EEE77AF4EEC77A5E
:103F2800F1EE10FA00F3EB83A84803F0D5F9B5EEEB
:103F3800400AF0EE407AF1EE10FA00F1B084B1EEEA
:103F4800E70AA34B9FED9B7AD3ED007A77EEC07A10
:103F5800F0EEE77AF4EEC77AF1EE10FA08DDDFED5D
:103F68009D7A83ED000A30EE270A9B4A82ED000A0B
:103F78009A4803F0B1F99A4B9FED8E7AD3ED007A07
:103F880077EEC07AF0EEE77AF4EEC77AF1EE10FA3F
:103F980000F3A983934803F09FF9B5EE400AF0EEC9
:103FA800407AF1EE10FA00F17684B1EEE70A8E4B12
:103FB8009FED807AD3ED007A77EEC07AF0EEE77A5B
:103FC800F4EEC77AF1EE10FA7FF7DFACDFED817A15
:103FD80083ED000A30EE270A844A82ED000AD4E411
:103FE800724803F079F9B5EE400AF0EE407AF1EE46
:103FF80010FA00F13A84B1EEE70A6D4B9FED6D7A45
:10400800D3ED007A77EEC07AF0EEE77AF4EEC77A6D
:10401800F1EE10FA0EDDB3EE007ADFED6E7A744A37
:1040280083ED000AE0EE077AFDEEE77AF8EEE77A2C
:10403800C2ED007A634803F04FF9634B9FED5D7A58
:10404800D3ED007A77EEC07AF0EEE77AF4EEC77A2D
:10405800F1EE10FA00F369835C4803F03DF9B5EE20
:10406800400AF0EE407AF1EE10FA00F11F84B1EE4A
:10407800E70A574B9FED4F7AD3ED007A77EEC07A77
:10408800F0EEE77AF4EEC77AF1EE10FA7FF77DAC3E
:10409800DFED507A83ED000A30EE270A554A82EDAB
:1040A800000A72E4414803F017F9B5EE400AF0EE51
:1040B800407AF1EE10FA00F1D583B1EEE70A3C4BF5
:1040C8009FED3C7AD3ED007A77EEC07AF0EEE77A8E
:1040D800F4EEC77AF1EE10FA08DDDFED3E7A83EDF3
:1040E800000A30EE270A444A82ED000A354803F0F8
:1040F800F3F8354B9FED2F7AD3ED007A77EEC07A3F
:10410800F0EEE77AF4EEC77AF1EE10FA7FF73DACFD
:10411800DFED307A83ED000A30EE270A374A82ED68
:10412800000A32E4214803F0D7F8B5EE400AF0EE71
:10413800407AF1EE10FA00F19F83B1EEE70A1C4BCA
:104148009FED1C7AD3ED007A77EEC07AF0EEE77A2D
:10415800F4EEC77AF1EE10FA08DDDFED1E7A83ED92
:10416800000A30EE270A264A82ED000A154803F0B5
:10417800B3F8154B9FED0F7AD3ED007A77EEC07A3E
:10418800F0EEE77AF4EEC77AF1EE10FA7FF7FDABBE
:104198009FED1C7ADFED0F7A1B4AE0EE077A83ED7C
:1041A800000AC2ED007AFFF7F0BB00BFCC04002480
:1041B800700000240AD7A33B85EB9F410AD7233C14
:1041C8005C000024EC040024B49F07240C050024A0
:1041D800B89F072400000000580000242C05002484
:1041E800BC9F07244C050024C09F072460000024BE
:1041F8000400002438000024480000244C00002457
:10420800AC0000240080BB46A8000024B84803F096
:1042180063F8B5EE400AF0EE407AF1EE10FA00F1DC
:104228002883B1EEE70AB34B9FEDB37AD3ED007A5A
:1042380077EEC07AF0EEE77AF4EEC77AF1EE10FA8C
:104248000ADD9FEDAE7ADFEDAE7AAE4AE0EE077A90
:1042580083ED000AC2ED007AAB4803F03DF8AB4BA2
:104268009FEDA57AD3ED007A77EEC07AF0EEE77A83
:10427800F4EEC77AF1EE10FA00F32B82A44803F0AB
:104288002BF8B5EE400AF0EE407AF1EE10FA00F1A4
:10429800FF82B1EEE70A9F4B9FED977AD3ED007A44
:1042A80077EEC07AF0EEE77AF4EEC77AF1EE10FA1C
:1042B8007FF76BABDFED987A83ED000A30EE270AC3
:1042C800964A82ED000AFFF760BB894803F004F8BC
:1042D800B5EE400AF0EE407AF1EE10FA00F1B9823C
:1042E800B1EEE70A834B9FED847AD3ED007A77EE3F
:1042F800C07AF0EEE77AF4EEC77AF1EE10FA0ADD4A
:104308009FED877ADFED877A874AE0EE077A83EDBB
:10431800000AC2ED007A7C4802F0DEFF7B4B9FED7D
:10432800767AD3ED007A77EEC07AF0EEE77AF4EE9B
:10433800C77AF1EE10FA00F3EC81754802F0CCFF71
:10434800B5EE400AF0EE407AF1EE10FA00F1AB82D9
:10435800B1EEE70A6F4B9FED687AD3ED007A77EEFE
:10436800C07AF0EEE77AF4EEC77AF1EE10FA7FF74A
:104378000CABDFED697A83ED000A30EE270A6B4A51
:1043880082ED000AFFF701BB594802F0A5FFB5EE20
:10439800400AF0EE407AF1EE10FA00F15782B1EEE1
:1043A800E70A544B9FED547AD3ED007A77EEC07A42
:1043B800F0EEE77AF4EEC77AF1EE10FA0ADDF7EEDE
:1043C800007A9FED5B7A5B4A83ED000AE0EE077A9C
:1043D800C2ED007A4C4802F07FFF4C4B9FED467AC5
:1043E800D3ED007A77EEC07AF0EEE77AF4EEC77A8A
:1043F800F1EE10FA00F36181454802F06DFFB5EE69
:10440800400AF0EE407AF1EE10FA00F13E82B1EE89
:10441800E70A404B9FED387AD3ED007A77EEC07A01
:10442800F0EEE77AF4EEC77AF1EE10FA0ADD9FEDC6
:10443800427ADFED427A424AE0EE077A83ED000ADB
:10444800C2ED007A3F4802F047FF3F4B9FED2A7AC2
:10445800D3ED007A77EEC07AF0EEE77AF4EEC77A19
:10446800F1EE10FA00F31D81384802F035FFB5EE81
:10447800400AF0EE407AF1EE10FA00F10382B1EE54
:10448800E70A334B9FED1C7AD3ED007A77EEC07ABA
:10449800F0EEE77AF4EEC77AF1EE10FA00F3F58061
:1044A8002C4802F019FFB5EE400AF0EE407AF1EE22
:1044B80010FA00F1E481B1EEE70A274B9FED0E7A7E
:1044C800D3ED007A77EEC07AF0EEE77AF4EEC77AA9
:1044D800F1EE10FA7FF759AADFED0F7A83ED000AA3
:1044E80030EE270A1D4A82ED000AFFF74EBA00BFD8
:1044F800CC040024700000240AD7A33B0AD76F41DC
:104508000AD7233CB4000024EC040024B49F0724F9
:104518000C050024B89F072400000000B800002400
:1045280000002042000020C2640000246C00002427
:1045380000001C4224000024E7FB1F416F12833A4D
:10454800280000242C050024BC9F07244C050024C7
:10455800C09F07246C050024C49F07243000002452
:10456800DE4802F0B9FEB5EE400AF0EE407AF1EE10
:1045780010FA00F17481B1EEE70AD94B9FEDD97AB0
:10458800D3ED007A77EEC07AF0EEE77AF4EEC77AE8
:10459800F1EE10FA08DDDFEDD47A83ED000A30EE93
:1045A800270AD24A82ED000AD14802F095FED14B83
:1045B8009FEDCC7AD3ED007A77EEC07AF0EEE77A09
:1045C800F4EEC77AF1EE10FA00F31E81CA4802F041
:1045D80083FEB5EE400AF0EE407AF1EE10FA00F1F3
:1045E8003B81B1EEE70AC54B9FEDBE7AD3ED007A69
:1045F80077EEC07AF0EEE77AF4EEC77AF1EE10FAC9
:104608000ADDF3EE047A9FEDBE7ABE4A83ED000A16
:10461800E0EE077AC2ED007ABB4802F05DFEBB4BC4
:104628009FEDB07AD3ED007A77EEC07AF0EEE77AB4
:10463800F4EEC77AF1EE10FA00F3DC80B44802F029
:104648004BFEB5EE400AF0EE407AF1EE10FA00F1BA
:104658009D81B1EEE70AAF4B9FEDA27AD3ED007AC8
:1046680077EEC07AF0EEE77AF4EEC77AF1EE10FA58
:104678007FF78BA9DFED9C7A83ED000A30EE270ADD
:10468800A54A82ED000AFFF780B99FEDA47ADFED15
:10469800967AA34AE0EE077A83ED000AC2ED007A23
:1046A800FEE69FEDA07ADFED907A9F4AE0EE077A6A
:1046B80083ED000AC2ED007AD6E69FED9C7ADFED25
:1046C8009C7A9C4AE0EE077A83ED000AC2ED007AF4
:1046D80092E6DFED857A83ED000A30EE270A964AE6
:1046E80082ED000ACAE59FED957ADFED957A954A45
:1046F800E0EE077A83ED000AC2ED007A4AE4DFEDC6
:104708007A7A83ED000A30EE270A8F4A82ED000A92
:104718000AE4B2EE047ADFED747A8C4A83ED000A7B
:10472800E0EE077AC2ED007A07E69FED897ADFEDC1
:104738006E7A884AE0EE077A83ED000AFDEEE77AA2
:10474800F8EEE77AC2ED007A86E4B3EE0E7A824A92
:10475800F3EE047A83ED000AE0EE077AC2ED007A00
:10476800FFF758BBDFED607A83ED000A30EE270AC9
:104778007A4A82ED000AFFF717BBDFED5B7A83ED1B
:10478800000A30EE270A764A82ED000AFFF7AEBA31
:10479800B1EE0C7A734AF7EE007A83ED000AE0EE88
:1047A800077AFDEEE77AF8EEE77AC2ED007AFFF7CE
:1047B80081BADFED4D7A83ED000A30EE270A6A4AA6
:1047C80082ED000AFFF73EBADFED477A83ED000A73
:1047D80030EE270A654A82ED000AFFF7B3B9DFED2C
:1047E800427A83ED000A30EE270A614A82ED000A18
:1047F800FFF705B9DFED3C7A83ED000A30EE270AB2
:104808005C4A82ED000A19E7DFED377A83ED000A8A
:1048180030EE270A584A82ED000AD7E614F0F2FD76
:10482800FFF721B914F0EEFDFFF7C0B814F0EAFD68
:10483800FFF7DDB914F0E6FDFFF759B914F0E2FD12
:10484800FFF747BB14F0DEFDFFF783BA14F0DAFD7B
:10485800A7E514F0D7FD45E514F0D4FDC3E614F040
:10486800D1FD8AE614F0CEFD29E414F0CBFDFFF764
:10487800C4BB14F0C7FDD6E414F0C4FD5FE414F023
:10488800C1FD1AE614F0BEFDFBE514F0BBFDC0E562
:1048980014F0B8FDFFE414F0B5FDFFF788BB14F081
:1048A800B1FDFFF74EBB14F0ADFD53E514F0AAFDC2
:1048B800FFF7DFBB14F0A6FDFFF7B9BA14F0A2FDAD
:1048C800FFF77FBA14F09EFDFFF71DBA14F09AFDAA
:1048D800FFF7FDB914F096FDFFF7C1B9CC04002429
:1048E800700000240AD7A33B0000000098000024B1
:1048F800EC040024B49F07240C050024B89F072467
:1049080000106A469C0000242C050024BC9F072444
:104918004C050024C09F0724A40000240000A0C266
:104928002C0000240000A04220000024E7FB1F41C7
:104938006F12833A1C000024B00000240AD76F418C
:104948000AD7233C500000245400002468000024A7
:1049580000803B4734000024080000240C00002499
:1049680080000024880000247C0000243C000024EF
:10497800C0000024A00000249400002414F042FD8C
:10498800FFF7EDB814F03EFDFFF746B814F03AFD16
:1049980061E600BF2DE9F04FBA4E0546D6E900178B
:1049A8002DED028BB94285B08DED030A00F0BA8176
:1049B8000C463B4654F8042B013A0B2A1CD8DFE876
:1049C80012F00F01EC00D600C000AA0094007E008F
:1049D8006800520040002A000C00994203D00B687E
:1049E8000C2B00F0CE8195ED000AA74811F064FB6E
:1049F80085ED000AD6E90013A742DBD1994200F001
:104A08009181A24B1B78002B00F0748105B0BDEC9E
:104A1800028BBDE8F08F9942DFF8A88203D00B68BB
:104A28000B2B00F0B181D5ED008AB7EE008AD8EDE6
:104A3800007AB0EE680A964838EE678A12F0F2FFFC
:104A4800C0E0994203D00B680A2B00F0B8812B46CE
:104A580029462A468F48009512F02AFDA742D6E932
:104A68000013A7D1CAE79942DFF85C8203D00B682C
:104A7800092B00F0B181D5ED008AB7EE008AD8ED98
:104A8800007AB0EE680A844838EE678A12F004FFAC
:104A980098E09942DFF8348203D00B68082B00F0C5
:104AA800A981D5ED008AB7EE008AD8ED007AB0EE7C
:104AB800680A7A4838EE678A11F0D6FB82E0994294
:104AC800DFF80C8203D00B68072B00F0A181D5ED2D
:104AD800008AB7EE008AD8ED007AB0EE680A70480E
:104AE80038EE678A11F01CFA6CE09942DFF8E4812D
:104AF80003D00B68062B00F09981D5ED008AB7EE3C
:104B0800008AD8ED007AB0EE680A664838EE678AFF
:104B180012F056F856E09942DFF8BC8103D00B68D2
:104B2800052B00F09181D5ED008AB7EE008AD8ED0B
:104B3800007AB0EE680A5C4838EE678A12F074FEB4
:104B480040E09942DFF8948103D00B68042B00F011
:104B58008981D5ED008AB7EE008AD8ED007AB0EEEB
:104B6800680A524838EE678A11F0C6FE2AE0994270
:104B7800DFF86C8103D00B68032B00F08181D5ED41
:104B8800008AB7EE008AD8ED007AB0EE680A484885
:104B980038EE678A11F07CFC14E09942DFF8448112
:104BA80003D00B68022B00F07981B7EE008AD5EDAF
:104BB800008AD8ED007AB0EE680A3E4838EE678A77
:104BC80012F00AF9D8ED007AA742316820EE270AD8
:104BD8007368A8EE880A85ED000A7FF4EBAE0DE74E
:104BE80035489942DFF800C1DFF80081D0ED006A4E
:104BF800D0E901E27244ACFB02BA02F101094FEAC2
:104C0800DA2A08FB1A2200EB8202D2ED037AACFB07
:104C180009A24FEAD22208FB129900EB890999ED03
:104C2800037A37EE677AE7EE267A03D00A68012A14
:104C380000F08480214AA74295ED007A92ED006A3F
:104C480000EB8E0277EE276ADFF8A4C0A6EE277A7B
:104C580082ED037A1A4AD5ED007A72449CED007A07
:104C6800DFF884C0E7EE267AACFB02ECDFF87CE0E4
:104C78004FEADC2C0EFB1C224260C5ED007A7FF463
:104C880099AEBBE600A007244C1106240CA007240B
:104C9800649A072408060024DC1106241C12062442
:104CA8009C11062428120624E4110624408B0724AC
:104CB80034120624905D062400E86EC33C000024EC
:104CC800FF760100A40000246C00002438000024B2
:104CD800300000244C000024B800002460000024A8
:104CE8001800002490000024F119760500770100CF
:104CF80044000024724B95ED008AD3ED007A714888
:104D080028EE278AB0EE480AFCF71CFF6E4BD3ED5D
:104D1800007AA0EE278A85ED008A05B0BDEC028BEB
:104D2800BDE8F08F694B1B78002B00F0C580039B12
:104D38002B6005B0BDEC028BBDE8F08F644AA7423A
:104D48009DED037A92ED006A00EB8E0277EE276AFA
:104D5800A6EE277A82ED037A5E4AD5ED007A724490
:104D6800ACFB02EC4FEADC2C08FB1C2242605A4ADE
:104D780092ED007AE7EE267AC5ED007A7FF41AAE56
:104D88003CE69DED030A30E6B7EE008ADDED038AC6
:104D9800D8ED007AB0EE680A504838EE678A12F00B
:104DA80041FED8ED007AA742316820EE270A7368E1
:104DB800A8EE280A85ED000A7FF4FCAD1EE603AADA
:104DC8002B4647481146009512F072FBA742D6E9D8
:104DD80000137FF4EFAD11E6DDED038AB7EE008A2C
:104DE800D8ED007AB0EE680A3E4838EE678A12F0CD
:104DF80053FDD6E7DDED038AB7EE008AD8ED007AD9
:104E0800B0EE680A384838EE678A11F02DFAC8E71C
:104E1800DDED038AB7EE008AD8ED007AB0EE680AB5
:104E2800324838EE678A11F07BF8BAE7DDED038A7D
:104E3800B7EE008AD8ED007AB0EE680A2C4838EE52
:104E4800678A11F0BDFEACE7DDED038AB7EE008A94
:104E5800D8ED007AB0EE680A264838EE678A12F074
:104E6800E3FC9EE7DDED038AB7EE008AD8ED007A11
:104E7800B0EE680A204838EE678A11F03DFD90E7E9
:104E8800DDED038AB7EE008AD8ED007AB0EE680A45
:104E98001A4838EE678A11F0FBFA82E7DDED038ADB
:104EA800B7EE008AD8ED007AB0EE680A144838EEFA
:104EB800678A11F091FF74E7014B9DED038A1CE7A7
:104EC80074000024C89F0724780000240CA007243D
:104ED8003C000024FF76010044000024649A072463
:104EE80008060024DC1106241C1206249C11062442
:104EF80028120624E4110624408B072434120624C1
:104F0800905D062410B5354C204602F0BDFA04F138
:104F1800100002F0B9FA23792BB9237DBBB9A37E1F
:104F2800FF2B1ED010BD217DA27A79B3A37E7F2AE4
:104F3800A3F17F01B1FA81F14FEA511130D1284A2A
:104F48005068032847D8DFE800F039253325A37EC9
:104F58007F2BE5D123490A7882F001020A70FF2BE2
:104F6800E0D104F01BF807EE900AD4ED076AF8EEDA
:104F7800677A9FED1D7A77EEE67AF4EEC77AF1EE5E
:104F880010FACFDD164B00225A6010BD7F2AC6D119
:104F9800A37ED4E70220506092F8240000B9906103
:104FA8000029BDD00F490A7882F001020A70D6E7BD
:104FB800106801280AD003205060EDE70020106136
:104FC80000201062908301205060E5E782F82400F9
:104FD8000029E7D1A4E700205060DDE78C05002414
:104FE800C89F07240CA007240000FA442DE9F041CB
:104FF800114C06460F46154604F1C00820462034D9
:1050080002F06AF9A045F9D1FCF79AFFFEF7A2FC75
:10501800FFF778FF6DB100243368386803EB840329
:1050280000EB8400013493ED000AFFF7B3FCA542BE
:10503800F2D1BDE8F08100BFCC04002470B52F4C3C
:1050480000262F4D204600F0EDFE2E4811F0E8FB1B
:10505800204600F0E7FE2C4811F050F9204600F0F9
:10506800E1FE2A4811F042FE204600F0DBFE284807
:1050780012F08EFB274811F043FD274812F006FC7A
:10508800264A0021284614F063FB0123204645E9FF
:10509800026300F0C7FE224812F04AF9204600F0E9
:1050A800C1FE204811F0D2F8204600F0BBFE1E4891
:1050B80010F09AFE204600F0B5FE1821F0EE400AE6
:1050C8001A489FED1B0A12F00BFC204600F0AAFEBE
:1050D800184810F0A1FF184D18483146184B194AC6
:1050E800C5E9020314F034FB85F82460AE61AE8391
:1050F800C5E90066BDE87040FEF7B4BAC4050024EF
:105108000CE86EC3408B072434120624905D0624F5
:10511800E411062428120624DC11062400DC05000C
:10512800080600241C1206249C110624649A0724ED
:105138008FC2753C4C110624C89F0724000000C08C
:1051480000BADB00FCE76E0338B542680D4604314F
:1051580004468A4204D0521A284614F0DFFA6168DD
:105168000B1F2846636038BD10B5084C82B001900B
:1051780001AAD4E90001FBF759FC6368834203D014
:1051880001462046FFF7E0FF02B010BD00A007244B
:105198002DE9F84FD0E900890F4692466FF060413B
:1051A800A9EB0802B1EBA20F54D093100646A7EB67
:1051B8000805012B1C4638BF01241C1948D2002CB5
:1051C8003CD1A346DAF80030002D4BF8053024DC3A
:1051D800A9EB07090435B9F1000F5D4413DC4D4410
:1051E800B8F1000F04D1B460C6E900B5BDE8F88F86
:1051F800B168A1EB0801404613F03BF8B460C6E97A
:1052080000B5BDE8F88F284639464A464D4414F0A3
:1052180077FAB8F1000FE6D0EAE7A9EB07092A46C2
:1052280041465846043514F079FAB9F1000F5D4447
:10523800E9DCB1684D44A1EB0801DCE78C4228BFEA
:105248000C46A400204613F016F883460444B9E738
:10525800024CF7E7024813F022F800BFFCFFFF7F7B
:10526800709B0108F8B5D0E9013706680446BB42CF
:10527800A1EB06061AD08B420D4611D017681A46C4
:1052880053F8040C42F8040B181F6260814205D0E1
:10529800421A981A14F042FA206830442F60F8BD78
:1052A8001268184643F8042B6360F8BDFFF770FFD7
:1052B80020683044F8BD00BF30B50D4683B00131D9
:1052C800019020D0114C01AA61682068FBF7AEFB61
:1052D80063680146834202D02046FFF735FF216804
:1052E80001AA204601EB8501FFF7BCFFD4E9003293
:1052F800D31A202B01D803B030BD52F8040CFFF7A5
:1053080033FF03B030BDFFF72FFFDBE700A0072412
:10531800F8B5194F06460D46BB7CFF2B0AD0284628
:10532800FCF7F8FD04460EB33B790BB17B6A1C44CD
:105338002046F8BD03F032FE07EE900AD7ED056A65
:10534800F8EE677A9FED0D7A77EEE67AF4EEC77A93
:10535800F1EE10FAE3DD0023094A28461370094AE2
:105368001360FCF7D7FD0446002EDDD10146284620
:10537800FFF7A2FF2046F8BD188B07240000FA4467
:10538800B19F07249C9B07242DE9F04FDFF8209359
:1053980099B0C82003F004FED9F8003018460493E9
:1053A800FCF704FEB24B1B7873B1B24B1A7B3AB1CF
:1053B8009B7C7F2B04D1B04A137883F001031370D0
:1053C800AE4B1C78022C50D0DFF8E8A212ACDFF804
:1053D800E8824FF0B009A3464FF47A7600240223FE
:1053E8005A469AF80C101027A548A8F1800500968F
:1053F8008DF848408DF8499002F07EFE02235A4607
:105408009AF80C109E4800968DF848408DF849404F
:1054180002F072FE02235A469AF80C109848009639
:105428008DF848408DF8497002F066FE4FF47A74A2
:1054380015F8016F402702235A469AF80C10904835
:1054480000948DF848708DF8496002F055FEA84523
:10545800ECD109F1010908F180085FFA89F9B9F17D
:10546800B80FB9D119B0BDE8F08F834B0121187876
:10547800FFF74EFF834B0B90D3ED007AFDEEE77AF2
:1054880017EE907A87EAE776A6EBE776FF0F092E04
:1054980040F20B83632E40F27682B6F57A7FC0F035
:1054A800028342F20F739E4240F20B83334601247B
:1054B800B44608E0AA4240F2CA828A42C0F0C182D9
:1054C800B24240F2B88270491A467048A646A1FB1B
:1054D80003136F4D82426F496F4E4FEA533304F105
:1054E8000404E7D8214666460EF103040CA80EAD65
:1054F80039442D2203900C9512F043FF0C9B03981E
:105508001F4466493C44664BB446023CA3FB062351
:1055180064225B0902FB13621E4642F20F7301EB21
:10552800420E11F812209C4562709EF80120A2706C
:10553800E9D8BCF57A7F80F0328230363E7000229E
:10554800092311460093574B12F07CFF14AB064613
:1055580004460593129356F8083BB34200F08E8236
:105568001293836814936368059A13930023266043
:1055780023726360129BD9F80000934200F01782EF
:10558800494AC9F800309042139BC9F8043000F02A
:105598002E82149AD9F80830C9F80820002800F09B
:1055A8002982149312900023139303701298059B79
:1055B800984203D01499013112F05BFE0C98A8426E
:1055C80003D00E99013112F054FE0023DFF8E4A055
:1055D800CAF80430049B93F80080344B5A7893F847
:1055E80000B05B6808920A93B8F1000F00F0A2803F
:1055F800049B5D460393A8F12003DAB25E2A00F209
:10560800AC81BAF804E00EEB0502802A079200F399
:10561800A481BAF80620089906920A44402A00F3A1
:105628009C8100296ED0089A6FF0004C069C02FB02
:1056380003F3CDF824809C4413440A9A02EB4C0CE3
:10564800023A02EB43039B463CF8026F002D53D00D
:1056580004F007030127E20871469F400EF110038A
:105668007FB203EBC21200236FEA0708524431E00D
:10567800B19F0724188B0724B09F0724FC9F072499
:10568800A89B0724400000245917B7D19F86010022
:105698003F420F0080969800FFE0F505D89B01086F
:1056A8001F85EB518C9B0108B405002418010024C8
:1056B800AC050024A09B07242F9C07247F2904D82D
:1056C8003F2C02D810783843107001330132013171
:1056D800AB4211D006FA03F00004EFD47F29F4D8C6
:1056E8003F2CF2D8107801330132013108EA00006A
:1056F800AB4202F8010CEDD1E34504F10104A3D15A
:10570800DDF82480069ABDF81C303F2A28BF3F22C6
:105718007F2B28BF7F23AAF80620AAF80430039A13
:105728001378434506D112F8018F0392B8F1000FA0
:105738007FF461AF0B9B83EAE376DF0FA6EBE3769A
:10574800092E40F2C781632E40F20A81B6F57A7FAE
:10575800C0F0BD8142F20F739E4240F2B5813246DD
:105768000121BC46B64608E0B04240F25C81A8423E
:10577800C0F05481B84240F243811046B64BB74C52
:10578800A3FB0023B64EA042B64D4FEA5332B64FA4
:105798000B4601F10401E7D867467646DD1C059BF8
:1057A8003944129312AC2D22204612F0EAFD129BC6
:1057B800AE491F447B19AE4A3546023BA2FB06029E
:1057C8006420520900FB1260164642F20F7201EB88
:1057D800400C11F81000954258709CF80100987020
:1057E800E9D8B5F57A7F80F0C68030363E70129BD6
:1057F800059AD9F80000934200F0E9809D4AC9F85B
:1058080000309042139BC9F8043000F0FE80149ACF
:10581800D9F80830C9F80820002800F0F980149356
:1058280012900023139303701298059B984203D09B
:105838001499013112F01DFD6423049ACAF804304A
:105848008D4B92F800B0597893F800905B680591F9
:105858000793BBF1000F3FF4BAAD07EE904A4E46EE
:105868001446ABF12003DAB25E2A73D8BAF8048082
:1058780008EB0602802A04926CDCBAF80620059927
:1058880003920A44402A65DC00294BD0059A6FF040
:10589800004ECDF818B002FB03F3039D9E44134459
:1058A800079A02EB4E0E023A02EB43039B463EF880
:1058B800027F8EB305F007034FF0010CEA0841465A
:1058C8000CFA03FC08F110034FFA8CFC03EBC2122C
:1058D80000236FEA0C0952440CE07F2905D83F2DBC
:1058E80003D810784CEA00001070013301320131FE
:1058F800B34211D007FA03F00004EED47F29F4D89C
:105908003F2DF2D8107801330132013109EA000045
:10591800B34202F8010CEDD1F34505F10105C6D1FA
:10592800DDF818B0039ABDF810303F2A28BF3F228F
:105938007F2B28BF7F23AAF80620AAF804302378F3
:105948005B4504D114F801BFBBF1000F89D117EEF4
:10595800904A3CE54FF0000BF1E74FF00008DEE617
:1059680012AC059BB91C2D222046129312F009FD9A
:10597800129B3E491F4401EB460311F816205B7841
:105988003A707B7033E70CA80EADB91C2D2203903A
:105998000C9512F0F6FC0C9B34491F44039801EB5C
:1059A800460311F816205B783A707B70C7E5139AA6
:1059B8003AB1012A70D0059913F0A2FE139AD9F8CA
:1059C80000000023C9F8042083541298EBE5139AC9
:1059D8003AB1012A59D0059913F092FE139AD9F8D1
:1059E80000000023C9F804208354129819E7149B77
:1059F800C9F80830059B129314AB18460593D2E5F5
:105A080067467646D91D9D1DC9E6149BC9F808301E
:105A1800059B129314AB1846059302E76746764632
:105A2800991D5D1DBBE667460533059A0D4676460A
:105A3800D9191292B6E666460EF107010EF1060470
:105A480054E566460EF106010EF105044EE566467C
:105A58000EF105014AE500BF5917B7D19F8601002D
:105A68003F420F0080969800FFE0F505D89B01089B
:105A78001F85EB51B405002418010024059F806898
:105A88007168B268F3680FC76DE59DF85030037010
:105A9800139AD9F80000A4E79DF850300370139AC0
:105AA800D9F800008DE7032120E50CA80EAD791C7C
:105AB8002D2203900C9512F064FC0C9B03981F4454
:105AC8003BE50324042111E50325042167E60225AB
