:020000040800F2
:1000000000000220690900086509000825B70008FA
:10001000650900086509000865090008000000007E
:10002000000000000000000000000000650900085A
:10003000650900080000000065090008A9B600086D
:1000400065090008650900086509000865090008D8
:1000500065090008650900086509000865090008C8
:10006000650900086509000865090008B1B20008C3
:10007000BDB200080DA20008C9B20008D5B2000840
:100080003D580108E1A70008650900086509000856
:100090006509000865090008650900086509000888
:1000A0006509000865090008650900086509000878
:1000B000114C01081D4C0108294C010815A8000825
:1000C0006509000821A800086509000881440108A5
:1000D0008D44010871560108A1560108D556010842
:1000E00065090008650900080000000065090008AE
:1000F0006509000865090008650900086509000828
:100100006509000865090008354C01089944010893
:10011000095701083D5701086509000865090008ED
:100120006509000865090008BD440108F14401089B
:10013000715801086509000865090008650900088B
:1001400000000000000000000000000000000000AF
:10015000650900086509000865090008715701086C
:100160002DA8000865090008B9B60008DDB600082A
:100170006509000801B7000865090008650900085D
:100180006509000865090008A5570108D557010849
:10019000A5440108B1440108650900086509000883
:1001A0006509000865090008650900086509000877
:1001B000D1AF000865090008650900086509000855
:1001C0006509000865090008650900086509000857
:1001D0006509000865090008650900086509000847
:1001E0006509000865090008650900086509000837
:1001F0006509000865090008650900086509000827
:100200006509000865090008650900086509000816
:100210006509000865090008650900086509000806
:10022000650900086509000865090008000000006C
:10023000650900086509000800000000650900085C
:1002400065090008650900086509000865090008D6
:1002500065090008650900086509000865090008C6
:1002600065090008650900086509000865090008B6
:100270006509000865090008095801080000000028
:10028000650900086509000865090008000000000C
:080290000000000065090008F0
:1002980010B5054C237833B9044B13B10448AFF3B8
:1002A80000800123237010BDB0040024000000006A
:1002B80008F5010808B5034B1BB103490348AFF320
:1002C800008008BD00000000B404002408F50108FF
:1002D800034613F8012B002AFBD1181A013870477E
:1002E80081F0004102E000BF83F0004330B54FEADF
:1002F80041044FEA430594EA050F08BF90EA020F4C
:100308001FBF54EA000C55EA020C7FEA645C7FEADE
:10031800655C00F0E2804FEA5454D4EB5555B8BF01
:100328006D420CDD2C4480EA020281EA030382EA72
:10033800000083EA010180EA020281EA0303362D04
:1003480088BF30BD11F0004F4FEA01314FF4801CD7
:100358004CEA113102D0404261EB410113F0004FE9
:100368004FEA03334CEA133302D0524263EB4303A0
:1003780094EA050F00F0A780A4F10104D5F1200E3E
:100388000DDB02FA0EFC22FA05F2801841F1000199
:1003980003FA0EF2801843FA05F359410EE0A5F16D
:1003A80020050EF1200E012A03FA0EFC28BF4CF09E
:1003B800020C43FA05F3C01851EBE37101F0004554
:1003C80007D54FF0000EDCF1000C7EEB00006EEB61
:1003D8000101B1F5801F1BD3B1F5001F0CD34908EB
:1003E8005FEA30004FEA3C0C04F101044FEA445242
:1003F80012F5800F80F09A80BCF1004F08BF5FEAC9
:10040800500C50F1000041EB045141EA050130BDA8
:100418005FEA4C0C404141EB0101013C28BFB1F5BA
:10042800801FE9D291F0000F04BF01460020B1FA05
:1004380081F308BF2033A3F10B03B3F120020CDAD8
:100448000C3208DD02F1140CC2F10C0201FA0CF0B6
:1004580021FA02F10CE002F11402D8BFC2F1200C1B
:1004680001FA02F120FA0CFCDCBF41EA0C019040D1
:10047800E41AA2BF01EB0451294330BD6FEA04041A
:100488001F3C1CDA0C340EDC04F11404C4F1200205
:1004980020FA04F001FA02F340EA030021FA04F317
:1004A80045EA030130BDC4F10C04C4F1200220FA6E
:1004B80002F001FA04F340EA0300294630BD21FAAC
:1004C80004F0294630BD94F0000F83F4801306BF72
:1004D80081F480110134013D4EE77FEA645C18BF66
:1004E8007FEA655C29D094EA050F08BF90EA020FFD
:1004F80005D054EA000C04BF1946104630BD91EAF5
:10050800030F1EBF0021002030BD5FEA545C05D1F7
:100518004000494128BF41F0004130BD14F5800436
:100528003CBF01F5801130BD01F0004545F0FE41AA
:1005380041F470014FF0000030BD7FEA645C1ABFDF
:10054800194610467FEA655C1CBF0B46024650EA16
:10055800013406BF52EA033591EA030F41F4002142
:1005680030BD00BF90F0000F04BF0021704730B5C8
:100578004FF4806404F132044FF000054FF000019D
:1005880050E700BF90F0000F04BF0021704730B55E
:100598004FF4806404F1320410F0004548BF404233
:1005A8004FF000013EE700BF42004FEAE2014FEA88
:1005B80031014FEA02701FBF12F07F4393F07F4F63
:1005C80081F06051704732F07F4208BF704793F066
:1005D8007F4F04BF41F40021704730B54FF4607479
:1005E80001F0004521F000411CE700BF50EA01027C
:1005F80008BF704730B54FF000050AE050EA010225
:1006080008BF704730B511F0004502D5404261EB94
:1006180041014FF4806404F132045FEA915C3FF4D5
:10062800D8AE4FF003025FEADC0C18BF03325FEA72
:10063800DC0C18BF033202EBDC02C2F1200300FA23
:1006480003FC20FA02F001FA03FE40EA0E0021FA48
:1006580002F11444BDE600BF53B94AB9002908BFE6
:1006680000281CBF4FF0FF314FF0FF3000F074B985
:10067800ADF1080C6DE904CE00F006F8DDF804E0F1
:10068800DDE9022304B070472DE9F047089D0446D0
:100698008E46002B4DD18A42944669D9B2FA82F22D
:1006A80052B101FA02F3C2F1200120FA01F10CFA69
:1006B80002FC41EA030E94404FEA1C48210CBEFBA1
:1006C800F8F61FFA8CF708FB16E341EA034306FB2A
:1006D80007F199420AD91CEB030306F1FF3080F0B9
:1006E8001F81994240F21C81023E63445B1AA4B206
:1006F800B3FBF8F008FB103344EA034400FB07F7A8
:10070800A7420AD91CEB040400F1FF3380F00A81E8
:10071800A74240F207816444023840EA0640E41BDD
:1007280000261DB1D4400023C5E900433146BDE889
:10073800F0878B4209D9002D00F0EF800026C5E92B
:10074800000130463146BDE8F087B3FA83F6002E43
:100758004AD18B4202D3824200F2F980841A61EBBB
:10076800030301209E46002DE0D0C5E9004EDDE7D9
:1007780002B9FFDEB2FA82F2002A40F09280A1EBC1
:100788000C014FEA1C471FFA8CFE0126200CB1FB16
:10079800F7F307FB131140EA01410EFB03F088420F
:1007A80008D91CEB010103F1FF3802D2884200F29C
:1007B800CB804346091AA4B2B1FBF7F007FB10112E
:1007C80044EA01440EFB00FEA64508D91CEB0404CC
:1007D80000F1FF3102D2A64500F2BB800846A4EB27
:1007E8000E0440EA03409CE7C6F12007B34022FA12
:1007F80007FC4CEA030C20FA07F401FA06F31C4341
:10080800F9404FEA1C4900FA06F3B1FBF9F8200C4D
:100818001FFA8CFE09FB181140EA014108FB0EF093
:10082800884202FA06F20BD91CEB010108F1FF3AE3
:1008380080F08880884240F28580A8F102086144EF
:10084800091AA4B2B1FBF9F009FB101144EA0141FD
:1008580000FB0EFE8E4508D91CEB010100F1FF34A8
:100868006CD28E456AD90238614440EA0840A0FB40
:100878000294A1EB0E01A142C846A64656D353D016
:100888005DB1B3EB080261EB0E0101FA07F722FA3A
:1008980006F3F1401F43C5E9007100263146BDE863
:1008A800F087C2F12003D8400CFA02FC21FA03F3C6
:1008B800914001434FEA1C471FFA8CFEB3FBF7F047
:1008C80007FB10360B0C43EA064300FB0EF69E426C
:1008D80004FA02F408D91CEB030300F1FF382FD205
:1008E8009E422DD9023863449B1B89B2B3FBF7F6AD
:1008F80007FB163341EA034106FB0EF38B4208D986
:100908001CEB010106F1FF3816D28B4214D9023EC6
:100918006144C91A46EA004638E72E46284605E7E4
:100928000646E3E61846F8E64B45A9D2B9EB0208B5
:1009380064EB0C0E0138A3E74646EAE7204694E745
:100948004046D1E7D0467BE7023B614432E7304678
:1009580009E76444023842E7704700BFFEE700BF7A
:100968000B480C4A904203D0121A0B491BF068FB43
:100978000A480B4A904203D0121A00211BF088FB48
:100988000BF0F6F81BF028FB07F002FBFEE700BFB0
:1009980000000024B00400243CF50108B004002441
:1009A80068D60724704700BF704700BF704700BF74
:1009B800704700BF704700BF704700BF704700BF57
:1009C800704700BF704700BF704700BF704700BF47
:1009D800704700BF704700BF704700BF49424FF4DF
:1009E80080621030C9B21BF053BB00BF704700BF14
:1009F800704700BF704700BF402070478020704795
:100A0800704700BF10B504464FF482611AF061F8D0
:100A1800204610BD10B50446006818B1A168091A2F
:100A28001AF057F8204610BD10B50446006818B1F2
:100A3800A168091A1AF04DF8204610BDA1EB000C68
:100A48004FEAAC034FEA2C1CBCF1000F40DD1368E1
:100A580000EB0C1C10B40BE04468A3420ED0846871
:100A6800A3420FD0C468A34210D01030844511D0DF
:100A780004689C42F0D15DF8044B704704305DF87F
:100A8800044B704708305DF8044B70470C305DF834
:100A9800044B70470B1A9B10022B13D0032B0BD05F
:100AA800012B03D008465DF8044B704713680268B1
:100AB8009A42E0D00846F6E7136802689A42DAD00C
:100AC800043000E0136802689A42D4D00430EEE79C
:100AD800022B05D0032B0ED0012B0AD008467047F5
:100AE800136802689A4203D0043002689A42F5D12A
:100AF80070471368F9E7136802689A42F8D004301F
:100B0800EFE700BF2DE9F0478368551AD0F8009049
:100B180004460E461746A3EB0908454520D9274B3E
:100B28009D4248D875B3284619F0D5FFD4F80090EF
:100B3800A3688246A3EB0908B74204D031462A4687
:100B480050461BF07DFAB9F1000F03D041464846E4
:100B580019F0BFFF5544C4E900A5A560BDE8F087BA
:100B68004368A3EB090295420ED88F4204D02A4667
:100B780048461BF073FA63684D449D42EED06560A9
:100B8800BDE8F087AA46D7E78D18A94203D04846A2
:100B98001BF064FA6368AF42A7EB050609D0184654
:100BA800294632461BF05AFA034633446360BDE8CF
:100BB800F0870026F9E7024819F0A4FFFCFFFF7F41
:100BC800C4C30108F0B500F1080783B0076061B33A
:100BD800054608460E46FFF77BFB0F2804460190A2
:100BE8000ED8012806D133786C602B7200233B5550
:100BF80003B0F0BD68B900236C603B5503B0F0BD8D
:100C0800002201A9284619F085FF019B07462860A4
:100C1800AB602246384631461BF012FA019C2F6819
:100C280000236C603B5503B0F0BD014819F067FF25
:100C3800F8C30108704700BFF8B5D0E90056074669
:100C4800B5420FD005F1080454F8080C844204F1A9
:100C5800180403D0A968013119F03BFF1835AE42DA
:100C6800F2D13E6826B1B9683046891B19F031FFC8
:100C78003846F8BD10B50446006818B1A168091ACD
:100C880019F027FF204610BD2DE9F04F4FF0B008AE
:100C980085B0054600F1080700F18F0600F28F497C
:100CA8004FF47A7B4FF0000A297B022303AA3846C7
:100CB800CDF800B0A6F180048DF80CA08DF80D8059
:100CC80009F04CFE297B022303AA3846CDF800B070
:100CD8008DF80CA08DF80DA009F040FE4FF0100C17
:100CE800297B022303AA3846CDF800B08DF80CA062
:100CF8008DF80DC009F032FE4FF47A7014F801CF68
:100D08004FF0400E297B0223009003AA38468DF845
:100D18000CE08DF80DC009F021FEB442ECD104F1CD
:100D2800800608F101084E455FFA88F8B8D105B089
:100D3800BDE8F08F2DE9F04F8368A2EB0109056843
:100D480083B080460C465B1B1746994536D9814BC4
:100D5800994500F2FB80B9F1000F00F0F280484697
:100D680019F0B9FE8246A74200F0C2800AF11806BF
:100D78000CE09BF8003006F8103C1834002346F8C5
:100D8800145C1836A742435500F0B280A6F1100053
:100D9800A6F11803D4E900B546F8180C1BEB050FAB
:100DA80003D0BBF1000F00F0CE800F2D019500F2AB
:100DB8008A80012DDDD0002DDFD08EE0D0F804A090
:100DC800AAEB0503994530D8B9F1000F17DD4FEAB2
:100DD800E906614B2F4603FB06F62146384619F013
:100DE8001EFF013E04F1180407F11807F5D1B9F107
:100DF800000FD8F804A0D8BF4FF018094D44AA45F1
:100E080010D005F108042E4654F8080CA04203D06F
:100E1800B168013119F05DFE183618345645F3D122
:100E2800C8F8045003B0BDE8F08F4FEAE3094A4A16
:100E3800002B01EB030602FB09F90CDD21462846CD
:100E480019F0EDFEB9F1010904F1180405F11805CE
:100E5800F4D1D8F804A0B7426ED00AF118040DE016
:100E6800012D42D199F8003004F8103C18360023BF
:100E780044F8145C1834B74243555DD0A4F110000F
:100E88007568A4F11803A24644F8180CD6F8009027
:100E980019EB050F02D0B9F1000F54D00F2D0195B1
:100EA800DED91846002201A919F034FE019B44F846
:100EB800180C44F8103C2A4649461BF0C1F8019D1D
:100EC80054F8180CD2E71846002201A919F022FE9E
:100ED800019B46F8180C46F8103C2A4659461BF068
:100EE800AFF8019D56F8180C47E7002DBED0E2E791
:100EF800D8E90056B5420FD005F1080454F8080C9B
:100F0800A04203D0A968013119F0E3FD183518345F
:100F1800AE42F3D1D8F800602EB1D8F808103046A8
:100F2800891B19F0D6FD0AEB0903C8E900A3C8F824
:100F3800083003B0BDE8F08FC8F804A003B0BDE8DE
:100F4800F08FCA460FE7054819F0D9FD044819F093
:100F5800D9FD00BFF8FFFF7FABAAAAAAF8C3010812
:100F6800C4C301087F291ED83F2A1CD86BB1D308F7
:100F78004FF0010C02F0070201EBC3130CFA02F266
:100F8800C1180B7C1A430A747047D3084FF0010C40
:100F980002F0070201EBC3130CFA02FCC1180A7C29
:100FA80022EA0C020A7470472DE9F04F83B05C1AEC
:100FB8000C9E002C9DF83490A6EB0208B8BF644242
:100FC800B8F1000FB8BFC8F100088B428CBF4FF0D2
:100FD800010A4FF0FF3A9642A4EB080C51D84FF0A3
:100FE800FF357F2B019512D83F2E10D8F50806F053
:100FF800070E012703EBC5150544B9F1000F47D0CB
:1010080007FA0EF795F810E047EA0E072F74964294
:1010180001D18B4229D0C8F100077F2914D83F2A73
:1010280012D8D50802F0070B4FF0010E01EBC515D9
:101038000544B9F1000F1BD00EFA0BFE95F810B05D
:101048004EEA0B0E85F810E0B7EB4C0F4FEA4C0553
:1010580002DAACEB080C5144AC4202DD019DA44419
:101068002A449942D9D19642D7D103B0BDE8F08F2E
:101078000EFA0BFB95F810E02EEA0B0E85F810E03F
:10108800E2E701257F2B0195C5D83F2EAED9C2E7EF
:1010980007FA0EFE2F7C964227EA0E072F74B8D067
:1010A800B9E700BF000000002DE9F04F2DED068BD9
:1010B80083B01F4680460D469DF850301646019372
:1010C800139B002BC0F22182129A134406EE103AA9
:1010D800DDED127AB8EEC66B9FEDCD4BB8EEE77B2F
:1010E8009FEDCD5B27EE047B26EE046B87EE050BA8
:1010F80086EE05ABF7EEC08BB0EE680A19F0A4FED9
:1011080007EE907AB7EECAABF8EE679AB0EE408A6F
:10111800B0EE680A1AF0C4FC60EE698AB0EE4A0ABA
:1011280019F092FEB0EE409AB0EE4A0A1AF0B8FCF6
:1011380020EE690A29EE888A29EE899A70EE687A83
:10114800F0EE006A39EE487A67EEA77AE7EE077A9A
:10115800F4EEE67AF1EE10FA06D5139BB42B40F3C1
:1011680096804FF0010901E04FF000090124784210
:101178004FF0000C0095E31B214627462246A3406A
:10118800B9F1000F6AD1424206EE90CACCF10001D3
:1011980007EE102AB8EEE66A07EE901A06EE900AF5
:1011A800B8EEC77A139A66EE084AF8EEE77AB42AD8
:1011B80027EE284AF8EEE66A67EE885A74EEC43AD3
:1011C80026EEA85A26EE096A66EE806A67EE897AE4
:1011D80027EE007AF5EEC03A40F3F280F1EE10FA0D
:1011E80000F17F8176EE473A74EEC54AF5EEC03AD3
:1011F800F1EE10FAF5EEC04ACCBF01220022F1EE62
:1012080010FA00F1778136EE666A35EEC55AB5EE0A
:10121800C06AF1EE10FAB5EEC05ACCBF0121002128
:10122800F1EE10FA00F16F8177EEE66AF5EEC06A2A
:10123800F1EE10FACCBF0127002775EEC45AF5EE7F
:10124800C05AF1EE10FA00F1478177EEC77AF5EE51
:10125800C07AF1EE10FACCBF01240024002A40F035
:101268008A80002964D1BFB9C4BB9C4558DB0CF106
:10127800010C03EB4C0E1CEB000F0EF1010E00F0FD
:10128800C08098424FDB734600287FF779AF03B0E0
:10129800BDEC068BBDE8F08F009DA6EB0C0E00EBB5
:1012A800050ABAF17F0FDFD8BEF13F0FDCD84FEA4D
:1012B800DE0B019D0AEBCB1A002D00F0B1800EF079
:1012C800070BC2444FF0010E0EFA0BFE9AF810B04D
:1012D8004EEA0B0E8AF810E0002CC6D0009DA6EB53
:1012E8000C0EA5EB000ABAF17F0FBED8BEF13F0F76
:1012F800BBD84FEADE0B019D0AEBCB1A002D00F09C
:10130800AE800EF0070BC2444FF0010E9C450EFA5A
:101318000BFE9AF810B04EEA0B0E8AF810E0A6DA27
:1013280098429E46AFDA01300EEB40030133ABE73B
:10133800009D0CEB060E00EB050ABAF17F0F92D860
:10134800BEF13F0F8FD84FEADE0B019D0AEBCB1A97
:10135800002D73D00EF0070BC2444FF0010E0EFAA9
:101368000BFE9AF810B04EEA0B0E8AF810E0002F28
:101378003FF47AAF90E7009D0CEB060EA5EB000A50
:10138800BAF17F0F3FF66DAFBEF13F0F3FF669AF81
:101398004FEADE0B019D0AEBCB1A002D6DD00EF043
:1013A800070BC2444FF0010E0EFA0BFE9AF810B06C
:1013B8004EEA0B0E8AF810E000293FF454AFB7E765
:1013C800F1EE10FA7ED44A4674EEC54AF5EEC04AEC
:1013D800F1EE10FA6CD4002135EEC55AB5EEC05ABC
:1013E800F1EE10FA5AD4002775EEC45AF5EEC05A39
:1013F800F1EE10FA3FF529AF0024002A3FF431AF8F
:10140800B9E798428FDB00233BE700BFAFF30080CA
:101418007A008BFCFA210940000000000080664039
:10142800C2444FF0010B0EF0070E0BFA0EFE9AF8AD
:1014380010B02BEA0E0E8AF810E015E7C2444FF000
:10144800010B0EF0070E0BFA0EFE9AF810B02BEAFD
:101458000E0E8AF810E0002F3FF406AF1CE7C244D6
:101468004FF0010B0EF0070E0BFA0EFE9AF810B0B3
:101478002BEA0E0E8AF810E0F7E6C2444FF0010B93
:101488000EF0070E0BFA0EFE9AF810B02BEA0E0EAD
:101498008AF810E000293FF4E6AE49E777EEE66AFD
:1014A800F5EEC06AF1EE10FACCBF012700279BE7E2
:1014B80036EE666AB5EEC06AF1EE10FACCBF0121CD
:1014C800002189E776EE473AF5EEC03AF1EE10FAD8
:1014D800CCBF0122002277E70124002A3FF4C1AEE5
:1014E80049E774EEC54A0122F5EEC04AF1EE10FA5A
:1014F8007FF589AE35EEC55A0121B5EEC05AF1EE39
:1015080010FA7FF591AE012797E6DDE9122313441F
:1015180006EE102A1293139B5B421393D8E500BF83
:101528002DE9F04F89B008AC9DF84870019104E9A5
:101538000C000B78002B00F0AB801A469DF8188041
:101548009DF819300646454690460393079B059338
:10155800A8F12004E3B25E2B00F29E8033685E4A55
:10156800DB68934240F09B808020B3882B44834201
:1015780000F392803368594A9B68934240F0928006
:101588004020F188039A02918B18834200F38480EB
:10159800002A00F0918002FB04F46FF00049059BDB
:1015A800A1441444B6F804B003EB4909023BCDF852
:1015B800108003EB44030C469A4639F802CFA5B3D2
:1015C80004F007034FF0010EE20859460EFA03FE35
:1015D8000BF110034FFA8EFE03EBC21200236FEAE1
:1015E8000E0832440DE07F2906D83F2C04D8107825
:1015F80097B14EEA00001070013301320131AB425D
:1016080013D00CFA03F00004EDD47F29F4D83F2C52
:10161800F2D81078002FECD0013308EA000001322C
:101628000131AB4202F8010CEBD1D14504F10104C0
:10163800C3D1DDF8108032680BEB05042649D36866
:10164800A4B28B4234D18020844204D3D368224987
:101658008B423AD17F249368204AB480934224D1A4
:101668004020029B834206D333681C4A9B689342FE
:1016780025D13F230293029BF380019B18784045B4
:1016880007D113F8018F0193B8F1000F7FF460AF11
:10169800002009B0BDE8F08F4FF00008EDE73046B4
:1016A800984762E7304698476BE730469847D8E74F
:1016B800304698473268C7E7B6F804B0BBE730460B
:1016C8009847013883B20293D5E7304698470138E6
:1016D800326884B2BFE700BF050A0008010A0008A3
:1016E8002DE9F04F964683B006461F461EF8014B7B
:1016F80091460D460C9B0D989DF83880002C00F003
:1017080010814FF0000C1EF8014B0CF1010C002C5D
:10171800F9D11FFA8CFC3C787A7814FB0CFC11B2D6
:101728000FFA8CFC2CEAEC7C082800F2E580DFE854
:1017380000F04A5DBAD174849DA405009A88B3F874
:1017480000A09244B3F90620AAEB0C0A002A1FFA5B
:101758008AFA49DB5C88F18004EB6204A6F804C0CD
:10176800A6F800A0A4EB51018CB274802B68DFF8B6
:10177800D4B1DA685A454CD18020504505D8DA688A
:101788005A4540F0D5804FF07F0A9B68A5F804A021
:10179800DFF8B4A1534540F0C1804020A04205D8ED
:1017A8002B689B68534540F0BE803F24EC80494637
:1017B800CDF80080284697E80C00FFF7B1FE3046C8
:1017C80003B0BDE8F08FB3F90420B3F800A0002AF5
:1017D800B8BF01320AEB620AB3F90620AAEB6C0A19
:1017E800002A1FFA8AFAB5DA0132B3E7B3F900A082
:1017F800B3F902402B68DFF84CB1DA68A6F800A00C
:101808001FFA8AFA5A457480A6F804C0A4B2F18077
:10181800B2D0284690472B68AFE75C88D888B3F9E0
:1018280000A00444A6F804C0A6F800A01FFA8AFA8B
:10183800A21AF18094B2748098E7B3F90400B3F85F
:1018480000A00028B8BF01300AEB600AAAEB6C0AB6
:101858005C881FFA8AFADB88A6F804C01C44F18069
:10186800A6F800A0A21A94B274807FE7B3F800A08B
:1018780098888244AAEB0C0AEAE7B3F906205C8848
:10188800002AB3F900A0F180B8BF0132A6F800A081
:10189800A6F804C01FFA8AFA04EB6204A4EB51010B
:1018A8008CB2748062E7B3F90420B3F800A0002A70
:1018B800B3F90240A6F804C0B8BF01327480F180C1
:1018C800A4B20AEB620AAAEB6C0C1FFA8CFAA6F80F
:1018D80000A04BE7B3F800A09A88B3F902409244FD
:1018E800A6F804C07480A4B2AAEB0C0CF1801FFA0D
:1018F8008CFAA6F800A039E72B680024DFF844B07A
:10190800DA6834805A457480B480F48017D19B68B3
:10191800DFF834A0AC8053453FF448AF28469847D9
:101928003CE7A446F7E628469847013884B23DE7E5
:101938002846904701382B681FFA80FA25E7A24607
:1019480067E700BF050A0008010A00082DE9F04F03
:1019580087B09DF84850109C2E4601959DF844503C
:101968009EB399422ED89946A24228D87F29164676
:1019780094BF0023012308E09CF810804EEA080E6B
:101988008CF810E00136B44219D33F2EFAD8002B58
:10199800F8D14FEAD60C06F0070E4FF0010801EB1C
:1019A800CC1C08FA0EFE8444002DE5D19CF810B03A
:1019B80001362BEA0E0AB4428CF810A0E5D20131A8
:1019C8008945D1D207B0BDE8F08FA3EB0108B8F183
:1019D800000FB8BFC8F100089942C0F04E817F2BB4
:1019E8004FF0FF3A94BF002601263F2A009694BF85
:1019F800002701270297A6B99FB9D60802F0070C5D
:101A0800012703EBC6160644002D00F0948107FA5F
:101A18000CF796F810C047EA0C07377400260296B0
:101A28000096994200F09781464694468E46BEF14C
:101A38007F0F16D8BCF13F0F13D84FEADC070CF024
:101A4800070B4FF001090EEBC7170744002D00F0F4
:101A5800398109FA0BF997F810B049EA0B0987F8A8
:101A68001090770018BFD644B84502DD46440CF103
:101A7800FF3C7345DBD16245D9D100260496A4EB1F
:101A88000209009FB9F1000FB8BFC9F100093F2C46
:101A980094BF00260126A242C9F100080396C0F0AF
:101AA8002381002F40F05081002E40F04D814FF0EF
:101AB800FF360096E60803EBC6160644002D00F034
:101AC8001E814FF0010C04F007070CFA07F796F88F
:101AD80010C047EA0C07377400260396A24200F0AC
:101AE8003D81C44616461F4605927F2F15D83F2EC6
:101AF80013D84FEAD60E06F0070B4FF0010A07EB92
:101B0800CE1E8644002D00F0E6800AFA0BFA9EF8F5
:101B180010B04AEA0B0A8EF810A0B8EB4C0F4FEA47
:101B28004C0E02DAACEB090C013FBEF1000F01D0FC
:101B3800009A1644BB42D8D1B442D6D1059AA1EB3B
:101B4800030EBEF1000FB8BFCEF1000E7F2994BF7F
:101B58004FF0000A4FF0010A99428CBF4FF001097B
:101B68004FF0FF39BAF1000F13D1039E8EB9E60882
:101B780001EBC6160644002D00F0D3804FF0010C8F
:101B880004F007070CFA07F796F810C047EA0C07A5
:101B98003774049E26BB774626467F2B14D83F2EE3
:101BA80012D84FEAD60C06F0070B4FF0010803EBEA
:101BB800CC1C8444002D73D008FA0BF89CF810B0A4
:101BC80048EA0B088CF810805FEA470C18BF4B44B2
:101BD800E64501DD7744013E9942DED1B442DCD1CD
:101BE800A2EB040EBEF1000FB8BFCEF1000EA24268
:101BF8008CBF4FF001084FF0FF38CEF1000CBAF15E
:101C0800000F0ED1029B63B9D30802F00707012623
:101C180001EBC3130344002D7CD0BE401F7C3E4320
:101C28001E74019B002B7FF4CDAE66460B467F2BBE
:101C380012D83F2C10D8E70804F0070A4FF0010922
:101C480003EBC7170744A5B309FA0AF997F810A0D8
:101C580049EA0A0987F81090BCEB460F4FEA460795
:101C680002DAA6EB0E06013B07B144449942DED1E5
:101C7800A242DCD107B0BDE8F08F3F2A4FF0010A3D
:101C880094BF002601267F2B029694BF00270127C8
:101C98000097002E7FF4C8AE002F3FF4AEAEC3E627
:101CA80008FA0BFB9CF8108028EA0B088CF81080C7
:101CB8008AE709FA0AFA97F8109029EA0A0987F8D0
:101CC8001090C9E709FA0BFB97F8109029EA0B095D
:101CD80087F81090C5E60AFA0BFB9EF810A02AEACE
:101CE8000B0A8EF810A018E797BB8EBB012600964A
:101CF800E60803EBC6160644002D7FF4E2AE012782
:101D080004F0070C039507FA0CFC377C27EA0C074C
:101D18003774E3E606FA07F71E7C26EA07061E7400
:101D28007FE7012704F0070C07FA0CFC377C27EA49
:101D38000C0737742DE707FA0CFC377C029527EA65
:101D48000C07009537746CE64FF0FF360096C5E631
:101D580001260096C5E60126049690E6012601961E
:101D6800EDE600BF2DE9F04F85B0A1F1200504ACE8
:101D78009DF83870009104E90C00EBB25E2B00F27C
:101D88009580036880465D4ADB689DF80840934269
:101D98009DF8096040F094808020B8F8043023440E
:101DA800834200F38380D8F80030554A9B689342F9
:101DB80040F088804020B8F80620931901928342A9
:101DC80074DC002E00F0898006FB05F56FF00040FA
:101DD800039B964628442E44B8F804A003EB400021
:101DE800023B03EB460B30F8026FBCB30EF007035F
:101DF8004FF0010C4FEADE0251460CFA03FC0AF1DF
:101E080010034FFA8CFC03EBC21200236FEA0C0993
:101E180042440EE07F2907D8BEF13F0F04D8157859
:101E28009FB14CEA050515700133013201319C421E
:101E380014D006FA03F52D04ECD47F29F4D8BEF1AA
:101E48003F0FF1D81578002FEBD0013309EA0505CB
:101E5800013201319C4202F8015CEAD158450EF189
:101E6800010EC0D1D8F8003054442449DA68A4B22D
:101E78008A422DD1802084421CD29B68204AA8F82F
:101E88000440934221D14020019B834207D3D8F8D4
:101E980000301B4A9B68934229D13F230193DDE917
:101EA8000003A8F8063005B0BDE8F08F002005B0A3
:101EB800BDE8F08FDA6811498A4211D17F24DCE746
:101EC80098476AE74046984775E740469847DBE7F2
:101ED80040469047D8F80030CDE7B8F804A0C1E7ED
:101EE800404690470138D8F8003084B2C5E74046EC
:101EF8009847013883B20193D1E700BF050A00086B
:101F0800010A000870B545680446012D2DED028BC5
:101F1800F0EE408A40F29F80027FB7EE008AF6EE2C
:101F2800007A437F002A08FE278A0BB1B1EE488A5F
:101F3800A669DFED8B7A07EE106A9FED8A0AF8EE44
:101F4800476A66EEA76A26EE800A19F0A9FD022DF7
:101F5800F0EE407A84ED050A3BD0032D40F0F8807E
:101F680094ED047AA268BCEEC77A2168022917EEBC
:101F7800103A02EB830393ED000A00F0DC8003299A
:101F880000F0D080B0EE407AA8EEA77A83ED007A10
:101F980040F2AE439E4201D80136A661236AD4EDD1
:101FA800047A013B38EE278A07EE903AF8EE677A12
:101FB80084ED048AB4EEE78AF1EE10FA40F3C080AB
:101FC8000023236101295BD1022200236260A361FF
:101FD80095E094ED047A40F2AE41A268FCEEC76A3F
:101FE8008E4216EE903A02EB830393ED000A0DD869
:101FF800B7EE007A013677EE677AB0EE407AA7EE50
:10200800A87A83ED007A94ED047AA661236A38EE03
:10201800078A013B84ED048A07EE903AF8EE677A66
:10202800B4EEE78AF1EE10FA79DCB5EEC08AF1EE8B
:1020380010FA64D5C4ED047A94F82430002B5ED0ED
:102048002368012B5BD100220321134684F8242046
:102058006160A26115E086699FED417A07EE906A9A
:102068009FED400AF8EE677A67EE877A27EE800AD6
:1020780019F016FD012D84ED050A07D09FED3A0AE7
:10208800002384F82530BDEC028B70BDD4ED047AB2
:1020980040F2AE42A36828EE807AFCEEE77A9642D8
:1020A80017EE901A03EB810383ED007A01D801360D
:1020B800A661D4ED047AF7EE006AE368BCEEE77A2D
:1020C800013B77EEA67A17EE102A07EE103AC4ED18
:1020D800047AB8EE477A2262F4EEC77AF1EE10FA83
:1020E800CCDD77EEE67A9FED207A0223B0EE470A40
:1020F80084ED047AFCEEE77A6360C4ED087A94ED27
:10210800047ADFED1A7AB4EEE77ABDEC028BF1EED1
:1021180010FA4CBF0123002384F8253070BD00233A
:10212800236189E79FED127A20EE077AA8EEA77A55
:1021380083ED007A2CE768EEA77AC3ED007A27E7EB
:10214800B5EEC08AF1EE10FA9AD5C4ED047A39E7F3
:1021580025F002059FED040A012DD0D190E700BFBC
:102168000E745A3ADB0FC93F000000000000964584
:10217800F304353F30B5052087B00024042101223F
:1021880007238DF809001848184D8DF80D108DF8A3
:1021980010208DF811308DF808408DF80C4006F0AD
:1021A80093FA02991248DDE9032307F017FD9FED22
:1021B800110A8DF8144028468DF8154005998DEDC3
:1021C800010A07F079FD03220B239DED010A05F1B1
:1021D80010008DF814208DF81530059907B0BDE86A
:1021E800304007F069BD00BFE80500248C050024D5
:1021F8003C8B072400000000F0B50224A3B004279C
:1022080001258DF8084008A88DF80970062602995E
:1022180007F09AFD8DF80C408DF80D5000240399B5
:102228000DF1310007F090FD8DF810408DF8116028
:102238000DF14200049907F087FD07238DF814403B
:102248000DF153008DF81530059907F07DFD8DF8D7
:1022580018508DF8195019A8069907F075FD032331
:102268008DF81C400DF175008DF81D300799154D3E
:1022780007F06AFD3B46324608A9134807F072FD8D
:10228800E1B2114807F068FF014610480134019196
:1022980006F01AFA0023DFED0E0A019928461A46BD
:1022A80007F01AFC094806F0EFF9284607F06AFC1F
:1022B800062C05F12005E3D1034807F037FF23B0CA
:1022C800F0BD00BFCC04002400060024E80500246B
:1022D8006F12033B10B5094C82B0019001AAD4E9F2
:1022E8000001FEF7ABFB6368834204D02368C01A81
:1022F800801002B010BD4FF0FF30FAE73CA0072471
:102308001E4B1B78023B0B2B0AD8DFE803F00A0EA2
:1023180012161A1E22262A2E3206194B0B221A6072
:102328007047174B00221A607047154B01221A603C
:102338007047134B02221A607047114B03221A6030
:1023480070470F4B04221A6070470D4B05221A6024
:1023580070470B4B06221A607047094B07221A6018
:102368007047074B08221A607047054B09221A600C
:102378007047034B0A221A60704700BF2CA007243D
:1023880028A007242DE9F04F8F4C46258F4A8FB09F
:10239800B4F900300590C3EBC3035B0082FB031262
:1023A800D9171A44C1EBA21205FB123300EE103AFA
:1023B800B8EEC00BB5EE400BF1EE10FA01F110814A
:1023C800B1EEC07B824B1D7827EE077BFDEEC77B05
:1023D80017EE903A002B08BF04230793002D40F016
:1023E800FC82B4F90030042B00F3FA82DFF8F4B170
:1023F8002946784C4FF480620BF110000B9419F0C9
:1024080047FE0F2329462046CBF804500093724B11
:10241800626818F06DFC714B059A1D7892F800A05F
:102428000A935A785B680C920D93BAF1000F74D036
:10243800059B0693AAF12003DAB25E2A00F2C8854A
:10244800BBF804E00EEB0502802A099200F3C08570
:10245800BBF806200C9908920A44402A00F3B88574
:10246800002943D00C9A6FF0004C089C02FB03F340
:102478009C4413440D9AA2F1020902EB4C0C09EB9F
:1024880043093CF8026F6DB304F007030127E20823
:1024980071469F400EF110037FB203EBC212002376
:1024A8006FEA07085A440BE07F2904D83F2C02D86A
:1024B800107838431070013301320131AB4211D02A
:1024C80006FA03F00004EFD47F29F4D83F2CF2D8A1
:1024D800107801330132013108EA0000AB4202F8FA
:1024E800010CEDD1E14504F10104CAD1089ABDF807
:1024F80024303F2A28BF3F227F2B28BF7F23ABF8F9
:102508000620ABF80430069A1378534505D112F823
:1025180001AF0692BAF1000F8CD10F230B9A00215C
:102528002C4800934FF440235268CBF804302C4BCE
:1025380018F0DEFB0A9B059A59781D7892F800A0DE
:102548005B680C910D93BAF1000F00F0878006923A
:10255800AAF12003DAB25E2A00F23685BBF804E05D
:102568000EEB0502802A099200F32E85BBF806209F
:102578000C9908920A44402A00F32685002955D070
:102588000C9A6FF0004C089C02FB03F39C44134424
:102598000D9AA2F1020902EB4C0C09EB43093CF835
:1025A800026F002D3ED004F007030127E2087146B0
:1025B8009F400EF110037FB203EBC21200236FEAB3
:1025C80007085A441CE000BFC29B0724EBA00EEA90
:1025D800D59F0724C405002424C401081C01002435
:1025E80034C40108C49B07247F2904D83F2C02D88F
:1025F800107838431070013301320131AB4211D0E9
:1026080006FA03F00004EFD47F29F4D83F2CF2D85F
:10261800107801330132013108EA0000AB4202F8B8
:10262800010CEDD1E14504F10104B8D1089ABDF8D7
:1026380024303F2A28BF3F227F2B28BF7F23ABF8B7
:102648000620ABF80430069A1378534506D112F8E1
:1026580001AF0692BAF1000F7FF47AAF0F230B9AFD
:1026680000216F4800934FF4C0135268CBF8043030
:102678006C4B18F03DFB0A9B059A59781D7892F827
:1026880000A05B680C910D93BAF1000F73D006920D
:10269800AAF12003DAB25E2A00F29284BBF804E0C1
:1026A8000EEB0502802A099200F38A84BBF8062003
:1026B8000C9908920A44402A00F38284002943D0E6
:1026C8000C9A6FF0004C089C02FB03F39C441344E3
:1026D8000D9AA2F1020902EB4C0C09EB43093CF8F4
:1026E800026F6DB304F007030127E20871469F40AB
:1026F8000EF110037FB203EBC21200236FEA070842
:102708005A440BE07F2904D83F2C02D8107838436C
:102718001070013301320131AB4211D006FA03F0D7
:102728000004EFD47F29F4D83F2CF2D81078013375
:102738000132013108EA0000AB4202F8010CEDD188
:10274800E14504F10104CAD1089ABDF824303F2AB2
:1027580028BF3F227F2B28BF7F23ABF80620ABF88A
:102768000430069A1378534505D112F801AF069242
:10277800BAF1000F8CD10F230B9A0021284800933F
:102788004FF410135268CBF80430274B18F0B0FA06
:102798000A9B059A59781D7892F800A05B680C91FD
:1027A8000D93BAF1000F7AD00692AAF12003DAB29B
:1027B8005E2A00F20284BBF804E00EEB0502802AD0
:1027C800099200F3FA83BBF806200C9908920A4490
:1027D800402A00F3F28300294AD00C9A6FF0004C8B
:1027E800089C02FB03F39C4413440D9AA2F10209CE
:1027F80002EB4C0C09EB43093CF8026FA5B304F05B
:1028080007030127E20871469F400EF110037FB2CB
:1028180003EBC21200236FEA07085A4412E000BF14
:10282800C405002444C4010854C401087F2904D8FD
:102838003F2C02D81078384310700133013201312F
:10284800AB4211D006FA03F00004EFD47F29F4D884
:102858003F2CF2D8107801330132013108EA000028
:10286800AB4202F8010CEDD1CC4504F10104C3D10F
:10287800089ABDF824303F2A28BF3F227F2B28BF63
:102888007F23ABF80620ABF80430069A137853453B
:1028980005D112F801AF0692BAF1000F85D10B9B52
:1028A800002182485A680F2300934FF44013CBF855
:1028B80004307F4B18F01CFA0A9B059A1C7892F892
:1028C80000A05A785B6808920A93BAF1000F77D093
:1028D800DDF81490AAF12003DAB25E2A00F26A83C6
:1028E800BBF804E00EEB0402802A069200F3628330
:1028F800BBF80620089905920A44402A00F35A8337
:10290800002947D0089A6FF0004CCDF824A002FBAC
:1029180003F3059D9C4413440A9A02EB4C0C023ABB
:1029280002EB43039A463CF8026F6CB305F00703C9
:102938000127EA0871469F400EF110037FB203EBAE
:10294800C21200236FEA07085A440BE07F2904D813
:102958003F2D02D81078384310700133013201310D
:10296800A34211D006FA03F00004EFD47F29F4D86B
:102978003F2DF2D8107801330132013108EA000006
:10298800A34202F8010CEDD1D44505F10105CAD1E5
:10299800DDF824A0059ABDF818303F2A28BF3F2249
:1029A8007F2B28BF7F23ABF80620ABF8043099F8BB
:1029B8000030534504D119F801AFBAF1000F89D19D
:1029C80001204FF4B47100240323079A0094CDE941
:1029D800011064213748FEF767FB0FB0BDE8F08FA0
:1029E8005A1F92B2032A40F2FD82092BF5D0DFF874
:1029F800C4B029462D4C4FF480620BF110000B94A3
:102A080019F046FB0F2329462046CBF804500093C3
:102A1800294B626818F06CF9284B059A1D7892F8D2
:102A280000A00A935A785B680C920D93BAF1000FD4
:102A38007FD0059B0693AAF12003DAB25E2A00F242
:102A4800C485BBF804E00EEB0502802A099200F366
:102A5800BC85BBF806200C9908920A44402A00F36A
:102A6800B48500294ED00C9A6FF0004C089C02FBEC
:102A780003F39C4413440D9AA2F1020902EB4C0C97
:102A880009EB43093CF8026FC5B304F007030127BB
:102A9800E20871469F400EF110037FB203EBC212A9
:102AA80000236FEA07085A4416E000BFC405002453
:102AB80064C40108C49B0724C4C401081C01002481
:102AC8007F2904D83F2C02D810783843107001337E
:102AD800013201319D4211D006FA03F00004EFD40F
:102AE8007F29F4D83F2CF2D8107801330132013114
:102AF80008EA00009D4202F8010CEDD1E14504F11D
:102B08000104BFD1089ABDF824303F2A28BF3F22CC
:102B18007F2B28BF7F23ABF80620ABF80430069A3A
:102B28001378534505D112F801AF0692BAF1000F98
:102B380081D10F230B9A00216E4800934FF4402354
:102B48005268CBF804306C4B18F0D2F80A9B059AFF
:102B580059781D7892F800A05B680C910D93BAF132
:102B6800000F73D00692AAF12003DAB25E2A00F2AF
:102B78002885BBF804E00EEB0502802A099200F3D1
:102B88002085BBF806200C9908920A44402A00F3D5
:102B98001885002943D00C9A6FF0004C089C02FB62
:102BA80003F39C4413440D9AA2F1020902EB4C0C66
:102BB80009EB43093CF8026F6DB304F007030127E2
:102BC800E20871469F400EF110037FB203EBC21278
:102BD80000236FEA07085A440BE07F2904D83F2CEA
:102BE80002D81078384310700133013201319D4208
:102BF80011D006FA03F00004EFD47F29F4D83F2C53
:102C0800F2D8107801330132013108EA00009D4200
:102C180002F8010CEDD1E14504F10104CAD1089A8A
:102C2800BDF824303F2A28BF3F227F2B28BF7F23AF
:102C3800ABF80620ABF80430069A1378534505D153
:102C480012F801AF0692BAF1000F8CD10F230B9A3C
:102C58000021284800934FF4C0135268CBF8043081
:102C6800264B18F045F80A9B059A59781D7892F872
:102C780000A05B680C910D93BAF1000F79D0069211
:102C8800AAF12003DAB25E2A00F2A684BBF804E0B7
:102C98000EEB0502802A099200F39E84BBF80620F9
:102CA8000C9908920A44402A00F39684002949D0D6
:102CB8000C9A6FF0004C089C02FB03F39C441344ED
:102CC8000D9AA2F1020902EB4C0C09EB43093CF8FE
:102CD800026F9DB304F007030127E20871469F4085
:102CE8000EF110037FB203EBC21200236FEA07084C
:102CF8005A4411E0C4050024D4C40108E4C40108FE
:102D08007F2904D83F2C02D810783843107001333B
:102D1800013201319D4211D006FA03F00004EFD4CC
:102D28007F29F4D83F2CF2D81078013301320131D1
:102D380008EA00009D4202F8010CEDD1CC4504F1EF
:102D48000104C4D1089ABDF824303F2A28BF3F2285
:102D58007F2B28BF7F23ABF80620ABF80430069AF8
:102D68001378534505D112F801AF0692BAF1000F56
:102D780086D10F230B9A0021974800934FF4101324
:102D88005268CBF80430954B17F0B2FF0A9B059AAE
:102D980059781D7892F800A05B680C910D93BAF1F0
:102DA800000F73D00692AAF12003DAB25E2A00F26D
:102DB8001084BBF804E00EEB0502802A099200F3A8
:102DC8000884BBF806200C9908920A44402A00F3AC
:102DD8000084002943D00C9A6FF0004C089C02FB39
:102DE80003F39C4413440D9AA2F1020902EB4C0C24
:102DF80009EB43093CF8026F6DB304F007030127A0
:102E0800E20871469F400EF110037FB203EBC21235
:102E180000236FEA07085A440BE07F2904D83F2CA7
:102E280002D8107838431070013301320131AB42B7
:102E380011D006FA03F00004EFD47F29F4D83F2C10
:102E4800F2D8107801330132013108EA0000AB42B0
:102E580002F8010CEDD1CC4504F10104CAD1089A5D
:102E6800BDF824303F2A28BF3F227F2B28BF7F236D
:102E7800ABF80620ABF80430069A1378534505D111
:102E880012F801AF0692BAF1000F8CD10B9B00210A
:102E980051485A680F2300934FF44013CBF804307D
:102EA8004F4B17F025FF0A9B059A1D7892F800A052
:102EB8005A785B6809920A93BAF1000F3FF480AD23
:102EC800AAF12003DAB25E2A71D8BBF804E00EEB4F
:102ED8000502802A08926ADCBBF806200999069246
:102EE8000A44402A63DC002943D0099A6FF0004C59
:102EF800069C02FB03F39C4413440A9AA2F10209BC
:102F080002EB4C0C09EB43093CF8026F6DB304F07B
:102F180007030127E20871469F400EF110037FB2B4
:102F280003EBC21200236FEA07085A440BE07F291B
:102F380004D83F2C02D8107838431070013301327E
:102F48000131AB4211D006FA03F00004EFD47F2917
:102F5800F4D83F2CF2D8107801330132013108EA55
:102F68000000AB4202F8010CEDD1CC4504F101049C
:102F7800CAD1069ABDF820303F2A28BF3F227F2BAE
:102F880028BF7F23ABF80620ABF80430059A1378E6
:102F980053457FF415AD12F801AF0592BAF1000F51
:102FA8003FF40EADAAF12003DAB25E2A8DD94FF0B4
:102FB800000AEBE74FF0000AF9E44FF0000A64E476
:102FC8004FF0000AFFF7CDBB4FF0000AFFF73BBBFD
:102FD8004FF0000AFFF797BAC4050024F4C40108AB
:102FE80004C50108DFF8E4B12946744C4FF4806247
:102FF8000BF110000B9419F04BF80F2329462046CB
:10300800CBF8045000936E4B626817F071FE6D4B5D
:10301800059A1D7892F800A00A935A785B680C927A
:103028000D93BAF1000F74D0059B0693AAF1200303
:10303800DAB25E2A00F2C282BBF804E00EEB0502A7
:10304800802A099200F3BA82BBF806200C990892EC
:103058000A44402A00F3B282002943D00C9A6FF048
:10306800004C089C02FB03F39C4413440D9AA2F104
:10307800020902EB4C0C09EB43093CF8026F6DB3F3
:1030880004F007030127E20871469F400EF1100380
:103098007FB203EBC21200236FEA07085A440BE021
:1030A8007F2904D83F2C02D8107838431070013398
:1030B80001320131AB4211D006FA03F00004EFD41B
:1030C8007F29F4D83F2CF2D810780133013201312E
:1030D80008EA0000AB4202F8010CEDD1E14504F129
:1030E8000104CAD1089ABDF824303F2A28BF3F22DC
:1030F8007F2B28BF7F23ABF80620ABF80430069A55
:103108001378534505D112F801AF0692BAF1000FB2
:103118008CD10F230B9A0021284800934FF44023A9
:103128005268CBF80430284B17F0E2FD0A9B059A49
:1031380059781D7892F800A05B680C910D93BAF14C
:10314800000F7ED00692AAF12003DAB25E2A00F2BE
:103158003282BBF804E00EEB0502802A099200F3E4
:103168002A82BBF806200C9908920A44402A00F3E8
:10317800228200294ED00C9A6FF0004C089C02FB6A
:1031880003F39C4413440D9AA2F1020902EB4C0C80
:1031980009EB43093CF8026FC5B304F007030127A4
:1031A800E20871469F400EF110037FB203EBC21292
:1031B80000236FEA07085A4416E000BFC40500243C
:1031C80074C401081C01002484C40108C49B07249A
:1031D8007F2904D83F2C02D8107838431070013367
:1031E80001320131AB4211D006FA03F00004EFD4EA
:1031F8007F29F4D83F2CF2D81078013301320131FD
:1032080008EA0000AB4202F8010CEDD1E14504F1F7
:103218000104BFD1089ABDF824303F2A28BF3F22B5
:103228007F2B28BF7F23ABF80620ABF80430069A23
:103238001378534505D112F801AF0692BAF1000F81
:1032480081D10F230B9A00216E4800934FF4C013CD
:103258005268CBF804306C4B17F04AFD0A9B059A6C
:1032680059781D7892F800A05B680C910D93BAF11B
:10327800000F73D00692AAF12003DAB25E2A00F298
:103288009781BBF804E00EEB0502802A099200F34F
:103298008F81BBF806200C9908920A44402A00F353
:1032A8008781002943D00C9A6FF0004C089C02FBE0
:1032B80003F39C4413440D9AA2F1020902EB4C0C4F
:1032C80009EB43093CF8026F6DB304F007030127CB
:1032D800E20871469F400EF110037FB203EBC21261
:1032E80000236FEA07085A440BE07F2904D83F2CD3
:1032F80002D8107838431070013301320131AB42E3
:1033080011D006FA03F00004EFD47F29F4D83F2C3B
:10331800F2D8107801330132013108EA0000AB42DB
:1033280002F8010CEDD1E14504F10104CAD1089A73
:10333800BDF824303F2A28BF3F227F2B28BF7F2398
:10334800ABF80620ABF80430069A1378534505D13C
:1033580012F801AF0692BAF1000F8CD10F230B9A25
:103368000021284800934FF410135268CBF804301A
:10337800264B17F0BDFC0A9B059A59781D7892F8E0
:1033880000A05B680C910D93BAF1000F79D00692FA
:10339800AAF12003DAB25E2A00F20781BBF804E042
:1033A8000EEB0502802A099200F3FF80BBF8062085
:1033B8000C9908920A44402A00F3F780002949D062
:1033C8000C9A6FF0004C089C02FB03F39C441344D6
:1033D8000D9AA2F1020902EB4C0C09EB43093CF8E7
:1033E800026F9DB304F007030127E20871469F406E
:1033F8000EF110037FB203EBC21200236FEA070835
:103408005A4411E0C405002494C40108A4C4010866
:103418007F2904D83F2C02D8107838431070013324
:10342800013201319D4211D006FA03F00004EFD4B5
:103438007F29F4D83F2CF2D81078013301320131BA
:1034480008EA00009D4202F8010CEDD1E14504F1C3
:103458000104C4D1089ABDF824303F2A28BF3F226E
:103468007F2B28BF7F23ABF80620ABF80430069AE1
:103478001378534505D112F801AF0692BAF1000F3F
:1034880086D10B9B002159485A680F2300934FF4AB
:103498004013CBF80430564B17F02AFC0A9B059AC8
:1034A8001D7892F800A05A785B6809920A93BAF1DD
:1034B800000F3FF485AAAAF12003DAB25E2A71D878
:1034C800BBF804E00EEB0502802A08926ADCBBF820
:1034D8000620099906920A44402A63DC002943D051
:1034E800099A6FF0004C069C02FB03F39C441344BA
:1034F8000A9AA2F1020902EB4C0C09EB43093CF8C9
:10350800026F6DB304F007030127E20871469F407C
:103518000EF110037FB203EBC21200236FEA070813
:103528005A440BE07F2904D83F2C02D8107838433E
:1035380010700133013201319D4211D006FA03F0B7
:103548000004EFD47F29F4D83F2CF2D81078013347
:103558000132013108EA00009D4202F8010CEDD168
:10356800E14504F10104CAD1069ABDF820303F2A8A
:1035780028BF3F227F2B28BF7F23ABF80620ABF85C
:103588000430059A137853457FF41AAA12F801AF4C
:103598000592BAF1000F3FF413AAAAF12003DAB298
:1035A8005E2A8DD94FF0000AEBE74FF0000A5EE77C
:1035B8004FF0000AC8E64FF0000A38E64FF0000A5C
:1035C8009DE54FF0000AFFF737BB4FF0000AFFF701
:1035D800A6BA4FF0000A4FE44FF0000AFFF7BFBB4E
:1035E80018F066FBB0EE407BFEF7ECBEC405002485
:1035F800B4C40108A34B2DE9F04FD3E900438DB0C3
:103608001B1B0A900C2B4FEAA30200F33081531EB8
:103618000B93002307934FF4806200219A4818F017
:1036280037FD079B0B9A934280F21E810023DFF837
:1036380098B20993079B54F823300B2B15D8DFE871
:1036480013F0F5000701FE00EC00E300DA00D100FA
:10365800C800BF00B600AD000C0003238B48002152
:1036680000938B4B426817F043FB099B0022894962
:103678003F2BABF80420487828BF3F2391F80090EF
:103688000690ABF806300A9B93F800A04B680893A5
:10369800BAF1000F75D00A9B4D460393AAF1200397
:1036A800DAB25E2A00F2DD80BBF804E00EEB050218
:1036B800802A059200F3D580BBF80620069904926B
:1036C8000A44402A00F3CD80002943D0069A6FF0BF
:1036D800004C049C02FB03F39C441344089AA2F197
:1036E800020902EB4C0C09EB43093CF8026F6DB37D
:1036F80004F007030127E20871469F400EF110030A
:103708007FB203EBC21200236FEA07085A440BE0AA
:103718007F2904D83F2C02D8107838431070013321
:10372800013201319D4211D006FA03F00004EFD4B2
:103738007F29F4D83F2CF2D81078013301320131B7
:1037480008EA00009D4202F8010CEDD1CC4504F1D5
:103758000104CAD1049ABDF814303F2A28BF3F2279
:103768007F2B28BF7F23ABF80620ABF80430039AE1
:103778001378534505D112F801AF0392BAF1000F3F
:103788008CD1099B079A0A3301329BB2079209939D
:103798000B9B9A4268D03B4B1C684BE709233B487C
:1037A800002100933C4B426817F0A2FA5DE706231C
:1037B800364800210093394B426817F099FA54E7CC
:1037C8000A23324800210093354B426817F090FADB
:1037D8004BE70A232D4800210093324B426817F02B
:1037E80087FA42E70A232948002100932E4B4268B2
:1037F80017F07EFA39E709232448002100932B4B60
:10380800426817F075FA30E7072320480021009333
:10381800274B426817F06CFA27E707231B4800215B
:103828000093244B426817F063FA1EE705231748F4
:1038380000210093204B426817F05AFA15E7062337
:103848001248002100931D4B426817F051FA0CE70B
:1038580006230E4800210093194B426817F048FAD6
:1038680003E74FF0000A82E70DB0BDE8F08F154B73
:10387800B3F90030079304339342A8BF13460B9360
:10388800C9E600BF3CA00724D49B0724C405002434
:1038980080C501081401002474C5010860C5010829
:1038A80054C5010848C5010868C501083CC5010898
:1038B80034C501082CC5010814C5010824C5010830
:1038C8001CC50108C09B0724C49B07242DE9F04FA1
:1038D8001C46D0E900352DED028BED1A9DB0EB109A
:1038E8000D9097480E91002100FB03F3954806922E
:1038F8004FF480620F9318F0CBFB002C40F06482E9
:10390800002D40F33C8510ABDFF864A20A9408EE62
:10391800103A12ABD346099318AB03938A4B08931A
:103928008A4B0C930E9B0A9A1B6802EB420903EB25
:103938008203D3ED007A0D9BFDEEE77AD3F8008081
:10394800930017EE906A08EBC90A029386EAE675B7
:10395800A5EBE675F60F092D40F24185632D40F27F
:103968006984B5F57A7FC0F0368542F20F739D42BF
:1039780040F22D852B460124AC4608E0824240F2F5
:103988009584BA42C0F08B84AA4240F2C284704D3A
:103998001A467049A646A5FB03536F488A426F4FE3
:1039A8006F4D4FEA533304F10404E7D821466546C6
:1039B8000EF10304099B314410932D2218EE100ACE
:1039C80017F013F9109B674A1E443444664B642071
:1039D800023CA3FB051329465B0900FB13501D4657
:1039E80042F20F7302EB400712F810009942607020
:1039F8007878A070EAD8B1F57A7F80F026843035DF
:103A08003570DAF8042018EE100A58F839300092A8
:103A18000022114617F06CF9039B054604461693DD
:103A280055F8083BAB4200F08284169383681893DC
:103A38006368089A179300232560237210686360EF
:103A4800039A169B934200F00984484A904200F07A
:103A580053840899189A0B60179B4B608B688A608F
:103A6800002800F04F8418931690002317930370D2
:103A78001698039B984203D01899013117F029F83A
:103A88001098099B984203D01299013117F021F838
:103A98000A9A029B13440C9A5B0015789BB23F2B41
:103AA80028BF3F23ABF806300023ABF80430069B51
:103AB80093F800A0134652785B6807920B93BAF10B
:103AC800000F00F09180069B0293AAF12003DAB25E
:103AD8005E2A00F29383BBF804E00EEB0502802A0D
:103AE800059200F38B83BBF80620079904920A44D9
:103AF800402A00F3838300295ED0079A6FF0004CB8
:103B0800049C02FB03F39C4413440B9AA2F10209A0
:103B180002EB4C0C09EB43093CF8026F002D47D02F
:103B280004F007030127E20871469F400EF11003D5
:103B38007FB203EBC21200236FEA07085A4425E05C
:103B4800ABAAAAAAD49B0724C40500241401002404
:103B58005917B7D19F8601003F420F008096980001
:103B6800FFE0F505CCC701081F85EB51CC05002403
:103B7800C49B07247F2904D83F2C02D810783843E7
:103B88001070013301320131AB4211D006FA03F053
:103B98000004EFD47F29F4D83F2CF2D810780133F1
:103BA8000132013108EA0000AB4202F8010CEDD104
:103BB800E14504F10104AFD1049ABDF814303F2A5D
:103BC80028BF3F227F2B28BF7F23ABF80620ABF806
:103BD8000430029A1378534506D112F801AF0292C5
:103BE800BAF1000F7FF471AF0A9B0F9A0133934229
:103BF8000A93FFF697AEDA466423CAF80430934B6B
:103C0800B3F9005085EAE574A4EBE574ED0F092CCF
:103C180040F21584632C40F2A083B4F57A7FC0F09B
:103C2800028442F20F739C4240F21384039B691D85
:103C38002D2216A8169316F0D8FF169B04261D44AD
:103C4800A9198348834B642226460239A3FB0473CF
:103C58005B0902FB13421C4642F20F7300EB420C55
:103C680010F812709E429CF801204F708A70E9D8B3
:103C7800B6F57A7F80F07B8330342C70089B039AEA
:103C88001868169B934200F08683734A904200F0AE
:103C980092830899189A0B60179B4B608B688A600F
:103CA800002800F08E831690189300231793037052
:103CB8001698039B984203D01899013116F009FF12
:103CC800664B5A781D785B6803920593069B93F8B8
:103CD80000B0BBF1000F72D0ABF12003DAB25E2A5C
:103CE80000F29282BAF804E00EEB0502802A0492F0
:103CF80000F38A82BAF80620039902920A44402AFD
:103D080000F38282002943D0039A6FF0004C029C92
:103D180002FB03F39C441344059AA2F1020902EB47
:103D28004C0C09EB43093CF8026F6DB304F0070330
:103D38000127E20871469F400EF110037FB203EBA2
:103D4800C21200236FEA070852440BE07F2904D807
:103D58003F2C02D8107838431070013301320131FA
:103D68009D4211D006FA03F00004EFD47F29F4D85D
:103D78003F2CF2D8107801330132013108EA0000F3
:103D88009D4202F8010CEDD1E14504F10104CAD1CC
:103D9800029ABDF810303F2A28BF3F227F2B28BF48
:103DA8007F23AAF80620AAF80430069A13785B4500
:103DB80005D112F801BF0692BBF1000F8CD11DB0DE
:103DC800BDEC028BBDE8F08F0F9B013B002B0F93DE
:103DD80040F3DC820023DFF890A00A9310ABD346AF
:103DE80008EE103A12AB099318AB03931C4B0893D7
:103DF8001C4B0C930E9B0A9A1B6802EB420903EBBF
:103E08008203D3ED007A0D9BFDEEE77AD3F80080AC
:103E1800930017EE905A08EBC90A029385EAE574F5
:103E2800A4EBE574ED0F092C40F2EB82632C40F211
:103E3800EE81B4F57A7FC0F0E18242F20F739C42C2
:103E480040F2D98223460121A64618E04AA0072459
:103E5800CCC701081F85EB51CC0500241C010024A8
:103E6800C405002414010024C49B0724BA4240F26C
:103E78002A828242C0F02282A24240F22C82B448B6
:103E88001A46B44E8C46A0FB0303B34FB242B34864
:103E9800B34C4FEA533301F10401E7D86046744646
:103EA800C61C099B294410932D2218EE100A16F0FF
:103EB8009CFE109BAB4A1D44A819AB4B64260238E4
:103EC800A3FB041321465B0906FB13461C4642F27A
:103ED8000F7302EB460712F81660994246707E7817
:103EE8008670EAD8B1F57A7F80F09C8130342C70E6
:103EF800DAF8042018EE100A58F839300092002237
:103F0800114616F0F5FE039B05460446169355F830
:103F1800083BAB4200F004821693836818936368E9
:103F2800089A179300232560237210686360039A28
:103F3800169B934200F0A3818C4A904200F0D081F6
:103F48000899189A0B60179B4B608B688A60002849
:103F580000F0CC81189316900023179303701698DD
:103F6800039B984203D01899013116F0B2FD1098BE
:103F7800099B984203D01299013116F0AAFD0A9ABA
:103F8800029B13440C9A5B0015789BB23F2B28BF09
:103F98003F23ABF806300023ABF80430069B93F8B8
:103FA80000A0134652785B6807920B93BAF1000F92
:103FB80074D0069B0293AAF12003DAB25E2A00F2BB
:103FC8002081BBF804E00EEB0502802A059200F37D
:103FD8001881BBF80620079904920A44402A00F386
:103FE8001081002943D0079A6FF0004C049C02FB13
:103FF80003F39C4413440B9AA2F1020902EB4C0C04
:1040080009EB43093CF8026F6DB304F0070301277D
:10401800E20871469F400EF110037FB203EBC21213
:1040280000236FEA07085A440BE07F2904D83F2C85
:1040380002D81078384310700133013201319D42A3
:1040480011D006FA03F00004EFD47F29F4D83F2CEE
:10405800F2D8107801330132013108EA00009D429C
:1040680002F8010CEDD1E14504F10104CAD1049A2A
:10407800BDF814303F2A28BF3F227F2B28BF7F235B
:10408800ABF80620ABF80430029A1378534505D1F3
:1040980012F801AF0292BAF1000F8CD10A9B0F9A65
:1040A800013393420A937FF4A5AEDA460D9B30485C
:1040B8001968303116F0B3FD4FF4A0130C9ACAF802
:1040C8000430069B157893F800B0134652785B6865
:1040D80002920593BBF1000F3FF471AEABF12003E0
:1040E800DAB25E2A00F28780BAF804E00EEB050225
:1040F800802A04927FDCBAF80620029903920A44C7
:10410800402A78DC002957D0029A6FF0004C039CB3
:1041180002FB03F39C441344059AA2F1020902EB43
:104128004C0C09EB43093CF8026F002D40D004F019
:1041380007030127E20871469F400EF110037FB282
:1041480003EBC21200236FEA070852441EE000BFC7
:104158005917B7D19F8601003F420F0080969800FB
:10416800FFE0F505CCC701081F85EB51CC050024FD
:10417800C40500247F2904D83F2C02D8107838437E
:1041880010700133013201319D4211D006FA03F05B
:104198000004EFD47F29F4D83F2CF2D810780133EB
:1041A8000132013108EA00009D4202F8010CEDD10C
:1041B800E14504F10104B6D1039ABDF810303F2A55
:1041C80028BF3F227F2B28BF7F23AAF80620AAF802
:1041D8000430069A13785B457FF4F1AD12F801BFFD
:1041E8000692BBF1000F3FF4EAADABF12003DAB25F
:1041F8005E2A7FF679AF4FF0000BEAE74FF0000A2E
:10420800E7E44FF0000A3FE74FF0000BCDE5099BCC
:104218002D22A91C18EE100A109316F0E6FC109B2C
:104228008D4A1D4402EB440312F814205B782A706F
:104238006B705DE6099B2D22B11C18EE100A1093D5
:1042480016F0D3FC109B844A1E4402EB450312F877
:1042580015205B7832707370FFF7D3BB179A3AB1A9
:10426800012A73D0039917F0EBFE089B179A186878
:10427800089B5A60002383541698FFF7F6BB179AD9
:104288003AB1012A5BD0039917F0DAFE089B179A16
:104298001868089B5A600023835416985CE66546A4
:1042A8000EF106010EF10504FFF784BB0EF10501BE
:1042B800099B654631441093FFF77FBB60467446FF
:1042C800811D461DEDE56046099B0E467446053086
:1042D80010934119E8E560467446C11D861DE0E566
:1042E800089A1360179B5360189B9360039B16935F
:1042F80018AB184603932FE6089A1360179B536070
:10430800189B9360039B169318AB18460393FFF70B
:10431800ACBB65460EF107010EF10604FFF74ABB78
:10432800039E80686968AA68EB680FC6F7E5039E74
:1043380080686968AA68EB680FC6FFF779BB9DF8C3
:1043480060300370089B179A1868A2E79DF86030E0
:104358000370089B179A18688AE7039BA91C16A87C
:104368002D22169316F041FC169B3B481D4400EB8A
:10437800440310F814205B782A706B707EE418AB45
:10438800DFF8E0A00393354B089335E4344BDFF8AE
:10439800D4A00C938AE6179A3AB1012A3CD0039923
:1043A80017F04EFE089B179A1868089B5A6000235E
:1043B8008354169879E4089A1360179B5360189BE6
:1043C8009360039B169318AB184603936DE403247C
:1043D8000421FFF7EFBA02240321FFF7EBBA099B88
:1043E800711C2D2218EE100A109316F0FEFB109B7C
:1043F8001E44FFF704BB0326042152E502260321CD
:104408004FE5099B691C2D2218EE100A109316F02F
:10441800ECFB109B1D4469E59DF860300370089B18
:10442800179A1868C1E702260321039B29442D2205
:1044380016A8169316F0D9FB169B1D4400E4039B9F
:10444800691C2D2216A8169316F0CFFB169B1D4447
:1044580012E403260421E8E7CCC70108C4050024B8
:1044680014010024C49B07242DE9F04FC820F5B09F
:1044780007F0C6F9854B1C682046FDF783FF844B7F
:104488001B789BB1834B1B780D2B0FD8DFE813F0FB
:104498008209C7082A0853079C06CF0536058404F5
:1044A800EE033403A402FA011C015F0050AEDFF8EA
:1044B80010824FF0B009A8F18F074FF47A7A0025DF
:1044C800397B022332467448CDF800A0A8F1800455
:1044D8008DF840518DF8419106F040FA397B02235E
:1044E80032466D48CDF800A08DF840518DF8415105
:1044F80006F034FA4FF0100C397B02233246664836
:10450800CDF800A08DF840518DF841C106F026FA8B
:104518004FF47A7514F801CF4FF0400E397B02231F
:1045280032465D4800958DF840E18DF841C106F0AE
:1045380015FA4445ECD109F1010904F180085FFA44
:1045480089F9B9F1B80FB8D175B0BDE8F08F52AAA2
:10455800524B0DF5B079DFF86CC1509217464FF009
:10456800000E4D464FF00E0B50AE4FF00D0A0DF5F4
:10457800C4780FCB07C73B80CDF844B1CDF858912C
:104588008DF856E19CE80F0007C545495CA82B70DB
:10459800CDF85CA18DF86DE1FCF714FB424631467D
:1045A8004048FCF7C7FBA8F11808434653F8080B26
:1045B800984204D0D8F80810013116F08AFAB045AC
:1045C800F1D13949394ADFED3A6A91ED007A31463D
:1045D800D2ED007A53AA374B27EE267A67EEA67AF1
:1045E800304F1B68344852938DED507ACDED517A97
:1045F800FCF788FA0023D7E9008BCDE94433BBEBFD
:104608000805469301F08D852C4B9D4201F2CC851F
:10461800284616F060FA8146D7E9008B4D44D84504
:104628004695CDE9449901F0F88209F118050DE0A5
:104638009AF8003005F8103C08F11808002345F8EE
:10464800147C1835C345C35501F0E782A5F1100065
:10465800A5F11803A94645F8180CD8E900A71AEBE4
:10466800070F03D0BAF1000F01F0A0850F2F509764
:1046780001F2FB80012FDBD0002FDDD03A465146F6
:1046880017F0DEFC509F55F8180CD5E7C405002438
:10469800D59F07242CA00724CC9B0724F8C6010823
:1046A800A4C50108DC050024B8000024BC000024CF
:1046B8000000C842C000002430A00724F8FFFF7F94
:1046C800539C072408C7010852AAB14B4FF00008B1
:1046D8004FF00F0C509217460DF5C87950AE6EADDD
:1046E8000FCB07C727F8023B1B0CAA4956A83B70FB
:1046F800CDF844C18DF85781FCF764FA5EAB4246A9
:104708004AA95CA85C9311234A9316F003FA4A9BC2
:104718000746DFF8BCC24FF0120E5C905E93BCE80F
:104728000F00FB609CF80030386062A879604AA9E5
:10473800BA603B744A9B5C9A5D9302F803804246D8
:10474800CDF828E1CDF8889116F0E4F94A9B0746A0
:10475800DFF880C262906493BCE80F00FB60BCF88D
:104768000030386068A87960BA603B824A9B629AD8
:104778008949639302F80380FCF724FA2A463146F4
:104788008648FCF7D7FA183D2B4653F8080B984291
:1047980003D0A968013116F09CF9B542F3D1804BDA
:1047A8008049D3ED005A804A804BDFED817A91ED44
:1047B800006A3146D2ED006A65EEA75A93ED007A99
:1047C80026EE276A7B4B66EEA76A67EE277A734F59
:1047D8001B6855AA78485293CDED505A8DED516A11
:1047E800CDED536ACDED547AFCF78CF90023D7E967
:1047F800008BCDE93E33BBEB0805409301F0BE8446
:104808006E4B9D4201F2D084284616F064F9814629
:10481800D7E9008B4D44D8454095CDE93E9901F044
:10482800818309F118050DE09AF8003005F8103C6D
:1048380008F11808002345F8147C1835D845C355E5
:1048480001F07083A5F11000A5F11803A94645F8F9
:10485800180CD8E900A71AEB070F03D0BAF1000F1C
:1048680001F0A4840F2F509700F2F387012FDBD0BB
:10487800002FDDD03A46514617F0E2FB509F55F81D
:10488800180CD5E750AE4E4958AF3046FCF79AF9A8
:104898004C4B3D464FF00E0E4FF0000C56970FCB89
:1048A80007C53E485CAA2B803146CDF85CE18DF8FF
:1048B8006EC1FCF73FFA5698B84203D058990131B7
:1048C80016F007F9509852ADA84203D05299013119
:1048D80016F0FFF83C492A469FED357AD1ED007A6B
:1048E80031463A4B67EE877A2C4F1B683248519312
:1048F800CDED507AFCF706F90023D7E9008BCDE916
:104908003233BBEB0805349301F002842B4B9D42F4
:1049180001F24A84284616F0DEF88146D7E9008B72
:104928004D44C3453495CDE9329901F08B8009F1A6
:1049380018050DE09AF8003005F8103C08F1180841
:10494800002345F8147C1835C345C35501F07A8017
:10495800A5F11000A5F11803A94645F8180CD8E9E7
:1049680000A71AEB070F03D0BAF1000F01F01E845D
:104978000F2F509700F2B487012FDBD0002FDDD026
:104988003A46514617F05CFB509F55F8180CD5E78E
:10499800B0C60108C0C60108A4C50108DC0500248A
:1049A80094000024900000249C000024A00000240F
:1049B8000000C8429800002430A00724F8FFFF7FB9
:1049C80090C5010850C60108A8000024A4000024CE
:1049D800D0C60108E4C60108944A52AF944B4FF080
:1049E800000C58AD4FF00D0E50AE07CA87E807000F
:1049F8000C2256958DF854C1CDE950720FCB62AF99
:104A080007C58C495CA82B70CDF85CE18DF86DC1A9
:104A1800FCF7D8F83A4631468748FCF78BF9183F37
:104A28003B4653F8080B984203D0B968013116F099
:104A380050F8B742F3D1814A9FED817AD2ED007ADE
:104A480053AA8049804B67EE877A09681B687A4FBA
:104A5800509131467D485193CDED527AFCF752F88A
:104A68000023D7E9008BCDE92C33BBEB08052E9347
:104A780001F04B83764B9D4201F29683284616F04F
:104A88002AF88146D7E9008B4D44D8452E95CDE9C3
:104A98002C9900F03D8709F118050DE09AF80030CF
:104AA80005F8103C08F11808002345F8147C18355F
:104AB800C345C35500F02C87A5F11000A5F11803D4
:104AC800A94645F8180CD8E900A71AEB070F03D038
:104AD800BAF1000F01F06A830F2F509700F20C878C
:104AE800012FDBD0002FDDD03A46514617F0A8FA47
:104AF800509F55F8180CD5E752AA564BDFF868E1D5
:104B08000DF5B07C509215464FF000084FF00F0A93
:104B18004FF00C0950AE62AF0FCB07C59EE80700F7
:104B280025F8023B1B0C2B70CDF844A1CDF85C9105
:104B38008DF857818DF86C81CDF858C18CE8070045
:104B480045495CA8FCF73EF83A4631463A48FCF736
:104B5800F1F8183F3B4653F8080B984203D0B96860
:104B6800013115F0B6FFB742F3D13C4A9FED347AD4
:104B7800D2ED007A53AA3A493A4B67EE877A096828
:104B88001B682D4F5091314630485193CDED527AE4
:104B9800FBF7B8FF0023D7E9008BCDE92633BBEB41
:104BA8000805289301F0E182294B9D4201F2FC821D
:104BB800284615F090FF8146D7E9008B4D44D8452B
:104BC8002895CDE9269900F0F08609F118050DE041
:104BD8009AF8003005F8103C08F11808002345F849
:104BE800147C1835C345C35500F0DF86A5F11000C5
:104BF800A5F11803A94645F8180CD8E900A71AEB3F
:104C0800070F03D0BAF1000F01F0D0820F2F509791
:104C180000F25A86012FDBD0002FDDD03A465146EC
:104C280017F00EFA509F55F8180CD5E730C6010852
:104C380040C60108A4C50108DC0500246C00002456
:104C48000000C842640000246800002430A0072443
:104C5800F8FFFF7F04C6010824C6010838000024B5
:104C6800040000243400002414C6010850AE56AFD6
:104C78008F4974AD3046FBF7A5FF8E493846FBF7E0
:104C8800A1FF8D495CA8FBF79DFF8C4962A8FBF743
:104C980099FF8B4968A8FBF795FF6EA88949FBF730
:104CA80091FF74AA31468848FCF744F8183D2B4612
:104CB80053F8080B984203D0A968013115F009FF91
:104CC800B542F3D1814B3A4681491B68D1ED007A50
:104CD800314650937F4B9FED807A1B6867EE877A49
:104CE800794F51937D4B7E481B68CDED557A529391
:104CF8007C4B1B6853937C4B1B685493FBF702FF58
:104D08000023D7E9008BCDE93833BBEB08053A938C
:104D180001F02882754B9D4201F24682284615F023
:104D2800DAFE8146D7E9008B4D44C3453A95CDE973
:104D3800389901F0AA8009F118050DE09AF80030B9
:104D480005F8103C08F11808002345F8147C1835BC
:104D5800C345C35501F09980A5F11000A5F11803CA
:104D6800A94645F8180CD8E900A71AEB070F03D095
:104D7800BAF1000F01F01A820F2F509700F25D85EB
:104D8800012FDBD0002FDDD03A46514617F058F9F5
:104D9800509F55F8180CD5E750AE554958AD002727
:104DA8003046FBF70FFF474A2B4656954FF00B0C42
:104DB80007CA03C323F8022B120C434831461A7062
:104DC8005CAACDF85CC18DF86B71FBF7B3FF569800
:104DD800A84203D05899013115F07BFE509852AD86
:104DE800A84203D05299013115F073FE414B2A466F
:104DF8004149DFED396A91ED007A3146D3ED007A09
:104E080027EE267A304F67EEA67A35488DED507A30
:104E1800CDED517AFBF776FE0023D7E9008BCDE97B
:104E28002033BBEB0805229301F087812F4B9D426D
:104E380001F2BA81284615F04EFE8146D7E9008B6B
:104E48004D44C3452295CDE9209900F0488609F1E3
:104E580018050DE09AF8003005F8103C08F118081C
:104E6800002345F8147C1835D845C35500F037861B
:104E7800A5F11000A5F11803A94645F8180CD8E9C2
:104E880000A71AEB070F03D0BAF1000F01F08E81CB
:104E98000F2F509700F20085012FDBD0002FDDD0B7
:104EA8003A46514617F0CCF8509F55F8180CD5E7FC
:104EB80060C6010870C6010880C6010890C60108CE
:104EC800A0C60108A4C50108DC05002424000024AC
:104ED800300000241C0000240000C84228000024E0
:104EE80030A00724200000242C000024F8FFFF7FB6
:104EF800F4C501084C0000244800002452A9A14A26
:104F08004FF0090C002750910B4650AE62AD07CA0E
:104F180003C39D4956A81A70CDF844C18DF8517144
:104F2800FBF750FE994A5EAB4FF00B0C5C9307CA37
:104F380003C323F8022B120C314695481A702A46EF
:104F4800CDF874C18DF88371FBF7F4FE183D2B463C
:104F580053F8080B984203D0A968013115F0B9FD40
:104F6800B542F3D18B498C4ADFED8C6A91ED007A1A
:104F78003146D2ED007A53AA894B27EE267A67EE9E
:104F8800A67A834F1B68874850938DED517ACDEDF3
:104F9800527AFBF7B7FD0023D7E9008BCDE91A3326
:104FA800BBEB08051C9301F0C5807F4B9D4201F2C5
:104FB800FB80284615F08FFD8146D7E9008B4D44CC
:104FC800C3451C95CDE91A9900F0DA8509F1180551
:104FD8000DE09AF8003005F8103C08F11808002395
:104FE80045F8147C1835D845C35500F0C985A5F196
:104FF8001000A5F11803A94645F8180CD8E900A730
:105008001AEB070F03D0BAF1000F01F0CF800F2F72
:10501800509700F24D84012FDBD0002FDDD03A46A7
:10502800514617F00DF8509F55F8180CD5E750AEBB
:1050380054494FF000086EAD3046FBF7C3FD58AA3F
:10504800514B4FF00D0C569217460FCB07C75749D7
:105058005CA83B700B27CDF85CC18DF86D81FBF720
:10506800B1FD534962A8FBF7ADFD484A6AAB07CAD0
:10507800689303C323F8022B120C314644481A7074
:105088002A4669978DF8B381FBF754FE183D2B46E5
:1050980053F8080B984203D0A968013115F019FD9F
:1050A800B542F3D14349444A444B9FED3C6AD1EDA4
:1050B800006A92ED007AD3ED007A66EE866A404A7D
:1050C80027EE067A3F4B67EE867A116855AA1B6869
:1050D8002F4F5391314633485093CDED516A8DEDA2
:1050E800527ACDED547AFBF70DFD0023D7E9008BFA
:1050F800CDE91433BBEB0805169301F02A802A4B3F
:105108009D4201F25180284615F0E5FC8146D7E919
:10511800008B4D44C3451695CDE9149900F0CA8516
:1051280009F118050DE09AF8003005F8103C08F16F
:105138001808002345F8147C1835D845C35500F0E5
:10514800B985A5F11000A5F11803A94645F8180C72
:10515800D8E900A71AEB070F03D0BAF1000F01F046
:1051680025800F2F509700F28C83012FDBD0002F62
:10517800DDD03A46514616F063FF509F55F8180C9B
:10518800D5E700BFB0C50108BCC50108A4C5010822
:10519800DC050024AC000024B40000240000C84250
:1051A800B000002430A00724F8FFFF7F90C5010855
:1051B800E8C50108540000245800002460000024B9
:1051C800500000245C00002450AEB0494FF00008A5
:1051D8006EAD3046FBF7F6FCAD4956A8FBF7F2FC7E
:1051E8005EA9102300225C915CA84AA94A9315F095
:1051F80091FC4A9BDFF8D0C207465C905E93BCE8FE
:105208000F00386062A87960BA60FB600B274A9B80
:105218005C9A5D939F4902F80380FBF7D3FC9E4A92
:105228006AAB07CA689303C323F8022B120C3146F2
:105238009A481A702A4669978DF8B381FBF77AFD68
:10524800183D2B4653F8080B984203D0A968013142
:1052580015F03FFCB542F3D19149924A924B9FED2C
:10526800936AD1ED006A92ED007AD3ED007A66EE8A
:10527800866A8F4A27EE067A8E4B67EE867A116821
:1052880055AA1B68854F539131468B485093CDEDF5
:10529800516A8DED527ACDED547AFBF733FC002339
:1052A800D7E9008BCDE90E33BBEB0805109300F06E
:1052B8004D87824B9D4200F27787284615F00BFCFC
:1052C8008146D7E9008B4D44D8451095CDE90E9914
:1052D80000F0C68609F118050DE09AF8003005F8C7
:1052E800103C08F11808002345F8147C1835D845F7
:1052F800C35500F0B586A5F11000A5F11803A9461D
:1053080045F8180CD8E900A71AEB070F03D0BAF133
:10531800000F00F04B870F2F509700F28382012F68
:10532800DBD0002FDDD03A46514616F089FE509F5B
:1053380055F8180CD5E750AE56AF544900253046FD
:10534800FBF740FC52493846FBF73CFC5C495CA83B
:10535800FBF738FC5B4A64AB4FF00B0C07CA62934F
:1053680003C323F8022B120C574968A81A70CDF80A
:105378008CC18DF89B51FBF725FC74AD6EA846498E
:10538800FBF720FC74AA31464448FBF7D3FC183DD0
:105398002B4653F8080B984203D0A968013115F041
:1053A80098FBB542F3D1494B3146494AD3ED006ADF
:1053B800484B92ED007A1B68474A5093474B9FED44
:1053C8003B6A1B68D2ED007A27EE067A529366EEA6
:1053D800866A434B67EE867A3A46304F1B683648F2
:1053E8005393CDED516A8DED547ACDED557AFBF797
:1053F80089FB0023D7E9008BCDE90833BBEB08050F
:105408000A9300F0AC862D4B9D4200F2CD862846CB
:1054180015F061FB8146D7E9008B4D44D8450A95C4
:10542800CDE9089900F0938409F118050DE09AF880
:10543800003005F8103C08F11808002345F8147CE2
:105448001835D845C35500F08284A5F11000A5F1A0
:105458001803A94645F8180CD8E900A71AEB070F56
:1054680003D0BAF1000F00F0A1860F2F509700F279
:10547800A281012FDBD0002FDDD03A46514616F02D
:10548800DFFD509F55F8180CD5E700BFB0C50108DF
:10549800BCC50108E8C50108A4C50108DC0500244D
:1054A8000C00002410000024180000240000C8424A
:1054B800080000241400002430A00724F8FFFF7F10
:1054C800CCC50108DCC5010890C501087800002496
:1054D8007C000024880000248C0000248000002424
:1054E8008400002450AEBF49BF4F0DF5C478304644
:1054F800FBF768FB58A910230022569156A84AA921
:105508004A9315F007FB4A9B5690054658934FF06F
:10551800000C0FCF28605CA86960AA60EB604A9B0A
:10552800569AB249579302F803C0FBF74BFB424621
:105538003146AF48FBF7FEFBA8F11808434653F87D
:10554800080B984204D0D8F80810013115F0C1FAB8
:10555800B045F1D1A749A84ADFEDA86A91ED007AD4
:105568003146D2ED007A53AAA54B27EE267A67EE8C
:10557800A67A9F4F1B68A34850938DED517ACDEDC5
:10558800527AFBF7BFFA0023D7E9008BCDE9023343
:10559800BBEB0805049300F0DF859B4B9D4200F2AE
:1055A8000386284615F097FA8146D7E9008B4D44C3
:1055B800D8450495CDE9029900F0018509F118054F
:1055C8000DE09AF8003005F8103C08F1180800239F
:1055D80045F8147C1835D845C35500F0F084A5F17A
:1055E8001000A5F11803A94645F8180CD8E900A73A
:1055F8001AEB070F03D0BAF1000F00F0D7850F2F71
:10560800509700F2E380012FDBD0002FDDD03A461F
:10561800514616F015FD509F55F8180CD5E750AEB9
:105628007A497B4F3046FBF7CDFA58AA12234AA98C
:10563800569256A800224A9315F06CFA4A9B569047
:10564800054658934FF0000C0FCFEB603B885EAFD8
:1056580028604AA86960AA602B824A9B569A579389
:105668006C4902F803C0FBF7ADFA6B4B4AA8D3E9C3
:10567800001215F0BBFB84465C9705465CF8083BB6
:10568800634500F087855C9383685E936B6862AAC4
:10569800314657485D930023C5F800C06B602B72F4
:1056A8001546FBF747FB183D2B4653F8080B984265
:1056B80003D0A968013115F00CFAB542F3D14A9824
:1056C8004CAB984203D04C99013115F002FA534B78
:1056D8003146534ADFED496A92ED007A52AAD3ED7A
:1056E800007A27EE267A424F67EEA67A45488DED76
:1056F800507ACDED517AFBF705FAD7F804B00023BC
:10570800D7F800804C93BBEB0805CDE94A3300F08D
:105718003B853D4B9D4200F24785284615F0DBF955
:105728008146D7E9008B4D44D8454C95CDE94A9937
:1057380000F05E8309F118050DE09AF8003005F8CD
:10574800103C08F11808002345F8147C1835C345A7
:10575800C35500F04D83A5F11000A5F11803A94623
:1057680045F8180CD8E900A71AEB070F03D0BAF1CF
:10577800000F00F01B850F2F509711D8012FDCD098
:10578800002FDED03A46514616F05AFC509F55F885
:10579800180CD6E7204650AEFDF72CFFFEF787BE63
:1057A80018460022314615F0B5F9509B45F8180CFB
:1057B80045F8103CE6E718460022314615F0AAF9EC
:1057C800509B45F8180C45F8103C56E61846002240
:1057D800314615F09FF9509B45F8180C45F8103CD8
:1057E80015E700BF84C5010890C50108A4C50108D4
:1057F800DC0500243C000024440000240000C842CA
:105808004000002430A00724F8FFFF7F18C70108D4
:105818002CC7010840C70108AC0500247400002407
:105828007000002418460022314615F073F9509B89
:1058380045F8180C45F8103C75E518460022314625
:1058480015F068F9509B45F8180C45F8103CFFF71F
:105858009BBA18460022314615F05CF9509B45F872
:10586800180C45F8103CFFF705B8184600223146D9
:1058780015F050F9509B45F8180C45F8103CFEF708
:10588800FDBE18460022314615F044F9509B45F8F4
:10589800180C45F8103C6CE418460022314615F007
:1058A80039F9509B45F8180C45F8103CFFF7F8BA41
:1058B80018460022314615F02DF9509B45F8180C72
:1058C80045F8103CFFF7ABBB18460022314615F0EF
:1058D80021F9509B45F8180C45F8103CFFF79EB984
:1058E80018460022314615F015F9509B45F8180C5A
:1058F80045F8103CFFF744B818460022314615F029
:1059080009F9509B45F8180C45F8103CFFF7ECB81E
:10591800994F0023CDF8B4903193D7E90010CDE921
:105928002F33451A00F0EE83944B9D4200F23C84DD
:10593800284615F0D0F80346D7E90010471A1D4449
:1059480081423195CDE92F3304D018463A4616F0F6
:1059580085FB03463B442CA822462FA930930023FD
:10596800FDF7B4FF2F9818B13199091A15F0B1F85D
:10597800DDE92C47BC420ED004F1080555F8080CA7
:10598800854203D0A168013115F0A3F81834183501
:10599800A742F3D12C9F002F3EF489AD2E993846AB
:1059A800C91B15F096F8FEF782BD734F0023CDF89A
:1059B8009C902B93D7E90010CDE92933451A00F0C4
:1059C8009E836E4B9D4200F2EF83284615F083F8C4
:1059D8000346D7E90010471A1D4488422B95CDE9A4
:1059E800293304D018463A4616F038FB03463B44A0
:1059F80026A8224629A92A930023FDF767FF29989C
:105A080018B12B99091A15F064F8DDE92647BC424C
:105A18000ED004F1080555F8080C854203D0A1689A
:105A2800013115F056F818341835A742F3D1269FDE
:105A3800002F3EF43CAD28993846C91B15F049F8AB
:105A4800FEF735BD4C4F0023CDF8CC903793D7E9FE
:105A58000010CDE93533451A00F06983474B9D4264
:105A680000F2A283284615F036F80346D7E900105D
:105A7800471A1D4488423795CDE9353304D0184676
:105A88003A4616F0EBFA03461F4432A80023224692
:105A980035A93697FDF71AFF359818B13799091ABD
:105AA80015F017F8DDE93247BC420ED004F10805BD
:105AB80055F8080C854203D0A168013115F009F8A2
:105AC80018341835A742F3D1329F002F3EF4EFACBB
