:020000040800F2
:10000000000002205909000855090008D56F0008B2
:1000100055090008550900085509000800000000AE
:10002000000000000000000000000000550900086A
:10003000550900080000000055090008596F000824
:100040005509000855090008550900085509000818
:100050005509000855090008550900085509000808
:10006000550900085509000855090008616B00088A
:100070006D6B0008B95A0008796B0008856B0008A1
:10008000ED1001088D6000085509000855090008A9
:1000900055090008550900085509000855090008C8
:1000A00055090008550900085509000855090008B8
:1000B000C1040108CD040108D9040108C160000889
:1000C00055090008CD6000085509000831FD0008F9
:1000D0003DFD0008210F0108510F0108850F01089F
:1000E00055090008550900080000000055090008DE
:1000F0005509000855090008550900085509000868
:100100005509000855090008E504010849FD0008E3
:10011000B90F0108ED0F010855090008550900083D
:1001200055090008550900086DFD0008A1FD0008EB
:100130002111010855090008550900085509000852
:1001400000000000000000000000000000000000AF
:100150005509000855090008550900082110010833
:10016000D960000855090008696F00088D6F000804
:1001700055090008B16F0008550900085509000825
:100180005509000855090008551001088510010897
:1001900055FD000861FD00085509000855090008D3
:1001A00055090008550900085509000855090008B7
:1001B000816800085509000855090008550900081C
:1001C0005509000855090008550900085509000897
:1001D0005509000855090008550900085509000887
:1001E0005509000855090008550900085509000877
:1001F0005509000855090008550900085509000867
:100200005509000855090008550900085509000856
:100210005509000855090008550900085509000846
:10022000550900085509000855090008000000009C
:10023000550900085509000800000000550900088C
:100240005509000855090008550900085509000816
:100250005509000855090008550900085509000806
:1002600055090008550900085509000855090008F6
:100270005509000855090008B910010800000000E0
:10028000550900085509000855090008000000003C
:08029000000000005509000800
:1002980010B5054C237833B9044B13B10448AFF3B8
:1002A80000800123237010BDA80400240000000072
:1002B800B8A1010808B5034B1BB103490348AFF3C4
:1002C800008008BD00000000AC040024B8A10108AB
:1002D80081F0004102E000BF83F0004330B54FEAEF
:1002E80041044FEA430594EA050F08BF90EA020F5C
:1002F8001FBF54EA000C55EA020C7FEA645C7FEAEF
:10030800655C00F0E2804FEA5454D4EB5555B8BF11
:100318006D420CDD2C4480EA020281EA030382EA82
:10032800000083EA010180EA020281EA0303362D14
:1003380088BF30BD11F0004F4FEA01314FF4801CE7
:100348004CEA113102D0404261EB410113F0004FF9
:100358004FEA03334CEA133302D0524263EB4303B0
:1003680094EA050F00F0A780A4F10104D5F1200E4E
:100378000DDB02FA0EFC22FA05F2801841F10001A9
:1003880003FA0EF2801843FA05F359410EE0A5F17D
:1003980020050EF1200E012A03FA0EFC28BF4CF0AE
:1003A800020C43FA05F3C01851EBE37101F0004564
:1003B80007D54FF0000EDCF1000C7EEB00006EEB71
:1003C8000101B1F5801F1BD3B1F5001F0CD34908FB
:1003D8005FEA30004FEA3C0C04F101044FEA445252
:1003E80012F5800F80F09A80BCF1004F08BF5FEAD9
:1003F800500C50F1000041EB045141EA050130BDB9
:100408005FEA4C0C404141EB0101013C28BFB1F5CA
:10041800801FE9D291F0000F04BF01460020B1FA15
:1004280081F308BF2033A3F10B03B3F120020CDAE8
:100438000C3208DD02F1140CC2F10C0201FA0CF0C6
:1004480021FA02F10CE002F11402D8BFC2F1200C2B
:1004580001FA02F120FA0CFCDCBF41EA0C019040E1
:10046800E41AA2BF01EB0451294330BD6FEA04042A
:100478001F3C1CDA0C340EDC04F11404C4F1200215
:1004880020FA04F001FA02F340EA030021FA04F327
:1004980045EA030130BDC4F10C04C4F1200220FA7E
:1004A80002F001FA04F340EA0300294630BD21FABC
:1004B80004F0294630BD94F0000F83F4801306BF82
:1004C80081F480110134013D4EE77FEA645C18BF76
:1004D8007FEA655C29D094EA050F08BF90EA020F0D
:1004E80005D054EA000C04BF1946104630BD91EA05
:1004F800030F1EBF0021002030BD5FEA545C05D108
:100508004000494128BF41F0004130BD14F5800446
:100518003CBF01F5801130BD01F0004545F0FE41BA
:1005280041F470014FF0000030BD7FEA645C1ABFEF
:10053800194610467FEA655C1CBF0B46024650EA26
:10054800013406BF52EA033591EA030F41F4002152
:1005580030BD00BF90F0000F04BF0021704730B5D8
:100568004FF4806404F132044FF000054FF00001AD
:1005780050E700BF90F0000F04BF0021704730B56E
:100588004FF4806404F1320410F0004548BF404243
:100598004FF000013EE700BF42004FEAE2014FEA98
:1005A80031014FEA02701FBF12F07F4393F07F4F73
:1005B80081F06051704732F07F4208BF704793F076
:1005C8007F4F04BF41F40021704730B54FF4607489
:1005D80001F0004521F000411CE700BF50EA01028C
:1005E80008BF704730B54FF000050AE050EA010235
:1005F80008BF704730B511F0004502D5404261EBA5
:1006080041014FF4806404F132045FEA915C3FF4E5
:10061800D8AE4FF003025FEADC0C18BF03325FEA82
:10062800DC0C18BF033202EBDC02C2F1200300FA33
:1006380003FC20FA02F001FA03FE40EA0E0021FA58
:1006480002F11444BDE600BF53B94AB9002908BFF6
:1006580000281CBF4FF0FF314FF0FF3000F074B995
:10066800ADF1080C6DE904CE00F006F8DDF804E001
:10067800DDE9022304B070472DE9F047089D0446E0
:100688008E46002B4DD18A42944669D9B2FA82F23D
:1006980052B101FA02F3C2F1200120FA01F10CFA79
:1006A80002FC41EA030E94404FEA1C48210CBEFBB1
:1006B800F8F61FFA8CF708FB16E341EA034306FB3A
:1006C80007F199420AD91CEB030306F1FF3080F0C9
:1006D8001F81994240F21C81023E63445B1AA4B216
:1006E800B3FBF8F008FB103344EA034400FB07F7B8
:1006F800A7420AD91CEB040400F1FF3380F00A81F9
:10070800A74240F207816444023840EA0640E41BED
:1007180000261DB1D4400023C5E900433146BDE899
:10072800F0878B4209D9002D00F0EF800026C5E93B
:10073800000130463146BDE8F087B3FA83F6002E53
:100748004AD18B4202D3824200F2F980841A61EBCB
:10075800030301209E46002DE0D0C5E9004EDDE7E9
:1007680002B9FFDEB2FA82F2002A40F09280A1EBD1
:100778000C014FEA1C471FFA8CFE0126200CB1FB26
:10078800F7F307FB131140EA01410EFB03F088421F
:1007980008D91CEB010103F1FF3802D2884200F2AC
:1007A800CB804346091AA4B2B1FBF7F007FB10113E
:1007B80044EA01440EFB00FEA64508D91CEB0404DC
:1007C80000F1FF3102D2A64500F2BB800846A4EB37
:1007D8000E0440EA03409CE7C6F12007B34022FA22
:1007E80007FC4CEA030C20FA07F401FA06F31C4351
:1007F800F9404FEA1C4900FA06F3B1FBF9F8200C5E
:100808001FFA8CFE09FB181140EA014108FB0EF0A3
:10081800884202FA06F20BD91CEB010108F1FF3AF3
:1008280080F08880884240F28580A8F102086144FF
:10083800091AA4B2B1FBF9F009FB101144EA01410D
:1008480000FB0EFE8E4508D91CEB010100F1FF34B8
:100858006CD28E456AD90238614440EA0840A0FB50
:100868000294A1EB0E01A142C846A64656D353D026
:100878005DB1B3EB080261EB0E0101FA07F722FA4A
:1008880006F3F1401F43C5E9007100263146BDE873
:10089800F087C2F12003D8400CFA02FC21FA03F3D6
:1008A800914001434FEA1C471FFA8CFEB3FBF7F057
:1008B80007FB10360B0C43EA064300FB0EF69E427C
:1008C80004FA02F408D91CEB030300F1FF382FD215
:1008D8009E422DD9023863449B1B89B2B3FBF7F6BD
:1008E80007FB163341EA034106FB0EF38B4208D996
:1008F8001CEB010106F1FF3816D28B4214D9023ED7
:100908006144C91A46EA004638E72E46284605E7F4
:100918000646E3E61846F8E64B45A9D2B9EB0208C5
:1009280064EB0C0E0138A3E74646EAE7204694E755
:100938004046D1E7D0467BE7023B614432E7304688
:1009480009E76444023842E7704700BFFEE700BF8A
:100958000B480C4A904203D0121A0B4916F0CCFEF1
:100968000A480B4A904203D0121A002116F0D2FE10
:1009780006F056FD16F08CFE03F05CF9FEE700BFAA
:1009880000000024A8040024ECA10108A804002405
:1009980010D60724704700BF704700BF704700BFDC
:1009A800704700BF704700BF704700BF704700BF67
:1009B800704700BF704700BF704700BF704700BF57
:1009C800704700BF704700BF704700BF704700BF47
:1009D800704700BF704700BF4020704780207047B5
:1009E80049424FF480621030C9B216F093BE00BF7E
:1009F800704700BF10B504464FF4826115F0C1FC82
:100A0800204610BD10B50446006818B1A168091A3F
:100A180015F0B7FC204610BD10B50446006818B1A3
:100A2800A168091A15F0ADFC204610BD704700BF3B
:100A38002DE9F04F4FF0B00885B0054600F10807E2
:100A480000F18F0600F28F494FF47A7B4FF0000ACD
:100A5800297B022303AA3846CDF800B0A6F180040A
:100A68008DF80CA08DF80D8005F0CEFB297B0223B4
:100A780003AA3846CDF800B08DF80CA08DF80DA06B
:100A880005F0C2FB4FF0100C297B022303AA38465D
:100A9800CDF800B08DF80CA08DF80DC005F0B4FBB2
:100AA8004FF47A7014F801CF4FF0400E297B0223DF
:100AB800009003AA38468DF80CE08DF80DC005F0BB
:100AC800A3FBB442ECD104F1800608F101084E45BD
:100AD8005FFA88F8B8D105B0BDE8F08F2DE9F04F7E
:100AE80085B0A1F1200504AC9DF83870009104E9A7
:100AF8000C00EBB25E2B00F29580036880465D4ADD
:100B0800DB689DF8084093429DF8096040F09480A6
:100B18008020B8F804302344834200F38380D8F857
:100B28000030554A9B68934240F088804020B8F8CE
:100B3800062093190192834274DC002E00F089800C
:100B480006FB05F56FF00040039B964628442E44AB
:100B5800B8F804A003EB4000023B03EB460B30F867
:100B6800026FBCB30EF007034FF0010C4FEADE0230
:100B780051460CFA03FC0AF110034FFA8CFC03EB04
:100B8800C21200236FEA0C0942440EE07F2907D8FD
:100B9800BEF13F0F04D815789FB14CEA05051570D2
:100BA8000133013201319C4214D006FA03F52D04B9
:100BB800ECD47F29F4D8BEF13F0FF1D81578002F77
:100BC800EBD0013309EA0505013201319C4202F8F4
:100BD800015CEAD158450EF1010EC0D1D8F80030B9
:100BE80054442449DA68A4B28A422DD18020844230
:100BF8001CD29B68204AA8F80440934221D1402087
:100C0800019B834207D3D8F800301B4A9B68934264
:100C180029D13F230193DDE90003A8F8063005B088
:100C2800BDE8F08F002005B0BDE8F08FDA68114903
:100C38008A4211D17F24DCE798476AE74046984703
:100C480075E740469847DBE740469047D8F80030BC
:100C5800CDE7B8F804A0C1E7404690470138D8F876
:100C6800003084B2C5E740469847013883B2019303
:100C7800D1E700BFE5090008E10900082DE9F04FB8
:100C880089B008AC9DF84870019104E90C000B7814
:100C9800002B00F0AB801A469DF818809DF819309B
:100CA8000646454690460393079B0593A8F1200402
:100CB800E3B25E2B00F29E8033685E4ADB689342A3
:100CC80040F09B808020B3882B44834200F39280BD
:100CD8003368594A9B68934240F092804020F188DB
:100CE800039A02918B18834200F38480002A00F053
:100CF800918002FB04F46FF00049059BA144144461
:100D0800B6F804B003EB4909023BCDF8108003EBB9
:100D180044030C469A4639F802CFA5B304F00703FA
:100D28004FF0010EE20859460EFA03FE0BF11003CC
:100D38004FFA8EFE03EBC21200236FEA0E0832440C
:100D48000DE07F2906D83F2C04D8107897B14EEAD9
:100D580000001070013301320131AB4213D00CFA9C
:100D680003F00004EDD47F29F4D83F2CF2D8107892
:100D7800002FECD0013308EA000001320131AB4208
:100D880002F8010CEBD1D14504F10104C3D1DDF81F
:100D9800108032680BEB05042649D368A4B28B4255
:100DA80034D18020844204D3D36822498B423AD17B
:100DB8007F249368204AB480934224D14020029B28
:100DC800834206D333681C4A9B68934225D13F234C
:100DD8000293029BF380019B1878404507D113F8D2
:100DE800018F0193B8F1000F7FF460AF002009B0C4
:100DF800BDE8F08F4FF00008EDE73046984762E70E
:100E0800304698476BE730469847D8E730469847CA
:100E18003268C7E7B6F804B0BBE730469847431EC8
:100E28009BB20293D5E7304698470138326884B2BE
:100E3800BFE700BFE5090008E10900087F291ED8BF
:100E48003F2A1CD86BB1D3084FF0010C02F00702FF
:100E580001EBC3130CFA02F2C1180B7C1A430A7493
:100E68007047D3084FF0010C02F0070201EBC313DF
:100E78000CFA02FCC1180A7C22EA0C020A747047B8
:100E88002DE9F04F83B05C1A0C9E002C9DF834902D
:100E9800A6EB0208B8BF6442B8F1000FB8BFC8F1AA
:100EA80000088B428CBF4FF0010A4FF0FF3A964280
:100EB800A4EB080C51D84FF0FF357F2B019512D8C1
:100EC8003F2E10D8F50806F0070E012703EBC515CD
:100ED8000544B9F1000F47D007FA0EF795F810E06E
:100EE80047EA0E072F74964201D18B4229D0C8F1E8
:100EF80000077F2914D83F2A12D8D50802F0070B1B
:100F08004FF0010E01EBC5150544B9F1000F1BD0D8
:100F18000EFA0BFE95F810B04EEA0B0E85F810E0AD
:100F2800B7EB4C0F4FEA4C0502DAACEB080C514416
:100F3800AC4202DD019DA4442A449942D9D196428B
:100F4800D7D103B0BDE8F08F0EFA0BFB95F810E08F
:100F58002EEA0B0E85F810E0E2E701257F2B0195BC
:100F6800C5D83F2EAED9C2E707FA0EFE2F7C9642AF
:100F780027EA0E072F74B8D0B9E700BF00000000B9
:100F88002DE9F04F2DED068B83B01F4680460D46A8
:100F98009DF8503016460193139B002BC0F2218216
:100FA800129A134406EE103ADDED127AB8EEC66BCB
:100FB8009FEDCD4BB8EEE77B9FEDCD5B27EE047B35
:100FC80026EE046B87EE050B86EE05ABF7EEC08BBD
:100FD800B0EE680A15F0BCFA07EE907AB7EECAAB25
:100FE800F8EE679AB0EE408AB0EE680A16F0DCF8C0
:100FF80060EE698AB0EE4A0A15F0AAFAB0EE409A95
:10100800B0EE4A0A16F0D0F820EE690A29EE888A6E
:1010180029EE899A70EE687AF0EE006A39EE487A1D
:1010280067EEA77AE7EE077AF4EEE67AF1EE10FAC1
:1010380006D5139BB42B40F396804FF0010901E0CD
:101048004FF00009012478424FF0000C0095E31B93
:10105800214627462246A340B9F1000F6AD14242F1
:1010680006EE90CACCF1000107EE102AB8EEE66A47
:1010780007EE901A06EE900AB8EEC77A139A66EE53
:10108800084AF8EEE77AB42A27EE284AF8EEE66A24
:1010980067EE885A74EEC43A26EEA85A26EE096A14
:1010A80066EE806A67EE897A27EE007AF5EEC03A36
:1010B80040F3F280F1EE10FA00F17F8176EE473AC4
:1010C80074EEC54AF5EEC03AF1EE10FAF5EEC04AF4
:1010D800CCBF01220022F1EE10FA00F1778136EE42
:1010E800666A35EEC55AB5EEC06AF1EE10FAB5EE8D
:1010F800C05ACCBF01210021F1EE10FA00F16F8136
:1011080077EEE66AF5EEC06AF1EE10FACCBF012779
:10111800002775EEC45AF5EEC05AF1EE10FA00F148
:10112800478177EEC77AF5EEC07AF1EE10FACCBFB8
:1011380001240024002A40F08A80002964D1BFB924
:10114800C4BB9C4558DB0CF1010C03EB4C0E1CEBAB
:10115800000F0EF1010E00F0C08098424FDB73467D
:1011680000287FF779AF03B0BDEC068BBDE8F08FA0
:10117800009DA6EB0C0E00EB050ABAF17F0FDFD835
:10118800BEF13F0FDCD84FEADE0B019D0AEBCB1A0C
:10119800002D00F0B1800EF0070BC2444FF0010E95
:1011A8000EFA0BFE9AF810B04EEA0B0E8AF810E011
:1011B800002CC6D0009DA6EB0C0EA5EB000ABAF1D8
:1011C8007F0FBED8BEF13F0FBBD84FEADE0B019DA3
:1011D8000AEBCB1A002D00F0AE800EF0070BC244CC
:1011E8004FF0010E9C450EFA0BFE9AF810B04EEA2D
:1011F8000B0E8AF810E0A6DA98429E46AFDA013064
:101208000EEB40030133ABE7009D0CEB060E00EB41
:10121800050ABAF17F0F92D8BEF13F0F8FD84FEA77
:10122800DE0B019D0AEBCB1A002D73D00EF0070BD5
:10123800C2444FF0010E0EFA0BFE9AF810B04EEAB7
:101248000B0E8AF810E0002F3FF47AAF90E7009D6C
:101258000CEB060EA5EB000ABAF17F0F3FF66DAF57
:10126800BEF13F0F3FF669AF4FEADE0B019D0AEB77
:10127800CB1A002D6DD00EF0070BC2444FF0010EB3
:101288000EFA0BFE9AF810B04EEA0B0E8AF810E030
:1012980000293FF454AFB7E7F1EE10FA7ED44A467E
:1012A80074EEC54AF5EEC04AF1EE10FA6CD400218E
:1012B80035EEC55AB5EEC05AF1EE10FA5AD40027E9
:1012C80075EEC45AF5EEC05AF1EE10FA3FF529AFA3
:1012D8000024002A3FF431AFB9E798428FDB00239E
:1012E8003BE700BFAFF300807A008BFCFA2109408E
:1012F8000000000000806640C2444FF0010B0EF071
:10130800070E0BFA0EFE9AF810B02BEA0E0E8AF8AA
:1013180010E015E7C2444FF0010B0EF0070E0BFA70
:101328000EFE9AF810B02BEA0E0E8AF810E0002F85
:101338003FF406AF1CE7C2444FF0010B0EF0070E56
:101348000BFA0EFE9AF810B02BEA0E0E8AF810E08F
:10135800F7E6C2444FF0010B0EF0070E0BFA0EFE33
:101368009AF810B02BEA0E0E8AF810E000293FF424
:10137800E6AE49E777EEE66AF5EEC06AF1EE10FAF6
:10138800CCBF012700279BE736EE666AB5EEC06A38
:10139800F1EE10FACCBF0121002189E776EE473A39
:1013A800F5EEC03AF1EE10FACCBF0122002277E741
:1013B8000124002A3FF4C1AE49E774EEC54A012270
:1013C800F5EEC04AF1EE10FA7FF589AE35EEC55A52
:1013D8000121B5EEC05AF1EE10FA7FF591AE012762
:1013E80097E6DDE91223134406EE102A1293139BA5
:1013F8005B421393D8E500BF2DE9F04F89B01D4635
:10140800884606901046129C10F8013B13999DF8E7
:101418005060009233B1002210F8013B0132002BDA
:10142800FAD193B22A78687812FB03F302B21BB29E
:1014380023EAE373082900F2A681DFE811F001012D
:1014480013011F01330141014F0166016F010900BA
:10145800A18827880F44B4F90610FF1A0029BFB2E3
:10146800C0F2FE806488069804EB6104C280A4EB95
:1014780052028380078094B24480A64AD8F800308C
:1014880011460192DA688A4240F08B818020B84286
:1014980005D8DA6801998A4240F098817F279E4AE8
:1014A8009B68A8F804709342039240F0878140201B
:1014B800A04207D8D8F80030039A9B68934240F0BE
:1014C80080813F24009BA8F8064093F800B06B7811
:1014D8002C7804936B680793BBF1000F00F0AC8085
:1014E800ABF12005EBB25E2B00F22C81D8F800306E
:1014F800019ADB68934240F028818020B8F80430D4
:1015080023449842C0F21E81D8F80030039A9B68A1
:10151800934240F01D814020B8F80610049A0291C9
:101528008B189842C0F20E81002A00F01C8102FB41
:1015380005F56FF0004E079BAE441544CDF814B086
:1015480003EB4E0E023BB8F804A003EB45030D462F
:101558009B463EF8027FA4B305F007034FF0010C49
:10156800EA0851460CFA03FC0AF110034FFA8CFC06
:1015780003EBC21200236FEA0C0942440DE07F29F5
:1015880006D83F2D04D8107896B14CEA00001070A8
:101598000133013201319C4213D007FA03F00004F1
:1015A800EDD47F29F4D83F2DF2D81078002EECD056
:1015B800013309EA0000013201319C4202F8010CB2
:1015C800EBD1F34505F10105C3D1DDF814B0D8F826
:1015D80000200AEB04050199D368ADB28B4240F0B4
:1015E800BD808020854205D3D36801998B4240F0A5
:1015F800C3807F259368039AA8F80450934240F06B
:10160800AA804020029B834208D3D8F80030039A6E
:101618009B68934240F0AA803F230293029BA8F85C
:101628000630009A13785B4506D112F801BF009284
:10163800BBF1000F7FF454AF069809B0BDE8F08FF6
:10164800B4F9041027880029B8BF013107EB6107F6
:10165800B4F90610A7EB63070029BFB2BFF602AFC3
:101668000131FFE6B4F900700699B4F902400F8021
:10167800BFB24C80A4B28B80CA80FEE6B4F90410D5
:1016880027880029B4F90240B8BF013107EB610788
:1016980006998B80A7EB63034C80A4B29FB2CA80E3
:1016A8000F80EAE6A1882788B4F902400F4406991A
:1016B8008B80FB1A4C80A4B29FB2CA800F80DCE6F4
:1016C800E78861883944B4F90070081A069984B229
:1016D8000F808B80BFB2CA804C80CEE6B4F904106C
:1016E80027880029B8BF013107EB6107A7EB63071B
:1016F800B4F802C0BFB2E488069964448B80201A0B
:10170800CA800F8084B24C80B7E62788A1880F442E
:10171800FF1AEDE7E5090008E1090008B4F9061029
:10172800B4F90070002964880698B8BF0131C280F6
:1017380004EB610407808380BFB2A4EB520294B229
:1017480044809AE64FF0000B6BE740469847D5E691
:1017580040469847E0E64046984753E74046984752
:10176800D8F800203EE7B8F804A030E7404698478C
:10177800013883B2029351E7404698470138D8F8B8
:10178800002085B236E7D8F800300024069A1349BD
:10179800148054809480D480DA6801918A4205D0FC
:1017A800274640469047D8F8003070E69B680C4AB8
:1017B800A8F80440934203923FF484AE4046984709
:1017C80076E640469847013884B27BE64046904723
:1017D8000138D8F8003087B261E600BFE509000893
:1017E800E10900082DE9F04F87B09DF84850109C9A
:1017F8002E4601959DF844509EB399422ED899469D
:10180800A24228D87F29164694BF0023012308E066
:101818009CF810804EEA080E8CF810E00136B442AD
:1018280019D33F2EFAD8002BF8D14FEAD60C06F080
:10183800070E4FF0010801EBCC1C08FA0EFE844499
:10184800002DE5D19CF810B001362BEA0E0AB442FF
:101858008CF810A0E5D201318945D1D207B0BDE896
:10186800F08FA3EB0108B8F1000FB8BFC8F100086A
:101878009942C0F04E817F2B4FF0FF3A94BF00266B
:1018880001263F2A009694BF002701270297A6B990
:101898009FB9D60802F0070C012703EBC6160644C9
:1018A800002D00F0948107FA0CF796F810C047EA6B
:1018B8000C073774002602960096994200F097812B
:1018C800464694468E46BEF17F0F16D8BCF13F0FB0
:1018D80013D84FEADC070CF0070B4FF001090EEBA9
:1018E800C7170744002D00F0398109FA0BF997F85A
:1018F80010B049EA0B0987F81090770018BFD64452
:10190800B84502DD46440CF1FF3C7345DBD1624526
:10191800D9D100260496A4EB0209009FB9F1000F63
:10192800B8BFC9F100093F2C94BF00260126A24286
:10193800C9F100080396C0F02381002F40F05081C0
:10194800002E40F04D814FF0FF360096E60803EB7D
:10195800C6160644002D00F01E814FF0010C04F05D
:1019680007070CFA07F796F810C047EA0C07377410
:1019780000260396A24200F03D81C44616461F4643
:1019880005927F2F15D83F2E13D84FEAD60E06F0B2
:10199800070B4FF0010A07EBCE1E8644002D00F01E
:1019A800E6800AFA0BFA9EF810B04AEA0B0A8EF89B
:1019B80010A0B8EB4C0F4FEA4C0E02DAACEB090C56
:1019C800013FBEF1000F01D0009A1644BB42D8D1A6
:1019D800B442D6D1059AA1EB030EBEF1000FB8BFF1
:1019E800CEF1000E7F2994BF4FF0000A4FF0010A94
:1019F80099428CBF4FF001094FF0FF39BAF1000F3F
:101A080013D1039E8EB9E60801EBC6160644002DD5
:101A180000F0D3804FF0010C04F007070CFA07F729
:101A280096F810C047EA0C073774049E26BB774621
:101A380026467F2B14D83F2E12D84FEAD60C06F034
:101A4800070B4FF0010803EBCC1C8444002D73D026
:101A580008FA0BF89CF810B048EA0B088CF81080CC
:101A68005FEA470C18BF4B44E64501DD7744013E69
:101A78009942DED1B442DCD1A2EB040EBEF1000FD4
:101A8800B8BFCEF1000EA2428CBF4FF001084FF054
:101A9800FF38CEF1000CBAF1000F0ED1029B63B9EA
:101AA800D30802F00707012601EBC3130344002DF6
:101AB8007CD0BE401F7C3E431E74019B002B7FF4EC
:101AC800CDAE66460B467F2B12D83F2C10D8E708C0
:101AD80004F0070A4FF0010903EBC7170744A5B341
:101AE80009FA0AF997F810A049EA0A0987F8109044
:101AF800BCEB460F4FEA460702DAA6EB0E06013B9F
:101B080007B144449942DED1A242DCD107B0BDE816
:101B1800F08F3F2A4FF0010A94BF002601267F2B41
:101B2800029694BF002701270097002E7FF4C8AEC5
:101B3800002F3FF4AEAEC3E608FA0BFB9CF810800A
:101B480028EA0B088CF810808AE709FA0AFA97F84D
:101B5800109029EA0A0987F81090C9E709FA0BFBDF
:101B680097F8109029EA0B0987F81090C5E60AFA49
:101B78000BFB9EF810A02AEA0B0A8EF810A018E7B3
:101B880097BB8EBB01260096E60803EBC6160644F3
:101B9800002D7FF4E2AE012704F0070C039507FA45
:101BA8000CFC377C27EA0C073774E3E606FA07F7DC
:101BB8001E7C26EA07061E747FE7012704F0070C3F
:101BC80007FA0CFC377C27EA0C0737742DE707FA6D
:101BD8000CFC377C029527EA0C07009537746CE6F5
:101BE8004FF0FF360096C5E601260096C5E60126A9
:101BF800049690E601260196EDE600BF70B54568AB
:101C08000446012D2DED028BF0EE408A40F29F80B4
:101C1800027FB7EE008AF6EE007A437F002A08FEBC
:101C2800278A0BB1B1EE488AA669DFED8B7A07EEF9
:101C3800106A9FED8A0AF8EE476A66EEA76A26EEF2
:101C4800800A15F0B1FA022DF0EE407A84ED050A0B
:101C58003BD0032D40F0F88094ED047AA268BCEEE6
:101C6800C77A2168022917EE103A02EB830393ED35
:101C7800000A00F0DC80032900F0D080B0EE407A42
:101C8800A8EEA77A83ED007A40F2AE439E4201D8CF
:101C98000136A661236AD4ED047A013B38EE278A1F
:101CA80007EE903AF8EE677A84ED048AB4EEE78A94
:101CB800F1EE10FA40F3C0800023236101295BD1C3
:101CC800022200236260A36195E094ED047A40F259
:101CD800AE41A268FCEEC76A8E4216EE903A02EB5D
:101CE800830393ED000A0DD8B7EE007A013677EE3C
:101CF800677AB0EE407AA7EEA87A83ED007A94ED81
:101D0800047AA661236A38EE078A013B84ED048AC7
:101D180007EE903AF8EE677AB4EEE78AF1EE10FA39
:101D280079DCB5EEC08AF1EE10FA64D5C4ED047A18
:101D380094F82430002B5ED02368012B5BD100225D
:101D48000321134684F824206160A26115E08669A6
:101D58009FED417A07EE906A9FED400AF8EE677AA8
:101D680067EE877A27EE800A15F01EFA012D84EDBA
:101D7800050A07D09FED3A0A002384F82530BDEC08
:101D8800028B70BDD4ED047A40F2AE42A36828EE0F
:101D9800807AFCEEE77A964217EE901A03EB8103FD
:101DA80083ED007A01D80136A661D4ED047AF7EE06
:101DB800006AE368BCEEE77A013B77EEA67A17EE95
:101DC800102A07EE103AC4ED047AB8EE477A226278
:101DD800F4EEC77AF1EE10FACCDD77EEE67A9FEDF5
:101DE800207A0223B0EE470A84ED047AFCEEE77A03
:101DF8006360C4ED087A94ED047ADFED1A7AB4EEE4
:101E0800E77ABDEC028BF1EE10FA4CBF01230023F8
:101E180084F8253070BD0023236189E79FED127A8D
:101E280020EE077AA8EEA77A83ED007A2CE768EE11
:101E3800A77AC3ED007A27E7B5EEC08AF1EE10FA6B
:101E48009AD5C4ED047A39E725F002059FED040A16
:101E5800012DD0D190E700BF0E745A3ADB0FC93F6D
:101E68000000000000009645F304353F30B505201A
:101E780087B000240421012206238DF809009FED74
:101E8800170A8DF808408DF80D108DF80C4002994E
:101E98008DF810208DF8113011488DED010A114D83
:101EA800DDE9032303F0F0FA03220B239DED010A79
:101EB8008DF8142028468DF81530059903F052FB4B
:101EC8008DF814408DF8154005F110009DED010ABC
:101ED800059907B0BDE8304003F044BB000000009E
:101EE800E805002484050024F0B50224A3B00427E3
:101EF80001258DF8084008A88DF809700626029972
:101F080003F078FB8DF80C408DF80D5000240399F0
:101F18000DF1310003F06EFB8DF810408DF8116063
:101F28000DF14200049903F065FB07238DF8144076
:101F38000DF153008DF81530059903F05BFB8DF812
:101F480018508DF8195019A8069903F053FB03236C
:101F58008DF81C400DF175008DF81D300799134D53
:101F680003F048FB3B46324608A9114803F050FBF2
:101F7800E1B20F4803F046FD01460E4801340191D5
:101F880001F0F8FF0023DFED0C0A019928461A46F4
:101F980003F0F8F9074801F0CDFF284603F048FAA6
:101FA800062C05F12005E3D123B0F0BDC4040024BC
:101FB800BC050024A40500246F12033B2DE9F04F53
:101FC8000A2093B005F074F8BD4A08AB9FEDBD7ABE
:101FD80007CA069303C3BC480A211A800022D0ED21
:101FE800137A079167EE877A8DF82A20FCEEE77A54
:101FF80017EE905A092D40F25A81632D40F236812E
:10200800B5F57A7FC0F0788142F20F739D4240F2B5
:102018004C8117EE903A012108E0B24240F2378134
:102028008242C0F03981BA4240F23981A7481A4643
:10203800A74C8C46A0FB0303A64EA242A648A74F76
:102048004FEA533301F10401E7D80CAC0EAE204639
:1020580000220C9614F0F9F9A14FDDE90C010139C1
:102068000144A04B6422AC4642F20F7EA3FB0583D9
:102078000239F4454FEA531302FB13521D4607EB8E
:10208800420317F812205B784A708B70E9D8BCF5C8
:102098007A7F80F0F4803035057006A8DDE90C12EF
:1020A80014F029FA0C98B04203D00E99013114F0BB
:1020B80068F98D4B5A7893F800A05B6804920593F1
:1020C8009DF82030002B00F0ED8008AADFF820B240
:1020D80007EE904A0292203BDAB25E2A6BD8BBF830
:1020E800048008EB0A0EBEF1800F64DCBBF8062002
:1020F800049903920A44402A5DDC002946D0049AD8
:102108006FF00047039802FB03F31F441344059A3A
:1021180002EB4707023A02EB43045346A2461C4629
:1021280037F802CF6CB300F00703012608F110025C
:1021380000259E40C30876B202EBC31342466FEAFD
:1021480006095B440BE07F2A04D83F2802D8197897
:1021580031431970013501330132AC4211D00CFA08
:1021680005F10904EFD47F2AF4D83F28F2D819786A
:1021780001350133013209EA0101AC4203F8011CBF
:10218800EDD1574500F10100CAD1A246039A1FFAC2
:102198008EFE02993F2A11F8013F28BF3F22BEF167
:1021A8007F0F029128BF4FF07F0EABF80620ABF8E7
:1021B80004E0002B8FD117EE904A0023DFF834811A
:1021C8004FF0B009A246CBF804304FF47A760024D9
:1021D800022352469BF80C1010274448A8F18005AA
:1021E80000968DF830408DF8319004F00DF80223F8
:1021F80052469BF80C103D4800968DF830408DF8FB
:10220800314004F001F8022352469BF80C1037487D
:1022180000968DF830408DF8317003F0F5FF4FF4DB
:102228007A7415F8016F4027022352469BF80C1068
:102238002E4800948DF830708DF8316003F0E4FF7B
:10224800A845ECD109F1010908F180085FFA89F97C
:10225800B9F1B80FB9D1069808AB984203D00899DC
:10226800013114F08EF813B0BDE8F08F0CAC0EAE4F
:1022780002211B4F20460C9614F0E7F80C9807EB48
:10228800450317F815205B780270437005E70CAC1E
:102298000EAE0CF10501DAE60CF10601D5E60CF1FB
:1022A8000701D2E6DFF848B087E70421CDE60CAC99
:1022B8000EAE012120460C9614F0C7F80C98EAE6F9
:1022C800407A01080000C842C40400245917B7D155
:1022D8009F8601003F420F0080969800FFE0F505B9
:1022E800887A01081F85EB5114010024C851002485
:1022F800C05100244F5200240321A6E6F0B5964DA4
:102308008BB01021002405F108063C23934A4FF4B2
:102318007A778DF82010304669448DF824302B7375
:10232800CDE90442CDE9064403F0D8FEAE2303AA62
:10233800297B8DF80D303046022300978DF80C402C
:1023480003F062FFD52303AA297B30468DF80D30B0
:10235800022300978DF80C4003F056FF802303AA50
:10236800297B30468DF80D30022300978DF80C40FC
:1023780003F04AFFA82303AA297B30468DF80D30C5
:10238800022300978DF80C4003F03EFF3F2303AA79
:10239800297B30468DF80D30022300978DF80C40CC
:1023A80003F032FFDA2303AA297B30468DF80D307B
:1023B800022300978DF80C4003F026FF122303AA8E
:1023C800297B30468DF80D30022300978DF80C409C
:1023D80003F01AFFD32303AA297B30468DF80D306A
:1023E800022300978DF80C4003F00EFF03AA297B07
:1023F8000223304600978DF80C408DF80D4003F00D
:1024080003FF402303AA297B30468DF80D300223B1
:1024180000978DF80C4003F0F7FEA62303AA297B4A
:1024280030468DF80D30022300978DF80C4003F0EC
:10243800EBFEA42303AA297B30468DF80D30022336
:1024480000978DF80C4003F0DFFE8D2303AA297B4B
:1024580030468DF80D30022300978DF80C4003F0BC
:10246800D3FE142303AA297B30468DF80D300223AE
:1024780000978DF80C4003F0C7FEA12303AA297B1F
:1024880030468DF80D30022300978DF80C4003F08C
:10249800BBFEC82303AA297B30468DF80D300223E2
:1024A80000978DF80C4003F0AFFE812303AA297B27
:1024B80030468DF80D30022300978DF80C4003F05C
:1024C800A3FE8F2303AA297B30468DF80D30022303
:1024D80000978DF80C4003F097FED92303AA297BB7
:1024E80030468DF80D30022300978DF80C4003F02C
:1024F8008BFE252303AA297B30468DF80D30022355
:1025080000978DF80C4003F07FFEDB2303AA297B9C
:1025180030468DF80D30022300978DF80C4003F0FB
:1025280073FE342303AA297B30468DF80D3002232D
:1025380000978DF80C4003F067FE8DF80C4003AA55
:10254800297B0223AF24304600978DF80D4003F015
:102558005BFE0BB0F0BD00BFC051002401080109AB
:10256800894B8A4893ED000A70B512F0E1FA884B5E
:10257800864893ED000A12F0EFFA864B834893EDF4
:10258800000A12F0C1FA844B804893ED000A12F059
:10259800FFFA824B824893ED000A12F08FF9814BC3
:1025A8007F4893ED000A12F0B1F97F4B7C4893ED18
:1025B800000A12F02DF97D4B794893ED000A12F0CC
:1025C80043F97B4B7B4893ED000A12F083FE7A4B6C
:1025D800784893ED000A12F049FE784B754893ED60
:1025E800000A12F027FD764B724893ED000A12F0AC
:1025F80053FD744B6F48D3ED007A734CFDEEE77AC8
:1026080017EE901A12F00AFD704B94ED0E7AD3ED86
:10261800007A87EE270AC4ED027AB1EE400A14F078
:1026280091FB94ED0D7AD4ED027A84ED0A0A87EED7
:10263800270AB1EE400A14F085FB654AB7EE007A26
:10264800644B92ED006AD3ED006AC7EE067AD4EDCA
:102658000E4A614B84ED080A1B6884ED006A84EE1B
:10266800A65A2361C4ED036A77EE405A77EEC77A1B
:1026780067EEA57AB1EE450AC4ED097A14F062FB5B
:10268800564A94F83C30D2ED007A84ED0B0AC4ED3A
:10269800017A6BB194ED006AB6EE007AC7EE866AED
:1026A80077EEE67AF0EEE77A67EE877AC4ED047A99
:1026B8004B4ADFED4C7A92ED007ADFED4B6A27EE5C
:1026C800277A4A494A4B91ED000AC7EE267A494AC9
:1026D80049484A4C4A4E4B4DBDEEE77A17EE101A60
:1026E800F8EEC76A994277EEE67A28BF1946C2ED36
:1026F800007A916013F03CF9434B3F4893ED000A90
:1027080013F02CF9414B424893ED000A12F016FBE6
:10271800404B414AD3ED007A2468404BFDEEE77AFE
:102728003F4940481268D6F800C000681C600C6831
:102738003D495A603D4A3E4BC1F800C0486029688F
:10274800C2ED027A54603B483B4A99613B490468B0
:10275800126891ED000A3A481A615C6113F002FCB4
:10276800384B374893ED000A13F00AFC364B3448CF
:1027780093ED000A13F0E0FB344B314893ED000A67
:10278800BDE8704013F0E0BB50000024D055002491
:1027980058000024540000244C00002408000024A1
:1027A8001C060024100000240C000024140000243F
:1027B8007C0000245465002488000024780000244C
:1027C8008000002484000024785100241C00002488
:1027D8002400002428000024200000242C000024C9
:1027E8003C00002400803B4700007A44AC000024F1
:1027F800FF76010000E86EC3689F0724600000248C
:10280800A8000024C0000024B000002444000024D4
:10281800446500240400002464000024F4640024B7
:1028280034000024A4000024149401241006002479
:10283800A09F0724BC000024B800002490000024B6
:10284800DC92012494000024980000249C000024B9
:10285800A24B1B780D2B62D8DFE813F0B200B7004B
:10286800F0006E01110295021804AC0392045203A1
:102878000E00E10336056300994B9A4A93ED037AFB
:10288800D2ED007ADFED986A77EEC77AF0EEE77A54
:10289800F4EEE67AF1EE10FA0ADDDFED946ADFED88
:1028A800947A9449E7EE267A82ED007AC1ED007AAF
:1028B800914A93ED0B7AD2ED007ADFED8B6A77EED1
:1028C800C77AF0EEE77AF4EEE67AF1EE10FA0ADD6E
:1028D800F2EE046ADFED897A894982ED007AE7EE43
:1028E800267AC1ED007A874A93ED137AD2ED007A01
:1028F800DFED7D6A77EEC77AF0EEE77AF4EEE67AF6
:10290800F1EE10FA08DDDFED7D7A82ED007A37EE20
:10291800277A7D4B83ED007A7C4B00225A60FFF7C3
:102928001FBE6F4B6F4A93ED037AD2ED007ADFED4D
:102938006E6A77EEC77AF0EEE77AF4EEE67AF1EEB1
:1029480010FA08DDDFED6D7A82ED007A37EE277A2E
:102958006F4981ED007A684A93ED0B7AD2ED007ADF
:10296800DFED616A77EEC77AF0EEE77AF4EEE67AA1
:10297800F1EE10FA08DDDFED617A82ED007A37EECC
:10298800277A644981ED007A5E4A93ED137AD2ED95
:10299800007ADFED556A77EEC77AF0EEE77AF4EE63
:1029A800E67AF1EE10FABADDDFED5B6ADFED537A15
:1029B8005A4BE7EE267A82ED007AC3ED007AAEE74D
:1029C800474A4D4BD26A1A60A9E7454B454A93EDF1
:1029D800037AD2ED007ADFED446A77EEC77AF0EE3B
:1029E800E77AF4EEE67AF1EE10FA0ADDF0EE006A24
:1029F800DFED427A4A4982ED007AE7EE267AC1EDA8
:102A0800007A3D4A93ED0B7AD2ED007ADFED366A13
:102A180077EEC77AF0EEE77AF4EEE67AF1EE10FA9E
:102A28007FF77DAFF0EE006ADFED347A3D4B82ED43
:102A3800007AE7EE267AC3ED007A70E7284B294A38
:102A480093ED037AD2ED007ADFED276A77EEC77A45
:102A5800F0EEE77AF4EEE67AF1EE10FA0ADDF7EE38
:102A6800007ADFED316A314982ED007AE7EE267AA5
:102A7800C1ED007A204A93ED0B7AD2ED007ADFEDB2
:102A88001A6A77EEC77AF0EEE77AF4EEE67AF1EEB4
:102A980010FA08DDDFED197A82ED007A37EE277A31
:102AA800234981ED007A174A93ED137AD2ED007A23
:102AB800DFED0D6A77EEC77AF0EEE77AF4EEE67AA4
:102AC800F1EE10FA7FF72BAFDFED0C7A82ED007A8A
:102AD80037EE277A174B83ED007A20E750650024FC
:102AE800C40400246C0000240AD7A33B0000204241
:102AF800000020C260000024FC64002400000000E4
:102B0800640000240065002468000024F4640024A4
:102B1800B8000024BC0000240000C842C000002403
:102B2800700000247400002400E0F9443C000024F4
:102B38003800002440000024D54BD64A93ED037A90
:102B4800D2ED007ADFEDD46A77EEC77AF0EEE77A55
:102B5800F4EEE67AF1EE10FA0ADDDFEDD06ADFED89
:102B6800D07AD049E7EE267A82ED007AC1ED007A74
:102B7800CD4A93ED0B7AD2ED007ADFEDC76A77EE96
:102B8800C77AF0EEE77AF4EEE67AF1EE10FA08DDAD
:102B9800DFEDC67A82ED007A37EE277AC44981EDF7
:102BA800007AC44A93ED137AD2ED007ADFEDBA6A5F
:102BB80077EEC77AF0EEE77AF4EEE67AF1EE10FAFD
:102BC8000ADDDFEDB66ADFEDB67ABB49E7EE267AB5
:102BD80082ED007AC1ED007AB84A93ED1B7AD2ED06
:102BE800007ADFEDAD6A77EEC77AF0EEE77AF4EEB9
:102BF800E67AF1EE10FA0EDDF1EE0C6AB049F7EE66
:102C0800007A82ED007AE7EE267AFDEEE77AF8EEB2
:102C1800E77AC1ED007AAB4A93ED237AD2ED007AD8
:102C2800DFED9D6A77EEC77AF0EEE77AF4EEE67AA2
:102C3800F1EE10FA08DDDFED9D7A82ED007A37EECD
:102C4800277AA14981ED007AA04A93ED2B7AD2ED3B
:102C5800007ADFED916A77EEC77AF0EEE77AF4EE64
:102C6800E67AF1EE10FA7FF75AAEDFED907A82ED50
:102C7800007A37EE277A964B83ED007A4FE6844B3D
:102C8800844A93ED037AD2ED007ADFED836A77EE1A
:102C9800C77AF0EEE77AF4EEE67AF1EE10FA0ADD9A
:102CA800DFED7E6ADFED7E7A8A49E7EE267A82EDED
:102CB800007AC1ED007A7C4A93ED0B7AD2ED007A66
:102CC800DFED756A77EEC77AF0EEE77AF4EEE67A2A
:102CD800F1EE10FA08DDDFED757A82ED007A37EE55
:102CE800277A7D4981ED007A724A93ED137AD2ED05
:102CF800007ADFED696A77EEC77AF0EEE77AF4EEEC
:102D0800E67AF1EE10FA08DDDFED687A82ED007AF6
:102D180037EE277A714981ED007A684A93ED1B7A7C
:102D2800D2ED007ADFED5C6A77EEC77AF0EEE77AEB
:102D3800F4EEE67AF1EE10FA0ADDF3EE0E6A68496F
:102D4800F3EE047A82ED007AE7EE267AC1ED007A96
:102D58005C4A93ED237AD2ED007ADFED4F6A77EE85
:102D6800C77AF0EEE77AF4EEE67AF1EE10FA7FF73A
:102D7800D6ADDFED4E7A82ED007A37EE277A594BE1
:102D880083ED007ACBE5424B424A93ED037AD2EDCC
:102D9800007ADFED416A77EEC77AF0EEE77AF4EE73
:102DA800E67AF1EE10FA0ADDDFED4F6ADFED3C7AE4
:102DB8004E49E7EE267A82ED007AC1ED007A3A4A6A
:102DC80093ED0B7AD2ED007ADFED336A77EEC77AAE
:102DD800F0EEE77AF4EEE67AF1EE10FA08DDDFEDD0
:102DE800337A82ED007A37EE277A414981ED007A0D
:102DF800304A93ED137AD2ED007ADFED276A77EE49
:102E0800C77AF0EEE77AF4EEE67AF1EE10FA08DD2A
:102E1800DFED267A82ED007A37EE277A354981EDA3
:102E2800007A264A93ED1B7AD2ED007ADFED1A6A12
:102E380077EEC77AF0EEE77AF4EEE67AF1EE10FA7A
:102E48000ADDDFED166ADFED167A2B49E7EE267A02
:102E580082ED007AC1ED007A1A4A93ED237AD2ED19
:102E6800007ADFED0D6A77EEC77AF0EEE77AF4EED6
:102E7800E67AF1EE10FA7FF752ADDFED0C7A82EDCB
:102E8800007A37EE277A1D4B83ED007A47E500BFBD
:102E9800C40400246C0000240AD7A33B0AD76F415E
:102EA8000AD7233C88000024FC64002400000000AA
:102EB80078000024006500248000002404650024B4
:102EC80084000024086500247C0000240C6500248C
:102ED8008C000024140000240C000024100000249E
:102EE800080000241800002485EB9F4158000024A6
:102EF80050000024540000244C0000245C000024EE
:102F08008B4B8C4A93ED037AD2ED007ADFED8A6A17
:102F180077EEC77AF0EEE77AF4EEE67AF1EE10FA99
:102F28000EDDF3EE006ADFED857A854982ED007AE1
:102F3800E7EE267AFDEEE77AF8EEE77AC1ED007A59
:102F4800804A93ED0B7AD2ED007ADFED7B6A77EE5B
:102F5800C77AF0EEE77AF4EEE67AF1EE10FA0EDDD3
:102F6800DFED796ADFED757A7849E7EE267A82ED4A
:102F7800007AFDEEE77AF8EEE77AC1ED007A744A56
:102F880093ED137AD2ED007ADFED6B6A77EEC77AAC
:102F9800F0EEE77AF4EEE67AF1EE10FA7FF7BFACDE
:102FA800DFED667A82ED007A37EE277A694B83ED9A
:102FB800007AB4E45E4B5F4A93ED037AD2ED007A6F
:102FC800DFED5D6A77EEC77AF0EEE77AF4EEE67A3F
:102FD800F1EE10FA08DDDFED597A82ED007A37EE6E
:102FE800277A5D4981ED007A564A93ED0B7AD2ED46
:102FF800007ADFED516A77EEC77AF0EEE77AF4EE01
:10300800E67AF1EE10FA7FF78AACDFED4C7A82EDC2
:10301800007A37EE277A514B83ED007A7FE4444BF0
:10302800444A93ED037AD2ED007ADFED436A77EEF6
:10303800C77AF0EEE77AF4EEE67AF1EE10FA08DDF8
:10304800DFED3E7A82ED007A37EE277A444981ED4A
:10305800007A3C4A93ED0B7AD2ED007ADFED366ABE
:1030680077EEC77AF0EEE77AF4EEE67AF1EE10FA48
:103078007FF755ACDFED3B6ADFED307A3A4BE7EE90
:10308800267A82ED007AC3ED007A48E4284B294A73
:1030980093ED037AD2ED007ADFED276A77EEC77AEF
:1030A800F0EEE77AF4EEE67AF1EE10FA0ADDDFEDFB
:1030B8002F6ADFED2F7A2F49E7EE267A82ED007A24
:1030C800C1ED007A1F4A93ED0B7AD2ED007ADFED5D
:1030D8001A6A77EEC77AF0EEE77AF4EEE67AF1EE5E
:1030E80010FA08DDDFED157A82ED007A37EE277ADF
:1030F800214981ED007A164A93ED137AD2ED007AD0
:10310800DFED0D6A77EEC77AF0EEE77AF4EEE67A4D
:10311800F1EE10FA7FF703ACDFED087A82ED007A62
:1031280037EE277A154B83ED007AFFF7F8BB00BF1F
:10313800C40400246C0000240AD7A33B000000004C
:1031480004000024FC64002400803B473400002471
:1031580000650024B85100244400002448000024DD
:10316800A80000240080BB46A40000240AD76F41B1
:103178000AD7233CB0000024AC000024B40000248B
:10318800934B944A93ED037AD2ED007ADFED926A7D
:1031980077EEC77AF0EEE77AF4EEE67AF1EE10FA17
:1031A8000ADDF7EE007ADFED8D6A8D4982ED007A4F
:1031B800E7EE267AC1ED007A8A4A93ED0B7AD2EDD2
:1031C800007ADFED856A77EEC77AF0EEE77AF4EEFB
:1031D800E67AF1EE10FA0ADDDFED836ADFED837A35
:1031E8008349E7EE267A82ED007AC1ED007A814ABA
:1031F80093ED137AD2ED007ADFED776A77EEC77A2E
:10320800F0EEE77AF4EEE67AF1EE10FA0ADDDFED99
:10321800766ADFED767A7849E7EE267A82ED007AEB
:10322800C1ED007A754A93ED1B7AD2ED007ADFED95
:103238006A6A77EEC77AF0EEE77AF4EEE67AF1EEAC
:1032480010FA0ADDDFED6E6ADFED6E7A6E49E7EEA1
:10325800267A82ED007AC1ED007A6C4A93ED237AE2
:10326800D2ED007ADFED5C6A77EEC77AF0EEE77AA6
:10327800F4EEE67AF1EE10FA0ADDDFED656ADFEDCD
:10328800617A6449E7EE267A82ED007AC1ED007A28
:10329800614A93ED2B7AD2ED007ADFED4F6A77EE33
:1032A800C77AF0EEE77AF4EEE67AF1EE10FA7FF7F5
:1032B80036ABDFED547A82ED007A37EE277A574B3A
:1032C80083ED007AFFF72BBB414B424A93ED037A1B
:1032D800D2ED007ADFED406A77EEC77AF0EEE77A52
:1032E800F4EEE67AF1EE10FA08DDDFED467A82EDCB
:1032F800007A37EE277A4A4981ED007A394A93ED08
:103308000B7AD2ED007ADFED346A77EEC77AF0EE09
:10331800E77AF4EEE67AF1EE10FA08DDDFED397AB5
:1033280082ED007A37EE277A3E4981ED007A314AFC
:1033380093ED137AD2ED007ADFED276A77EEC77A3C
:10334800F0EEE77AF4EEE67AF1EE10FA0ADDF3EE43
:10335800047ADFED356A354982ED007AE7EE267AA0
:10336800C1ED007A254A93ED1B7AD2ED007ADFEDA4
:103378001A6A77EEC77AF0EEE77AF4EEE67AF1EEBB
:1033880010FA08DDDFED1F7A82ED007A37EE277A32
:10339800274981ED007A1D4A93ED237AD2ED007A10
:1033A800DFED0D6A77EEC77AF0EEE77AF4EEE67AAB
:1033B800F1EE10FA7FF7B3AADFED127A82ED007A08
:1033C80037EE277A1B4B83ED007AFFF7A8BA00BFC8
:1033D800C40400246C0000240AD7A33B00001C424C
:1033E80024000024FC640024E7FB1F416F12833A89
:1033F8001C00002400650024280000240465002423
:103408000000A042000000002000002408650024FD
:103418000000A0C22C0000240C6500243000002409
:10342800940000249000002400106A4698000024AC
:103438009C000024A00000242DE9F04FBB4E054657
:10344800D6E900172DED028B8F4285B08DED030A6A
:1034580000F0BC810C463B4654F8042B013A0B2A79
:103468001CD8DFE812F01101EE00D800C200AC0051
:10347800960080006A00540042002C000C008B4229
:1034880003D00B680C2B00F0AA8195ED000AA84820
:1034980010F09AFE85ED000AD6E90013A742DBD1A9
:1034A800994200F09381A34B1B78002B00F07681A2
:1034B800039B2B6005B0BDEC028BBDE8F08F8B42FF
:1034C800DFF8A88203D00B680B2B00F08B81D5EDB9
:1034D800008AB7EE008AD8ED007AB0EE680A9648FE
:1034E80038EE678A12F026FBC0E08B4203D00B68E7
:1034F8000A2B00F092812B4629462A468F480095D0
:1035080012F05EF8A742D6E90013A5D1C8E78B42AE
:10351800DFF85C8203D00B68092B00F08B81D5EDB6
:10352800008AB7EE008AD8ED007AB0EE680A8448BF
:1035380038EE678A12F038FA98E08B42DFF8348266
:1035480003D00B68082B00F08381D5ED008AB7EE15
:10355800008AD8ED007AB0EE680A7A4838EE678AB1
:1035680010F00AFF82E08B42DFF80C8203D00B6870
:10357800072B00F07B81D5ED008AB7EE008AD8EDE5
:10358800007AB0EE680A704838EE678A10F050FD8D
:103598006CE08B42DFF8E48103D00B68062B00F067
:1035A8007381D5ED008AB7EE008AD8ED007AB0EEC7
:1035B800680A664838EE678A11F08AFB56E08B4243
:1035C800DFF8BC8103D00B68052B00F06B81D5EDCB
:1035D800008AB7EE008AD8ED007AB0EE680A5C4837
:1035E80038EE678A12F0A8F940E08B42DFF8948140
:1035F80003D00B68042B00F06381D5ED008AB7EE89
:10360800008AD8ED007AB0EE680A524838EE678A28
:1036180011F0FAF92AE08B42DFF86C8103D00B68CD
:10362800032B00F05B81D5ED008AB7EE008AD8ED58
:10363800007AB0EE680A484838EE678A10F0B0FFA2
:1036480014E08B42DFF8448103D00B68022B00F0B2
:103658005381B7EE008AD5ED008AD8ED007AB0EE36
:10366800680A3E4838EE678A11F03EFCD8ED007AC9
:10367800A742316820EE270A7368A8EE880A85ED0C
:10368800000A7FF4E9AE0BE735488B42DFF800C14A
:10369800DFF80081D0ED006AD0E901E27244ACFBAA
:1036A80002BA02F101094FEADA2A08FB1A2200EBF2
:1036B8008202D2ED037AACFB09A24FEAD22208FBC0
:1036C800129900EB890999ED037A37EE677AE7EEEC
:1036D800267A03D00A68012A00F01C81214AA742F1
:1036E80095ED007A92ED006A00EB8E0277EE276A7C
:1036F800DFF8A4C0A6EE277A82ED037A1A4AD5ED40
:10370800007A72449CED007ADFF884C0E7EE267AEE
:10371800ACFB02ECDFF87CE04FEADC2C0EFB1C2251
:103728004260C5ED007A7FF497AEB9E6589F07244A
:10373800A09F0724649F0724DC9201241494012489
:10374800F464002410060024785100244465002401
:10375800689F0724D05500241C06002454650024C3
:1037680000E86EC338000024FF760100A0000024A2
:1037780068000024B85100243000002448000024C8
:10378800B40000245C000024180000248C000024ED
:10379800F119760500770100400000246F4B95ED84
:1037A800008AD3ED007A6E4828EE278AB0EE480AE0
:1037B800FEF724FA6B4BD3ED007AA0EE278A85ED4D
:1037C800008A05B0BDEC028BBDE8F08F664B1B7814
:1037D800002B7FF46DAE614B9DED038AE1E79DED13
:1037E800030A54E6B7EE008ADDED038AD8ED007AC5
:1037F800B0EE680A5D4838EE678A12F09BF9D8ED9A
:10380800007AA742316820EE270A7368A8EE280AD2
:1038180085ED000A7FF420AE42E603AA2B46544801
:103828001146009511F0CCFEA742D6E900137FF4AB
:1038380013AE35E6DDED038AB7EE008AD8ED007ADF
:10384800B0EE680A4B4838EE678A12F0ADF8D6E752
:10385800DDED038AB7EE008AD8ED007AB0EE680A8B
:10386800454838EE678A10F087FDC8E7DDED038A22
:10387800B7EE008AD8ED007AB0EE680A3F4838EE15
:10388800678A10F0D5FBBAE7DDED038AB7EE008A48
:10389800D8ED007AB0EE680A394838EE678A11F038
:1038A80017FAACE7DDED038AB7EE008AD8ED007AA7
:1038B800B0EE680A334838EE678A12F03DF89EE7A2
:1038C800DDED038AB7EE008AD8ED007AB0EE680A1B
:1038D8002D4838EE678A11F097F890E7DDED038AF6
:1038E800B7EE008AD8ED007AB0EE680A274838EEBD
:1038F800678A10F055FE82E7DDED038AB7EE008A8D
:10390800D8ED007AB0EE680A214838EE678A11F0DF
:10391800EBFA74E71F4AA7429DED037A92ED006A1D
:1039280000EB8E0277EE276AA6EE277A82ED037AFD
:10393800194AD5ED007A7244ACFB02EC4FEADC2C54
:1039480008FB1C224260154A92ED007AE7EE267ABF
:10395800C5ED007A7FF480ADA2E500BF70000024B9
:103968001065002474000024649F0724DC9201245D
:1039780014940124F46400241006002478510024CF
:1039880044650024689F0724D05500241C060024A1
:103998005465002438000024FF760100400000240C
:1039A80010B50E4C204601F09FFD237BA3B1A37CEC
:1039B8007F2B11D10A4B0B490B4CD3E900020B6842
:1039C800121A2468013309489210B3FBF2FC02FB77
:1039D8001C33E25C0B60027010BD00BFE8050024D8
:1039E800589F0724BC5100243865002450650024E2
:1039F80010B5354C204601F0CFFD04F1100001F060
:103A0800CBFD23792BB9237DBBB9A37EFF2B1ED019
:103A180010BD217DA27A79B3A37E7F2AA3F17F010D
:103A2800B1FA81F14FEA511130D1284A5068032880
:103A380047D8DFE800F039253325A37E7F2BE5D171
:103A480023490A7882F001020A70FF2BE0D103F0C3
:103A58002DFB07EE900AD4ED076AF8EE677A9FED22
:103A68001D7A77EEE67AF4EEC77AF1EE10FACFDD3A
:103A7800164B00225A6010BD7F2AC6D1A37ED4E718
:103A88000220506092F8240000B990610029BDD04E
:103A98000F490A7882F001020A70D6E710680128F7
:103AA8000AD003205060EDE700201061002010626A
:103AB800908301205060E5E782F824000029E7D1CF
:103AC800A4E700205060DDE7840500241065002489
:103AD800649F07240000FA442DE9F041114C064682
:103AE8000F46154604F1C0082046203401F07CFC3E
:103AF800A045F9D1FEF7ACFEFFF752FFFFF778FFBC
:103B08006DB100243368386803EB840300EB84004C
:103B1800013493ED000AFFF78FFCA542F2D1BDE80E
:103B2800F08100BFC404002470B52F4C00262F4D2F
:103B3800204600F0FFF92E4810F0FAFE204600F06B
:103B4800F9F92C4810F062FC204600F0F3F92A48F5
:103B580011F054F9204600F0EDF9284811F0A0FEC4
:103B6800274811F055F8274811F018FF264A002178
:103B7800284613F0CFFD0123204645E9026300F0F3
:103B8800D9F9224811F05CFC204600F0D3F920480E
:103B980010F0E4FB204600F0CDF91E4810F0ACF917
:103BA800204600F0C7F91821F0EE400A1A489FEDA8
:103BB8001B0A11F01DFF204600F0BCF9184810F050
:103BC800B3FA184D18483146184B194AC5E902038B
:103BD80013F0A0FD85F82460AE61AE83C5E90066E8
:103BE800BDE87040FEF7BCBCA40500240CE86EC319
:103BF800D05500241C06002454650024689F07241F
:103C080044650024F464002400DC050014940124B5
:103C18001006002478510024DC9201248FC2753CE0
:103C2800A09F072410650024000000C000BADB0034
:103C3800FCE76E0380B5002184B0334800F00AFA2F
:103C48003021314801AC00F079F903212E4800F009
:103C580055F92E4DFFF768FFFEF708F9FEF744F90E
:103C6800FEF74CFB2A4801F0B7FE0121264800F078
:103C780085F9284B93E807002B6884E80700AA68B1
:103C8800D21A0B2A14D80C2012F07DFB23460446C6
:103C980007CB206028686160A26018B1A968091A7A
:103CA80012F06FFB04F10C03C5E90043AB600DE0B3
:103CB8006E68F21A0B2A10D907CC596003F10C016F
:103CC800186068689A60814200D0696012490E489D
:103CD80000F010F9FEF772F9FCE7A718A74208D11F
:103CE8000C2422463946304613F006FD26446E6001
:103CF800ECE72146184613F0FFFC04AB6E689F42C0
:103D0800A3EB0704F2D0ECE7A4050024589F07248E
:103D1800BC050024F0790108E13A000870B54A4C66
:103D280084B04A4900252246494812F025FB494BF0
:103D3800EC46494E0FCBACE807000E20ACF800303B
:103D4800B560C6E9005512F01EFBEC4600F10E0204
:103D580003463060C6E90122BCE807009A60BCF857
:103D680000201860304659609A8122463B4912F07B
:103D780003FB22463A493B4812F0FEFA22463A49EA
:103D88003A4812F0F9FA224639493A4812F0F4FA58
:103D980022463949394812F0EFFA2246384939485B
:103DA80012F0EAFA22463849384812F0E5FA224673
:103DB8003749384812F0E0FA22463749374812F0B6
:103DC800DBFA22463649374812F0D6FA22463649F7
:103DD800364812F0D1FA22463549364812F0CCFA64
:103DE8003548224635498560C0E9005512F0C4FAC5
:103DF80022463349284612F0BFFA2246314928465E
:103E080012F0BAFA304B31482246314903608560D6
:103E180012F0B2FA22462F492F4812F0ADFA224684
:103E28002E492F4812F0A8FA2E4822462E4905603E
:103E38004561056212F0A0FA22462C492C4804B0CC
:103E4800BDE8704012F098BA00000024A1090008EB
:103E5800E8050024FC79010838650024210A0008D7
:103E6800C109000854650024B50900081C0600248F
:103E7800D5090008D0550024C5090008689F072403
:103E8800B909000844650024B10900081006002497
:103E9800C9090008F4640024BD0900081494012429
:103EA800A909000878510024CD090008DC920124F2
:103EB800AD090008A09F0724589F07240D0A000891
:103EC800D9090008350A0008547A0108C0510024AD
:103ED800DD090008F909000800E86EC3D1090008E7
:103EE80010650024A4050024A50900089D09000800
:103EF800E0050024143001F011BA00BF38B500F114
:103F0800140504462DED028B284601F0C3F9284616
:103F180001F0BCF92846B0EE408A01F0A5F9D0EDD1
:103F2800007AF8EE677A88EE277ABDEC028B84ED8A
:103F38000E7A38BD143001F0A9B900BF38B500F1C8
:103F4800140504462DED028B284601F091F9284608
:103F580001F09CF92846B0EE408A01F085F9D0EDD1
:103F6800007AF8EE677A88EE277ABDEC028B84ED4A
:103F78000E7A38BD90ED0E0A704700BF253001F06B
:103F88002DBF00BFF0B5032399B000270125129378
:103F980006462C4B09A81595CDE90E7340F204533B
:103FA800ADF84030284BCDE91357099301F02CFEAA
:103FB80009A801F005FF002836D1244B04AF0446B8
:103FC8000090CDF842301023394604958DF8203002
:103FD8001F4BCDE91650CDE906506846059302F00F
:103FE8007DF80823009A01A909A8ADF804508DF8B6
:103FF800064009940295039300F0E4F800230EA903
:1040080038463024049302F033FE03224FF07E53E7
:1040180009A906F114000B930C93CDE90942049AFF
:1040280001F0EAF819B0F0BD40F60132074B1697D7
:1040380004AFADF824200998CDF84230179500F068
:1040480081F8DBE704020404030300010406040307
:104058000704010B2DE9F04304462DED028B83B0D4
:10406800002948D0012140F2011200230091ADF847
:1040780004208DF80630304A0126304B271D304980
:1040880004F12908626040F20272A36040F60663F8
:10409800E16004F125092682A4F8252084F8276028
:1040A800A4F8293084F82B6003F070F969460546B6
:1040B80048B304F130008DF8066003F0C5F8072D09
:1040C80034D104F114052046FFF75CFF284601F0BF
:1040D800DDF82846B0EE408A01F0C6F8D0ED007A47
:1040E800F8EE677A88EE277A84ED0E7A03B0BDEC95
:1040F800028BBDE8F08340F2011300918DF80610A1
:10410800ADF80430B7E704F1300003F09DF8394604
:10411800204602F02DFA484601F076FD404601F0AF
:1041280073FD04F1120000F077F9CAE7394620461A
:1041380002F01EFAC5E700BF0508050905070506D0
:10414800050A060610B584B003460124ADF804003C
:1041580003A8ADF80C30ADF80E4001F055FD21462E
:1041680003A801F03BFE204602F0A2FF002103A8AD
:1041780001F034FE204602F09BFF214603A801F01F
:104188002DFE04B010BD00BF10B5C2F3002384B0EB
:104198000C46017C8DF80D2043EA4402FA240223E0
:1041A8008DF80C2003AA009402F02EF818B101240F
:1041B800204604B010BD04460A2002F079FF2046CC
:1041C80004B010BD034670B543F8042B044684B010
:1041D80007C983E80700A37983B91A210B461E2271
:1041E800FA2523742046ADF80C20022303AA009573
:1041F80002F00AF828B1012004B070BD1B210B465B
:10420800EDE70A2002F054FF4FF4B852009502235C
:10421800ADF80C20204603AA217C01F0F5FF002808
:10422800E9D10A2002F044FF41F20272009502230C
:10423800ADF80C20204603AA217C01F0E5FF0028F8
:10424800D9D10A2002F034FF042200950223ADF8E8
:104258000C20204603AA217C01F0D6FF0028CAD1F1
:104268000A2002F025FF062200950223ADF80C2053
:10427800204603AA217C01F0C7FF0028BBD10A20F1
:1042880002F016FF41F2082200950223ADF80C2037
:10429800204603AA217C01F0B7FF0028ABD10A20F1
:1042A800064602F005FF0095022303AA217C20465A
:1042B800ADF80C6001F0A8FF00289CD1304602F050
:1042C800F7FE009522790C232046002A8DF80C3041
:1042D80003AA4FF0020314BF622142218DF80D108A
:1042E800217C01F091FF002885D1304602F0E0FEE4
:1042F8002279D4E902310B43DBB20AB943F0400317
:1043080062790AB143F020030E22FA258DF80D30A8
:104318002046009502238DF80C2003AA217C01F089
:1043280073FF00287FF467AF0A2002F0C1FE102255
:1043380000950223ADF80C20204603AA217C01F049
:1043480063FF00287FF457AF0A2002F0B1FE122164
:1043580000950223ADF80C1003AA217C204601F039
:1043680053FF00287FF447AF0A2002F0A1FE012284
:1043780009212046FFF708FF003818BF01203BE756
:10438800F0B5102387B0234C012200250126002711
:1043980002A920460195CDE902234FF48052CDE9C8
:1043A800046709F0ABFD642003F096FA02A94FF404
:1043B80080522046CDE9046702261027CDE902671E
:1043C80009F09CFD0322102302A92046CDE902230F
:1043D80000230422CDE904234FF4805209F08EFD16
:1043E80040F23223042202A9019310232046CDE98A
:1043F8000223019A012305924FF48052049309F095
:104408007DFD40F60601204609F098FD284607B0D4
:10441800F0BD00BFF89F07241C4B00221C494FF039
:10442800400C30B5054689B00220596007219A60D2
:104438001A620124DA620A224FF4006EDC600692E6
:104448002022CDE9000104200821CDE90201032042
:104458001021CDE9040108206946C3E904024FF49C
:10446800C072181DC3E906C24FF48052C3E909E2BD
:1044780009F01AFD38B92846FFF782FF003818BF3F
:10448800012009B030BD204609B030BDF49F072493
:1044980040410052614A0021D0B513688EB00A919C
:1044A800002B40F0B9805E4B01214FF683700C243D
:1044B80011600221D3F8D4200026032742F4805249
:1044C800C3F8D420D3F8D42002F480520092009A82
:1044D800D3F8E02042F01002C3F8E020D3F8E0203F
:1044E80002F010020192019AD3F8E02042F0400253
:1044F800C3F8E020D3F8E02002F040020292029ACA
:10450800D3F8E02042F00802C3F8E020D3F8E02016
:1045180002F008020392039AD3F8E02042F4807272
:10452800C3F8E020D3F8E02002F480720492049AE1
:10453800D3F8E02042F08002C3F8E020D3F8E0206E
:1045480002F080020592059AD3F8E02042F020029A
:10455800C3F8E020D3F8E02002F020020692069A81
:10456800D3F8E02042F00402C3F8E020D3F8E030AA
:104578000C9403F0040307930323079A0B93CDE9E4
:10458800080108A9274805F02DF848F23712022338
:1045980008A925480C94CDE90823CDE90A6705F058
:1045A80021F84CF20372022308A920480C94CDE9A3
:1045B8000823CDE90A6705F015F840F2FF620223E7
:1045C80008A91B480C94CDE90823CDE90A6705F032
:1045D80009F84FF60C72022308A916480C94CDE985
:1045E8000823CDE90A6704F0FDFF4FF63F020223D6
:1045F80008A911480C94CDE90823CDE90A6704F00D
:10460800F1FF2022022308A90A480C94CDE90A6781
:10461800CDE9082304F0E6FF0EB0D0BDF09F0724D3
:10462800004402580010025800180258000C0258A2
:1046380000200258001C0258001402582DE9F04FBF
:10464800DFF8108406460D46144608F118002DEDD3
:10465800028B89B000AF02F003FCD8F8183073B3AE
:10466800D8F81C30D8F80490002B43690BBF4FF0E2
:10467800080A4FF0100A4FF0020B4FF0040BB9F183
:10468800000F2AD0A200EA46012B02F1070222F00D
:104698000702ADEB020D6846ADEB020D694600F06E
:1046A8003F81022B00F0D680002B6FD02246C847EE
:1046B800D5462437BD46BDEC028BBDE8F08FD8F84F
:1046C8001C30002BF5D0D8F804904FF0080A4FF0B2
:1046D800020B4369B9F1000FD4D1FB61D8F800305F
:1046E800BB61002BE5D0D54802F02CFC6B46BBF132
:1046F800020F786108EE103AFB6900F083816A4680
:104708005146A2EBC40295466200EA46B2FBFBF2B0
:10471800AAEBC40085460AEB8200EE46F861ADEBD1
:10472800010DF8690EEB820CC7F810C0EC46ADEB32
:10473800010D00EB8201CCF80400CCF8081001EB65
:1047480082013869E946CCF80C1000EB8201CCF8FC
:1047580000A001EB8202C9E900E0C9E90212012BBD
:1047680000F06483022B00F06C82002B00F0808143
:10477800620849466046BB69984718EE103A2437E4
:104788009D46BD46BDEC028BBDE8F08F002C8DD058
:104798001A46D8ED0C6A9FEDB27A8446331D36F975
:1047A80022E00CF1080C07EE90EA33F922E002321D
:1047B800F8EEE77A944267EE877A67EEA67A4CEDD0
:1047C800027A07EE90EAF8EEE77A67EE877A67EE04
:1047D800A67A4CED017AE2D8F9612246C847984E8C
:1047E800D8ED0D6A0020F9692B1D9FED9E7A9FED8B
:1047F8009E6ADFED9E5A22E0F4EEC67AF1EE10FAD8
:10480800C0F2C88447F6FE72D1ED017A45F820203F
:1048180066EEA77AF4EEC77AF1EE10FA40F2F0806D
:10482800F4EEC67AF1EE10FAC0F2D58447F6FE72BD
:1048380043F820200230083184427FF639AFD1EDA9
:10484800007A66EEA77AF4EEC77AF1EE10FAD3D8BA
:104858003246D9E7002C3FF429AFD8ED0C6A8446DC
:104868009FED787A0022331D8E4656F822100CF1FF
:10487800080C07EE901A53F822100232F8EEE77A85
:10488800944267EE877A67EEA67A4CED027A07EED5
:10489800901AF8EEE77A67EE877A67EEA67A4CED1B
:1048A800017AE2D871462246C7F81CE0C847664E2E
:1048B800D8ED0D6A0020F9692B1D9FED6A7A9FEDEE
:1048C8006A6ADFF894C120E0F4EEC67AF1EE10FAD5
:1048D800C0F279843246D1ED017A45F8202066EE9F
:1048E800A77AF4EEC77AF1EE10FA40F28780F4EE78
:1048F800C67AF1EE10FAC0F25E84324643F8202000
:104908000230083184427FF6D3AED1ED007A66EEEC
:10491800A77AF4EEC77AF1EE10FAD5D86246DAE74C
:10492800002C3FF4C3AED8ED0C6A86469FED477A5B
:104938004FF0000C331D56F82C200EF1080E82F4AF
:104948000002A2F5000207EE902A53F82C200CF181
:10495800020CF8EEE77A82F400026445A2F5000240
:1049680067EE877A67EEA67A4EED027A07EE902A0E
:10497800F8EEE77A67EE877A67EEA67A4EED017A67
:10498800D9D8F9612246C847314ED8ED0D6A0020C2
:10499800F9692B1D9FED337A9FED336ADFF8BCC0B0
:1049A8001FE0F4EEC67AF1EE10FAC0F2FC8332464C
:1049B800D1ED017A45F8202066EEA77AF4EEC77AA1
:1049C800F1EE10FA18D9F4EEC67AF1EE10FAC0F248
:1049D800DA83324643F820200230083184427FF6D9
:1049E80067AED1ED007A66EEA77AF4EEC77AF1EEFB
:1049F80010FAD6D86246DBE76246EBE762467DE707
:104A0800324615E7A100D6466208073121F00701B2
:104A1800ADEB010DEA46ADEB010D6946ADEB0E0DB0
:104A28000AEB8200EC46ADEB0E0D01EB8202F86159
:104A3800E946CCE900A0C9E9001290E648A007249D
:104A48000280FFFF000000300082FF7F000000347A
:104A580082FF7F002CA00724007E00807E0080FF5C
:104A68000000003804FF7FBF04FF7F3F00FEFF46C1
:104A7800002C00F0C982BBF1020FD8F8242000F006
:104A8800FA827969C7F8049002EB810E5FED0C5A3F
:104A98008A00DCF808100EF104007A611A46DCF886
:104AA8000C303B61331DD7F810903D61FD69C7E9B3
:104AB80002CB8C46834636F92210D8ED0C7A06EEE6
:104AC800101A33F9221006EE901A3EF92210B8EEA9
:104AD800C66A07EE101AF8EEE66A3BF92210B8EE3D
:104AE800C77A26EE256A66EEA56A27EE257A26EEAF
:104AF800276A66EEA76A27EE277A07EE901A51080A
:104B08000232F8EEE77A0AEB8100944280ED006AFF
:104B180005EB810067EEA57AC0ED006A0CEB810019
:104B280009EB810180ED007A98ED0C7A67EE877ABF
:104B3800C1ED007ABFD8D7F804903D69D7E902CB18
:104B480060466208BB6949469847D8F82C307A69AC
:104B5800D8ED0D6A1A441FED3D7A1FED3D6A2B1DF5
:104B6800904602F1040A5FED3F5A0022A84ED9E9A7
:104B780000EC51E0F4EEC67AF1EE10FAC0F2C7820A
:104B880047F6FE7045F822000CEB0100D0ED007AE4
:104B980066EEA77AF4EEC77AF1EE10FA4BD9F4EE86
:104BA800C67AF1EE10FAC0F2BA8247F6FE70BBF18F
:104BB800020F43F822002BD0D9F808000844D0EDA2
:104BC800007A66EEA77AF4EEC77AF1EE10FA36D9D3
:104BD800F4EEC67AF1EE10FAC0F2CD8247F6FE7016
:104BE80048F82200D9F80C000144D1ED007A66EEAD
:104BF800A77AF4EEC77AF1EE10FA1ED9F4EEC67A67
:104C0800F1EE10FAC0F2AF8247F6FE714AF82210B0
:104C1800023294427FF6B1AD51080EEB8100890053
:104C2800D0ED007A66EEA77AF4EEC77AF1EE10FAC4
:104C3800A0D83046A6E73046B9E73146E6E7304621
:104C4800CEE7002C00F0E081BBF1020FD8F8243049
:104C580000F0E1817A69DCF8081003EB820EC7F8EE
:104C680004909300DFED6B5A0EF1040000227B6183
:104C7800DCF80C303B61331DD7F810903D61FD69BD
:104C8800C7E902CB8C46834656F82210D8ED0C7A39
:104C980007EE101A53F82210B8EEC76A07EE101A7A
:104CA8005EF82210F8EEC76A07EE101A26EE256A9B
:104CB8005BF82210B8EEC77A66EEA56A26EE276A78
:104CC80027EE257A66EEA76A27EE277A07EE901A6E
:104CD80051080232F8EEE77A0AEB8100944280ED3F
:104CE800006A05EB810067EEA57AC0ED006A0CEB5F
:104CF800810009EB810180ED007A98ED0C7A67EE6E
:104D0800877AC1ED007ABFD8D7F804903D69D7E912
:104D180002CB60466208BB6949469847D8F82C30F0
:104D28007A69D8ED0D6A1A449FED3E7A9FED3E6A86
:104D3800131D9246DFF8E4C00022FB612B1D364E9E
:104D4800D9E9008E4EE0F4EEC67AF1EE10FAC0F220
:104D5800FC81304645F822000EEB0100D0ED007AC8
:104D680066EEA77AF4EEC77AF1EE10FA49D9F4EEB6
:104D7800C67AF1EE10FAC0F2EF813046BBF1020FAD
:104D880043F822002AD0D9F808000844D0ED007A68
:104D980066EEA77AF4EEC77AF1EE10FA35D9F4EE9A
:104DA800C67AF1EE10FAC0F2C98130464AF82200FC
:104DB800D9F80C000144D1ED007A66EEA77AF4EE3A
:104DC800C77AF1EE10FA1ED9F4EEC67AF1EE10FAAF
:104DD800C0F2AD813146F86940F82210023294429F
:104DE8007FF6CBAC510808EB81008900D0ED007A42
:104DF80066EEA77AF4EEC77AF1EE10FAA3D8604609
:104E0800A8E76046BAE76146E5E76046CEE700BF37
:104E18000280FFFF000000300082FF7F007E0080DC
:104E28000000003404FF7FBF04FF7F3F002C00F028
:104E3800EB807A690021D8F82430C7F8109003EB8A
:104E4800820ED7F81C909300FD610EF104021FED4D
:104E58000C6A7B61331D154656F821204808D8EDA9
:104E68000C6ABBF1020F82F40002A2F5000207EE01
:104E7800902A53F8212082F40002B8EEE77AA2F5CE
:104E8800000227EE067A07EE902A0AEB8002F8EE77
:104E9800E77A27EE267A67EE867A82ED007A09EBC2
:104EA80080024FEA800067EEA67AC2ED007A27D02A
:104EB8005EF8212082F40002A2F5000207EE902A93
:104EC80055F8212082F40002B8EEE77AA2F5000234
:104ED80027EE067A07EE902ADCF80820F8EEE77A43
:104EE800024427EE267A67EE867A82ED007A98EDFC
:104EF8000C7ADCF80C2067EE877A0244C2ED007A5F
:104F080002318C42A8D8D7F8109060466208BB6975
:104F18004946FD699847D8F82C307A69D8ED0D6A6A
:104F28001A441FED407A1FED406A131D9246DFF8C0
:104F3800C4C20022FB612B1DAB4ED9E9008E4EE0A6
:104F4800F4EEC67AF1EE10FAC0F2C580304645F8A4
:104F580022000EEB0100D0ED007A66EEA77AF4EE9F
:104F6800C77AF1EE10FA49D9F4EEC67AF1EE10FAE2
:104F7800C0F2BF803046BBF1020F43F822002AD0AE
:104F8800D9F808000844D0ED007A66EEA77AF4EE66
:104F9800C77AF1EE10FA35D9F4EEC67AF1EE10FAC6
:104FA800C0F2AE8030464AF82200D9F80C0001441D
:104FB800D1ED007A66EEA77AF4EEC77AF1EE10FA30
:104FC8001ED9F4EEC67AF1EE10FAC0F28B803146A3
:104FD800F86940F82210023294427FF6CEAB5108AD
:104FE80008EB81008900D0ED007A66EEA77AF4EE2E
:104FF800C77AF1EE10FAA3D86046A8E76046BAE788
:105008006146E5E76046CEE7224649466046BB6909
:105018009847FFF7B2BBC7F810B0002298ED0C6AAA
:10502800331DDFED726AD7F81CB0786956F8221084
:1050380007EE901A53F82210B8EEE77A07EE901AA6
:1050480051080232F8EEE77A27EE267A0AEB810E4B
:1050580094420BEB810167EEA67A27EE067A67EE9B
:10506800867A8EED007AC1ED007ADFD88300D7F812
:1050780010B07B614DE61A46C7F810B098ED0C6A7F
:10508800331DDFED5B6AD7F81CB0786936F922105A
:1050980007EE101A33F9221007EE901AB8EEC77A05
:1050A80051080232F8EEE77A27EE267A0AEB810EEB
:1050B80094420BEB810167EEA67A27EE067A67EE3B
:1050C800867A8EED007AC1ED007ADFD88300D7F8B2
:1050D80010B07B6134E5F0EE675AFEEEE45A15EE47
:1050E800900A34E7F0EE675AFEEEE45A15EE901A8D
:1050F8006EE7F0EE675AFEEEE45A15EE900A3AE7CC
:10510800F0EE675AFEEEE45A15EE900A4BE767EEAA
:10511800A57AFDEEE77A17EE900A00B232E567EE5F
:10512800A57AFDEEE77A17EE900A00B23FE5F0EEB9
:10513800675AFEEEE05A15EE901A4CE6F0EE675A02
:10514800FEEEE05A15EE900A30E6F0EE675AFEEEF3
:10515800E05A15EE900AFDE5F0EE675AFEEEE05AC9
:1051680015EE900A0AE667EEA57AFDEEE77A17EEE5
:10517800901A09B24AE567EEA57AFDEEE77A17EECE
:10518800900A00B22CE5F0EE675AFEEEE45A15EEEE
:10519800902A1FE467EEA57AFDEEE77A17EE902ACB
:1051A80012B2FFF731BBF0EE675AFEEEE45A15EE85
:1051B800902AFFF7FDBBF0EE675AFEEEE05A15EEB7
:1051C800902AFFF79BBBF0EE675AFEEEE05A15EE09
:1051D800902AFFF780BB67EEA57AFDEEE77A17EE17
:1051E800902A12B2FFF724BB82FF7F000000003034
:1051F800000000387E0080FF30B5184C154685B099
:10520800046004F1080EEC460FC98EE80F00D4EDD7
:10521800047AF5EEC07A8CE80F00F1EE10FA1ADD88
:10522800B7EE006A94ED057A27EE277AC6EE276A6C
:1052380084ED0D7AC4ED0C6A6DB1204640F8185F14
:1052480001F00EFE064903690020064A2162A262A7
:10525800E36005B030BD012005B030BD2CA00724A7
:10526800002000300000003000680830704700BFA0
:10527800B1F5807F03680A4628BF4FF48072B1F504
:10528800807F9A6094BF0020012070470068183022
:1052980001F046BE70B504688AB0A369E160CBB17D
:1052A80004F11805284601F0DBFD8446EE46E66861
:1052B800BCE80F00AEE80F00BCE80F00AEE80F0036
:1052C8009CE803008EE8030069462846049601F02E
:1052D800CFFCF8B9E069D8B104F11C05284601F003
:1052E800BFFD8446EE46E468BCE80F00AEE80F0058
:1052F800BCE80F00AEE80F009CE803008EE803004E
:1053080069462846049401F0B3FC003818BF012010
:105318000AB070BD01200AB070BD00BF30B5046886
:1053280083B00D46E3694BB1A3680020E26A616A65
:105338009B00009004F11C0001F094FDA36807484D
:10534800A26A9B00216A009004F1180001F08AFD0E
:105358000020C4E9005003B030BD00BF4546000836
:1053680010B4074B4FF07E513024002203201961FE
:105378009C60D8605DF8044B5961C3E90622704708
:105388002CA00724F6EE007A9FED166A20EE207A0C
:105398000160F7EE006A80ED036A80ED020A27EEED
:1053A800277AC6EE877AF4EEE67AF1EE10FA11DD86
:1053B800F0EE667A4FF07E514FF0000C0276002234
:1053C800C0ED017AC0F814C0016143768276C0ED61
:1053D800070A7047F4EEC67AF1EE10FAEAD5F0EE55
:1053E800467AE7E7000000000268037E128807EEAD
:1053F800902AFBEEC87A1BB1B7EE007A77EE677A8F
:10540800D0ED056A90ED047A77EEE67A437E67EE92
:10541800877A0BB1F1EE677A90ED030A90ED017A85
:1054280077EEC07AA7EE270A80ED030A704700BF1F
:10543800837E80ED020AABB9D0ED077A27EE800AA9
:10544800F6EE007AB7EE007A20EE270AC7EE007A69
:10545800F4EEC77AF1EE10FA07DDF0EE477AC0ED08
:10546800017A7047DFED067AE8E7F5EEC07AF1EEEB
:1054780010FAF4D5DFED037AC0ED017A704700BF6A
:105488006F12033B0000000030B585B004460025CC
:10549800ADF80C10ADF80820ADF8043001F006FEA8
:1054A800BDF80C204FF48073206004F118002283AB
:1054B800BDF808206383E383A283257100F0A4FB71
:1054C80004F11C0000F0A0FB9FED060A019904F10D
:1054D800080000F047F84FF6FF736562238405B0B3
:1054E80030BD00BF00000000F8B5044601F0DEFD45
:1054F800002623682671834205D104F10800BDE81F
:10550800F84000F049B8012794F82050206004F1D1
:105518001800BD40277100F053FC6DB2284394F881
:105528002150BD4084F8200004F11C0000F048FC24
:1055380094F820306DB2666203F003032843022B0F
:10554800C0B284F8210009D000F003000228D4D1A9
:10555800002BD2D14FF0FF336362CEE78307CCD163
:105568006762CAE770B5044682B0C1F30726CDB2B8
:10557800ADF8041001F09AFD4FF480724FF001234A
:105588002060A01DA571A280E671A36002B0BDE8ED
:10559800704000F039BB00BF38B5044601F086FD05
:1055A800002223682271834210D00122A57AE37A6F
:1055B800954020602271A01D6DB243B900F000FC37
:1055C80040B22843C0B27F28A0720AD038BD00F08C
:1055D800F7FBB0FA80F040092843C0B27F28A072D8
:1055E800F4D101F063FD07EE900AF8EE677AC4ED96
:1055F800037A38BD82B04FF0000C0323ADF80410D5
:10560800BDF8042080F810C00280438002B07047C3
:105618002DE9F04FBE4E00258FB0BE4C037006F149
:1056280040034260074601928846202229463046B8
:10563800C4F85831C4F85461CDE90355CDE905558E
:10564800CDE90755CDE90955CDE90B5512F062F8BA
:105658002022294604F59970C4F82151C4F825512F
:10566800C4F82951C4F82D5112F054F8019B84F85C
:10567800385284F820317A68002A5FD02B46414698
:10568800B64604F5907599464FF0010A03EB0310EE
:10569800D1F800B0D1F804800133D1F808C022183D
:1056A800CE6844F800B0C2F80480C2F808C0D660DA
:1056B800087C2EF8029B10740A7C05F8012F002A3A
:1056C80069D07A68113184F838A29A42DED84FF44A
:1056D800802291489DF8043008214FF000084FF0CF
:1056E8000009C4F874310023C4E957020122C4F840
:1056F800643184F87031C4E95A2194F83812C4E945
:10570800608981B3C4F88821002284F8713184F853
:1057180078313B78C4E96322A3B301220020012138
:10572800013B84F89421C4E96801082B2CD8DFE8F0
:1057380003F0ABB0B5BABFC4C9CFD6009DF80430EA
:105748000121C4F86421C4F874314FF4802384F82B
:105758007021714AC4E9572308230022C4E95A1367
:105768000023C4E960230123002284F87131002357
:1057780084F878310323C4F888313B78C4E963227C
:10578800002BCAD184F89431644802F0DDFC03464A
:1057980038B1FFBEFEE77A6811319A423FF676AF1C
:1057A80095E703A95D48039302F02CFE05460028FF
:1057B80068D1022240F2FF73CDE9082300230422B6
:1057C800CDE90A2394F82031002B00F0D5804FF062
:1057D800060921E0022B00F08980012B40F0C480EB
:1057E8009AF80130012B00F0C180002B4C4B18BFF8
:1057F800002306A94948CDE9063902F0D1F8002866
:1058080040F0BF80013594F82031EDB2AB4240F250
:10581800B380444B53F825902FB207EB071704EBDE
:10582800070A504600F0F0F905EB051323441B7CEA
:10583800042B7DDC022B00F3918000F08D8063192E
:10584800002283F81021E35D002BC3D19AF80130C0
:10585800062B00F08580072B00F08A80022B00F0D1
:105868009680032B00F09580002B00F09680012B8A
:1058780000F09180042B00F09280052B2A4B18BF72
:105888000023B6E7FFBEFEE703224023C4E96623F0
:105898007AE707226023C4E9662375E70F2280238D
:1058A800C4E9662370E71F22A023C4E966236BE7D7
:1058B8003F22C023C4E9662366E77F22E023C4E9C8
:1058C800662361E7FF224FF48073C4E966235BE730
:1058D80040F2FF124FF49073C4E9662354E740F294
:1058E800FF324FF4A073C4E966234DE79AF80130FC
:1058F800042B37D0052B3DD0002B40D0012B42D0B4
:10590800022B42D0032B094B18BF002371E700BFBD
:105918000040003068A0072400200240C4A10724EA
:105928000002B025547B01080000B84F00209036D3
:1059380003233E1D04EB05084FF0000B264488F8AE
:10594800103130460BF1010B00F05EF998F8103178
:1059580004365B45F5DC76E70123EAE70223E8E74E
:10596800104B46E7104B44E7002342E70F4B40E754
:105978000F4B3EE70F4B3CE70FB0BDE8F08F0E4BE7
:1059880037E7FFBEFEE70D4B33E70D4B31E70D4B15
:105998002FE70D4B2DE70D4B2BE70D4B29E70D4B53
:1059A80027E700BF0800900C1000C0102000F0147A
:1059B8008000501D000180210004002A0008302EBC
:1059C800001060320040C03A0080F03E00005247AC
:1059D800000021430000844B38B5094C40F2FF72A7
:1059E8004FF0011104F5AE75284602F0B9FC94F8A1
:1059F8002021D4F854112846BDE8384002F024BAD2
:105A080068A00724034B0F29D3F8540198BF00EB73
:105A18004100704768A00724214B02689A4200D0D1
:105A28007047204A00232048D2F8D81030B51F4CC0
:105A380041F0200183B0C4F8C001092004F5E075E5
:105A4800C4E971034FF48060C2F8D810D2F8D820A6
:105A58004FF40061C4E9733094F8380202F0200270
:105A6800C4F8D4114FF40051984201922846C4F862
:105A7800D811C4E97833019B14BF00234FF4807315
:105A8800C4F8DC3102F0E4FE08B1FFBEFEE704F51D
:105A9800AE73C4F8A851C4F8F83103B030BD00BFE4
:105AA80000200240004402584000024068A0072439
:105AB800014803F045BA00BF28A2072402682DE96F
:105AC800F84F4B4B9A4201D0BDE8F88F494D95F8F5
