:020000040800F2
:10000000000002205909000855090008AD7F0008CA
:1000100055090008550900085509000800000000AE
:10002000000000000000000000000000550900086A
:10003000550900080000000055090008317F00083C
:100040005509000855090008550900085509000818
:100050005509000855090008550900085509000808
:10006000550900085509000855090008397B0008A2
:10007000457B0008916A0008517B00085D7B000801
:10008000C5200108657000085509000855090008D9
:1000900055090008550900085509000855090008C8
:1000A00055090008550900085509000855090008B8
:1000B00099140108A5140108B114010899700008E9
:1000C00055090008A570000855090008090D010828
:1000D000150D0108F91E0108291F01085D1F0108FF
:1000E00055090008550900080000000055090008DE
:1000F0005509000855090008550900085509000868
:100100005509000855090008BD140108210D010812
:10011000911F0108C51F010855090008550900086D
:100120005509000855090008450D0108790D010819
:10013000F92001085509000855090008550900086B
:1001400000000000000000000000000000000000AF
:10015000550900085509000855090008F91F01084C
:10016000B170000855090008417F0008657F00084C
:1001700055090008897F000855090008550900083D
:1001800055090008550900082D2001085D200108C7
:100190002D0D0108390D0108550900085509000801
:1001A00055090008550900085509000855090008B7
:1001B0005978000855090008550900085509000834
:1001C0005509000855090008550900085509000897
:1001D0005509000855090008550900085509000887
:1001E0005509000855090008550900085509000877
:1001F0005509000855090008550900085509000867
:100200005509000855090008550900085509000856
:100210005509000855090008550900085509000846
:10022000550900085509000855090008000000009C
:10023000550900085509000800000000550900088C
:100240005509000855090008550900085509000816
:100250005509000855090008550900085509000806
:1002600055090008550900085509000855090008F6
:1002700055090008550900089120010800000000F8
:10028000550900085509000855090008000000003C
:08029000000000005509000800
:1002980010B5054C237833B9044B13B10448AFF3B8
:1002A80000800123237010BDB0040024000000006A
:1002B80078B4010808B5034B1BB103490348AFF3F1
:1002C800008008BD00000000B404002478B40108D0
:1002D80081F0004102E000BF83F0004330B54FEAEF
:1002E80041044FEA430594EA050F08BF90EA020F5C
:1002F8001FBF54EA000C55EA020C7FEA645C7FEAEF
:10030800655C00F0E2804FEA5454D4EB5555B8BF11
:100318006D420CDD2C4480EA020281EA030382EA82
:10032800000083EA010180EA020281EA0303362D14
:1003380088BF30BD11F0004F4FEA01314FF4801CE7
:100348004CEA113102D0404261EB410113F0004FF9
:100358004FEA03334CEA133302D0524263EB4303B0
:1003680094EA050F00F0A780A4F10104D5F1200E4E
:100378000DDB02FA0EFC22FA05F2801841F10001A9
:1003880003FA0EF2801843FA05F359410EE0A5F17D
:1003980020050EF1200E012A03FA0EFC28BF4CF0AE
:1003A800020C43FA05F3C01851EBE37101F0004564
:1003B80007D54FF0000EDCF1000C7EEB00006EEB71
:1003C8000101B1F5801F1BD3B1F5001F0CD34908FB
:1003D8005FEA30004FEA3C0C04F101044FEA445252
:1003E80012F5800F80F09A80BCF1004F08BF5FEAD9
:1003F800500C50F1000041EB045141EA050130BDB9
:100408005FEA4C0C404141EB0101013C28BFB1F5CA
:10041800801FE9D291F0000F04BF01460020B1FA15
:1004280081F308BF2033A3F10B03B3F120020CDAE8
:100438000C3208DD02F1140CC2F10C0201FA0CF0C6
:1004480021FA02F10CE002F11402D8BFC2F1200C2B
:1004580001FA02F120FA0CFCDCBF41EA0C019040E1
:10046800E41AA2BF01EB0451294330BD6FEA04042A
:100478001F3C1CDA0C340EDC04F11404C4F1200215
:1004880020FA04F001FA02F340EA030021FA04F327
:1004980045EA030130BDC4F10C04C4F1200220FA7E
:1004A80002F001FA04F340EA0300294630BD21FABC
:1004B80004F0294630BD94F0000F83F4801306BF82
:1004C80081F480110134013D4EE77FEA645C18BF76
:1004D8007FEA655C29D094EA050F08BF90EA020F0D
:1004E80005D054EA000C04BF1946104630BD91EA05
:1004F800030F1EBF0021002030BD5FEA545C05D108
:100508004000494128BF41F0004130BD14F5800446
:100518003CBF01F5801130BD01F0004545F0FE41BA
:1005280041F470014FF0000030BD7FEA645C1ABFEF
:10053800194610467FEA655C1CBF0B46024650EA26
:10054800013406BF52EA033591EA030F41F4002152
:1005580030BD00BF90F0000F04BF0021704730B5D8
:100568004FF4806404F132044FF000054FF00001AD
:1005780050E700BF90F0000F04BF0021704730B56E
:100588004FF4806404F1320410F0004548BF404243
:100598004FF000013EE700BF42004FEAE2014FEA98
:1005A80031014FEA02701FBF12F07F4393F07F4F73
:1005B80081F06051704732F07F4208BF704793F076
:1005C8007F4F04BF41F40021704730B54FF4607489
:1005D80001F0004521F000411CE700BF50EA01028C
:1005E80008BF704730B54FF000050AE050EA010235
:1005F80008BF704730B511F0004502D5404261EBA5
:1006080041014FF4806404F132045FEA915C3FF4E5
:10061800D8AE4FF003025FEADC0C18BF03325FEA82
:10062800DC0C18BF033202EBDC02C2F1200300FA33
:1006380003FC20FA02F001FA03FE40EA0E0021FA58
:1006480002F11444BDE600BF53B94AB9002908BFF6
:1006580000281CBF4FF0FF314FF0FF3000F074B995
:10066800ADF1080C6DE904CE00F006F8DDF804E001
:10067800DDE9022304B070472DE9F047089D0446E0
:100688008E46002B4DD18A42944669D9B2FA82F23D
:1006980052B101FA02F3C2F1200120FA01F10CFA79
:1006A80002FC41EA030E94404FEA1C48210CBEFBB1
:1006B800F8F61FFA8CF708FB16E341EA034306FB3A
:1006C80007F199420AD91CEB030306F1FF3080F0C9
:1006D8001F81994240F21C81023E63445B1AA4B216
:1006E800B3FBF8F008FB103344EA034400FB07F7B8
:1006F800A7420AD91CEB040400F1FF3380F00A81F9
:10070800A74240F207816444023840EA0640E41BED
:1007180000261DB1D4400023C5E900433146BDE899
:10072800F0878B4209D9002D00F0EF800026C5E93B
:10073800000130463146BDE8F087B3FA83F6002E53
:100748004AD18B4202D3824200F2F980841A61EBCB
:10075800030301209E46002DE0D0C5E9004EDDE7E9
:1007680002B9FFDEB2FA82F2002A40F09280A1EBD1
:100778000C014FEA1C471FFA8CFE0126200CB1FB26
:10078800F7F307FB131140EA01410EFB03F088421F
:1007980008D91CEB010103F1FF3802D2884200F2AC
:1007A800CB804346091AA4B2B1FBF7F007FB10113E
:1007B80044EA01440EFB00FEA64508D91CEB0404DC
:1007C80000F1FF3102D2A64500F2BB800846A4EB37
:1007D8000E0440EA03409CE7C6F12007B34022FA22
:1007E80007FC4CEA030C20FA07F401FA06F31C4351
:1007F800F9404FEA1C4900FA06F3B1FBF9F8200C5E
:100808001FFA8CFE09FB181140EA014108FB0EF0A3
:10081800884202FA06F20BD91CEB010108F1FF3AF3
:1008280080F08880884240F28580A8F102086144FF
:10083800091AA4B2B1FBF9F009FB101144EA01410D
:1008480000FB0EFE8E4508D91CEB010100F1FF34B8
:100858006CD28E456AD90238614440EA0840A0FB50
:100868000294A1EB0E01A142C846A64656D353D026
:100878005DB1B3EB080261EB0E0101FA07F722FA4A
:1008880006F3F1401F43C5E9007100263146BDE873
:10089800F087C2F12003D8400CFA02FC21FA03F3D6
:1008A800914001434FEA1C471FFA8CFEB3FBF7F057
:1008B80007FB10360B0C43EA064300FB0EF69E427C
:1008C80004FA02F408D91CEB030300F1FF382FD215
:1008D8009E422DD9023863449B1B89B2B3FBF7F6BD
:1008E80007FB163341EA034106FB0EF38B4208D996
:1008F8001CEB010106F1FF3816D28B4214D9023ED7
:100908006144C91A46EA004638E72E46284605E7F4
:100918000646E3E61846F8E64B45A9D2B9EB0208C5
:1009280064EB0C0E0138A3E74646EAE7204694E755
:100938004046D1E7D0467BE7023B614432E7304688
:1009480009E76444023842E7704700BFFEE700BF8A
:100958000B480C4A904203D0121A0B4917F044FF77
:100968000A480B4A904203D0121A002117F064FF7C
:1009780007F042FD17F004FF04F06AF9FEE700BF34
:1009880000000024AC040024ACB40108B004002426
:1009980030D60724704700BF704700BF704700BFBC
:1009A800704700BF704700BF704700BF704700BF67
:1009B800704700BF704700BF704700BF704700BF57
:1009C800704700BF704700BF704700BF704700BF47
:1009D800704700BF704700BF4020704780207047B5
:1009E80049424FF480621030C9B217F025BF00BFEA
:1009F800704700BF10B504464FF4826116F0ADFC95
:100A0800204610BD10B50446006818B1A168091A3F
:100A180016F0A3FC204610BD10B50446006818B1B6
:100A2800A168091A16F099FC204610BDA1EB000C2C
:100A38004FEAAC034FEA2C1CBCF1000F40DD1368F1
:100A480000EB0C1C10B40BE04468A3420ED0846881
:100A5800A3420FD0C468A34210D01030844511D0EF
:100A680004689C42F0D15DF8044B704704305DF88F
:100A7800044B704708305DF8044B70470C305DF844
:100A8800044B70470B1A9B10022B13D0032B0BD06F
:100A9800012B03D008465DF8044B704713680268C1
:100AA8009A42E0D00846F6E7136802689A42DAD01C
:100AB800043000E0136802689A42D4D00430EEE7AC
:100AC800022B05D0032B0ED0012B0AD00846704705
:100AD800136802689A4203D0043002689A42F5D13A
:100AE80070471368F9E7136802689A42F8D004302F
:100AF800EFE700BF704700BF2DE9F04F85B0A1F1C7
:100B0800200504AC9DF83870009104E90C00EBB2A4
:100B18005E2B00F29580036880465D4ADB689DF88D
:100B2800084093429DF8096040F094808020B8F80E
:100B380004302344834200F38380D8F80030554AB8
:100B48009B68934240F088804020B8F806209319AB
:100B58000192834274DC002E00F0898006FB05F5C3
:100B68006FF00040039B964628442E44B8F804A032
:100B780003EB4000023B03EB460B30F8026FBCB3BB
:100B88000EF007034FF0010C4FEADE0251460CFA53
:100B980003FC0AF110034FFA8CFC03EBC21200238A
:100BA8006FEA0C0942440EE07F2907D8BEF13F0FD7
:100BB80004D815789FB14CEA050515700133013248
:100BC80001319C4214D006FA03F52D04ECD47F2998
:100BD800F4D8BEF13F0FF1D81578002FEBD00133D0
:100BE80009EA0505013201319C4202F8015CEAD1AB
:100BF80058450EF1010EC0D1D8F8003054442449AC
:100C0800DA68A4B28A422DD1802084421CD29B6823
:100C1800204AA8F80440934221D14020019B8342F6
:100C280007D3D8F800301B4A9B68934229D13F2349
:100C38000193DDE90003A8F8063005B0BDE8F08FA0
:100C4800002005B0BDE8F08FDA6811498A4211D159
:100C58007F24DCE798476AE74046984775E74046AF
:100C68009847DBE740469047D8F80030CDE7B8F81A
:100C780004A0C1E7404690470138D8F8003084B254
:100C8800C5E740469847013883B20193D1E700BFD2
:100C9800E5090008E10900082DE9F04F4FF0B00818
:100CA80085B0054600F1080700F18F0600F28F496C
:100CB8004FF47A7B4FF0000A297B022303AA3846B7
:100CC800CDF800B0A6F180048DF80CA08DF80D8049
:100CD80006F086FA297B022303AA3846CDF800B02D
:100CE8008DF80CA08DF80DA006F07AFA4FF0100CD4
:100CF800297B022303AA3846CDF800B08DF80CA052
:100D08008DF80DC006F06CFA4FF47A7014F801CF24
:100D18004FF0400E297B0223009003AA38468DF835
:100D28000CE08DF80DC006F05BFAB442ECD104F18A
:100D3800800608F101084E455FFA88F8B8D105B079
:100D4800BDE8F08F2DE9F04F89B008AC9DF84870E8
:100D5800019104E90C000B78002B00F0AB801A46D7
:100D68009DF818809DF8193006464546904603932D
:100D7800079B0593A8F12004E3B25E2B00F29E8046
:100D880033685E4ADB68934240F09B808020B388DA
:100D98002B44834200F392803368594A9B689342FC
:100DA80040F092804020F188039A02918B18834288
:100DB80000F38480002A00F0918002FB04F46FF0B5
:100DC8000049059BA1441444B6F804B003EB490953
:100DD800023BCDF8108003EB44030C469A4639F8E1
:100DE80002CFA5B304F007034FF0010EE2085946FD
:100DF8000EFA03FE0BF110034FFA8EFE03EBC2123C
:100E080000236FEA0E0832440DE07F2906D83F2CF4
:100E180004D8107897B14EEA0000107001330132FF
:100E28000131AB4213D00CFA03F00004EDD47F2952
:100E3800F4D83F2CF2D81078002FECD0013308EA10
:100E4800000001320131AB4202F8010CEBD1D1456F
:100E580004F10104C3D1DDF8108032680BEB0504FE
:100E68002649D368A4B28B4234D18020844204D36B
:100E7800D36822498B423AD17F249368204AB480B0
:100E8800934224D14020029B834206D333681C4AF4
:100E98009B68934225D13F230293029BF380019BD9
:100EA8001878404507D113F8018F0193B8F1000F66
:100EB8007FF460AF002009B0BDE8F08F4FF0000864
:100EC800EDE73046984762E7304698476BE730468B
:100ED8009847D8E7304698473268C7E7B6F804B06D
:100EE800BBE730469847013883B20293D5E73046CE
:100EF80098470138326884B2BFE700BFE5090008A7
:100F0800E10900087F291ED83F2A1CD86BB1D308F5
:100F18004FF0010C02F0070201EBC3130CFA02F2C6
:100F2800C1180B7C1A430A747047D3084FF0010CA0
:100F380002F0070201EBC3130CFA02FCC1180A7C89
:100F480022EA0C020A7470472DE9F04F83B05C1A4C
:100F58000C9E002C9DF83490A6EB0208B8BF6442A2
:100F6800B8F1000FB8BFC8F100088B428CBF4FF032
:100F7800010A4FF0FF3A9642A4EB080C51D84FF003
:100F8800FF357F2B019512D83F2E10D8F50806F0B3
:100F9800070E012703EBC5150544B9F1000F47D02B
:100FA80007FA0EF795F810E047EA0E072F749642F5
:100FB80001D18B4229D0C8F100077F2914D83F2AD4
:100FC80012D8D50802F0070B4FF0010E01EBC5153A
:100FD8000544B9F1000F1BD00EFA0BFE95F810B0BE
:100FE8004EEA0B0E85F810E0B7EB4C0F4FEA4C05B4
:100FF80002DAACEB080C5144AC4202DD019DA4447A
:101008002A449942D9D19642D7D103B0BDE8F08F8E
:101018000EFA0BFB95F810E02EEA0B0E85F810E09F
:10102800E2E701257F2B0195C5D83F2EAED9C2E74F
:1010380007FA0EFE2F7C964227EA0E072F74B8D0C7
:10104800B9E700BF000000002DE9F04F2DED068B39
:1010580083B01F4680460D469DF8503016460193D2
:10106800139B002BC0F22182129A134406EE103A09
:10107800DDED127AB8EEC66B9FEDCD4BB8EEE77B8F
:101088009FEDCD5B27EE047B26EE046B87EE050B08
:1010980086EE05ABF7EEC08BB0EE680A16F0D0FA14
:1010A80007EE907AB7EECAABF8EE679AB0EE408AD0
:1010B800B0EE680A17F0F0F860EE698AB0EE4A0AF6
:1010C80016F0BEFAB0EE409AB0EE4A0A17F0E4F80D
:1010D80020EE690A29EE888A29EE899A70EE687AE4
:1010E800F0EE006A39EE487A67EEA77AE7EE077AFB
:1010F800F4EEE67AF1EE10FA06D5139BB42B40F322
:1011080096804FF0010901E04FF000090124784270
:101118004FF0000C0095E31B214627462246A340CA
:10112800B9F1000F6AD1424206EE90CACCF1000133
:1011380007EE102AB8EEE66A07EE901A06EE900A55
:10114800B8EEC77A139A66EE084AF8EEE77AB42A38
:1011580027EE284AF8EEE66A67EE885A74EEC43A33
:1011680026EEA85A26EE096A66EE806A67EE897A44
:1011780027EE007AF5EEC03A40F3F280F1EE10FA6D
:1011880000F17F8176EE473A74EEC54AF5EEC03A33
:10119800F1EE10FAF5EEC04ACCBF01220022F1EEC2
:1011A80010FA00F1778136EE666A35EEC55AB5EE6B
:1011B800C06AF1EE10FAB5EEC05ACCBF0121002189
:1011C800F1EE10FA00F16F8177EEE66AF5EEC06A8B
:1011D800F1EE10FACCBF0127002775EEC45AF5EEE0
:1011E800C05AF1EE10FA00F1478177EEC77AF5EEB2
:1011F800C07AF1EE10FACCBF01240024002A40F096
:101208008A80002964D1BFB9C4BB9C4558DB0CF166
:10121800010C03EB4C0E1CEB000F0EF1010E00F05D
:10122800C08098424FDB734600287FF779AF03B040
:10123800BDEC068BBDE8F08F009DA6EB0C0E00EB15
:10124800050ABAF17F0FDFD8BEF13F0FDCD84FEAAD
:10125800DE0B019D0AEBCB1A002D00F0B1800EF0D9
:10126800070BC2444FF0010E0EFA0BFE9AF810B0AD
:101278004EEA0B0E8AF810E0002CC6D0009DA6EBB3
:101288000C0EA5EB000ABAF17F0FBED8BEF13F0FD6
:10129800BBD84FEADE0B019D0AEBCB1A002D00F0FC
:1012A800AE800EF0070BC2444FF0010E9C450EFABB
:1012B8000BFE9AF810B04EEA0B0E8AF810E0A6DA88
:1012C80098429E46AFDA01300EEB40030133ABE79C
:1012D800009D0CEB060E00EB050ABAF17F0F92D8C1
:1012E800BEF13F0F8FD84FEADE0B019D0AEBCB1AF8
:1012F800002D73D00EF0070BC2444FF0010E0EFA0A
:101308000BFE9AF810B04EEA0B0E8AF810E0002F88
:101318003FF47AAF90E7009D0CEB060EA5EB000AB0
:10132800BAF17F0F3FF66DAFBEF13F0F3FF669AFE1
:101338004FEADE0B019D0AEBCB1A002D6DD00EF0A3
:10134800070BC2444FF0010E0EFA0BFE9AF810B0CC
:101358004EEA0B0E8AF810E000293FF454AFB7E7C5
:10136800F1EE10FA7ED44A4674EEC54AF5EEC04A4C
:10137800F1EE10FA6CD4002135EEC55AB5EEC05A1C
:10138800F1EE10FA5AD4002775EEC45AF5EEC05A99
:10139800F1EE10FA3FF529AF0024002A3FF431AFEF
:1013A800B9E798428FDB00233BE700BFAFF300802B
:1013B8007A008BFCFA21094000000000008066409A
:1013C800C2444FF0010B0EF0070E0BFA0EFE9AF80E
:1013D80010B02BEA0E0E8AF810E015E7C2444FF061
:1013E800010B0EF0070E0BFA0EFE9AF810B02BEA5E
:1013F8000E0E8AF810E0002F3FF406AF1CE7C24437
:101408004FF0010B0EF0070E0BFA0EFE9AF810B013
:101418002BEA0E0E8AF810E0F7E6C2444FF0010BF3
:101428000EF0070E0BFA0EFE9AF810B02BEA0E0E0D
:101438008AF810E000293FF4E6AE49E777EEE66A5D
:10144800F5EEC06AF1EE10FACCBF012700279BE742
:1014580036EE666AB5EEC06AF1EE10FACCBF01212D
:10146800002189E776EE473AF5EEC03AF1EE10FA38
:10147800CCBF0122002277E70124002A3FF4C1AE45
:1014880049E774EEC54A0122F5EEC04AF1EE10FABA
:101498007FF589AE35EEC55A0121B5EEC05AF1EE99
:1014A80010FA7FF591AE012797E6DDE91223134480
:1014B80006EE102A1293139B5B421393D8E500BFE4
:1014C8002DE9F04F89B01D46884606901046129CBB
:1014D80010F8013B13999DF85060009233B1002237
:1014E80010F8013B0132002BFAD193B22A786878C0
:1014F80012FB03F302B21BB223EAE373082900F2DA
:10150800A681DFE811F0010113011F013301410138
:101518004F0166016F010900A18827880F44B4F9BB
:101528000610FF1A0029BFB2C0F2FE806488069830
:1015380004EB6104C280A4EB52028380078094B25A
:101548004480A64AD8F8003011460192DA688A42E7
:1015580040F08B818020B84205D8DA6801998A4228
:1015680040F098817F279E4A9B68A8F804709342B0
:10157800039240F087814020A04207D8D8F8003075
:10158800039A9B68934240F080813F24009BA8F80F
:10159800064093F800B06B782C7804936B68079337
:1015A800BBF1000F00F0AC80ABF12005EBB25E2B75
:1015B80000F22C81D8F80030019ADB68934240F0A1
:1015C80028818020B8F8043023449842C0F21E8154
:1015D800D8F80030039A9B68934240F01D81402060
:1015E800B8F80610049A02918B189842C0F20E813E
:1015F800002A00F01C8102FB05F56FF0004E079BE6
:10160800AE441544CDF814B003EB4E0E023BB8F8C7
:1016180004A003EB45030D469B463EF8027FA4B3A6
:1016280005F007034FF0010CEA0851460CFA03FCD9
:101638000AF110034FFA8CFC03EBC21200236FEA85
:101648000C0942440DE07F2906D83F2D04D81078B4
:1016580096B14CEA000010700133013201319C420E
:1016680013D007FA03F00004EDD47F29F4D83F2DF6
:10167800F2D81078002EECD0013309EA00000132CC
:1016880001319C4202F8010CEBD1F34505F101054B
:10169800C3D1DDF814B0D8F800200AEB040501998D
:1016A800D368ADB28B4240F0BD808020854205D31F
:1016B800D36801998B4240F0C3807F259368039AD1
:1016C800A8F80450934240F0AA804020029B83422D
:1016D80008D3D8F80030039A9B68934240F0AA8058
:1016E8003F230293029BA8F80630009A13785B45C3
:1016F80006D112F801BF0092BBF1000F7FF454AF7E
:10170800069809B0BDE8F08FB4F9041027880029BD
:10171800B8BF013107EB6107B4F90610A7EB6307FF
:101728000029BFB2BFF602AF0131FFE6B4F900707D
:101738000699B4F902400F80BFB24C80A4B28B80E6
:10174800CA80FEE6B4F9041027880029B4F90240DB
:10175800B8BF013107EB610706998B80A7EB6303DC
:101768004C80A4B29FB2CA800F80EAE6A18827887D
:10177800B4F902400F4406998B80FB1A4C80A4B23E
:101788009FB2CA800F80DCE6E78861883944B4F9E3
:101798000070081A069984B20F808B80BFB2CA8085
:1017A8004C80CEE6B4F9041027880029B8BF01316F
:1017B80007EB6107A7EB6307B4F802C0BFB2E48880
:1017C800069964448B80201ACA800F8084B24C80AA
:1017D800B7E62788A1880F44FF1AEDE7E509000856
:1017E800E1090008B4F90610B4F90070002964880A
:1017F8000698B8BF0131C28004EB6104078083807A
:10180800BFB2A4EB520294B244809AE64FF0000BA8
:101818006BE740469847D5E640469847E0E640469D
:10182800984753E740469847D8F800203EE7B8F86D
:1018380004A030E740469847013883B2029351E745
:10184800404698470138D8F8002085B236E7D8F8DE
:1018580000300024069A1349148054809480D48060
:10186800DA6801918A4205D0274640469047D8F861
:10187800003070E69B680C4AA8F804409342039233
:101888003FF484AE4046984776E64046984701388C
:1018980084B27BE6404690470138D8F8003087B2DA
:1018A80061E600BFE5090008E10900082DE9F04FED
:1018B80087B09DF84850109C2E4601959DF84450DD
:1018C8009EB399422ED89946A24228D87F29164617
:1018D80094BF0023012308E09CF810804EEA080E0C
:1018E8008CF810E00136B44219D33F2EFAD8002BF9
:1018F800F8D14FEAD60C06F0070E4FF0010801EBBD
:10190800CC1C08FA0EFE8444002DE5D19CF810B0DA
:1019180001362BEA0E0AB4428CF810A0E5D2013148
:101928008945D1D207B0BDE8F08FA3EB0108B8F123
:10193800000FB8BFC8F100089942C0F04E817F2B54
:101948004FF0FF3A94BF002601263F2A009694BF25
:10195800002701270297A6B99FB9D60802F0070CFD
:10196800012703EBC6160644002D00F0948107FA00
:101978000CF796F810C047EA0C0737740026029651
:101988000096994200F09781464694468E46BEF1ED
:101998007F0F16D8BCF13F0F13D84FEADC070CF0C5
:1019A800070B4FF001090EEBC7170744002D00F095
:1019B800398109FA0BF997F810B049EA0B0987F849
:1019C8001090770018BFD644B84502DD46440CF1A4
:1019D800FF3C7345DBD16245D9D100260496A4EBC0
:1019E8000209009FB9F1000FB8BFC9F100093F2CE7
:1019F80094BF00260126A242C9F100080396C0F050
:101A08002381002F40F05081002E40F04D814FF08F
:101A1800FF360096E60803EBC6160644002D00F0D4
:101A28001E814FF0010C04F007070CFA07F796F82F
:101A380010C047EA0C07377400260396A24200F04C
:101A48003D81C44616461F4605927F2F15D83F2E66
:101A580013D84FEAD60E06F0070B4FF0010A07EB32
:101A6800CE1E8644002D00F0E6800AFA0BFA9EF896
:101A780010B04AEA0B0A8EF810A0B8EB4C0F4FEAE8
:101A88004C0E02DAACEB090C013FBEF1000F01D09D
:101A9800009A1644BB42D8D1B442D6D1059AA1EBDC
:101AA800030EBEF1000FB8BFCEF1000E7F2994BF20
:101AB8004FF0000A4FF0010A99428CBF4FF001091C
:101AC8004FF0FF39BAF1000F13D1039E8EB9E60823
:101AD80001EBC6160644002D00F0D3804FF0010C30
:101AE80004F007070CFA07F796F810C047EA0C0746
:101AF8003774049E26BB774626467F2B14D83F2E84
:101B080012D84FEAD60C06F0070B4FF0010803EB8A
:101B1800CC1C8444002D73D008FA0BF89CF810B044
:101B280048EA0B088CF810805FEA470C18BF4B4452
:101B3800E64501DD7744013E9942DED1B442DCD16D
:101B4800A2EB040EBEF1000FB8BFCEF1000EA24208
:101B58008CBF4FF001084FF0FF38CEF1000CBAF1FE
:101B6800000F0ED1029B63B9D30802F007070126C4
:101B780001EBC3130344002D7CD0BE401F7C3E43C1
:101B88001E74019B002B7FF4CDAE66460B467F2B5F
:101B980012D83F2C10D8E70804F0070A4FF00109C3
:101BA80003EBC7170744A5B309FA0AF997F810A079
:101BB80049EA0A0987F81090BCEB460F4FEA460736
:101BC80002DAA6EB0E06013B07B144449942DED186
:101BD800A242DCD107B0BDE8F08F3F2A4FF0010ADE
:101BE80094BF002601267F2B029694BF0027012769
:101BF8000097002E7FF4C8AE002F3FF4AEAEC3E6C8
:101C080008FA0BFB9CF8108028EA0B088CF8108067
:101C18008AE709FA0AFA97F8109029EA0A0987F870
:101C28001090C9E709FA0BFB97F8109029EA0B09FD
:101C380087F81090C5E60AFA0BFB9EF810A02AEA6E
:101C48000B0A8EF810A018E797BB8EBB01260096EA
:101C5800E60803EBC6160644002D7FF4E2AE012722
:101C680004F0070C039507FA0CFC377C27EA0C07ED
:101C78003774E3E606FA07F71E7C26EA07061E74A1
:101C88007FE7012704F0070C07FA0CFC377C27EAEA
:101C98000C0737742DE707FA0CFC377C029527EA06
:101CA8000C07009537746CE64FF0FF360096C5E6D2
:101CB80001260096C5E60126049690E601260196BF
:101CC800EDE600BF70B545680446012D2DED028B89
:101CD800F0EE408A40F29F80027FB7EE008AF6EE6F
:101CE800007A437F002A08FE278A0BB1B1EE488AA2
:101CF800A669DFED8B7A07EE106A9FED8A0AF8EE87
:101D0800476A66EEA76A26EE800A16F0C5FA022D23
:101D1800F0EE407A84ED050A3BD0032D40F0F880C0
:101D280094ED047AA268BCEEC77A2168022917EEFE
:101D3800103A02EB830393ED000A00F0DC800329DC
:101D480000F0D080B0EE407AA8EEA77A83ED007A52
:101D580040F2AE439E4201D80136A661236AD4ED13
:101D6800047A013B38EE278A07EE903AF8EE677A54
:101D780084ED048AB4EEE78AF1EE10FA40F3C080ED
:101D88000023236101295BD1022200236260A36141
:101D980095E094ED047A40F2AE41A268FCEEC76A81
:101DA8008E4216EE903A02EB830393ED000A0DD8AB
:101DB800B7EE007A013677EE677AB0EE407AA7EE92
:101DC800A87A83ED007A94ED047AA661236A38EE46
:101DD800078A013B84ED048A07EE903AF8EE677AA9
:101DE800B4EEE78AF1EE10FA79DCB5EEC08AF1EECE
:101DF80010FA64D5C4ED047A94F82430002B5ED030
:101E08002368012B5BD100220321134684F8242088
:101E18006160A26115E086699FED417A07EE906ADC
:101E28009FED400AF8EE677A67EE877A27EE800A18
:101E380016F032FA012D84ED050A07D09FED3A0A13
:101E4800002384F82530BDEC028B70BDD4ED047AF4
:101E580040F2AE42A36828EE807AFCEEE77A96421A
:101E680017EE901A03EB810383ED007A01D801364F
:101E7800A661D4ED047AF7EE006AE368BCEEE77A6F
:101E8800013B77EEA67A17EE102A07EE103AC4ED5A
:101E9800047AB8EE477A2262F4EEC77AF1EE10FAC5
:101EA800CCDD77EEE67A9FED207A0223B0EE470A82
:101EB80084ED047AFCEEE77A6360C4ED087A94ED69
:101EC800047ADFED1A7AB4EEE77ABDEC028BF1EE14
:101ED80010FA4CBF0123002384F8253070BD00237D
:101EE800236189E79FED127A20EE077AA8EEA77A98
:101EF80083ED007A2CE768EEA77AC3ED007A27E72E
:101F0800B5EEC08AF1EE10FA9AD5C4ED047A39E735
:101F180025F002059FED040A012DD0D190E700BFFE
:101F28000E745A3ADB0FC93F0000000000009645C6
:101F3800F304353F30B5052087B000240421012281
:101F480007238DF809009FED170A8DF808408DF8D2
:101F58000D10154D02998DF80C408DF810208DF854
:101F6800113012488DED010ADDE9032304F0B6FAB9
:101F78008DF814408DF8154028469DED010A059905
:101F880004F0DCFA03220B239DED010A8DF81420DE
:101F980005F110008DF81530059907B0BDE83040FF
:101FA80004F0CCBA000000008C050024188B07242C
:101FB800F0B50224A3B0042701258DF8084008A82D
:101FC8008DF809700626029904F000FB8DF80C4084
:101FD8008DF80D50002403990DF1310004F0F6FA44
:101FE8008DF810408DF811600DF14200049904F04D
:101FF800EDFA07238DF814400DF153008DF81530D4
:10200800059904F0E3FA8DF818508DF8195019A8BD
:10201800069904F0DBFA03238DF81C400DF17500D6
:102028008DF81D300799154D04F0D0FA3B4632461D
:1020380008A9134804F0D8FAE1B2114804F0CEFC1C
:10204800014610480134019102F0BEFF0023DFED84
:102058000E0A019928461A4604F0BEF9094802F00A
:1020680093FF284604F00EFA062C05F12005E3D16B
:10207800034804F09DFC23B0F0BD00BFCC0400244D
:10208800DC050024C40500246F12033B10B5094C7D
:1020980082B0019001AAD4E90001FEF7C7FC636889
:1020A800834204D02368C01A801002B010BD4FF0DC
:1020B800FF30FAE700A007242DE9F04F4B4B89B019
:1020C80090F800A01D78DFF828B1CDE906125978FC
:1020D8005B6803910593BAF1000F73D08146AAF1AA
:1020E8002003DAB25E2A7ED8BBF804E00EEB0502C4
:1020F800802A029277DCBBF80620039901920A44F1
:10210800402A70DC002947D0039A6FF00047CDF8C9
:1021180010A002FB03F301981F441344059A02EB35
:102128004707023A02EB43039A4637F802CF6DB3EA
:1021380000F0070301260EF1100200249E40C30898
:1021480076B202EBC31372466FEA06085B440BE0F3
:102158007F2A04D83F2802D81978314319700134EE
:1021680001330132AC4211D00CFA04F10904EFD466
:102178007F2AF4D83F28F2D8197801340133013284
:1021880008EA0101AC4203F8011CEDD1574500F102
:102198000100CAD1DDF810A0019ABDF808303F2A25
:1021A80028BF3F227F2B28BF7F23ABF80620ABF840
:1021B800043099F80030534504D119F801AFBAF149
:1021C800000F8CD1BDF81820BDF81C307F2A28BF1D
:1021D8007F223F2B28BF3F23ABF80420ABF8063003
:1021E80009B0BDE8F08F4FF0000AE2E718010024BB
:1021F800A09B0724914B1B68032B2DE9F04706464B
:1022080084B040F33581053B8D4C032B00F291805F
:10221800072562688B4B00212046009515F086F94A
:10222800012200213046FFF747FF6268864B0021F4
:102238002046009515F07AF90C2200213046FFF768
:102248003BFF092162680A25804B20460091002146
:1022580015F06CF9182200213046FFF72DFF62684F
:102268007B4B00212046009515F060F924220021BF
:102278003046FFF721FFDFF8F481009520466268B9
:102288000021744B4FF0B00915F050F93022304658
:10229800002103ADA8F18F04FFF70EFF4FF47A7AFF
:1022A8000027217B02232A466B48CDF800A0A8F11D
:1022B80080068DF80C708DF80D9004F091FF217B4D
:1022C80002232A466448CDF800A08DF80C708DF8DA
:1022D8000D7004F085FF4FF0100C217B02232A4675
:1022E8005D48CDF800A08DF80C708DF80DC004F095
:1022F80077FF4FF47A7E16F8017F4FF0400C217B70
:1023080002232A465448CDF800E08DF80CC08DF819
:102318000D7004F065FFB045EBD109F1010908F132
:1023280080085FFA89F9B9F1B80FB7D104B0BDE8F0
:10233800F0870A216268494B20460091002115F078
:10234800F5F8012200213046FFF7B6FE0621626843
:102358002046434B4FF0B0090091002115F0E6F8F4
:102368000C2200213046FFF7A7FE092162682046AB
:102378003C4B03AD0091002115F0D8F8182200213C
:102388003046FFF799FE032162682046009100213C
:10239800354BDFF8D88015F0C9F8242230460021E3
:1023A800A8F18F04FFF788FE4FF47A7A0027217B83
:1023B80002232A462848CDF800A0A8F180068DF807
:1023C8000C708DF80D9004F00BFF217B02232A4638
:1023D8002148CDF800A08DF80C708DF80D7004F030
:1023E800FFFE4FF0100C217B02232A461A48CDF835
:1023F80000A08DF80C708DF80DC004F0F1FE4FF4BC
:102408007A7716F801CF4FF0400E217B02232A4637
:10241800114800978DF80CE08DF80DC004F0E0FE2F
:102428004645ECD109F1010908F180085FFA89F9FC
:10243800B9F1B80FB8D104B0BDE8F0879C9B072468
:10244800AC050024908B0108988B0108A08B01082B
:10245800AC8B0108B88B0108A89B0724C48B010822
:10246800D08B0108D88B0108E48B01082F9C072426
:10247800424C0C27424B06256268002120460097F3
:1024880015F054F8012200213046FFF715FE3D4BA8
:10249800009500216268204615F048F83A46002168
:1024A8003046FFF709FE0522374B002120460092EF
:1024B80062684FF0B00915F039F81822002130464B
:1024C800FFF7FAFDDFF8CC8000952046626800210E
:1024D8002E4B0DEB070515F029F824223046002174
:1024E800A8F18F04FFF7E8FD4FF47A7A0027217BE3
:1024F80002232A462648CDF800A0A8F180068DF8C8
:102508000C708DF80D9004F06BFE217B02232A4697
:102518001F48CDF800A08DF80C708DF80D7004F0F0
:102528005FFE1021CDF800A002232A468DF80D1079
:102538001748217B8DF80C7004F052FE4FF47A7E18
:1025480016F8017F4FF0400C217B02232A461048E1
:10255800CDF800E08DF80CC08DF80D7004F040FE49
:10256800B045EBD109F1010908F180085FFA89F952
:10257800B9F1B80FB8D104B0BDE8F087AC050024B4
:10258800688B0108788B0108808B0108888B01080B
:10259800A89B07242F9C072416490B7910B403B174
:1025A8004B6A154A15481468234404781360C4B963
:1025B8000C7B24B1897C7F2901D10121017023EA98
:1025C800E3730F480E2BD0E90001A8BF0E23091AA8
:1025D8001360B3EBA10F07D20A490B4A0968CB5C19
:1025E80013705DF8044B7047074B00225DF8044BED
:1025F8001A707047188B07249C9B0724B19F0724E7
:1026080000A00724F09F0724FC9F0724F0B5964DEF
:102618008BB01021002405F108063C23934A4FF49F
:102628007A778DF82010304669448DF824302B7362
:10263800CDE90442CDE9064404F03CFDAE2303AAEB
:10264800297B8DF80D303046022300978DF80C4019
:1026580004F0C6FDD52303AA297B30468DF80D303A
:10266800022300978DF80C4004F0BAFD802303AADA
:10267800297B30468DF80D30022300978DF80C40E9
:1026880004F0AEFDA82303AA297B30468DF80D304F
:10269800022300978DF80C4004F0A2FD3F2303AA03
:1026A800297B30468DF80D30022300978DF80C40B9
:1026B80004F096FDDA2303AA297B30468DF80D3005
:1026C800022300978DF80C4004F08AFD122303AA18
:1026D800297B30468DF80D30022300978DF80C4089
:1026E80004F07EFDD32303AA297B30468DF80D30F4
:1026F800022300978DF80C4004F072FD03AA297B91
:102708000223304600978DF80C408DF80D4004F0F8
:1027180067FD402303AA297B30468DF80D3002233C
:1027280000978DF80C4004F05BFDA62303AA297BD3
:1027380030468DF80D30022300978DF80C4004F0D8
:102748004FFDA42303AA297B30468DF80D300223C0
:1027580000978DF80C4004F043FD8D2303AA297BD4
:1027680030468DF80D30022300978DF80C4004F0A8
:1027780037FD142303AA297B30468DF80D30022338
:1027880000978DF80C4004F02BFDA12303AA297BA8
:1027980030468DF80D30022300978DF80C4004F078
:1027A8001FFDC82303AA297B30468DF80D3002236C
:1027B80000978DF80C4004F013FD812303AA297BB0
:1027C80030468DF80D30022300978DF80C4004F048
:1027D80007FD8F2303AA297B30468DF80D3002238D
:1027E80000978DF80C4004F0FBFCD92303AA297B41
:1027F80030468DF80D30022300978DF80C4004F018
:10280800EFFC252303AA297B30468DF80D300223DF
:1028180000978DF80C4004F0E3FCDB2303AA297B26
:1028280030468DF80D30022300978DF80C4004F0E7
:10283800D7FC342303AA297B30468DF80D300223B8
:1028480000978DF80C4004F0CBFC8DF80C4003AADF
:10285800297B0223AF24304600978DF80D4004F001
:10286800BFFC0BB0F0BD00BFA09B07240108010905
:10287800894B8A4893ED000A70B513F045F9884BE7
:10288800864893ED000A13F053F9864B834893ED7D
:10289800000A13F025F9844B804893ED000A13F0E1
:1028A80063F9824B824893ED000A12F0F3FF814BE3
:1028B8007F4893ED000A13F015F87F4B7C4893EDA1
:1028C800000A12F091FF7D4B794893ED000A12F04F
:1028D800A7FF7B4B7B4893ED000A13F0E7FC7A4B8C
:1028E800784893ED000A13F0ADFC784B754893EDEA
:1028F800000A13F08BFB764B724893ED000A13F035
:10290800B7FB744B6F48D3ED007A734CFDEEE77A52
:1029180017EE901A13F06EFB704B94ED0E7AD3ED10
:10292800007A87EE270AC4ED027AB1EE400A15F064
:1029380081FA94ED0D7AD4ED027A84ED0A0A87EED5
:10294800270AB1EE400A15F075FA654AB7EE007A23
:10295800644B92ED006AD3ED006AC7EE067AD4EDB7
:102968000E4A614B84ED080A1B6884ED006A84EE08
:10297800A65A2361C4ED036A77EE405A77EEC77A08
:1029880067EEA57AB1EE450AC4ED097A15F052FA58
:10299800564A94F83C30D2ED007A84ED0B0AC4ED27
:1029A800017A6BB194ED006AB6EE007AC7EE866ADA
:1029B80077EEE67AF0EEE77A67EE877AC4ED047A86
:1029C8004B4ADFED4C7A92ED007ADFED4B6A27EE49
:1029D800277A4A494A4B91ED000AC7EE267A494AB6
:1029E80049484A4C4A4E4B4DBDEEE77A17EE101A4D
:1029F800F8EEC76A994277EEE67A28BF1946C2ED23
:102A0800007A916013F0A0FF434B3F4893ED000A12
:102A180013F090FF414B424893ED000A13F07AF906
:102A2800404B414AD3ED007A2468404BFDEEE77AEB
:102A38003F4940481268D6F800C000681C600C681E
:102A48003D495A603D4A3E4BC1F800C0486029687C
:102A5800C2ED027A54603B483B4A99613B4904689D
:102A6800126891ED000A3A481A615C6114F066FA3E
:102A7800384B374893ED000A14F06EFA364B344859
:102A880093ED000A14F044FA344B314893ED000AF0
:102A9800BDE8704014F044BA54000024408B072469
:102AA8005C00002458000024500000240800002482
:102AB80034120624100000240C0000241400002402
:102AC80080000024905D06248C0000247C000024F3
:102AD80084000024880000249C1106241C00002483
:102AE8002400002428000024200000242C000024B6
:102AF8004000002400803B4700007A44B0000024D6
:102B0800FF76010000E86EC3E41106246400002487
:102B1800AC000024C4000024B400002448000024B1
:102B2800281206240400002468000024DC1106246E
:102B380034000024A8000024080600241C120624DF
:102B48004C110624C0000024BC000024940000247A
:102B5800649A0724980000249C000024A000002404
:102B68009A4B1B7810B582B00D2B15D8DFE813F0FF
:102B78000E007E00C90058011102DE02AE04E20315
:102B88007A05790314052A0474061900904803F09D
:102B980055FC904B83ED000A02B0BDE81040FFF7EA
:102BA80067BE8D4803F04AFCB5EE400AF0EE407A65
:102BB800F1EE10FA00F1BA87B1EEE70A874B9FED04
:102BC800887AD3ED007A77EEC07AF0EEE77AF4EE01
:102BD800C77AF1EE10FA08DDDFED827A83ED000A9C
:102BE80030EE270A804A82ED000A794803F026FC75
:102BF800784B9FED7B7AD3ED007A77EEC07AF0EED2
:102C0800E77AF4EEC77AF1EE10FA00F36C877748AA
:102C180003F014FCB5EE400AF0EE407AF1EE10FA3B
:102C280001F13A80B1EEE70A714B9FED6D7AD3ED71
:102C3800007A77EEC07AF0EEE77AF4EEC77AF1EE32
:102C480010FA0ADD9FED6B7ADFED667A6A4AE0EEEC
:102C5800077A83ED000AC2ED007A03246748684BBF
:102C680000214268009414F061FC95E75A4803F08B
:102C7800E5FBB5EE400AF0EE407AF1EE10FA00F10D
:102C88005187B1EEE70A554B9FED557AD3ED007A9F
:102C980077EEC07AF0EEE77AF4EEC77AF1EE10FA42
:102CA8000ADDB0EE007ADFED4F7A564A83ED000A6E
:102CB800E0EE077AC2ED007A454803F0BFFB454BCA
:102CC8009FED477AD3ED007A77EEC07AF0EEE77A97
:102CD800F4EEC77AF1EE10FA0ADDB0EE007ADFED15
:102CE800417A494A83ED000AE0EE077AC2ED007A9C
:102CF80006244248454B00214268009414F016FC13
:102D08004AE7354803F09AFBB5EE400AF0EE407A00
:102D1800F1EE10FA00F11287B1EEE70A2F4B9FEDA2
:102D2800307AD3ED007A77EEC07AF0EEE77AF4EEF7
:102D3800C77AF1EE10FA0ADDF7EE007A9FED347AE1
:102D4800344A83ED000AE0EE077AC2ED007A2048A3
:102D580003F074FB1F4B9FED227AD3ED007A77EED8
:102D6800C07AF0EEE77AF4EEC77AF1EE10FA00F3E3
:102D7800AF861E4803F062FBB5EE400AF0EE407ADB
:102D8800F1EE10FA00F18487B1EEE70A184B9FEDD7
:102D9800147AD3ED007A77EEC07AF0EEE77AF4EEA3
:102DA800C77AF1EE10FA08DDDFED0E7A83ED000A3E
:102DB80030EE270A184A82ED000A05240F48174BFF
:102DC80000214268009414F0B1FBE5E6FC9F07245B
:102DD800EC040024B49F0724CC04002470000024D1
:102DE8000AD7A33B00000000BC0000240C05002407
:102DF800B89F07240000C842C4000024AC05002482
:102E0800E48B01087400002478000024788B010802
:102E180000E0F9444000002444000024808B0108AD
:102E2800A94803F00BFBB5EE400AF0EE407AF1EE4C
:102E380010FA00F17F86B1EEE70AA44B9FEDA47A61
:102E4800D3ED007A77EEC07AF0EEE77AF4EEC77A3F
:102E5800F1EE10FA0ADD9FED9F7ADFED9F7A9F4A27
:102E6800E0EE077A83ED000AC2ED007A9C4803F091
:102E7800E5FA9C4B9FED967AD3ED007A77EEC07A0F
:102E8800F0EEE77AF4EEC77AF1EE10FA00F3158661
:102E9800954803F0D3FAB5EE400AF0EE407AF1EE29
:102EA80010FA00F1F186B1EEE70A904B9FED887AAF
:102EB800D3ED007A77EEC07AF0EEE77AF4EEC77ACF
:102EC800F1EE10FA0ADD9FED837ADFED837A884A06
:102ED800E0EE077A83ED000AC2ED007A854803F038
:102EE800ADFA854B9FED7A7AD3ED007A77EEC07A0A
:102EF800F0EEE77AF4EEC77AF1EE10FA00F3CC853B
:102F08007E4803F09BFAB5EE400AF0EE407AF1EE07
:102F180010FA00F1B586B1EEE70A794B9FED6C7AAD
:102F2800D3ED007A77EEC07AF0EEE77AF4EEC77A5E
:102F3800F1EE10FA00F3A585724803F07FFAB5EEBA
:102F4800400AF0EE407AF1EE10FA00F19586B1EE03
:102F5800E70A6D4B9FED5E7AD3ED007A77EEC07A83
:102F6800F0EEE77AF4EEC77AF1EE10FA08DDDFED5D
:102F7800677A83ED000A30EE270A654A82ED000A77
:102F880006246448644B00214268009414F0CEFA89
:102F980002E64D4803F052FAB5EE400AF0EE407AE8
:102FA800F1EE10FA00F1D285B1EEE70A474B9FED3A
:102FB800487AD3ED007A77EEC07AF0EEE77AF4EE4D
:102FC800C77AF1EE10FA0ADD9FED427ADFED427A18
:102FD800524AE0EE077A83ED000AC2ED007A4048D3
:102FE80003F02CFA3F4B9FED3A7AD3ED007A77EE57
:102FF800C07AF0EEE77AF4EEC77AF1EE10FA00F351
:103008003585394803F01AFAB5EE400AF0EE407AF1
:10301800F1EE10FA00F1D785B1EEE70A334B9FEDD8
:103028002C7AD3ED007A77EEC07AF0EEE77AF4EEF8
:10303800C77AF1EE10FA08DDDFED347A83ED000A85
:1030480030EE270A364A82ED000A2A4803F0F6F9DC
:10305800294B9FED1F7AD3ED007A77EEC07AF0EE18
:10306800E77AF4EEC77AF1EE10FA00F3F284234817
:1030780003F0E4F9B5EE400AF0EE407AF1EE10FA0A
:1030880000F19D85B1EEE70A1D4B9FED117AD3ED56
:10309800007A77EEC07AF0EEE77AF4EEC77AF1EECE
:1030A80010FA08DDDFED197A83ED000A30EE270A01
:1030B8001C4A82ED000A062416481B4B0021426870
:1030C800009414F033FA67E5CC040024700000245F
:1030D8000AD7A33B0AD76F410AD7233C8C000024A8
:1030E800EC040024B49F07240C050024B89F07248F
:1030F800840000242C050024BC9F07244C050024D0
:10310800C09F07246C050024C49F0724000000000A
:1031180090000024AC050024888B010814000024CA
:103128001000002418000024E88B0108CA4803F0A6
:1031380085F9B5EE400AF0EE407AF1EE10FA00F1AA
:103148000185B1EEE70AC54B9FEDC57AD3ED007A4C
:1031580077EEC07AF0EEE77AF4EEC77AF1EE10FA7D
:103168000ADD9FEDC07ADFEDC07AC04AE0EE077A4B
:1031780083ED000AC2ED007ABD4803F05FF9BD4B4C
:103188009FEDB77AD3ED007A77EEC07AF0EEE77A62
:10319800F4EEC77AF1EE10FA00F33484B64803F07F
:1031A8004DF9B5EE400AF0EE407AF1EE10FA00F172
:1031B800FB84B1EEE70AB14B9FEDA97AD3ED007A13
:1031C80077EEC07AF0EEE77AF4EEC77AF1EE10FA0D
:1031D80008DDDFEDAB7A83ED000A30EE270AA94A55
:1031E80082ED000AA84803F029F9A84B9FED9C7AC4
:1031F800D3ED007A77EEC07AF0EEE77AF4EEC77A8C
:10320800F1EE10FA00F3F283A14803F017F9B5EED6
:10321800400AF0EE407AF1EE10FA00F1C184B1EE06
:10322800E70A9C4B9FED8E7AD3ED007A77EEC07A51
:10323800F0EEE77AF4EEC77AF1EE10FA08DDDFED8A
:10324800907A83ED000A30EE270A934A82ED000A4D
:1032580007249248924B00214268009414F066F9C2
:103268009AE47D4803F0EAF8B5EE400AF0EE407AB9
:10327800F1EE10FA00F17E84B1EEE70A774B9FED8C
:10328800787AD3ED007A77EEC07AF0EEE77AF4EE4A
:10329800C77AF1EE10FA0EDDB3EE007ADFED787A38
:1032A800804A83ED000AE0EE077AFDEEE77AF8EE51
:1032B800E77AC2ED007A6E4803F0C0F86D4B9FEDD7
:1032C800687AD3ED007A77EEC07AF0EEE77AF4EE1A
:1032D800C77AF1EE10FA00F3AC83674803F0AEF852
:1032E800B5EE400AF0EE407AF1EE10FA00F1638490
:1032F800B1EEE70A614B9FED5A7AD3ED007A77EE8B
:10330800C07AF0EEE77AF4EEC77AF1EE10FA08DD4B
:10331800DFED5B7A83ED000A30EE270A624A82ED20
:10332800000A0A245D48614B00214268009414F0A9
:10333800FDF831E4484803F081F8B5EE400AF0EEB4
:10334800407AF1EE10FA00F11184B1EEE70A434B2E
:103358009FED437AD3ED007A77EEC07AF0EEE77A04
:10336800F4EEC77AF1EE10FA08DDDFED457A83ED69
:10337800000A30EE270A4E4A82ED000A3C4803F064
:103388005DF83C4B9FED367AD3ED007A77EEC07A44
:10339800F0EEE77AF4EEC77AF1EE10FA08DDDFED29
:1033A800387A83ED000A30EE270A424A82ED000A95
:1033B80009243A48404B00214268009414F0B6F8BA
:1033C800FFF7EABB244803F039F8B5EE400AF0EEFF
:1033D800407AF1EE10FA00F1D483B1EEE70A1F4B00
:1033E8009FED1F7AD3ED007A77EEC07AF0EEE77A98
:1033F800F4EEC77AF1EE10FA08DDDFED217A83EDFD
:10340800000A30EE270A2D4A82ED000A184803F018
:1034180015F8184B9FED127AD3ED007A77EEC07A43
:10342800F0EEE77AF4EEC77AF1EE10FA0ADD9FEDD6
:10343800247ADFED137A234AE0EE077A83ED000A57
:10344800C2ED007A062415481F4B002142680094FB
:1034580014F06CF8FFF7A0BBCC0400247000002423
:103468000AD7A33B85EB9F410AD7233C5C00002485
:10347800EC040024B49F07240C050024B89F0724FB
:1034880000000000580000242C050024BC9F0724DD
:103498004C050024C09F072460000024AC050024CC
:1034A800908B01080400002438000024B88B010820
:1034B800480000244C000024A08B0108AC00002424
:1034C8000080BB46A8000024D08B0108C24802F047
:1034D800B5FFB5EE400AF0EE407AF1EE10FA00F1D1
:1034E8004D83B1EEE70ABD4B9FEDBD7AD3ED007A6F
:1034F80077EEC07AF0EEE77AF4EEC77AF1EE10FADA
:103508000ADD9FEDB87ADFEDB87AB84AE0EE077ABF
:1035180083ED000AC2ED007AB54802F08FFFB54B83
:103528009FEDAF7AD3ED007A77EEC07AF0EEE77AC6
:10353800F4EEC77AF1EE10FA00F34E82AE4802F0CC
:103548007DFFB5EE400AF0EE407AF1EE10FA00F198
:103558002483B1EEE70AA94B9FEDA17AD3ED007A57
:1035680077EEC07AF0EEE77AF4EEC77AF1EE10FA69
:1035780008DDDFEDA37A83ED000A30EE270AA14AC1
:1035880082ED000A0724A048A04B0021426800945D
:1035980013F0CCFFFFF700BB8F4802F04FFFB5EEEA
:1035A800400AF0EE407AF1EE10FA00F1D682B1EE60
:1035B800E70A8A4B9FED8A7AD3ED007A77EEC07AD4
:1035C800F0EEE77AF4EEC77AF1EE10FA0ADD9FED35
:1035D800907ADFED907A904AE0EE077A83ED000A60
:1035E800C2ED007A824802F029FF824B9FED7C7A77
:1035F800D3ED007A77EEC07AF0EEE77AF4EEC77A88
:10360800F1EE10FA00F309827B4802F017FFB5EEDD
:10361800400AF0EE407AF1EE10FA00F1C982B1EEFC
:10362800E70A764B9FED6E7AD3ED007A77EEC07A93
:10363800F0EEE77AF4EEC77AF1EE10FA08DDDFED86
:10364800707A83ED000A30EE270A744A82ED000A88
:103658000A246D48724B00214268009413F066FFFB
:10366800FFF79ABA5C4802F0E9FEB5EE400AF0EEC0
:10367800407AF1EE10FA00F16D82B1EEE70A574B8D
:103688009FED577AD3ED007A77EEC07AF0EEE77ABD
:10369800F4EEC77AF1EE10FA0ADDF7EE007A9FED44
:1036A800617A614A83ED000AE0EE077AC2ED007A9A
:1036B8004F4802F0C3FE4F4B9FED497AD3ED007A95
:1036C80077EEC07AF0EEE77AF4EEC77AF1EE10FA08
:1036D80000F37681484802F0B1FEB5EE400AF0EEFC
:1036E800407AF1EE10FA00F15582B1EEE70A434B49
:1036F8009FED3B7AD3ED007A77EEC07AF0EEE77A69
:10370800F4EEC77AF1EE10FA0ADD9FED487ADFEDA4
:10371800487A484AE0EE077A83ED000AC2ED007A5B
:10372800454802F08BFE454B9FED2D7AD3ED007A8C
:1037380077EEC07AF0EEE77AF4EEC77AF1EE10FA97
:1037480000F332813E4802F079FEB5EE400AF0EE11
:10375800407AF1EE10FA00F11A82B1EEE70A394B1D
:103768009FED1F7AD3ED007A77EEC07AF0EEE77A14
:10377800F4EEC77AF1EE10FA00F30A81324802F04B
:103788005DFEB5EE400AF0EE407AF1EE10FA00F177
:10379800FB81B1EEE70A2D4B9FED117AD3ED007A4C
:1037A80077EEC07AF0EEE77AF4EEC77AF1EE10FA27
:1037B80008DDDFED137A83ED000A30EE270A244A8C
:1037C80082ED000A0A241048224B00214268009426
:1037D80013F0ACFEFFF7E0B9CC040024700000241D
:1037E8000AD7A33B0AD76F410AD7233CB400002469
:1037F800EC040024B49F07240C050024B89F072478
:1038080000000000B8000024AC050024988B0108D3
:1038180000002042000020C2640000246C00002444
:10382800C48B010800001C4224000024E7FB1F4150
:103838006F12833A280000242C050024BC9F07241B
:103848004C050024C09F07246C050024C49F07244E
:1038580030000024AC8B0108DD4802F0EFFDB5EE26
:10386800400AF0EE407AF1EE10FA00F17C81B1EEF8
:10387800E70AD84B9FEDD87AD3ED007A77EEC07A75
:10388800F0EEE77AF4EEC77AF1EE10FA08DDDFED34
:10389800D37A83ED000A30EE270AD14A82ED000A76
:1038A800D04802F0CBFDD04B9FEDCB7AD3ED007A18
:1038B80077EEC07AF0EEE77AF4EEC77AF1EE10FA16
:1038C80000F32681C94802F0B9FDB5EE400AF0EED2
:1038D800407AF1EE10FA00F14381B1EEE70AC44BE9
:1038E8009FEDBD7AD3ED007A77EEC07AF0EEE77AF5
:1038F800F4EEC77AF1EE10FA0ADDF3EE047A9FEDE2
:10390800BD7ABD4A83ED000AE0EE077AC2ED007A7F
:10391800BA4802F093FDBA4B9FEDAF7AD3ED007A27
:1039280077EEC07AF0EEE77AF4EEC77AF1EE10FAA5
:1039380000F3E480B34802F081FDB5EE400AF0EEF2
:10394800407AF1EE10FA00F1AB81B1EEE70AAE4B26
:103958009FEDA17AD3ED007A77EEC07AF0EEE77AA0
:10396800F4EEC77AF1EE10FA08DDDFED9C7A83ED0C
:10397800000A30EE270AA54A82ED000A0924A44865
:10398800A44B00214268009413F0D0FDFFF704B95E
:103998009FEDA17ADFED917AA04AE0EE077A83EDF8
:1039A800000AC2ED007AE9E69FED9D7ADFED8B7A99
:1039B8009C4AE0EE077A83ED000AC2ED007AC1E680
:1039C8009FED997ADFED997A994AE0EE077A83EDCF
:1039D800000AC2ED007A7DE6DFED807A83ED000A09
:1039E80030EE270A934A82ED000AA7E59FED927A06
:1039F800DFED927A924AE0EE077A83ED000AC2ED93
:103A0800007A01E4DFED757A83ED000A30EE270ACB
:103A18008C4A82ED000AFFF7C1BBB2EE047ADFEDF3
:103A28006F7A894A83ED000AE0EE077AC2ED007AE0
:103A3800EAE59FED867ADFED697A854AE0EE077A56
:103A480083ED000AFDEEE77AF8EEE77AC2ED007A38
:103A580043E4B3EE0E7A7F4AF3EE047A83ED000A6C
:103A6800E0EE077AC2ED007AFFF701BBDFED5B7A83
:103A780083ED000A30EE270A774A82ED000AFFF745
:103A8800C0BADFED567A83ED000A30EE270A734A92
:103A980082ED000AFFF750BAB1EE0C7A704AF7EEE1
:103AA800007A83ED000AE0EE077AFDEEE77AF8EE99
:103AB800E77AC2ED007AFFF723BADFED487A83EDA3
:103AC800000A30EE270A674A82ED000AFFF7E0B9DC
:103AD800DFED427A83ED000A30EE270A624A82ED72
:103AE800000AFFF746B9DFED3D7A83ED000A30EEB4
:103AF800270A5E4A82ED000AFFF789B8DFED377AB8
:103B080083ED000A30EE270A594A82ED000A11E7D0
:103B1800DFED327A83ED000A30EE270A554A82ED4E
:103B2800000ACFE614F0E2FCFFF7ADB814F0DEFCB3
:103B3800FFF744B814F0DAFCFFF77FB914F0D6FCAD
:103B4800FFF7ECB814F0D2FCFFF7FDBA14F0CEFC86
:103B5800FFF72CBA14F0CAFC91E514F0C7FC28E56D
:103B680014F0C4FCBBE614F0C1FC82E614F0BEFC01
:103B7800FFF7EDBB14F0BAFCFFF780BB14F0B6FCFE
:103B8800B1E414F0B3FC2AE414F0B0FC03E614F03A
:103B9800ADFCE4E514F0AAFCA9E514F0A7FCDAE40E
:103BA80014F0A4FCFFF73DBB14F0A0FCFFF703BB27
:103BB80014F09CFC35E514F099FCFFF79BBB14F05E
:103BC80095FCFFF761BA14F091FCFFF727BA00BF24
:103BD800CC040024700000240AD7A33B0000000096
:103BE80098000024EC040024B49F07240C0500244A
:103BF800B89F072400106A469C0000242C05002466
:103C0800BC9F07244C050024C09F0724A40000245F
:103C1800AC050024D88B01080000A0C22C000024A9
:103C28000000A04220000024E7FB1F416F12833AE6
:103C38001C000024B00000240AD76F410AD7233C97
:103C480050000024540000246800002400803B47F2
:103C580034000024080000240C0000248000002404
:103C6800880000247C0000243C000024C0000024BC
:103C7800A00000249400002414F038FCFFF769B970
:103C880014F034FCFFF749B914F030FCFFF70DB914
:103C980014F02CFCFFF77AB814F028FCFEF7C4BF28
:103CA80014F024FC53E600BF2DE9F04FBA4E054648
:103CB800D6E900172DED028BB94285B08DED030AC8
:103CC80000F0BA810C463B4654F8042B013A0B2A03
:103CD8001CD8DFE812F00F01EC00D600C000AA00E3
:103CE80094007E006800520040002A000C009942AF
:103CF80003D00B680C2B00F0CE8195ED000AA74885
:103D080011F04EFA85ED000AD6E90013A742DBD17F
:103D1800994200F09181A24B1B78002B00F074812E
:103D280005B0BDEC028BBDE8F08F9942DFF8A882A0
:103D380003D00B680B2B00F0B181D5ED008AB7EEEC
:103D4800008AD8ED007AB0EE680A964838EE678A9D
:103D580012F0DCFEC0E0994203D00B680A2B00F099
:103D6800B8812B4629462A468F48009512F014FC44
:103D7800A742D6E90013A7D1CAE79942DFF85C82C7
:103D880003D00B68092B00F0B181D5ED008AB7EE9E
:103D9800008AD8ED007AB0EE680A844838EE678A5F
:103DA80012F0EEFD98E09942DFF8348203D00B68F8
:103DB800082B00F0A981D5ED008AB7EE008AD8ED6E
:103DC800007AB0EE680A7A4838EE678A11F0C0FACD
:103DD80082E09942DFF80C8203D00B68072B00F0D1
:103DE800A181D5ED008AB7EE008AD8ED007AB0EE51
:103DF800680A704838EE678A11F006F96CE0994253
:103E0800DFF8E48103D00B68062B00F09981D5ED2B
:103E1800008AB7EE008AD8ED007AB0EE680A6648E4
:103E280038EE678A11F040FF56E09942DFF8BC810E
:103E380003D00B68052B00F09181D5ED008AB7EE11
:103E4800008AD8ED007AB0EE680A5C4838EE678AD6
:103E580012F05EFD40E09942DFF8948103D00B68D0
:103E6800042B00F08981D5ED008AB7EE008AD8EDE1
:103E7800007AB0EE680A524838EE678A11F0B0FD51
:103E88002AE09942DFF86C8103D00B68032B00F01D
:103E98008181D5ED008AB7EE008AD8ED007AB0EEC0
:103EA800680A484838EE678A11F066FB14E09942C0
:103EB800DFF8448103D00B68022B00F07981B7EE5C
:103EC800008AD5ED008AD8ED007AB0EE680A3E483F
:103ED80038EE678A11F0F4FFD8ED007AA74231680E
:103EE80020EE270A7368A8EE880A85ED000A7FF499
:103EF800EBAE0DE735489942DFF800C1DFF80081E5
:103F0800D0ED006AD0E901E27244ACFB02BA02F1DA
:103F180001094FEADA2A08FB1A2200EB8202D2EDE5
:103F2800037AACFB09A24FEAD22208FB129900EBF4
:103F3800890999ED037A37EE677AE7EE267A03D096
:103F48000A68012A00F08480214AA74295ED007A88
:103F580092ED006A00EB8E0277EE276ADFF8A4C0C4
:103F6800A6EE277A82ED037A1A4AD5ED007A7244D2
:103F78009CED007ADFF884C0E7EE267AACFB02EC11
:103F8800DFF87CE04FEADC2C0EFB1C224260C5ED1A
:103F9800007A7FF499AEBBE600A007244C110624F2
:103FA8000CA00724649A072408060024DC110624C0
:103FB8001C1206249C11062428120624E411062447
:103FC800408B072434120624905D062400E86EC353
:103FD8003C000024FF760100A40000246C000024AB
:103FE80038000024300000244C000024B8000024CD
:103FF800600000241800002490000024F1197605C0
:104008000077010044000024724B95ED008AD3ED3F
:10401800007A714828EE278AB0EE480AFDF752FE6A
:104028006E4BD3ED007AA0EE278A85ED008A05B0A5
:10403800BDEC028BBDE8F08F694B1B78002B00F0BC
:10404800C580039B2B6005B0BDEC028BBDE8F08FEB
:10405800644AA7429DED037A92ED006A00EB8E0256
:1040680077EE276AA6EE277A82ED037A5E4AD5EDC7
:10407800007A7244ACFB02EC4FEADC2C08FB1C22F1
:1040880042605A4A92ED007AE7EE267AC5ED007A48
:104098007FF41AAE3CE69DED030A30E6B7EE008ADF
:1040A800DDED038AD8ED007AB0EE680A504838EEA4
:1040B800678A12F02BFDD8ED007AA742316820EE0E
:1040C800270A7368A8EE280A85ED000A7FF4FCAD7C
:1040D8001EE603AA2B4647481146009512F05CFAE3
:1040E800A742D6E900137FF4EFAD11E6DDED038AB0
:1040F800B7EE008AD8ED007AB0EE680A3E4838EE8E
:10410800678A12F03DFCD6E7DDED038AB7EE008A38
:10411800D8ED007AB0EE680A384838EE678A11F0B0
:1041280017F9C8E7DDED038AB7EE008AD8ED007A03
:10413800B0EE680A324838EE678A10F065FFBAE7D1
:10414800DDED038AB7EE008AD8ED007AB0EE680A92
:104158002C4838EE678A11F0A7FDACE7DDED038A3D
:10416800B7EE008AD8ED007AB0EE680A264838EE35
:10417800678A12F0CDFB9EE7DDED038AB7EE008A71
:10418800D8ED007AB0EE680A204838EE678A11F058
:1041980027FC90E7DDED038AB7EE008AD8ED007AB8
:1041A800B0EE680A1A4838EE678A11F0E5F982E736
:1041B800DDED038AB7EE008AD8ED007AB0EE680A22
:1041C800144838EE678A11F07BFE74E7014B9DEDC9
:1041D800038A1CE774000024C89F07247800002481
:1041E8000CA007243C000024FF76010044000024B2
:1041F800649A072408060024DC1106241C120624ED
:104208009C11062428120624E4110624408B072456
:1042180034120624905D062410B5354C204602F071
:10422800A7F904F1100002F0A3F923792BB9237D33
:10423800BBB9A37EFF2B1ED010BD217DA27A79B316
:10424800A37E7F2AA3F17F01B1FA81F14FEA5111D0
:1042580030D1284A5068032847D8DFE800F03925CC
:104268003325A37E7F2BE5D123490A7882F001020A
:104278000A70FF2BE0D103F005FF07EE900AD4ED9A
:10428800076AF8EE677A9FED1D7A77EEE67AF4EE24
:10429800C77AF1EE10FACFDD164B00225A6010BD36
:1042A8007F2AC6D1A37ED4E70220506092F824006A
:1042B80000B990610029BDD00F490A7882F0010247
:1042C8000A70D6E7106801280AD003205060EDE78D
:1042D8000020106100201062908301205060E5E703
:1042E80082F824000029E7D1A4E700205060DDE728
:1042F8008C050024C89F07240CA007240000FA445A
:104308002DE9F041104C06460F46154604F1C00849
:104318002046203402F092F8A045F9D1FEF720FC9F
:10432800FFF77AFF6DB100243368386803EB840324
:1043380000EB8400013493ED000AFFF7B5FCA542B9
:10434800F2D1BDE8F08100BFCC04002470B52F4C39
:1043580000262F4D204600F017FE2E4811F0D4FA03
:10436800204600F011FE2C4811F03CF8204600F0E1
:104378000BFE2A4811F02EFD204600F005FE2848C5
:1043880012F07AFA274811F02FFC274812F0F2FAB7
:10439800264A0021284614F04FFA0123204645E911
:1043A800026300F0F1FD224812F036F8204600F0D2
:1043B800EBFD204810F0BEFF204600F0E5FD1E484A
:1043C80010F086FD204600F0DFFD1821F0EE400ACF
:1043D8001A489FED1B0A12F0F7FA204600F0D4FDA8
:1043E800184810F08DFE184D18483146184B194AD8
:1043F800C5E9020314F020FA85F82460AE61AE83A3
:10440800C5E90066BDE87040FEF732BAC40500246D
:104418000CE86EC3408B072434120624905D0624F2
:10442800E411062428120624DC11062400DC050009
:10443800080600241C1206249C110624649A0724EA
:104448008FC2753C4C110624C89F0724000000C089
:1044580000BADB00FCE76E0338B542680D4604314C
:1044680004468A4204D0521A284614F0CBF96168EF
:104478000B1F2846636038BD10B5084C82B0019008
:1044880001AAD4E90001FCF7D1FA6368834203D09A
:1044980001462046FFF7E0FF02B010BD00A0072448
:1044A8002DE9F84FD0E900890F4692466FF0604138
:1044B800A9EB0802B1EBA20F54D093100646A7EB64
:1044C8000805012B1C4638BF01241C1948D2002CB2
:1044D8003CD1A346DAF80030002D4BF8053024DC37
:1044E800A9EB07090435B9F1000F5D4413DC4D440D
:1044F800B8F1000F04D1B460C6E900B5BDE8F88F83
:10450800B168A1EB0801404612F027FFB460C6E984
:1045180000B5BDE8F88F284639464A464D4414F0A0
:1045280063F9B8F1000FE6D0EAE7A9EB07092A46D4
:1045380041465846043514F065F9B9F1000F5D4459
:10454800E9DCB1684D44A1EB0801DCE78C4228BFE7
:104558000C46A400204612F002FF83460444B9E743
:10456800024CF7E7024812F00EFF00BFFCFFFF7F86
:10457800F08B0108F8B5D0E9013706680446BB425C
:10458800A1EB06061AD08B420D4611D017681A46C1
:1045980053F8040C42F8040B181F6260814205D0DE
:1045A800421A981A14F02EF9206830442F60F8BD8A
:1045B8001268184643F8042B6360F8BDFFF770FFD4
:1045C80020683044F8BD00BF30B50D4683B00131D6
:1045D800019020D0114C01AA61682068FCF726FAE6
:1045E80063680146834202D02046FFF735FF216801
:1045F80001AA204601EB8501FFF7BCFFD4E9003290
:10460800D31A202B01D803B030BD52F8040CFFF7A1
:1046180033FF03B030BDFFF72FFFDBE700A007240F
:10462800F8B5194F06460D46BB7CFF2B0AD0284625
:10463800FDF72CFD04460EB33B790BB17B6A1C4495
:104648002046F8BD03F01EFD07EE900AD7ED056A77
:10465800F8EE677A9FED0D7A77EEE67AF4EEC77A90
:10466800F1EE10FAE3DD0023094A28461370094ADF
:104678001360FDF70BFD0446002EDDD101462846E8
:10468800FFF7A2FF2046F8BD188B07240000FA4464
:10469800B19F07249C9B07242DE9F047714C90B0EB
:1046A800714E022003F0F0FC2568FDF775FF3378A2
:1046B800F3B16E4B1A7B3AB19B7C7F2B04D16C4AC9
:1046C800137883F0010313706A4B1B780D2B15D8F0
:1046D800DFE813F06700FA01A300A0009D009A002C
:1046E8009700940091008E008B008800850076006A
:1046F8002846FDF77FFD3378002BDAD10AAE5E4FEE
:104708004FF0B009A7F18F084FF47A7A002598F88E
:104718000C10022332465948CDF800A0A7F18004B6
:104728008DF828508DF8299002F05AFD98F80C1051
:10473800022332465148CDF800A08DF828508DF854
:10474800295002F04DFD4FF0100C98F80C10022380
:1047580032464A48CDF800A08DF828508DF829C077
:1047680002F03EFD4FF47A7514F801CF4FF0400E79
:1047780098F80C1002233246404800958DF828E03E
:104788008DF829C002F02CFDA742EBD109F10109EF
:1047980080375FFA89F9B9F1B80FB5D110B0BDE823
:1047A800F0870B206268364B002100900AAE2D4836
:1047B80012F0BCFE002228461146FDF77DFC9EE75C
:1047C8000320304B6268002100900AAE254812F0A1
:1047D800ADFE002228461146FDF76EFC8FE7092042
:1047E800294BEFE70620294BECE70A20284BE9E79D
:1047F8000A20284BE6E70A20274BE3E70920274B46
:10480800E0E70720264BDDE70720264BDAE70620FE
:10481800254BD7E70620254BD4E7154B01211878FF
:10482800FFF7FEFE224B8146D3ED007AFDEEE77AD4
:1048380017EE907A002F4FEAD778B8BF7F42092F3A
:1048480040F2F681632F40F25881B7F57A7FC0F0C5
:104858008E8142F20F739F4240F2868139460126CB
:1048680031E000BFAC050024B19F0724188B072452
:10487800B09F0724FC9F07242F9C0724A89B07248C
:10488800188C0108E48B0108D88B0108D08B01082B
:10489800C48B0108B88B0108AC8B0108A08B0108F8
:1048A800988B0108908B0108E88B0108888B010818
:1048B80040000024534540F238817345C0F05881C8
:1048C800634540F252810B46B74AB8480436A2FB0A
:1048D8000312DFF8F4A28342DFF8F0E2DFF8DCC26B
:1048E8004FEA5231E6D80DF1180A06EB080104A880
:1048F800013ECDF810A02D22039012F0B6FD049AC7
:1049080003984244DFF8C8C21644A94BBE46023E8B
:10491800A3FB071364215B0901FB13711F4642F2D5
:104928000F730CEB41081CF811109E45717098F834
:104938000110B170E9D8BEF57A7F80F0EE8030378B
:104948001770002209230DF1300800931146994B86
:1049580012F0ECFD0746CDF82880064657F8083BCC
:10496800BB4200F045810A9383680C9373680B93EC
:1049780000233760337273600A9B2068434500F058
:1049880029818D4A236090420B9B636000F003816C
:104998000C9AA368A260002800F0FF800C930A908C
:1049A80000230B9303700A98404503D00C990131FA
:1049B80012F0D3FC0498504503D00699013112F047
:1049C800CCFC89EAE97700222846A7EBE97711466B
:1049D800FDF772FB092F4FEAD97940F21781632F4F
:1049E80075D9B7F57A7FC0F0CA8042F20F739F423B
:1049F80040F2C08039464FF0010A08E0734540F2A2
:104A0800C3806345C0F0BD80B34240F2B5800B4619
:104A1800654A66480AF1040AA2FB0312DFF8A8E116
:104A28008342DFF8A8C1654E4FEA5231E6D809EB58
:104A38000A010AAE0AF1FF3ACDF8288030462D2245
:104A480012F013FD0A9B5E48994409EB0A01584B82
:104A5800BC460239A3FB072364225B0902FB1372DD
:104A68001F4642F20F7300EB420E10F812209C45CD
:104A78004A709EF801208A70E9D8BCF57A7F32D254
:104A8800303789F800700A9B206843455ED04A4A4F
:104A9800236090420B9B636050D00C9AA368A2607D
:104AA80000284DD00A900C9300230B9303700A98AA
:104AB800404503D00C99013112F04FFC00226421CB
:104AC8002846FDF7F9FA1AE606203E4B7AE60AAEC2
:104AD80009F102012D22CDF82880304612F0C5FCDC
:104AE8000A9B3748994400EB470310F817205B7876
:104AF80089F8002089F80130C5E704A80DF1180AE3
:104B08002D2208F102010390CDF810A012F0ADFC9F
:104B1800049ADFF8BCC0424403980CEB47031CF826
:104B280017105B78117053700BE708F101010DF154
:104B3800180A04A83144CDF810A0DCE60C9BA36049
:104B4800CDF828800DF130084046ADE70B9A32B118
:104B5800012A67D0414613F047FE0B9A20680023CC
:104B6800626083540A989FE701260336BBE6012654
:104B78000236B8E64FF0010A0AF1030A57E74FF088
:104B8800010A0AF1020A52E709F101010AAECDF859
:104B98002880514452E70C9BA360CDF828800DF182
:104BA80030084046FCE600BF5917B7D19F86010080
:104BB8001F85EB510C8C0108B4050024FFE0F505B6
:104BC800608C0108788B01083F420F00809698009E
:104BD8002C8D01080B9A32B1012A11D0414613F0ED
:104BE80003FE0B9A20680023626083540A98D7E674
:104BF800C44680687968BA68FB68ACE80F00B5E617
:104C08009DF8303003700B9A2068ECE70AAE09F182
:104C180001012D22CDF82880304612F026FC0A9B8F
:104C280099442DE79DF8303003700B9A206896E779
:104C380004A80DF1180A2D2208F101010390CDF8FE
:104C480010A012F012FC049A0398424477E600BFC1
:104C580080B5002184B03648364D00F025FA03218E
:104C6800334800F075F96C46FFF770FBFDF7CEFC92
:104C7800AA682E68304BA2EB060C0FCBBCF10F0FC5
:104C880084E80F0015D8102012F069FB2F6806463B
:104C98000FCC30607160B260F36027B1A968384604
:104CA800C91B12F05AFB06F11003C5E90063AB609B
:104CB8000EE06B689A1B0F2A20D906F110070FCC5B
:104CC80030607160B2606A68F360974200D06F60CC
:104CD8001A4B0222012116481A7000F079F9FDF7E3
:104CE80029F9FDF765F93021114800F051F9144907
:104CF8000F4800F029F9FFF7CFFCFCE7A718A742F7
:104D080009D1102418462246394613F06DFD034692
:104D180023446B60DCE72146304613F065FD04AAA6
:104D280004AB9742A3EB07046B68F1D0EAE700BF36
:104D3800C405002400A00724148B0108FC9F072445
:104D480009430008F0B5524C85B052490025224667
:104D5800514812F0FDFA514BEC46514E514FB56097
:104D68000FCBACE807000E20ACF80030C6E90055C0
:104D780012F0F5FAEC4600F10E0203463060C6E97F
:104D88000122BCE807009A60BCF800201860304691
:104D980059609A812246444912F0DAFA2246434978
:104DA800434812F0D5FA22464249434812F0D0FA55
:104DB80022464249424812F0CBFA2246414942482B
:104DC80012F0C6FA22464149414812F0C1FA224679
:104DD8004049414812F0BCFA22464049404812F086
:104DE800B7FA22463F49404812F0B2FA22463F49F4
:104DF8003F4812F0ADFA22463E493F4812F0A8FA61
:104E080022463E493E4812F0A3FA3E4822463E4911
:104E18008560C0E9005512F09BFA22463B492846B6
:104E280012F096FA22463A49284612F091FA394B7E
:104E38003948224639490360856012F089FA384AB0
:104E480007F108001146386012F029FB3B6822463A
:104E58007D6038461D70334912F07AFA224632498D
:104E6800324812F075FA22463149324812F070FA87
:104E780031482246314905604561056212F068FAF9
:104E880022462F492F4805B0BDE8F04012F060BA1D
:104E980000000024A1090008188B0724248B0108AE
:104EA800F09F0724AC050024210A0008C109000866
:104EB800905D0624B509000834120624D5090008B7
:104EC800408B0724C5090008E4110624B909000825
:104ED80028120624B10900081C120624C909000872
:104EE800DC110624BD09000808060024A9090008E9
:104EF8009C110624CD090008649A0724AD0900080E
:104F08004C11062400A007240D0A0008D90900083E
:104F1800FD0A00082C8C0108A09B0724DD09000865
:104F2800748B010829750108F909000800E86EC3A7
:104F3800D1090008C89F0724C4050024A509000852
:104F48009D09000800060024143001F011BA00BFC2
:104F580038B500F1140504462DED028B284601F002
:104F6800C3F9284601F0BCF92846B0EE408A01F0A2
:104F7800A5F9D0ED007AF8EE677A88EE277ABDECCD
:104F8800028B84ED0E7A38BD143001F0A9B900BF48
:104F980038B500F1140504462DED028B284601F0C2
:104FA80091F9284601F09CF92846B0EE408A01F0B4
:104FB80085F9D0ED007AF8EE677A88EE277ABDECAD
:104FC800028B84ED0E7A38BD90ED0E0A704700BF53
:104FD800253001F0EFBE00BFF0B5032399B00027DC
:104FE8000125129306462C4B09A81595CDE90E7399
:104FF80040F20453ADF84030284BCDE913570993DC
:1050080001F0EEFD09A801F0C7FE002836D1244BB7
:1050180004AF04460090CDF8423010233946049579
:105028008DF820301F4BCDE91650CDE90650684663
:10503800059302F03FF80823009A01A909A8ADF8E2
:1050480004508DF8064009940295039300F0E4F8A3
:1050580000230EA938463024049302F0F5FD0322FC
:105068004FF07E5309A906F114000B930C93CDE978
:105078000942049A01F0EAF819B0F0BD40F601328D
:10508800074B169704AFADF824200998CDF84230A5
:10509800179500F081F8DBE704020404030300011C
:1050A800040604030704010B2DE9F04304462DED23
:1050B800028B83B0002948D0012140F2011200235D
:1050C8000091ADF804208DF80630304A0126304BA7
:1050D800271D304904F12908626040F20272A3607A
:1050E80040F60663E16004F125092682A4F825202C
:1050F80084F82760A4F8293084F82B6003F032F98B
:105108006946054648B304F130008DF8066003F09F
:1051180087F8072D34D104F114052046FFF75CFF0A
:10512800284601F0DDF82846B0EE408A01F0C6F8BE
:10513800D0ED007AF8EE677A88EE277A84ED0E7A59
:1051480003B0BDEC028BBDE8F08340F2011300917F
:105158008DF80610ADF80430B7E704F1300003F01D
:105168005FF83946204602F0EFF9484601F038FD6D
:10517800404601F035FD04F1120000F077F9CAE766
:105188003946204602F0E0F9C5E700BF05080509E1
:1051980005070506050A060610B584B0034601246E
:1051A800ADF8040003A8ADF80C30ADF80E4001F0DE
:1051B80017FD214603A801F0FDFD204602F064FF1B
:1051C800002103A801F0F6FD204602F05DFF21460C
:1051D80003A801F0EFFD04B010BD00BF10B5C2F385
:1051E800002384B00C46017C8DF80D2043EA44026C
:1051F800FA2402238DF80C2003AA009401F0F0FF92
:1052080018B10124204604B010BD04460A2002F05B
:105218003BFF204604B010BD034670B543F8042B8D
:10522800044684B007C983E80700A37983B91A2123
:105238000B461E22FA2523742046ADF80C200223C3
:1052480003AA009501F0CCFF28B1012004B070BD7D
:105258001B210B46EDE70A2002F016FF4FF4B85267
:1052680000950223ADF80C20204603AA217C01F00A
:10527800B7FF0028E9D10A2002F006FF41F20272C6
:1052880000950223ADF80C20204603AA217C01F0EA
:10529800A7FF0028D9D10A2002F0F6FE04220095C3
:1052A8000223ADF80C20204603AA217C01F098FFC8
:1052B8000028CAD10A2002F0E7FE06220095022340
:1052C800ADF80C20204603AA217C01F089FF0028B4
:1052D800BBD10A2002F0D8FE41F208220095022331
:1052E800ADF80C20204603AA217C01F079FF0028A4
:1052F800ABD10A20064602F0C7FE0095022303AA96
:10530800217C2046ADF80C6001F06AFF00289CD192
:10531800304602F0B9FE009522790C232046002A77
:105328008DF80C3003AA4FF0020314BF622142210A
:105338008DF80D10217C01F053FF002885D13046EF
:1053480002F0A2FE2279D4E902310B43DBB20AB99A
:1053580043F0400362790AB143F020030E22FA2594
:105368008DF80D302046009502238DF80C2003AAF5
:10537800217C01F035FF00287FF467AF0A2002F096
:1053880083FE102200950223ADF80C20204603AAC4
:10539800217C01F025FF00287FF457AF0A2002F096
:1053A80073FE122100950223ADF80C1003AA217C8C
:1053B800204601F015FF00287FF447AF0A2002F0CD
:1053C80063FE012209212046FFF708FF003818BFB5
:1053D80001203BE7F0B5102387B0234C01220025BC
:1053E8000126002702A920460195CDE902234FF4A2
:1053F8008052CDE9046709F06DFD642003F058FA86
:1054080002A94FF480522046CDE9046702261027EE
:10541800CDE9026709F05EFD0322102302A92046A8
:10542800CDE9022300230422CDE904234FF480525E
:1054380009F050FD40F23223042202A901931023FF
:105448002046CDE90223019A012305924FF48052A8
:10545800049309F03FFD40F60601204609F05AFD85
:10546800284607B0F0BD00BF18A007241C4B002237
:105478001C494FF0400C30B5054689B002205960F0
:1054880007219A601A620124DA620A224FF4006E38
:10549800DC6006922022CDE9000104200821CDE934
:1054A800020103201021CDE9040108206946C3E95F
:1054B80004024FF4C072181DC3E906C24FF48052AB
:1054C800C3E909E209F0DCFC38B92846FFF782FF96
:1054D800003818BF012009B030BD204609B030BDE2
:1054E80014A0072440410052614A0021D0B5136836
:1054F8008EB00A91002B40F0B9805E4B01214FF627
:1055080083700C2411600221D3F8D42000260327CD
:1055180042F48052C3F8D420D3F8D42002F4805245
:105528000092009AD3F8E02042F01002C3F8E0207D
:10553800D3F8E02002F010020192019AD3F8E0209B
:1055480042F04002C3F8E020D3F8E02002F0400225
:105558000292029AD3F8E02042F00802C3F8E02051
:10556800D3F8E02002F008020392039AD3F8E0206F
:1055780042F48072C3F8E020D3F8E02002F480728D
:105588000492049AD3F8E02042F08002C3F8E020A5
:10559800D3F8E02002F080020592059AD3F8E020C3
:1055A80042F02002C3F8E020D3F8E02002F0200205
:1055B8000692069AD3F8E02042F00402C3F8E020ED
:1055C800D3F8E0300C9403F0040307930323079AFD
:1055D8000B93CDE9080108A9274804F0EFFF48F22A
:1055E8003712022308A925480C94CDE90823CDE9F0
:1055F8000A6704F0E3FF4CF20372022308A920486B
:105608000C94CDE90823CDE90A6704F0D7FF40F2EE
:10561800FF62022308A91B480C94CDE90823CDE9B1
:105628000A6704F0CBFF4FF60C72022308A916484C
:105638000C94CDE90823CDE90A6704F0BFFF4FF6C3
:105648003F02022308A911480C94CDE90823CDE9AB
:105658000A6704F0B3FF2022022308A90A480C9421
:10566800CDE90A67CDE9082304F0A8FF0EB0D0BD44
:1056780010A00724004402580010025800180258CD
:10568800000C025800200258001C0258001402584E
:105698002DE9F04FDFF8108406460D46144608F150
:1056A80018002DED028B89B000AF02F0C5FBD8F8C9
:1056B800183073B3D8F81C30D8F80490002B43691D
:1056C8000BBF4FF0080A4FF0100A4FF0020B4FF0D3
:1056D800040BB9F1000F2AD0A200EA46012B02F10F
:1056E800070222F00702ADEB020D6846ADEB020D92
:1056F800694600F03F81022B00F0D680002B6FD066
:105708002246C847D5462437BD46BDEC028BBDE8C6
:10571800F08FD8F81C30002BF5D0D8F804904FF053
:10572800080A4FF0020B4369B9F1000FD4D1FB61AD
:10573800D8F80030BB61002BE5D0D54802F0EEFB6D
:105748006B46BBF1020F786108EE103AFB6900F076
:1057580083816A465146A2EBC40295466200EA4636
:10576800B2FBFBF2AAEBC40085460AEB8200EE46C8
:10577800F861ADEB010DF8690EEB820CC7F810C0AB
:10578800EC46ADEB010D00EB8201CCF80400CCF83F
:10579800081001EB82013869E946CCF80C1000EBDF
:1057A8008201CCF800A001EB8202C9E900E0C9E956
:1057B8000212012B00F06483022B00F06C82002B94
:1057C80000F08081620849466046BB69984718EE38
:1057D800103A24379D46BD46BDEC028BBDE8F08FDC
:1057E800002C8DD01A46D8ED0C6A9FEDB27A84460B
:1057F800331D36F922E00CF1080C07EE90EA33F974
:1058080022E00232F8EEE77A944267EE877A67EE92
:10581800A67A4CED027A07EE90EAF8EEE77A67EEA0
:10582800877A67EEA67A4CED017AE2D8F9612246CA
:10583800C847984ED8ED0D6A0020F9692B1D9FEDD9
:105848009E7A9FED9E6ADFED9E5A22E0F4EEC67ABC
:10585800F1EE10FAC0F2C88447F6FE72D1ED017A73
:1058680045F8202066EEA77AF4EEC77AF1EE10FA32
:1058780040F2F080F4EEC67AF1EE10FAC0F2D58468
:1058880047F6FE7243F820200230083184427FF642
:1058980039AFD1ED007A66EEA77AF4EEC77AF1EE69
:1058A80010FAD3D83246D9E7002C3FF429AFD8ED07
:1058B8000C6A84469FED787A0022331D8E4656F88E
:1058C80022100CF1080C07EE901A53F8221002323D
:1058D800F8EEE77A944267EE877A67EEA67A4CED9F
:1058E800027A07EE901AF8EEE77A67EE877A67EEA3
:1058F800A67A4CED017AE2D871462246C7F81CE038
:10590800C847664ED8ED0D6A0020F9692B1D9FED3A
:105918006A7A9FED6A6ADFF894C120E0F4EEC67AED
:10592800F1EE10FAC0F279843246D1ED017A45F8E9
:10593800202066EEA77AF4EEC77AF1EE10FA40F26C
:105948008780F4EEC67AF1EE10FAC0F25E84324631
:1059580043F820200230083184427FF6D3AED1EDDF
:10596800007A66EEA77AF4EEC77AF1EE10FAD5D887
:105978006246DAE7002C3FF4C3AED8ED0C6A8646DF
:105988009FED477A4FF0000C331D56F82C200EF18E
:10599800080E82F40002A2F5000207EE902A53F8DE
:1059A8002C200CF1020CF8EEE77A82F40002644530
:1059B800A2F5000267EE877A67EEA67A4EED027AC4
:1059C80007EE902AF8EEE77A67EE877A67EEA67A0E
:1059D8004EED017AD9D8F9612246C847314ED8ED43
:1059E8000D6A0020F9692B1D9FED337A9FED336A0C
:1059F800DFF8BCC01FE0F4EEC67AF1EE10FAC0F290
:105A0800FC833246D1ED017A45F8202066EEA77A6C
:105A1800F4EEC77AF1EE10FA18D9F4EEC67AF1EE80
:105A280010FAC0F2DA83324643F8202002300831F7
:105A380084427FF667AED1ED007A66EEA77AF4EE7F
:105A4800C77AF1EE10FAD6D86246DBE76246EBE792
:105A580062467DE7324615E7A100D646620807315F
:105A680021F00701ADEB010DEA46ADEB010D6946EA
:105A7800ADEB0E0D0AEB8200EC46ADEB0E0D01EB23
:105A88008202F861E946CCE900A0C9E9001290E673
:105A980068A007240280FFFF000000300082FF7F1B
:105AA8000000003482FF7F004CA00724007E0080A5
:105AB8007E0080FF0000003804FF7FBF04FF7F3FA7
:105AC80000FEFF46002C00F0C982BBF1020FD8F897
