:020000040800F2
:10000000000002205909000855090008557400082D
:1000100055090008550900085509000800000000AE
:10002000000000000000000000000000550900086A
:10003000550900080000000055090008D9730008A0
:100040005509000855090008550900085509000818
:100050005509000855090008550900085509000808
:10006000550900085509000855090008E16F000806
:10007000ED6F00083D5F0008F96F0008057000088B
:100080006D1501081165000855090008550900089B
:1000900055090008550900085509000855090008C8
:1000A00055090008550900085509000855090008B8
:1000B000410901084D090108590901084565000871
:1000C000550900085165000855090008B1010108EB
:1000D000BD010108A1130108D1130108051401088D
:1000E00055090008550900080000000055090008DE
:1000F0005509000855090008550900085509000868
:10010000550900085509000865090108C9010108D9
:10011000391401086D140108550900085509000833
:100120005509000855090008ED01010821020108E0
:10013000A1150108550900085509000855090008CE
:1001400000000000000000000000000000000000AF
:10015000550900085509000855090008A1140108AF
:100160005D65000855090008E97300080D74000872
:1001700055090008317400085509000855090008A0
:100180005509000855090008D5140108051501088E
:10019000D5010108E10101085509000855090008C9
:1001A00055090008550900085509000855090008B7
:1001B000016D000855090008550900085509000897
:1001C0005509000855090008550900085509000897
:1001D0005509000855090008550900085509000887
:1001E0005509000855090008550900085509000877
:1001F0005509000855090008550900085509000867
:100200005509000855090008550900085509000856
:100210005509000855090008550900085509000846
:10022000550900085509000855090008000000009C
:10023000550900085509000800000000550900088C
:100240005509000855090008550900085509000816
:100250005509000855090008550900085509000806
:1002600055090008550900085509000855090008F6
:10027000550900085509000839150108000000005B
:10028000550900085509000855090008000000003C
:08029000000000005509000800
:1002980010B5054C237833B9044B13B10448AFF3B8
:1002A80000800123237010BDB0040024000000006A
:1002B800F0A6010808B5034B1BB103490348AFF387
:1002C800008008BD00000000B4040024F0A6010866
:1002D80081F0004102E000BF83F0004330B54FEAEF
:1002E80041044FEA430594EA050F08BF90EA020F5C
:1002F8001FBF54EA000C55EA020C7FEA645C7FEAEF
:10030800655C00F0E2804FEA5454D4EB5555B8BF11
:100318006D420CDD2C4480EA020281EA030382EA82
:10032800000083EA010180EA020281EA0303362D14
:1003380088BF30BD11F0004F4FEA01314FF4801CE7
:100348004CEA113102D0404261EB410113F0004FF9
:100358004FEA03334CEA133302D0524263EB4303B0
:1003680094EA050F00F0A780A4F10104D5F1200E4E
:100378000DDB02FA0EFC22FA05F2801841F10001A9
:1003880003FA0EF2801843FA05F359410EE0A5F17D
:1003980020050EF1200E012A03FA0EFC28BF4CF0AE
:1003A800020C43FA05F3C01851EBE37101F0004564
:1003B80007D54FF0000EDCF1000C7EEB00006EEB71
:1003C8000101B1F5801F1BD3B1F5001F0CD34908FB
:1003D8005FEA30004FEA3C0C04F101044FEA445252
:1003E80012F5800F80F09A80BCF1004F08BF5FEAD9
:1003F800500C50F1000041EB045141EA050130BDB9
:100408005FEA4C0C404141EB0101013C28BFB1F5CA
:10041800801FE9D291F0000F04BF01460020B1FA15
:1004280081F308BF2033A3F10B03B3F120020CDAE8
:100438000C3208DD02F1140CC2F10C0201FA0CF0C6
:1004480021FA02F10CE002F11402D8BFC2F1200C2B
:1004580001FA02F120FA0CFCDCBF41EA0C019040E1
:10046800E41AA2BF01EB0451294330BD6FEA04042A
:100478001F3C1CDA0C340EDC04F11404C4F1200215
:1004880020FA04F001FA02F340EA030021FA04F327
:1004980045EA030130BDC4F10C04C4F1200220FA7E
:1004A80002F001FA04F340EA0300294630BD21FABC
:1004B80004F0294630BD94F0000F83F4801306BF82
:1004C80081F480110134013D4EE77FEA645C18BF76
:1004D8007FEA655C29D094EA050F08BF90EA020F0D
:1004E80005D054EA000C04BF1946104630BD91EA05
:1004F800030F1EBF0021002030BD5FEA545C05D108
:100508004000494128BF41F0004130BD14F5800446
:100518003CBF01F5801130BD01F0004545F0FE41BA
:1005280041F470014FF0000030BD7FEA645C1ABFEF
:10053800194610467FEA655C1CBF0B46024650EA26
:10054800013406BF52EA033591EA030F41F4002152
:1005580030BD00BF90F0000F04BF0021704730B5D8
:100568004FF4806404F132044FF000054FF00001AD
:1005780050E700BF90F0000F04BF0021704730B56E
:100588004FF4806404F1320410F0004548BF404243
:100598004FF000013EE700BF42004FEAE2014FEA98
:1005A80031014FEA02701FBF12F07F4393F07F4F73
:1005B80081F06051704732F07F4208BF704793F076
:1005C8007F4F04BF41F40021704730B54FF4607489
:1005D80001F0004521F000411CE700BF50EA01028C
:1005E80008BF704730B54FF000050AE050EA010235
:1005F80008BF704730B511F0004502D5404261EBA5
:1006080041014FF4806404F132045FEA915C3FF4E5
:10061800D8AE4FF003025FEADC0C18BF03325FEA82
:10062800DC0C18BF033202EBDC02C2F1200300FA33
:1006380003FC20FA02F001FA03FE40EA0E0021FA58
:1006480002F11444BDE600BF53B94AB9002908BFF6
:1006580000281CBF4FF0FF314FF0FF3000F074B995
:10066800ADF1080C6DE904CE00F006F8DDF804E001
:10067800DDE9022304B070472DE9F047089D0446E0
:100688008E46002B4DD18A42944669D9B2FA82F23D
:1006980052B101FA02F3C2F1200120FA01F10CFA79
:1006A80002FC41EA030E94404FEA1C48210CBEFBB1
:1006B800F8F61FFA8CF708FB16E341EA034306FB3A
:1006C80007F199420AD91CEB030306F1FF3080F0C9
:1006D8001F81994240F21C81023E63445B1AA4B216
:1006E800B3FBF8F008FB103344EA034400FB07F7B8
:1006F800A7420AD91CEB040400F1FF3380F00A81F9
:10070800A74240F207816444023840EA0640E41BED
:1007180000261DB1D4400023C5E900433146BDE899
:10072800F0878B4209D9002D00F0EF800026C5E93B
:10073800000130463146BDE8F087B3FA83F6002E53
:100748004AD18B4202D3824200F2F980841A61EBCB
:10075800030301209E46002DE0D0C5E9004EDDE7E9
:1007680002B9FFDEB2FA82F2002A40F09280A1EBD1
:100778000C014FEA1C471FFA8CFE0126200CB1FB26
:10078800F7F307FB131140EA01410EFB03F088421F
:1007980008D91CEB010103F1FF3802D2884200F2AC
:1007A800CB804346091AA4B2B1FBF7F007FB10113E
:1007B80044EA01440EFB00FEA64508D91CEB0404DC
:1007C80000F1FF3102D2A64500F2BB800846A4EB37
:1007D8000E0440EA03409CE7C6F12007B34022FA22
:1007E80007FC4CEA030C20FA07F401FA06F31C4351
:1007F800F9404FEA1C4900FA06F3B1FBF9F8200C5E
:100808001FFA8CFE09FB181140EA014108FB0EF0A3
:10081800884202FA06F20BD91CEB010108F1FF3AF3
:1008280080F08880884240F28580A8F102086144FF
:10083800091AA4B2B1FBF9F009FB101144EA01410D
:1008480000FB0EFE8E4508D91CEB010100F1FF34B8
:100858006CD28E456AD90238614440EA0840A0FB50
:100868000294A1EB0E01A142C846A64656D353D026
:100878005DB1B3EB080261EB0E0101FA07F722FA4A
:1008880006F3F1401F43C5E9007100263146BDE873
:10089800F087C2F12003D8400CFA02FC21FA03F3D6
:1008A800914001434FEA1C471FFA8CFEB3FBF7F057
:1008B80007FB10360B0C43EA064300FB0EF69E427C
:1008C80004FA02F408D91CEB030300F1FF382FD215
:1008D8009E422DD9023863449B1B89B2B3FBF7F6BD
:1008E80007FB163341EA034106FB0EF38B4208D996
:1008F8001CEB010106F1FF3816D28B4214D9023ED7
:100908006144C91A46EA004638E72E46284605E7F4
:100918000646E3E61846F8E64B45A9D2B9EB0208C5
:1009280064EB0C0E0138A3E74646EAE7204694E755
:100938004046D1E7D0467BE7023B614432E7304688
:1009480009E76444023842E7704700BFFEE700BF8A
:100958000B480C4A904203D0121A0B4917F06CF955
:100968000A480B4A904203D0121A002117F08CF95A
:1009780006F096FF17F02CF903F09AFAFEE700BF8D
:1009880000000024AC04002424A70108B0040024BB
:1009980028D60724704700BF704700BF704700BFC4
:1009A800704700BF704700BF704700BF704700BF67
:1009B800704700BF704700BF704700BF704700BF57
:1009C800704700BF704700BF704700BF704700BF47
:1009D800704700BF704700BF4020704780207047B5
:1009E80049424FF480621030C9B217F04DB900BFC8
:1009F800704700BF10B504464FF4826115F001FF3F
:100A0800204610BD10B50446006818B1A168091A3F
:100A180015F0F7FE204610BD10B50446006818B161
:100A2800A168091A15F0EDFE204610BD704700BFF9
:100A38002DE9F04F4FF0B00885B0054600F10807E2
:100A480000F18F0600F28F494FF47A7B4FF0000ACD
:100A5800297B022303AA3846CDF800B0A6F180040A
:100A68008DF80CA08DF80D8005F010FE297B02236F
:100A780003AA3846CDF800B08DF80CA08DF80DA06B
:100A880005F004FE4FF0100C297B022303AA384618
:100A9800CDF800B08DF80CA08DF80DC005F0F6FD6E
:100AA8004FF47A7014F801CF4FF0400E297B0223DF
:100AB800009003AA38468DF80CE08DF80DC005F0BB
:100AC800E5FDB442ECD104F1800608F101084E4579
:100AD8005FFA88F8B8D105B0BDE8F08F2DE9F04F7E
:100AE80085B0A1F1200504AC9DF83870009104E9A7
:100AF8000C00EBB25E2B00F29580036880465D4ADD
:100B0800DB689DF8084093429DF8096040F09480A6
:100B18008020B8F804302344834200F38380D8F857
:100B28000030554A9B68934240F088804020B8F8CE
:100B3800062093190192834274DC002E00F089800C
:100B480006FB05F56FF00040039B964628442E44AB
:100B5800B8F804A003EB4000023B03EB460B30F867
:100B6800026FBCB30EF007034FF0010C4FEADE0230
:100B780051460CFA03FC0AF110034FFA8CFC03EB04
:100B8800C21200236FEA0C0942440EE07F2907D8FD
:100B9800BEF13F0F04D815789FB14CEA05051570D2
:100BA8000133013201319C4214D006FA03F52D04B9
:100BB800ECD47F29F4D8BEF13F0FF1D81578002F77
:100BC800EBD0013309EA0505013201319C4202F8F4
:100BD800015CEAD158450EF1010EC0D1D8F80030B9
:100BE80054442449DA68A4B28A422DD18020844230
:100BF8001CD29B68204AA8F80440934221D1402087
:100C0800019B834207D3D8F800301B4A9B68934264
:100C180029D13F230193DDE90003A8F8063005B088
:100C2800BDE8F08F002005B0BDE8F08FDA68114903
:100C38008A4211D17F24DCE798476AE74046984703
:100C480075E740469847DBE740469047D8F80030BC
:100C5800CDE7B8F804A0C1E7404690470138D8F876
:100C6800003084B2C5E740469847013883B2019303
:100C7800D1E700BFE5090008E10900082DE9F04FB8
:100C880089B008AC9DF84870019104E90C000B7814
:100C9800002B00F0AB801A469DF818809DF819309B
:100CA8000646454690460393079B0593A8F1200402
:100CB800E3B25E2B00F29E8033685E4ADB689342A3
:100CC80040F09B808020B3882B44834200F39280BD
:100CD8003368594A9B68934240F092804020F188DB
:100CE800039A02918B18834200F38480002A00F053
:100CF800918002FB04F46FF00049059BA144144461
:100D0800B6F804B003EB4909023BCDF8108003EBB9
:100D180044030C469A4639F802CFA5B304F00703FA
:100D28004FF0010EE20859460EFA03FE0BF11003CC
:100D38004FFA8EFE03EBC21200236FEA0E0832440C
:100D48000DE07F2906D83F2C04D8107897B14EEAD9
:100D580000001070013301320131AB4213D00CFA9C
:100D680003F00004EDD47F29F4D83F2CF2D8107892
:100D7800002FECD0013308EA000001320131AB4208
:100D880002F8010CEBD1D14504F10104C3D1DDF81F
:100D9800108032680BEB05042649D368A4B28B4255
:100DA80034D18020844204D3D36822498B423AD17B
:100DB8007F249368204AB480934224D14020029B28
:100DC800834206D333681C4A9B68934225D13F234C
:100DD8000293029BF380019B1878404507D113F8D2
:100DE800018F0193B8F1000F7FF460AF002009B0C4
:100DF800BDE8F08F4FF00008EDE73046984762E70E
:100E0800304698476BE730469847D8E730469847CA
:100E18003268C7E7B6F804B0BBE730469847431EC8
:100E28009BB20293D5E7304698470138326884B2BE
:100E3800BFE700BFE5090008E10900087F291ED8BF
:100E48003F2A1CD86BB1D3084FF0010C02F00702FF
:100E580001EBC3130CFA02F2C1180B7C1A430A7493
:100E68007047D3084FF0010C02F0070201EBC313DF
:100E78000CFA02FCC1180A7C22EA0C020A747047B8
:100E88002DE9F04F83B05C1A0C9E002C9DF834902D
:100E9800A6EB0208B8BF6442B8F1000FB8BFC8F1AA
:100EA80000088B428CBF4FF0010A4FF0FF3A964280
:100EB800A4EB080C51D84FF0FF357F2B019512D8C1
:100EC8003F2E10D8F50806F0070E012703EBC515CD
:100ED8000544B9F1000F47D007FA0EF795F810E06E
:100EE80047EA0E072F74964201D18B4229D0C8F1E8
:100EF80000077F2914D83F2A12D8D50802F0070B1B
:100F08004FF0010E01EBC5150544B9F1000F1BD0D8
:100F18000EFA0BFE95F810B04EEA0B0E85F810E0AD
:100F2800B7EB4C0F4FEA4C0502DAACEB080C514416
:100F3800AC4202DD019DA4442A449942D9D196428B
:100F4800D7D103B0BDE8F08F0EFA0BFB95F810E08F
:100F58002EEA0B0E85F810E0E2E701257F2B0195BC
:100F6800C5D83F2EAED9C2E707FA0EFE2F7C9642AF
:100F780027EA0E072F74B8D0B9E700BF00000000B9
:100F88002DE9F04F2DED068B83B01F4680460D46A8
:100F98009DF8503016460193139B002BC0F2218216
:100FA800129A134406EE103ADDED127AB8EEC66BCB
:100FB8009FEDCD4BB8EEE77B9FEDCD5B27EE047B35
:100FC80026EE046B87EE050B86EE05ABF7EEC08BBD
:100FD800B0EE680A15F05CFD07EE907AB7EECAAB82
:100FE800F8EE679AB0EE408AB0EE680A16F07CFB1D
:100FF80060EE698AB0EE4A0A15F04AFDB0EE409AF2
:10100800B0EE4A0A16F070FB20EE690A29EE888ACB
:1010180029EE899A70EE687AF0EE006A39EE487A1D
:1010280067EEA77AE7EE077AF4EEE67AF1EE10FAC1
:1010380006D5139BB42B40F396804FF0010901E0CD
:101048004FF00009012478424FF0000C0095E31B93
:10105800214627462246A340B9F1000F6AD14242F1
:1010680006EE90CACCF1000107EE102AB8EEE66A47
:1010780007EE901A06EE900AB8EEC77A139A66EE53
:10108800084AF8EEE77AB42A27EE284AF8EEE66A24
:1010980067EE885A74EEC43A26EEA85A26EE096A14
:1010A80066EE806A67EE897A27EE007AF5EEC03A36
:1010B80040F3F280F1EE10FA00F17F8176EE473AC4
:1010C80074EEC54AF5EEC03AF1EE10FAF5EEC04AF4
:1010D800CCBF01220022F1EE10FA00F1778136EE42
:1010E800666A35EEC55AB5EEC06AF1EE10FAB5EE8D
:1010F800C05ACCBF01210021F1EE10FA00F16F8136
:1011080077EEE66AF5EEC06AF1EE10FACCBF012779
:10111800002775EEC45AF5EEC05AF1EE10FA00F148
:10112800478177EEC77AF5EEC07AF1EE10FACCBFB8
:1011380001240024002A40F08A80002964D1BFB924
:10114800C4BB9C4558DB0CF1010C03EB4C0E1CEBAB
:10115800000F0EF1010E00F0C08098424FDB73467D
:1011680000287FF779AF03B0BDEC068BBDE8F08FA0
:10117800009DA6EB0C0E00EB050ABAF17F0FDFD835
:10118800BEF13F0FDCD84FEADE0B019D0AEBCB1A0C
:10119800002D00F0B1800EF0070BC2444FF0010E95
:1011A8000EFA0BFE9AF810B04EEA0B0E8AF810E011
:1011B800002CC6D0009DA6EB0C0EA5EB000ABAF1D8
:1011C8007F0FBED8BEF13F0FBBD84FEADE0B019DA3
:1011D8000AEBCB1A002D00F0AE800EF0070BC244CC
:1011E8004FF0010E9C450EFA0BFE9AF810B04EEA2D
:1011F8000B0E8AF810E0A6DA98429E46AFDA013064
:101208000EEB40030133ABE7009D0CEB060E00EB41
:10121800050ABAF17F0F92D8BEF13F0F8FD84FEA77
:10122800DE0B019D0AEBCB1A002D73D00EF0070BD5
:10123800C2444FF0010E0EFA0BFE9AF810B04EEAB7
:101248000B0E8AF810E0002F3FF47AAF90E7009D6C
:101258000CEB060EA5EB000ABAF17F0F3FF66DAF57
:10126800BEF13F0F3FF669AF4FEADE0B019D0AEB77
:10127800CB1A002D6DD00EF0070BC2444FF0010EB3
:101288000EFA0BFE9AF810B04EEA0B0E8AF810E030
:1012980000293FF454AFB7E7F1EE10FA7ED44A467E
:1012A80074EEC54AF5EEC04AF1EE10FA6CD400218E
:1012B80035EEC55AB5EEC05AF1EE10FA5AD40027E9
:1012C80075EEC45AF5EEC05AF1EE10FA3FF529AFA3
:1012D8000024002A3FF431AFB9E798428FDB00239E
:1012E8003BE700BFAFF300807A008BFCFA2109408E
:1012F8000000000000806640C2444FF0010B0EF071
:10130800070E0BFA0EFE9AF810B02BEA0E0E8AF8AA
:1013180010E015E7C2444FF0010B0EF0070E0BFA70
:101328000EFE9AF810B02BEA0E0E8AF810E0002F85
:101338003FF406AF1CE7C2444FF0010B0EF0070E56
:101348000BFA0EFE9AF810B02BEA0E0E8AF810E08F
:10135800F7E6C2444FF0010B0EF0070E0BFA0EFE33
:101368009AF810B02BEA0E0E8AF810E000293FF424
:10137800E6AE49E777EEE66AF5EEC06AF1EE10FAF6
:10138800CCBF012700279BE736EE666AB5EEC06A38
:10139800F1EE10FACCBF0121002189E776EE473A39
:1013A800F5EEC03AF1EE10FACCBF0122002277E741
:1013B8000124002A3FF4C1AE49E774EEC54A012270
:1013C800F5EEC04AF1EE10FA7FF589AE35EEC55A52
:1013D8000121B5EEC05AF1EE10FA7FF591AE012762
:1013E80097E6DDE91223134406EE102A1293139BA5
:1013F8005B421393D8E500BF2DE9F04F89B01D4635
:10140800884606901046129C10F8013B13999DF8E7
:101418005060009233B1002210F8013B0132002BDA
:10142800FAD193B22A78687812FB03F302B21BB29E
:1014380023EAE373082900F2A681DFE811F001012D
:1014480013011F01330141014F0166016F010900BA
:10145800A18827880F44B4F90610FF1A0029BFB2E3
:10146800C0F2FE806488069804EB6104C280A4EB95
:1014780052028380078094B24480A64AD8F800308C
:1014880011460192DA688A4240F08B818020B84286
:1014980005D8DA6801998A4240F098817F279E4AE8
:1014A8009B68A8F804709342039240F0878140201B
:1014B800A04207D8D8F80030039A9B68934240F0BE
:1014C80080813F24009BA8F8064093F800B06B7811
:1014D8002C7804936B680793BBF1000F00F0AC8085
:1014E800ABF12005EBB25E2B00F22C81D8F800306E
:1014F800019ADB68934240F028818020B8F80430D4
:1015080023449842C0F21E81D8F80030039A9B68A1
:10151800934240F01D814020B8F80610049A0291C9
:101528008B189842C0F20E81002A00F01C8102FB41
:1015380005F56FF0004E079BAE441544CDF814B086
:1015480003EB4E0E023BB8F804A003EB45030D462F
:101558009B463EF8027FA4B305F007034FF0010C49
:10156800EA0851460CFA03FC0AF110034FFA8CFC06
:1015780003EBC21200236FEA0C0942440DE07F29F5
:1015880006D83F2D04D8107896B14CEA00001070A8
:101598000133013201319C4213D007FA03F00004F1
:1015A800EDD47F29F4D83F2DF2D81078002EECD056
:1015B800013309EA0000013201319C4202F8010CB2
:1015C800EBD1F34505F10105C3D1DDF814B0D8F826
:1015D80000200AEB04050199D368ADB28B4240F0B4
:1015E800BD808020854205D3D36801998B4240F0A5
:1015F800C3807F259368039AA8F80450934240F06B
:10160800AA804020029B834208D3D8F80030039A6E
:101618009B68934240F0AA803F230293029BA8F85C
:101628000630009A13785B4506D112F801BF009284
:10163800BBF1000F7FF454AF069809B0BDE8F08FF6
:10164800B4F9041027880029B8BF013107EB6107F6
:10165800B4F90610A7EB63070029BFB2BFF602AFC3
:101668000131FFE6B4F900700699B4F902400F8021
:10167800BFB24C80A4B28B80CA80FEE6B4F90410D5
:1016880027880029B4F90240B8BF013107EB610788
:1016980006998B80A7EB63034C80A4B29FB2CA80E3
:1016A8000F80EAE6A1882788B4F902400F4406991A
:1016B8008B80FB1A4C80A4B29FB2CA800F80DCE6F4
:1016C800E78861883944B4F90070081A069984B229
:1016D8000F808B80BFB2CA804C80CEE6B4F904106C
:1016E80027880029B8BF013107EB6107A7EB63071B
:1016F800B4F802C0BFB2E488069964448B80201A0B
:10170800CA800F8084B24C80B7E62788A1880F442E
:10171800FF1AEDE7E5090008E1090008B4F9061029
:10172800B4F90070002964880698B8BF0131C280F6
:1017380004EB610407808380BFB2A4EB520294B229
:1017480044809AE64FF0000B6BE740469847D5E691
:1017580040469847E0E64046984753E74046984752
:10176800D8F800203EE7B8F804A030E7404698478C
:10177800013883B2029351E7404698470138D8F8B8
:10178800002085B236E7D8F800300024069A1349BD
:10179800148054809480D480DA6801918A4205D0FC
:1017A800274640469047D8F8003070E69B680C4AB8
:1017B800A8F80440934203923FF484AE4046984709
:1017C80076E640469847013884B27BE64046904723
:1017D8000138D8F8003087B261E600BFE509000893
:1017E800E10900082DE9F04F87B09DF84850109C9A
:1017F8002E4601959DF844509EB399422ED899469D
:10180800A24228D87F29164694BF0023012308E066
:101818009CF810804EEA080E8CF810E00136B442AD
:1018280019D33F2EFAD8002BF8D14FEAD60C06F080
:10183800070E4FF0010801EBCC1C08FA0EFE844499
:10184800002DE5D19CF810B001362BEA0E0AB442FF
:101858008CF810A0E5D201318945D1D207B0BDE896
:10186800F08FA3EB0108B8F1000FB8BFC8F100086A
:101878009942C0F04E817F2B4FF0FF3A94BF00266B
:1018880001263F2A009694BF002701270297A6B990
:101898009FB9D60802F0070C012703EBC6160644C9
:1018A800002D00F0948107FA0CF796F810C047EA6B
:1018B8000C073774002602960096994200F097812B
:1018C800464694468E46BEF17F0F16D8BCF13F0FB0
:1018D80013D84FEADC070CF0070B4FF001090EEBA9
:1018E800C7170744002D00F0398109FA0BF997F85A
:1018F80010B049EA0B0987F81090770018BFD64452
:10190800B84502DD46440CF1FF3C7345DBD1624526
:10191800D9D100260496A4EB0209009FB9F1000F63
:10192800B8BFC9F100093F2C94BF00260126A24286
:10193800C9F100080396C0F02381002F40F05081C0
:10194800002E40F04D814FF0FF360096E60803EB7D
:10195800C6160644002D00F01E814FF0010C04F05D
:1019680007070CFA07F796F810C047EA0C07377410
:1019780000260396A24200F03D81C44616461F4643
:1019880005927F2F15D83F2E13D84FEAD60E06F0B2
:10199800070B4FF0010A07EBCE1E8644002D00F01E
:1019A800E6800AFA0BFA9EF810B04AEA0B0A8EF89B
:1019B80010A0B8EB4C0F4FEA4C0E02DAACEB090C56
:1019C800013FBEF1000F01D0009A1644BB42D8D1A6
:1019D800B442D6D1059AA1EB030EBEF1000FB8BFF1
:1019E800CEF1000E7F2994BF4FF0000A4FF0010A94
:1019F80099428CBF4FF001094FF0FF39BAF1000F3F
:101A080013D1039E8EB9E60801EBC6160644002DD5
:101A180000F0D3804FF0010C04F007070CFA07F729
:101A280096F810C047EA0C073774049E26BB774621
:101A380026467F2B14D83F2E12D84FEAD60C06F034
:101A4800070B4FF0010803EBCC1C8444002D73D026
:101A580008FA0BF89CF810B048EA0B088CF81080CC
:101A68005FEA470C18BF4B44E64501DD7744013E69
:101A78009942DED1B442DCD1A2EB040EBEF1000FD4
:101A8800B8BFCEF1000EA2428CBF4FF001084FF054
:101A9800FF38CEF1000CBAF1000F0ED1029B63B9EA
:101AA800D30802F00707012601EBC3130344002DF6
:101AB8007CD0BE401F7C3E431E74019B002B7FF4EC
:101AC800CDAE66460B467F2B12D83F2C10D8E708C0
:101AD80004F0070A4FF0010903EBC7170744A5B341
:101AE80009FA0AF997F810A049EA0A0987F8109044
:101AF800BCEB460F4FEA460702DAA6EB0E06013B9F
:101B080007B144449942DED1A242DCD107B0BDE816
:101B1800F08F3F2A4FF0010A94BF002601267F2B41
:101B2800029694BF002701270097002E7FF4C8AEC5
:101B3800002F3FF4AEAEC3E608FA0BFB9CF810800A
:101B480028EA0B088CF810808AE709FA0AFA97F84D
:101B5800109029EA0A0987F81090C9E709FA0BFBDF
:101B680097F8109029EA0B0987F81090C5E60AFA49
:101B78000BFB9EF810A02AEA0B0A8EF810A018E7B3
:101B880097BB8EBB01260096E60803EBC6160644F3
:101B9800002D7FF4E2AE012704F0070C039507FA45
:101BA8000CFC377C27EA0C073774E3E606FA07F7DC
:101BB8001E7C26EA07061E747FE7012704F0070C3F
:101BC80007FA0CFC377C27EA0C0737742DE707FA6D
:101BD8000CFC377C029527EA0C07009537746CE6F5
:101BE8004FF0FF360096C5E601260096C5E60126A9
:101BF800049690E601260196EDE600BF70B54568AB
:101C08000446012D2DED028BF0EE408A40F29F80B4
:101C1800027FB7EE008AF6EE007A437F002A08FEBC
:101C2800278A0BB1B1EE488AA669DFED8B7A07EEF9
:101C3800106A9FED8A0AF8EE476A66EEA76A26EEF2
:101C4800800A15F051FD022DF0EE407A84ED050A68
:101C58003BD0032D40F0F88094ED047AA268BCEEE6
:101C6800C77A2168022917EE103A02EB830393ED35
:101C7800000A00F0DC80032900F0D080B0EE407A42
:101C8800A8EEA77A83ED007A40F2AE439E4201D8CF
:101C98000136A661236AD4ED047A013B38EE278A1F
:101CA80007EE903AF8EE677A84ED048AB4EEE78A94
:101CB800F1EE10FA40F3C0800023236101295BD1C3
:101CC800022200236260A36195E094ED047A40F259
:101CD800AE41A268FCEEC76A8E4216EE903A02EB5D
:101CE800830393ED000A0DD8B7EE007A013677EE3C
:101CF800677AB0EE407AA7EEA87A83ED007A94ED81
:101D0800047AA661236A38EE078A013B84ED048AC7
:101D180007EE903AF8EE677AB4EEE78AF1EE10FA39
:101D280079DCB5EEC08AF1EE10FA64D5C4ED047A18
:101D380094F82430002B5ED02368012B5BD100225D
:101D48000321134684F824206160A26115E08669A6
:101D58009FED417A07EE906A9FED400AF8EE677AA8
:101D680067EE877A27EE800A15F0BEFC012D84ED18
:101D7800050A07D09FED3A0A002384F82530BDEC08
:101D8800028B70BDD4ED047A40F2AE42A36828EE0F
:101D9800807AFCEEE77A964217EE901A03EB8103FD
:101DA80083ED007A01D80136A661D4ED047AF7EE06
:101DB800006AE368BCEEE77A013B77EEA67A17EE95
:101DC800102A07EE103AC4ED047AB8EE477A226278
:101DD800F4EEC77AF1EE10FACCDD77EEE67A9FEDF5
:101DE800207A0223B0EE470A84ED047AFCEEE77A03
:101DF8006360C4ED087A94ED047ADFED1A7AB4EEE4
:101E0800E77ABDEC028BF1EE10FA4CBF01230023F8
:101E180084F8253070BD0023236189E79FED127A8D
:101E280020EE077AA8EEA77A83ED007A2CE768EE11
:101E3800A77AC3ED007A27E7B5EEC08AF1EE10FA6B
:101E48009AD5C4ED047A39E725F002059FED040A16
:101E5800012DD0D190E700BF0E745A3ADB0FC93F6D
:101E68000000000000009645F304353F30B505201A
:101E780087B000240421012207238DF809009FED73
:101E8800170A8DF808408DF80D10154D02998DF838
:101E98000C408DF810208DF8113012488DED010A94
:101EA800DDE9032303F032FD8DF814408DF8154069
:101EB80028469DED010A059903F096FD03220B23A0
:101EC8009DED010A8DF8142005F110008DF81530EC
:101ED800059907B0BDE8304003F086BD000000005A
:101EE8008C05002408060024F0B50224A3B00427BA
:101EF80001258DF8084008A88DF809700626029972
:101F080003F0BAFD8DF80C408DF80D5000240399AC
:101F18000DF1310003F0B0FD8DF810408DF811601F
:101F28000DF14200049903F0A7FD07238DF8144032
:101F38000DF153008DF81530059903F09DFD8DF8CE
:101F480018508DF8195019A8069903F095FD032328
:101F58008DF81C400DF175008DF81D300799154D51
:101F680003F08AFD3B46324608A9134803F092FD68
:101F7800E1B2114803F088FF01461048013401918D
:101F880002F03AFA0023DFED0E0A019928461A46B4
:101F980003F03AFC094802F00FFA284603F08AFCDD
:101FA800062C05F12005E3D1034803F057FF23B0C1
:101FB800F0BD00BFCC040024DC050024C4050024C7
:101FC8006F12033BF0B5964D8BB01021002405F13C
:101FD80008063C23934A4FF47A778DF82010304650
:101FE80069448DF824302B73CDE90442CDE90644C9
:101FF80004F0B6FAAE2303AA297B8DF80D303046DB
:10200800022300978DF80C4004F040FBD52303AA67
:10201800297B30468DF80D30022300978DF80C404F
:1020280004F034FB802303AA297B30468DF80D3059
:10203800022300978DF80C4004F028FBA82303AA7C
:10204800297B30468DF80D30022300978DF80C401F
:1020580004F01CFB3F2303AA297B30468DF80D3082
:10206800022300978DF80C4004F010FBDA2303AA32
:10207800297B30468DF80D30022300978DF80C40EF
:1020880004F004FB122303AA297B30468DF80D3097
:10209800022300978DF80C4004F0F8FAD32303AA22
:1020A800297B30468DF80D30022300978DF80C40BF
:1020B80004F0ECFA03AA297B0223304600978DF836
:1020C8000C408DF80D4004F0E1FA402303AA297B67
:1020D80030468DF80D30022300978DF80C4004F03F
:1020E800D5FAA62303AA297B30468DF80D300223A2
:1020F80000978DF80C4004F0C9FAA42303AA297BA1
:1021080030468DF80D30022300978DF80C4004F00E
:10211800BDFA8D2303AA297B30468DF80D300223A2
:1021280000978DF80C4004F0B1FA142303AA297B18
:1021380030468DF80D30022300978DF80C4004F0DE
:10214800A5FAA12303AA297B30468DF80D30022376
:1021580000978DF80C4004F099FAC82303AA297B4C
:1021680030468DF80D30022300978DF80C4004F0AE
:102178008DFA812303AA297B30468DF80D3002237E
:1021880000978DF80C4004F081FA8F2303AA297B6D
:1021980030468DF80D30022300978DF80C4004F07E
:1021A80075FAD92303AA297B30468DF80D3002230E
:1021B80000978DF80C4004F069FA252303AA297BBF
:1021C80030468DF80D30022300978DF80C4004F04E
:1021D8005DFADB2303AA297B30468DF80D300223F4
:1021E80000978DF80C4004F051FA342303AA297B98
:1021F80030468DF80D30022300978DF80C4004F01E
:1022080045FA8DF80C4003AA297B0223AF243046F7
:1022180000978DF80D4004F039FA0BB0F0BD00BFFF
:10222800DC51002401080109894B8A4893ED000A12
:1022380070B512F0BDFE884B864893ED000A12F087
:10224800CBFE864B834893ED000A12F09DFE844B2B
:10225800804893ED000A12F0DBFE824B824893ED32
:10226800000A12F06BFD814B7F4893ED000A12F0D3
:102278008DFD7F4B7C4893ED000A12F009FD7D4BE4
:10228800794893ED000A12F01FFD7B4B7B4893EDD4
:10229800000A13F05FFA7A4B784893ED000A13F0BE
:1022A80025FA784B754893ED000A13F003F9764B3D
:1022B800724893ED000A13F02FF9744B6F48D3ED71
:1022C800007A734CFDEEE77A17EE901A13F0E6F8F1
:1022D800704B94ED0E7AD3ED007A87EE270AC4EDA1
:1022E800027AB1EE400A14F0CDFF94ED0D7AD4EDE8
:1022F800027A84ED0A0A87EE270AB1EE400A14F042
:10230800C1FF654AB7EE007A644B92ED006AD3EDDF
:10231800006AC7EE067AD4ED0E4A614B84ED080ACE
:102328001B6884ED006A84EEA65A2361C4ED036A33
:1023380077EE405A77EEC77A67EEA57AB1EE450A8E
:10234800C4ED097A14F09EFF564A94F83C30D2ED59
:10235800007A84ED0B0AC4ED017A6BB194ED006A42
:10236800B6EE007AC7EE866A77EEE67AF0EEE77A9E
:1023780067EE877AC4ED047A4B4ADFED4C7A92ED2A
:10238800007ADFED4B6A27EE277A4A494A4B91EDEE
:10239800000AC7EE267A494A49484A4C4A4E4B4DEC
:1023A800BDEEE77A17EE101AF8EEC76A994277EE93
:1023B800E67A28BF1946C2ED007A916013F018FD3D
:1023C800434B3F4893ED000A13F008FD414B424848
:1023D80093ED000A12F0F2FE404B414AD3ED007A29
:1023E8002468404BFDEEE77A3F4940481268D6F82A
:1023F80000C000681C600C683D495A603D4A3E4B6D
:10240800C1F800C048602968C2ED027A54603B48B0
:102418003B4A99613B490468126891ED000A3A48C1
:102428001A615C6113F0DEFF384B374893ED000A00
:1024380013F0E6FF364B344893ED000A13F0BCFF67
:10244800344B314893ED000ABDE8704013F0BCBF2F
:1024580054000024EC5500245C000024580000249B
:1024680050000024080000243C060024100000242A
:102478000C0000241400002480000024706500244F
:102488008C0000247C0000248400002488000024A0
:10249800985100241C000024240000242800002453
:1024A800200000242C0000244000002400803B472A
:1024B80000007A44B0000024FF76010000E86EC3F3
:1024C800849F072464000024AC000024C400002476
:1024D800B40000244800002460650024040000249F
:1024E800680000241065002434000024A80000249B
:1024F8003094012430060024BC9F0724C000002427
:10250800BC00002494000024F892012498000024C0
:102518009C000024A00000249A4B1B7810B582B0C0
:102528000D2B15D8DFE813F00E007E00C900580106
:102538001102DE02AE04E2037A05790314052A04C7
:1025480074061900904803F091F9904B83ED000A46
:1025580002B0BDE81040FFF767BE8D4803F086F96A
:10256800B5EE400AF0EE407AF1EE10FA00F1BA87C3
:10257800B1EEE70A874B9FED887AD3ED007A77EEC4
:10258800C07AF0EEE77AF4EEC77AF1EE10FA08DDD9
:10259800DFED827A83ED000A30EE270A804A82ED69
:1025A800000A794803F062F9784B9FED7B7AD3ED06
:1025B800007A77EEC07AF0EEE77AF4EEC77AF1EEB9
:1025C80010FA00F36C87774803F050F9B5EE400A2B
:1025D800F0EE407AF1EE10FA01F13A80B1EEE70A36
:1025E800714B9FED6D7AD3ED007A77EEC07AF0EEFD
:1025F800E77AF4EEC77AF1EE10FA0ADD9FED6B7A0E
:10260800DFED667A6A4AE0EE077A83ED000AC2EDEA
:10261800007A03246748684B00214268009414F04C
:10262800AFF995E75A4803F021F9B5EE400AF0EE04
:10263800407AF1EE10FA00F15187B1EEE70A554BF6
:102648009FED557AD3ED007A77EEC07AF0EEE77A0F
:10265800F4EEC77AF1EE10FA0ADDB0EE007ADFED9B
:102668004F7A564A83ED000AE0EE077AC2ED007A07
:10267800454803F0FBF8454B9FED477AD3ED007AC8
:1026880077EEC07AF0EEE77AF4EEC77AF1EE10FA58
:102698000ADDB0EE007ADFED417A494A83ED000A9F
:1026A800E0EE077AC2ED007A06244248454B002145
:1026B8004268009414F064F94AE7354803F0D6F804
:1026C800B5EE400AF0EE407AF1EE10FA00F112870A
:1026D800B1EEE70A2F4B9FED307AD3ED007A77EE13
:1026E800C07AF0EEE77AF4EEC77AF1EE10FA0ADD76
:1026F800F7EE007A9FED347A344A83ED000AE0EE73
:10270800077AC2ED007A204803F0B0F81F4B9FED1E
:10271800227AD3ED007A77EEC07AF0EEE77AF4EE1B
:10272800C77AF1EE10FA00F3AF861E4803F09EF860
:10273800B5EE400AF0EE407AF1EE10FA00F1848727
:10274800B1EEE70A184B9FED147AD3ED007A77EED5
:10275800C07AF0EEE77AF4EEC77AF1EE10FA08DD07
:10276800DFED0E7A83ED000A30EE270A184A82ED73
:10277800000A05240F48174B00214268009414F002
:10278800FFF8E5E66C650024EC04002418650024D5
:10279800CC040024700000240AD7A33B00000000EA
:1027A800BC0000240C0500241C6500240000C8425D
:1027B800C4000024AC05002424800108740000240F
:1027C800780000242880010800E0F9444000002433
:1027D80044000024B87F0108A94803F047F8B5EE83
:1027E800400AF0EE407AF1EE10FA00F17F86B1EE81
:1027F800E70AA44B9FEDA47AD3ED007A77EEC07A6E
:10280800F0EEE77AF4EEC77AF1EE10FA0ADD9FED02
:102818009F7ADFED9F7A9F4AE0EE077A83ED000A00
:10282800C2ED007A9C4803F021F89C4B9FED967A04
:10283800D3ED007A77EEC07AF0EEE77AF4EEC77A55
:10284800F1EE10FA00F31586954803F00FF8B5EE8F
:10285800400AF0EE407AF1EE10FA00F1F186B1EE9E
:10286800E70A904B9FED887AD3ED007A77EEC07A2D
:10287800F0EEE77AF4EEC77AF1EE10FA0ADD9FED92
:10288800837ADFED837A884AE0EE077A83ED000ADF
:10289800C2ED007A854802F0E9FF854B9FED7A7A10
:1028A800D3ED007A77EEC07AF0EEE77AF4EEC77AE5
:1028B800F1EE10FA00F3CC857E4802F0D7FFB5EEB2
:1028C800400AF0EE407AF1EE10FA00F1B586B1EE6A
:1028D800E70A794B9FED6C7AD3ED007A77EEC07AF0
:1028E800F0EEE77AF4EEC77AF1EE10FA00F3A58578
:1028F800724802F0BBFFB5EE400AF0EE407AF1EE06
:1029080010FA00F19586B1EEE70A6D4B9FED5E7AFD
:10291800D3ED007A77EEC07AF0EEE77AF4EEC77A74
:10292800F1EE10FA08DDDFED677A83ED000A30EE8C
:10293800270A654A82ED000A06246448644B002190
:102948004268009414F01CF802E64D4802F08EFF2D
:10295800B5EE400AF0EE407AF1EE10FA00F1D285B9
:10296800B1EEE70A474B9FED487AD3ED007A77EE50
:10297800C07AF0EEE77AF4EEC77AF1EE10FA0ADDE3
:102988009FED427ADFED427A524AE0EE077A83ED14
:10299800000AC2ED007A404802F068FF3F4B9FED05
:1029A8003A7AD3ED007A77EEC07AF0EEE77AF4EE71
:1029B800C77AF1EE10FA00F33585394802F056FF70
:1029C800B5EE400AF0EE407AF1EE10FA00F1D78544
:1029D800B1EEE70A334B9FED2C7AD3ED007A77EE10
:1029E800C07AF0EEE77AF4EEC77AF1EE10FA08DD75
:1029F800DFED347A83ED000A30EE270A364A82ED9D
:102A0800000A2A4802F032FF294B9FED1F7AD3EDC6
:102A1800007A77EEC07AF0EEE77AF4EEC77AF1EE54
:102A280010FA00F3F284234802F020FFB5EE400AC2
:102A3800F0EE407AF1EE10FA00F19D85B1EEE70A6A
:102A48001D4B9FED117AD3ED007A77EEC07AF0EE48
:102A5800E77AF4EEC77AF1EE10FA08DDDFED197ABD
:102A680083ED000A30EE270A1C4A82ED000A06248C
:102A780016481B4B00214268009413F081FF67E55C
:102A8800CC040024700000240AD7A33B0AD76F4166
:102A98000AD7233C8C000024EC0400241865002489
:102AA8000C0500241C650024840000242C05002447
:102AB800206500244C050024246500246C050024AE
:102AC800286500240000000090000024AC050024C4
:102AD800C07F0108140000241000002418000024FE
:102AE800C87F0108CA4802F0C1FEB5EE400AF0EE00
:102AF800407AF1EE10FA00F10185B1EEE70AC54B14
:102B08009FEDC57AD3ED007A77EEC07AF0EEE77ADA
:102B1800F4EEC77AF1EE10FA0ADD9FEDC07ADFED28
:102B2800C07AC04AE0EE077A83ED000AC2ED007A67
:102B3800BD4802F09BFEBD4B9FEDB77AD3ED007AFE
:102B480077EEC07AF0EEE77AF4EEC77AF1EE10FA93
:102B580000F33484B64802F089FEB5EE400AF0EE80
:102B6800407AF1EE10FA00F1FB84B1EEE70AB14BBE
:102B78009FEDA97AD3ED007A77EEC07AF0EEE77A86
:102B8800F4EEC77AF1EE10FA08DDDFEDAB7A83EDEB
:102B9800000A30EE270AA94A82ED000AA84802F086
:102BA80065FEA84B9FED9C7AD3ED007A77EEC07A4C
:102BB800F0EEE77AF4EEC77AF1EE10FA00F3F2835A
:102BC800A14802F053FEB5EE400AF0EE407AF1EE6D
:102BD80010FA00F1C184B1EEE70A9C4B9FED8E7AA2
:102BE800D3ED007A77EEC07AF0EEE77AF4EEC77AA2
:102BF800F1EE10FA08DDDFED907A83ED000A30EE91
:102C0800270A934A82ED000A07249248924B002132
:102C18004268009413F0B4FE9AE47D4802F026FE60
:102C2800B5EE400AF0EE407AF1EE10FA00F17E843B
:102C3800B1EEE70A774B9FED787AD3ED007A77EE1D
:102C4800C07AF0EEE77AF4EEC77AF1EE10FA0EDD0C
:102C5800B3EE007ADFED787A804A83ED000AE0EE81
:102C6800077AFDEEE77AF8EEE77AC2ED007A6E4869
:102C780002F0FCFD6D4B9FED687AD3ED007A77EE9C
:102C8800C07AF0EEE77AF4EEC77AF1EE10FA00F3C4
:102C9800AC83674802F0EAFDB5EE400AF0EE407AF0
:102CA800F1EE10FA00F16384B1EEE70A614B9FED93
:102CB8005A7AD3ED007A77EEC07AF0EEE77AF4EE3E
:102CC800C77AF1EE10FA08DDDFED5B7A83ED000AD2
:102CD80030EE270A624A82ED000A0A245D48614BF9
:102CE80000214268009413F04BFE31E4484802F09A
:102CF800BDFDB5EE400AF0EE407AF1EE10FA00F1B3
:102D08001184B1EEE70A434B9FED437AD3ED007A85
:102D180077EEC07AF0EEE77AF4EEC77AF1EE10FAC1
:102D280008DDDFED457A83ED000A30EE270A4E4ACA
:102D380082ED000A3C4802F099FD3C4B9FED367A43
:102D4800D3ED007A77EEC07AF0EEE77AF4EEC77A40
:102D5800F1EE10FA08DDDFED387A83ED000A30EE87
:102D6800270A424A82ED000A09243A48404B0021CA
:102D78004268009413F004FEFFF7EABB244802F00F
:102D880075FDB5EE400AF0EE407AF1EE10FA00F16A
:102D9800D483B1EEE70A1F4B9FED1F7AD3ED007A7B
:102DA80077EEC07AF0EEE77AF4EEC77AF1EE10FA31
:102DB80008DDDFED217A83ED000A30EE270A2D4A7F
:102DC80082ED000A184802F051FD184B9FED127A67
:102DD800D3ED007A77EEC07AF0EEE77AF4EEC77AB0
:102DE800F1EE10FA0ADD9FED247ADFED137A234A1B
:102DF800E0EE077A83ED000AC2ED007A0624154852
:102E08001F4B00214268009413F0BAFDFFF7A0BBE6
:102E1800CC040024700000240AD7A33B85EB9F4113
:102E28000AD7233C5C000024EC0400241865002425
:102E38000C0500241C650024000000005800002434
:102E48002C050024206500244C050024246500245A
:102E580060000024AC050024D07F01080400002491
:102E680038000024EC7F0108480000244C000024AE
:102E7800E07F0108AC0000240080BB46A8000024C5
:102E880004800108C24802F0F1FCB5EE400AF0EEF9
:102E9800407AF1EE10FA00F14D83B1EEE70ABD4B2E
:102EA8009FEDBD7AD3ED007A77EEC07AF0EEE77A3F
:102EB800F4EEC77AF1EE10FA0ADD9FEDB87ADFED8D
:102EC800B87AB84AE0EE077A83ED000AC2ED007AD4
:102ED800B54802F0CBFCB54B9FEDAF7AD3ED007A45
:102EE80077EEC07AF0EEE77AF4EEC77AF1EE10FAF0
:102EF80000F34E82AE4802F0B9FCB5EE400AF0EE9F
:102F0800407AF1EE10FA00F12483B1EEE70AA94BFA
:102F18009FEDA17AD3ED007A77EEC07AF0EEE77AEA
:102F2800F4EEC77AF1EE10FA08DDDFEDA37A83ED4F
:102F3800000A30EE270AA14A82ED000A0724A048B9
:102F4800A04B00214268009413F01AFDFFF700BB64
:102F58008F4802F08BFCB5EE400AF0EE407AF1EEB5
:102F680010FA00F1D682B1EEE70A8A4B9FED8A7A11
:102F7800D3ED007A77EEC07AF0EEE77AF4EEC77A0E
:102F8800F1EE10FA0ADD9FED907ADFED907A904A23
:102F9800E0EE077A83ED000AC2ED007A824802F07B
:102FA80065FC824B9FED7C7AD3ED007A77EEC07A90
:102FB800F0EEE77AF4EEC77AF1EE10FA00F3098240
:102FC8007B4802F053FCB5EE400AF0EE407AF1EE91
:102FD80010FA00F1C982B1EEE70A764B9FED6E7ADE
:102FE800D3ED007A77EEC07AF0EEE77AF4EEC77A9E
:102FF800F1EE10FA08DDDFED707A83ED000A30EEAD
:10300800270A744A82ED000A0A246D48724B00218F
:103018004268009413F0B4FCFFF79ABA5C4802F0D7
:1030280025FCB5EE400AF0EE407AF1EE10FA00F118
:103038006D82B1EEE70A574B9FED577AD3ED007AD0
:1030480077EEC07AF0EEE77AF4EEC77AF1EE10FA8E
:103058000ADDF7EE007A9FED617A614A83ED000A96
:10306800E0EE077AC2ED007A4F4802F0FFFB4F4BC3
:103078009FED497AD3ED007A77EEC07AF0EEE77AE1
:10308800F4EEC77AF1EE10FA00F37681484802F0C0
:10309800EDFBB5EE400AF0EE407AF1EE10FA00F1E1
:1030A8005582B1EEE70A434B9FED3B7AD3ED007AA8
:1030B80077EEC07AF0EEE77AF4EEC77AF1EE10FA1E
:1030C8000ADD9FED487ADFED487A484AE0EE077A54
:1030D80083ED000AC2ED007A454802F0C7FB454B74
:1030E8009FED2D7AD3ED007A77EEC07AF0EEE77A8D
:1030F800F4EEC77AF1EE10FA00F332813E4802F09E
:10310800B5FBB5EE400AF0EE407AF1EE10FA00F1A8
:103118001A82B1EEE70A394B9FED1F7AD3ED007A98
:1031280077EEC07AF0EEE77AF4EEC77AF1EE10FAAD
:1031380000F30A81324802F099FBB5EE400AF0EE3E
:10314800407AF1EE10FA00F1FB81B1EEE70A2D4B5F
:103158009FED117AD3ED007A77EEC07AF0EEE77A38
:10316800F4EEC77AF1EE10FA08DDDFED137A83ED9D
:10317800000A30EE270A244A82ED000A0A24104881
:10318800224B00214268009413F0FAFBFFF7E0B9E4
:10319800CC040024700000240AD7A33B0AD76F414F
:1031A8000AD7233CB4000024EC040024186500244A
:1031B8000C0500241C65002400000000B800002451
:1031C800AC050024D87F010800002042000020C27E
:1031D800640000246C000024F87F010800001C42F1
:1031E80024000024E7FB1F416F12833A28000024C3
:1031F8002C050024206500244C05002424650024A7
:103208006C05002428650024300000240C80010887
:10321800DD4802F02BFBB5EE400AF0EE407AF1EE05
:1032280010FA00F17C81B1EEE70AD84B9FEDD87A0D
:10323800D3ED007A77EEC07AF0EEE77AF4EEC77A4B
:10324800F1EE10FA08DDDFEDD37A83ED000A30EEF7
:10325800270AD14A82ED000AD04802F007FBD04B7A
:103268009FEDCB7AD3ED007A77EEC07AF0EEE77A6D
:10327800F4EEC77AF1EE10FA00F32681C94802F09D
:10328800F5FAB5EE400AF0EE407AF1EE10FA00F1E8
:103298004381B1EEE70AC44B9FEDBD7AD3ED007AC6
:1032A80077EEC07AF0EEE77AF4EEC77AF1EE10FA2C
:1032B8000ADDF3EE047A9FEDBD7ABD4A83ED000A7C
:1032C800E0EE077AC2ED007ABA4802F0CFFABA4BBC
:1032D8009FEDAF7AD3ED007A77EEC07AF0EEE77A19
:1032E800F4EEC77AF1EE10FA00F3E480B34802F086
:1032F800BDFAB5EE400AF0EE407AF1EE10FA00F1B0
:10330800AB81B1EEE70AAE4B9FEDA17AD3ED007A1F
:1033180077EEC07AF0EEE77AF4EEC77AF1EE10FABB
:1033280008DDDFED9C7A83ED000A30EE270AA54A16
:1033380082ED000A0924A448A44B002142680094A5
:1033480013F01EFBFFF704B99FEDA17ADFED917A28
:10335800A04AE0EE077A83ED000AC2ED007AE9E6BA
:103368009FED9D7ADFED8B7A9C4AE0EE077A83ED3C
:10337800000AC2ED007AC1E69FED997ADFED997AED
:10338800994AE0EE077A83ED000AC2ED007A7DE6FD
:10339800DFED807A83ED000A30EE270A934A82ED4A
:1033A800000AA7E59FED927ADFED927A924AE0EE65
:1033B800077A83ED000AC2ED007A01E4DFED757A41
:1033C80083ED000A30EE270A8C4A82ED000AFFF7E7
:1033D800C1BBB2EE047ADFED6F7A894A83ED000A49
:1033E800E0EE077AC2ED007AEAE59FED867ADFED36
:1033F800697A854AE0EE077A83ED000AFDEEE77AFE
:10340800F8EEE77AC2ED007A43E4B3EE0E7A7F4A2B
:10341800F3EE047A83ED000AE0EE077AC2ED007A53
:10342800FFF701BBDFED5B7A83ED000A30EE270A78
:10343800774A82ED000AFFF7C0BADFED567A83EDCE
:10344800000A30EE270A734A82ED000AFFF750BAE5
:10345800B1EE0C7A704AF7EE007A83ED000AE0EEDE
:10346800077AFDEEE77AF8EEE77AC2ED007AFFF721
:1034780023BADFED487A83ED000A30EE270A674A5F
:1034880082ED000AFFF7E0B9DFED427A83ED000A2A
:1034980030EE270A624A82ED000AFFF746B9DFEDEF
:1034A8003D7A83ED000A30EE270A5E4A82ED000A73
:1034B800FFF789B8DFED377A83ED000A30EE270A87
:1034C800594A82ED000A11E7DFED327A83ED000AEE
:1034D80030EE270A554A82ED000ACFE614F02EFA9C
:1034E800FFF7ADB814F02AFAFFF744B814F026FA3B
:1034F800FFF77FB914F022FAFFF7ECB814F01EFAC0
:10350800FFF7FDBA14F01AFAFFF72CBA14F016FAFE
:1035180091E514F013FA28E514F010FABBE614F05C
:103528000DFA82E614F00AFAFFF7EDBB14F006FA7A
:10353800FFF780BB14F002FAB1E414F0FFF92AE4B3
:1035480014F0FCF903E614F0F9F9E4E514F0F6F9DF
:10355800A9E514F0F3F9DAE414F0F0F9FFF73DBB4C
:1035680014F0ECF9FFF703BB14F0E8F935E514F0B3
:10357800E5F9FFF79BBB14F0E1F9FFF761BA14F026
:10358800DDF9FFF727BA00BFCC040024700000243F
:103598000AD7A33B0000000098000024EC04002494
:1035A800186500240C0500241C65002400106A46D8
:1035B8009C0000242C050024206500244C050024D0
:1035C80024650024A4000024AC0500241880010808
:1035D8000000A0C22C0000240000A042200000240B
:1035E800E7FB1F416F12833A1C000024B00000243F
:1035F8000AD76F410AD7233C500000245400002406
:103608006800002400803B473400002408000024A0
:103618000C00002480000024880000247C00002482
:103628003C000024C0000024A000002494000024D2
:1036380014F084F9FFF769B914F080F9FFF749B974
:1036480014F07CF9FFF70DB914F078F9FFF77AB8A0
:1036580014F074F9FEF7C4BF14F070F953E600BF14
:103668002DE9F04FBB4E0546D6E900172DED028B2C
:103678008F4285B08DED030A00F0BC810C463B46B5
:1036880054F8042B013A0B2A1CD8DFE812F0110178
:10369800EE00D800C200AC00960080006A0054001A
:1036A80042002C000C008B4203D00B680C2B00F05E
:1036B800AA8195ED000AA84810F0C6FF85ED000A1A
:1036C800D6E90013A742DBD1994200F09381A34BBE
:1036D8001B78002B00F07681039B2B6005B0BDECB6
:1036E800028BBDE8F08F8B42DFF8A88203D00B680D
:1036F8000B2B00F08B81D5ED008AB7EE008AD8ED50
:10370800007AB0EE680A964838EE678A12F052FCE2
:10371800C0E08B4203D00B680A2B00F092812B4645
:1037280029462A468F48009512F08AF9A742D6E919
:103738000013A5D1C8E78B42DFF85C8203D00B6881
:10374800092B00F08B81D5ED008AB7EE008AD8ED01
:10375800007AB0EE680A844838EE678A12F064FB93
:1037680098E08B42DFF8348203D00B68082B00F016
:103778008381D5ED008AB7EE008AD8ED007AB0EEE5
:10378800680A7A4838EE678A11F036F882E08B4288
:10379800DFF80C8203D00B68072B00F07B81D5ED96
:1037A800008AB7EE008AD8ED007AB0EE680A704851
:1037B80038EE678A10F07CFE6CE08B42DFF8E4811B
:1037C80003D00B68062B00F07381D5ED008AB7EEA5
:1037D800008AD8ED007AB0EE680A664838EE678A43
:1037E80011F0B6FC56E08B42DFF8BC8103D00B68C1
:1037F800052B00F06B81D5ED008AB7EE008AD8ED75
:10380800007AB0EE680A5C4838EE678A12F0D4FA9B
:1038180040E08B42DFF8948103D00B68042B00F062
:103828006381D5ED008AB7EE008AD8ED007AB0EE54
:10383800680A524838EE678A11F026FB2AE08B4264
:10384800DFF86C8103D00B68032B00F05B81D5EDAA
:10385800008AB7EE008AD8ED007AB0EE680A4848C8
:1038680038EE678A11F0DCF814E08B42DFF8448107
:1038780003D00B68022B00F05381B7EE008AD5ED18
:10388800008AD8ED007AB0EE680A3E4838EE678ABA
:1038980011F06AFDD8ED007AA742316820EE270AB8
:1038A8007368A8EE880A85ED000A7FF4E9AE0BE795
:1038B80035488B42DFF800C1DFF80081D0ED006A9F
:1038C800D0E901E27244ACFB02BA02F101094FEA05
:1038D800DA2A08FB1A2200EB8202D2ED037AACFB4B
:1038E80009A24FEAD22208FB129900EB890999ED47
:1038F800037A37EE677AE7EE267A03D00A68012A58
:1039080000F01C81214AA74295ED007A92ED006AE9
:1039180000EB8E0277EE276ADFF8A4C0A6EE277ABE
:1039280082ED037A1A4AD5ED007A72449CED007A4A
:10393800DFF884C0E7EE267AACFB02ECDFF87CE027
:103948004FEADC2C0EFB1C224260C5ED007A7FF4A6
:1039580097AEB9E6749F0724BC9F0724809F07246D
:10396800F8920124309401241065002430060024C4
:103978009851002460650024849F0724EC55002496
:103988003C0600247065002400E86EC33C00002457
:10399800FF760100A40000246C00002438000024F5
:1039A800300000244C000024B800002460000024EB
:1039B8001800002490000024F11976050077010012
:1039C800440000246F4B95ED008AD3ED007A6E48D1
:1039D80028EE278AB0EE480AFEF710F96B4BD3EDB4
:1039E800007AA0EE278A85ED008A05B0BDEC028B2F
:1039F800BDE8F08F664B1B78002B7FF46DAE614BF2
:103A08009DED038AE1E79DED030A54E6B7EE008ACF
:103A1800DDED038AD8ED007AB0EE680A5D4838EE2D
:103A2800678A12F0C7FAD8ED007AA742316820EE0B
:103A3800270A7368A8EE280A85ED000A7FF420AEED
:103A480042E603AA2B4654481146009511F0F8FFA8
:103A5800A742D6E900137FF413AE35E6DDED038AFD
:103A6800B7EE008AD8ED007AB0EE680A4B4838EE17
:103A7800678A12F0D9F9D6E7DDED038AB7EE008A36
:103A8800D8ED007AB0EE680A454838EE678A10F03B
:103A9800B3FEC8E7DDED038AB7EE008AD8ED007AF9
:103AA800B0EE680A3F4838EE678A10F001FDBAE7C1
:103AB800DDED038AB7EE008AD8ED007AB0EE680A29
:103AC800394838EE678A11F043FBACE7DDED038A2D
:103AD800B7EE008AD8ED007AB0EE680A334838EEBF
:103AE800678A12F069F99EE7DDED038AB7EE008A6E
:103AF800D8ED007AB0EE680A2D4838EE678A11F0E2
:103B0800C3F990E7DDED038AB7EE008AD8ED007AB5
:103B1800B0EE680A274838EE678A10F081FF82E71E
:103B2800DDED038AB7EE008AD8ED007AB0EE680AB8
:103B3800214838EE678A11F017FC74E71F4AA7423C
:103B48009DED037A92ED006A00EB8E0277EE276A0C
:103B5800A6EE277A82ED037A194AD5ED007A7244E7
:103B6800ACFB02EC4FEADC2C08FB1C224260154A35
:103B780092ED007AE7EE267AC5ED007A7FF480AD03
:103B8800A2E500BF740000242C65002478000024FE
:103B9800809F0724F89201243094012410650024A2
:103BA800300600249851002460650024849F07246F
:103BB800EC5500243C060024706500243C000024D9
:103BC800FF7601004400002410B5224C204601F085
:103BD800CDFE237B9BB1A37C7F2B2DD0FF2B11D057
:103BE8001D4B1B681D49D1E90012521AB3EBA20FF5
:103BF8001ED21B4A1268D25C1A4B1A7010BDA37CE5
:103C0800FF2BEDD103F092FC07EE900AD4ED056A84
:103C1800F8EE677A9FED147A77EEE67AF4EEC77AD3
:103C2800F1EE10FADCDD00220B4913460A60D9E7F1
:103C380002220C4B1A7010BD074909480B68D0E9DD
:103C480000020133121AB3FBF2F002FB10330B60CF
:103C5800C8E700BF08060024D8510024749F072431
:103C6800546500246C6500240000FA4410B5354CF6
:103C7800204601F0D3FE04F1100001F0CFFE2379B5
:103C88002BB9237DBBB9A37EFF2B1ED010BD217D90
:103C9800A27A79B3A37E7F2AA3F17F01B1FA81F1D9
:103CA8004FEA511130D1284A5068032847D8DFE835
:103CB80000F039253325A37E7F2BE5D123490A78E7
:103CC80082F001020A70FF2BE0D103F02FFC07EE0F
:103CD800900AD4ED076AF8EE677A9FED1D7A77EEC1
:103CE800E67AF4EEC77AF1EE10FACFDD164B002231
:103CF8005A6010BD7F2AC6D1A37ED4E70220506047
:103D080092F8240000B990610029BDD00F490A78C3
:103D180082F001020A70D6E7106801280AD0032051
:103D28005060EDE7002010610020106290830120B0
:103D38005060E5E782F824000029E7D1A4E70020D5
:103D48005060DDE78C0500242C650024809F072443
:103D58000000FA442DE9F041114C06460F4615467D
:103D680004F1C0082046203401F080FDA045F9D1B7
:103D7800FEF7D2FBFFF77AFFFFF726FF6DB10024AD
:103D88003368386803EB840300EB8400013493ED57
:103D9800000AFFF765FCA542F2D1BDE8F08100BF3B
:103DA800CC04002470B52F4C00262F4D204600F07F
:103DB80003FB2E4810F0FCFF204600F0FDFA2C48CB
:103DC80010F064FD204600F0F7FA2A4811F056FA80
:103DD800204600F0F1FA284811F0A2FF274811F018
:103DE80057F9274812F01AF8264A0021284613F0F6
:103DF8004BFF0123204645E9026300F0DDFA224823
:103E080011F05EFD204600F0D7FA204810F0E6FCDD
:103E1800204600F0D1FA1E4810F0AEFA204600F015
:103E2800CBFA1821F0EE400A1A489FED1B0A12F04F
:103E38001FF8204600F0C0FA184810F0B5FB184DDE
:103E480018483146184B194AC5E9020313F01CFFFC
:103E580085F82460AE61AE83C5E90066BDE87040B0
:103E6800FEF7E2B9C40500240CE86EC3EC55002443
:103E78003C06002470650024849F072460650024A4
:103E88001065002400DC050030940124300600246D
:103E980098510024F89201248FC2753CBC9F0724D6
:103EA8002C650024000000C000BADB00FCE76E03AC
:103EB8002DE9804800218DB0A448A54C00F00CFBEA
:103EC8000321A24800F05CFA0DF1200AFFF76AFF0F
:103ED800FEF778F8A26825689E4B561B0FCB0F2E6D
:103EE8008AE80F0000F202815646102012F08BFC7F
:103EF800276805460FCE28606960AA60EB6027B185
:103F0800A1683846C91B12F07CFC05F11003C4E90E
:103F18000053A360904B022201218C481A7000F0D4
:103F28006FFAFDF7A3FFDFF848B2FDF7DDFF302198
:103F3800864800F045FA8949844800F01DFA0220B5
:103F480003F0F6FA864B1A68864B92F80090597877
:103F580093F800805B68029205910793B9F1000F0E
:103F680077D04746A9F12003DAB25E2A00F2D08062
:103F7800BBF804E00EEB0702802A049200F3C88025
:103F8800BBF80620059903920A44402A00F3C08032
:103F9800002947D0059A6FF00046CDF8189002FB2B
:103FA80003F303981E441344079A02EB4606023AA9
:103FB80002EB4303994636F802CF6FB300F00703CC
:103FC80001250EF1100200249D40C3086DB202EBDA
:103FD800C31372466FEA05085B440BE07F2A04D8D6
:103FE8003F2802D819782943197001340133013266
:103FF800BC4211D00CFA04F10904EFD47F2AF4D89A
:104008003F28F2D8197801340133013208EA010156
:10401800BC4203F8011CEDD14E4500F10100CAD1A4
:10402800DDF81890039ABDF810303F2A28BF3F22C8
:104038007F2B28BF7F23ABF80620ABF80430029A09
:1040480013784B4505D112F8019F0292B9F1000F80
:1040580088D10023444F4FF0B008CBF804304FF418
:104068007A760025022352469BF80C10A7F18004AB
:104078003E4800968DF820508DF8218002F006FB0E
:10408800022352469BF80C10384800968DF82050B1
:104098008DF8215002F0FAFA4FF0100C0223524624
:1040A8009BF80C10314800968DF820508DF821C0EF
:1040B80002F0ECFA40204FF47A7614F8015F0223FC
:1040C8008DF8200052469BF80C10284800968DF871
:1040D800215002F0DBFAA742ECD108F10108803741
:1040E8005FFA88F8B8F1B80FB9D128E763685A1BA6
:1040F8000F2A10D9564605F110070FCE28606960BF
:10410800EB606368AA609F423FF404AF676001E711
:104118004FF0000993E70AEB0206564509D110252E
:10412800184631462A4613F087FD03462B44636040
:10413800F0E62846514613F07FFD0CAA0CAB9642D8
:10414800A3EB06056368F1D0EAE700BFC4050024C5
:10415800749F0724647F01086C6500245D3D000896
:10416800AC050024180100246B520024E4510024FB
:10417800DC510024F0B5524C85B052490025224646
:10418800514812F039FB514BEC46514E514FB56036
:104198000FCBACE807000E20ACF80030C6E900559C
:1041A80012F031FBEC4600F10E0203463060C6E91E
:1041B8000122BCE807009A60BCF80020186030466D
:1041C80059609A812246444912F016FB2246434917
:1041D800434812F011FB22464249434812F00CFBB7
:1041E80022464249424812F007FB224641494248CA
:1041F80012F002FB22464149414812F0FDFA2246DC
:104208004049414812F0F8FA22464049404812F025
:10421800F3FA22463F49404812F0EEFA22463F4957
:104228003F4812F0E9FA22463E493F4812F0E4FAC4
:1042380022463E493E4812F0DFFA3E4822463E49B1
:104248008560C0E9005512F0D7FA22463B49284656
:1042580012F0D2FA22463A49284612F0CDFA394BE2
:104268003948224639490360856012F0C5FA384A50
:1042780007F108001146386012F03AFB3B68224605
:104288007D6038461D70334912F0B6FA224632492D
:10429800324812F0B1FA22463149324812F0ACFAEB
:1042A80031482246314905604561056212F0A4FA99
:1042B80022462F492F4805B0BDE8F04012F09CBABD
:1042C80000000024A109000808060024747F0108E2
:1042D80054650024AC050024210A0008C10900081F
:1042E80070650024B50900083C060024D5090008BB
:1042F800EC550024C5090008849F0724B909000863
:1043080060650024B109000830060024C9090008C6
:1043180010650024BD09000830940124A90900088B
:1043280098510024CD090008F8920124AD0900082D
:10433800BC9F0724749F07240D0A0008D9090008A8
:10434800350A00083C800108DC510024DD0900081A
:10435800308001087B690108F909000800E86EC38C
:10436800D10900082C650024C4050024A50900080B
:104378009D09000800060024143001F011BA00BF9E
:1043880038B500F1140504462DED028B284601F0DE
:10439800C3F9284601F0BCF92846B0EE408A01F07E
:1043A800A5F9D0ED007AF8EE677A88EE277ABDECA9
:1043B800028B84ED0E7A38BD143001F0A9B900BF24
:1043C80038B500F1140504462DED028B284601F09E
:1043D80091F9284601F09CF92846B0EE408A01F090
:1043E80085F9D0ED007AF8EE677A88EE277ABDEC89
:1043F800028B84ED0E7A38BD90ED0E0A704700BF2F
:10440800253001F02DBF00BFF0B5032399B0002778
:104418000125129306462C4B09A81595CDE90E7374
:1044280040F20453ADF84030284BCDE913570993B7
:1044380001F02CFE09A801F005FF002836D1244B15
:1044480004AF04460090CDF8423010233946049555
:104458008DF820301F4BCDE91650CDE9065068463F
:10446800059302F07DF80823009A01A909A8ADF880
:1044780004508DF8064009940295039300F0E4F87F
:1044880000230EA938463024049302F031FE03229B
:104498004FF07E5309A906F114000B930C93CDE954
:1044A8000942049A01F0EAF819B0F0BD40F6013269
:1044B800074B169704AFADF824200998CDF8423081
:1044C800179500F081F8DBE70402040403030001F8
:1044D800040604030704010B2DE9F04304462DEDFF
:1044E800028B83B0002948D0012140F20112002339
:1044F8000091ADF804208DF80630304A0126304B83
:10450800271D304904F12908626040F20272A36055
:1045180040F60663E16004F125092682A4F8252007
:1045280084F82760A4F8293084F82B6003F06EF92A
:104538006946054648B304F130008DF8066003F07B
:10454800C3F8072D34D104F114052046FFF75CFFAA
:10455800284601F0DDF82846B0EE408A01F0C6F89A
:10456800D0ED007AF8EE677A88EE277A84ED0E7A35
:1045780003B0BDEC028BBDE8F08340F2011300915B
:104588008DF80610ADF80430B7E704F1300003F0F9
:104598009BF83946204602F02BFA484601F076FD92
:1045A800404601F073FD04F1120000F077F9CAE704
:1045B8003946204602F01CFAC5E700BF0508050980
:1045C80005070506050A060610B584B0034601244A
:1045D800ADF8040003A8ADF80C30ADF80E4001F0BA
:1045E80055FD214603A801F03BFE204602F0A0FF3E
:1045F800002103A801F034FE204602F099FF21466D
:1046080003A801F02DFE04B010BD00BF10B5C2F321
:10461800002384B00C46017C8DF80D2043EA440247
:10462800FA2402238DF80C2003AA009402F02EF835
:1046380018B10124204604B010BD04460A2002F037
:1046480077FF204604B010BD034670B543F8042B2D
:10465800044684B007C983E80700A37983B91A21FF
:104668000B461E22FA2523742046ADF80C2002239F
:1046780003AA009502F00AF828B1012004B070BD21
:104688001B210B46EDE70A2002F052FF4FF4B85207
:1046980000950223ADF80C20204603AA217C01F0E6
:1046A800F5FF0028E9D10A2002F042FF41F2027228
:1046B80000950223ADF80C20204603AA217C01F0C6
:1046C800E5FF0028D9D10A2002F032FF0422009524
:1046D8000223ADF80C20204603AA217C01F0D6FF66
:1046E8000028CAD10A2002F023FF062200950223DF
:1046F800ADF80C20204603AA217C01F0C7FF002852
:10470800BBD10A2002F014FF41F2082200950223CF
:10471800ADF80C20204603AA217C01F0B7FF002841
:10472800ABD10A20064602F003FF0095022303AA34
:10473800217C2046ADF80C6001F0A8FF00289CD130
:10474800304602F0F5FE009522790C232046002A17
:104758008DF80C3003AA4FF0020314BF62214221E6
:104768008DF80D10217C01F091FF002885D130468D
:1047780002F0DEFE2279D4E902310B43DBB20AB93A
:1047880043F0400362790AB143F020030E22FA2570
:104798008DF80D302046009502238DF80C2003AAD1
:1047A800217C01F073FF00287FF467AF0A2002F034
:1047B800BFFE102200950223ADF80C20204603AA64
:1047C800217C01F063FF00287FF457AF0A2002F034
:1047D800AFFE122100950223ADF80C1003AA217C2C
:1047E800204601F053FF00287FF447AF0A2002F06B
:1047F8009FFE012209212046FFF708FF003818BF55
:1048080001203BE7F0B5102387B0234C0122002597
:104818000126002702A920460195CDE902234FF47D
:104828008052CDE9046709F0A9FD642003F094FAE9
:1048380002A94FF480522046CDE9046702261027CA
:10484800CDE9026709F09AFD0322102302A9204648
:10485800CDE9022300230422CDE904234FF480523A
:1048680009F08CFD40F23223042202A9019310239F
:104878002046CDE90223019A012305924FF4805284
:10488800049309F07BFD40F60601204609F096FDE9
:10489800284607B0F0BD00BF14A007241C4B002217
:1048A8001C494FF0400C30B5054689B002205960CC
:1048B80007219A601A620124DA620A224FF4006E14
:1048C800DC6006922022CDE9000104200821CDE910
:1048D800020103201021CDE9040108206946C3E93B
:1048E80004024FF4C072181DC3E906C24FF4805287
:1048F800C3E909E209F018FD38B92846FFF782FF35
:10490800003818BF012009B030BD204609B030BDBD
:1049180010A0072440410052614A0021D0B5136815
:104928008EB00A91002B40F0B9805E4B01214FF602
:1049380083700C2411600221D3F8D42000260327A9
:1049480042F48052C3F8D420D3F8D42002F4805221
:104958000092009AD3F8E02042F01002C3F8E02059
:10496800D3F8E02002F010020192019AD3F8E02077
:1049780042F04002C3F8E020D3F8E02002F0400201
:104988000292029AD3F8E02042F00802C3F8E0202D
:10499800D3F8E02002F008020392039AD3F8E0204B
:1049A80042F48072C3F8E020D3F8E02002F4807269
:1049B8000492049AD3F8E02042F08002C3F8E02081
:1049C800D3F8E02002F080020592059AD3F8E0209F
:1049D80042F02002C3F8E020D3F8E02002F02002E1
:1049E8000692069AD3F8E02042F00402C3F8E020C9
:1049F800D3F8E0300C9403F0040307930323079AD9
:104A08000B93CDE9080108A9274805F02BF848F2CF
:104A18003712022308A925480C94CDE90823CDE9CB
:104A28000A6705F01FF84CF20372022308A9204810
:104A38000C94CDE90823CDE90A6705F013F840F294
:104A4800FF62022308A91B480C94CDE90823CDE98D
:104A58000A6705F007F84FF60C72022308A91648F2
:104A68000C94CDE90823CDE90A6704F0FBFF4FF663
:104A78003F02022308A911480C94CDE90823CDE987
:104A88000A6704F0EFFF2022022308A90A480C94C1
:104A9800CDE90A67CDE9082304F0E4FF0EB0D0BDE4
:104AA8000CA00724004402580010025800180258AD
:104AB800000C025800200258001C0258001402582A
:104AC8002DE9F04FDFF8108406460D46144608F12C
:104AD80018002DED028B89B000AF02F001FCD8F868
:104AE800183073B3D8F81C30D8F80490002B4369F9
:104AF8000BBF4FF0080A4FF0100A4FF0020B4FF0AF
:104B0800040BB9F1000F2AD0A200EA46012B02F1EA
:104B1800070222F00702ADEB020D6846ADEB020D6D
:104B2800694600F03F81022B00F0D680002B6FD041
:104B38002246C847D5462437BD46BDEC028BBDE8A2
:104B4800F08FD8F81C30002BF5D0D8F804904FF02F
:104B5800080A4FF0020B4369B9F1000FD4D1FB6189
:104B6800D8F80030BB61002BE5D0D54802F02AFC0C
:104B78006B46BBF1020F786108EE103AFB6900F052
:104B880083816A465146A2EBC40295466200EA4612
:104B9800B2FBFBF2AAEBC40085460AEB8200EE46A4
:104BA800F861ADEB010DF8690EEB820CC7F810C087
:104BB800EC46ADEB010D00EB8201CCF80400CCF81B
:104BC800081001EB82013869E946CCF80C1000EBBB
:104BD8008201CCF800A001EB8202C9E900E0C9E932
:104BE8000212012B00F06483022B00F06C82002B70
:104BF80000F08081620849466046BB69984718EE14
:104C0800103A24379D46BD46BDEC028BBDE8F08FB7
:104C1800002C8DD01A46D8ED0C6A9FEDB27A8446E6
:104C2800331D36F922E00CF1080C07EE90EA33F94F
:104C380022E00232F8EEE77A944267EE877A67EE6E
:104C4800A67A4CED027A07EE90EAF8EEE77A67EE7C
:104C5800877A67EEA67A4CED017AE2D8F9612246A6
:104C6800C847984ED8ED0D6A0020F9692B1D9FEDB5
:104C78009E7A9FED9E6ADFED9E5A22E0F4EEC67A98
:104C8800F1EE10FAC0F2C88447F6FE72D1ED017A4F
:104C980045F8202066EEA77AF4EEC77AF1EE10FA0E
:104CA80040F2F080F4EEC67AF1EE10FAC0F2D58444
:104CB80047F6FE7243F820200230083184427FF61E
:104CC80039AFD1ED007A66EEA77AF4EEC77AF1EE45
:104CD80010FAD3D83246D9E7002C3FF429AFD8EDE3
:104CE8000C6A84469FED787A0022331D8E4656F86A
:104CF80022100CF1080C07EE901A53F82210023219
:104D0800F8EEE77A944267EE877A67EEA67A4CED7A
:104D1800027A07EE901AF8EEE77A67EE877A67EE7E
:104D2800A67A4CED017AE2D871462246C7F81CE013
:104D3800C847664ED8ED0D6A0020F9692B1D9FED16
:104D48006A7A9FED6A6ADFF894C120E0F4EEC67AC9
:104D5800F1EE10FAC0F279843246D1ED017A45F8C5
:104D6800202066EEA77AF4EEC77AF1EE10FA40F248
:104D78008780F4EEC67AF1EE10FAC0F25E8432460D
:104D880043F820200230083184427FF6D3AED1EDBB
:104D9800007A66EEA77AF4EEC77AF1EE10FAD5D863
:104DA8006246DAE7002C3FF4C3AED8ED0C6A8646BB
:104DB8009FED477A4FF0000C331D56F82C200EF16A
:104DC800080E82F40002A2F5000207EE902A53F8BA
:104DD8002C200CF1020CF8EEE77A82F4000264450C
:104DE800A2F5000267EE877A67EEA67A4EED027AA0
:104DF80007EE902AF8EEE77A67EE877A67EEA67AEA
:104E08004EED017AD9D8F9612246C847314ED8ED1E
:104E18000D6A0020F9692B1D9FED337A9FED336AE7
:104E2800DFF8BCC01FE0F4EEC67AF1EE10FAC0F26B
:104E3800FC833246D1ED017A45F8202066EEA77A48
:104E4800F4EEC77AF1EE10FA18D9F4EEC67AF1EE5C
:104E580010FAC0F2DA83324643F8202002300831D3
:104E680084427FF667AED1ED007A66EEA77AF4EE5B
:104E7800C77AF1EE10FAD6D86246DBE76246EBE76E
:104E880062467DE7324615E7A100D646620807313B
:104E980021F00701ADEB010DEA46ADEB010D6946C6
:104EA800ADEB0E0D0AEB8200EC46ADEB0E0D01EBFF
:104EB8008202F861E946CCE900A0C9E9001290E64F
:104EC80064A007240280FFFF000000300082FF7FFB
:104ED8000000003482FF7F0048A00724007E008085
:104EE8007E0080FF0000003804FF7FBF04FF7F3F83
:104EF80000FEFF46002C00F0C982BBF1020FD8F873
:104F0800242000F0FA827969C7F8049002EB810E38
:104F18005FED0C5A8A00DCF808100EF104007A6183
:104F28001A46DCF80C303B61331DD7F810903D6110
:104F3800FD69C7E902CB8C46834636F92210D8EDC5
:104F48000C7A06EE101A33F9221006EE901A3EF982
:104F58002210B8EEC66A07EE101AF8EEE66A3BF9B8
:104F68002210B8EEC77A26EE256A66EEA56A27EE05
:104F7800257A26EE276A66EEA76A27EE277A07EED5
:104F8800901A51080232F8EEE77A0AEB810094424F
:104F980080ED006A05EB810067EEA57AC0ED006A36
:104FA8000CEB810009EB810180ED007A98ED0C7A19
:104FB80067EE877AC1ED007ABFD8D7F804903D69CB
:104FC800D7E902CB60466208BB6949469847D8F8DA
:104FD8002C307A69D8ED0D6A1A441FED3D7A1FED21
:104FE8003D6A2B1D904602F1040A5FED3F5A0022EC
:104FF800A84ED9E900EC51E0F4EEC67AF1EE10FAC9
:10500800C0F2C78247F6FE7045F822000CEB01009B
:10501800D0ED007A66EEA77AF4EEC77AF1EE10FAD0
:105028004BD9F4EEC67AF1EE10FAC0F2BA8247F61E
:10503800FE70BBF1020F43F822002BD0D9F808000C
:105048000844D0ED007A66EEA77AF4EEC77AF1EE5E
:1050580010FA36D9F4EEC67AF1EE10FAC0F2CD8223
:1050680047F6FE7048F82200D9F80C000144D1ED4B
:10507800007A66EEA77AF4EEC77AF1EE10FA1ED936
:10508800F4EEC67AF1EE10FAC0F2AF8247F6FE717E
:105098004AF82210023294427FF6B1AD51080EEB65
:1050A80081008900D0ED007A66EEA77AF4EEC77A1F
:1050B800F1EE10FAA0D83046A6E73046B9E73146F7
:1050C800E6E73046CEE7002C00F0E081BBF1020FA6
:1050D800D8F8243000F0E1817A69DCF8081003EB95
:1050E800820EC7F804909300DFED6B5A0EF10400AE
:1050F80000227B61DCF80C303B61331DD7F810903F
:105108003D61FD69C7E902CB8C46834656F82210FB
:10511800D8ED0C7A07EE101A53F82210B8EEC76AC9
:1051280007EE101A5EF82210F8EEC76A07EE101A9A
:1051380026EE256A5BF82210B8EEC77A66EEA56AF5
:1051480026EE276A27EE257A66EEA76A27EE277AE3
:1051580007EE901A51080232F8EEE77A0AEB81005E
:10516800944280ED006A05EB810067EEA57AC0EDF8
:10517800006A0CEB810009EB810180ED007A98ED63
:105188000C7A67EE877AC1ED007ABFD8D7F8049019
:105198003D69D7E902CB60466208BB694946984732
:1051A800D8F82C307A69D8ED0D6A1A449FED3E7A0A
:1051B8009FED3E6A131D9246DFF8E4C00022FB61B2
:1051C8002B1D364ED9E9008E4EE0F4EEC67AF1EE8C
:1051D80010FAC0F2FC81304645F822000EEB0100BF
:1051E800D0ED007A66EEA77AF4EEC77AF1EE10FAFF
:1051F80049D9F4EEC67AF1EE10FAC0F2EF813046E2
:10520800BBF1020F43F822002AD0D9F8080008445D
:10521800D0ED007A66EEA77AF4EEC77AF1EE10FACE
:1052280035D9F4EEC67AF1EE10FAC0F2C9813046EB
:105238004AF82200D9F80C000144D1ED007A66EE54
:10524800A77AF4EEC77AF1EE10FA1ED9F4EEC67A10
:10525800F1EE10FAC0F2AD813146F86940F822103B
:10526800023294427FF6CBAC510808EB81008900EA
:10527800D0ED007A66EEA77AF4EEC77AF1EE10FA6E
:10528800A3D86046A8E76046BAE76146E5E7604606
:10529800CEE700BF0280FFFF000000300082FF7FE2
:1052A800007E00800000003404FF7FBF04FF7F3FC2
:1052B800002C00F0EB807A690021D8F82430C7F878
:1052C800109003EB820ED7F81C909300FD610EF14D
:1052D80004021FED0C6A7B61331D154656F8212028
:1052E8004808D8ED0C6ABBF1020F82F40002A2F55F
:1052F800000207EE902A53F8212082F40002B8EE4B
:10530800E77AA2F5000227EE067A07EE902A0AEB62
:105318008002F8EEE77A27EE267A67EE867A82ED43
:10532800007A09EB80024FEA800067EEA67AC2EDA8
:10533800007A27D05EF8212082F40002A2F500024C
:1053480007EE902A55F8212082F40002B8EEE77A99
:10535800A2F5000227EE067A07EE902ADCF808206C
:10536800F8EEE77A024427EE267A67EE867A82ED2F
:10537800007A98ED0C7ADCF80C2067EE877A024404
:10538800C2ED007A02318C42A8D8D7F81090604656
:105398006208BB694946FD699847D8F82C307A6994
:1053A800D8ED0D6A1A441FED407A1FED406A131DAF
:1053B8009246DFF8C4C20022FB612B1DAB4ED9E92F
:1053C800008E4EE0F4EEC67AF1EE10FAC0F2C58017
:1053D800304645F822000EEB0100D0ED007A66EE6B
:1053E800A77AF4EEC77AF1EE10FA49D9F4EEC67A44
:1053F800F1EE10FAC0F2BF803046BBF1020F43F85D
:1054080022002AD0D9F808000844D0ED007A66EEC8
:10541800A77AF4EEC77AF1EE10FA35D9F4EEC67A27
:10542800F1EE10FAC0F2AE8030464AF82200D9F800
:105438000C000144D1ED007A66EEA77AF4EEC77A43
:10544800F1EE10FA1ED9F4EEC67AF1EE10FAC0F2B7
:105458008B803146F86940F82210023294427FF678
:10546800CEAB510808EB81008900D0ED007A66EEDA
:10547800A77AF4EEC77AF1EE10FAA3D86046A8E747
:105488006046BAE76146E5E76046CEE72246494608
:105498006046BB699847FFF7B2BBC7F810B0002257
:1054A80098ED0C6A331DDFED726AD7F81CB0786985
:1054B80056F8221007EE901A53F82210B8EEE77A41
:1054C80007EE901A51080232F8EEE77A27EE267AAC
:1054D8000AEB810E94420BEB810167EEA67A27EE68
:1054E800067A67EE867A8EED007AC1ED007ADFD80B
:1054F8008300D7F810B07B614DE61A46C7F810B0A4
:1055080098ED0C6A331DDFED5B6AD7F81CB078693B
:1055180036F9221007EE101A33F9221007EE901A06
:10552800B8EEC77A51080232F8EEE77A27EE267A03
:105538000AEB810E94420BEB810167EEA67A27EE07
:10554800067A67EE867A8EED007AC1ED007ADFD8AA
:105558008300D7F810B07B6134E5F0EE675AFEEEB1
:10556800E45A15EE900A34E7F0EE675AFEEEE45A74
:1055780015EE901A6EE7F0EE675AFEEEE45A15EE55
:10558800900A3AE7F0EE675AFEEEE45A15EE900AF2
:105598004BE767EEA57AFDEEE77A17EE900A00B2C0
:1055A80032E567EEA57AFDEEE77A17EE900A00B2CB
:1055B8003FE5F0EE675AFEEEE05A15EE901A4CE61B
:1055C800F0EE675AFEEEE05A15EE900A30E6F0EE7D
:1055D800675AFEEEE05A15EE900AFDE5F0EE675ABE
:1055E800FEEEE05A15EE900A0AE667EEA57AFDEEA1
:1055F800E77A17EE901A09B24AE567EEA57AFDEE4A
:10560800E77A17EE900A00B22CE5F0EE675AFEEE44
:10561800E45A15EE902A1FE467EEA57AFDEEE77AC4
:1056280017EE902A12B2FFF731BBF0EE675AFEEE82
:10563800E45A15EE902AFFF7FDBBF0EE675AFEEE2E
:10564800E05A15EE902AFFF79BBBF0EE675AFEEE84
:10565800E05A15EE902AFFF780BB67EEA57AFDEEBB
:10566800E77A17EE902A12B2FFF724BB82FF7F0079
:1056780000000030000000387E0080FF30B5184C74
:10568800154685B0046004F1080EEC460FC98EE893
:105698000F00D4ED047AF5EEC07A8CE80F00F1EE35
:1056A80010FA1ADDB7EE006A94ED057A27EE277A2C
:1056B800C6EE276A84ED0D7AC4ED0C6A6DB12046FA
:1056C80040F8185F01F00CFE064903690020064AFD
:1056D8002162A262E36005B030BD012005B030BD93
:1056E80048A007240020003000000030006808307F
:1056F800704700BFB1F5807F03680A4628BF4FF4A2
:105708008072B1F5807F9A6094BF002001207047B5
:105718000068183001F044BE70B504688AB0A36907
:10572800E160CBB104F11805284601F0D9FD8446A3
:10573800EE46E668BCE80F00AEE80F00BCE80F00D4
:10574800AEE80F009CE803008EE80300694628468F
:10575800049601F0CDFCF8B9E069D8B104F11C0554
:10576800284601F0BDFD8446EE46E468BCE80F001B
:10577800AEE80F00BCE80F00AEE80F009CE803009D
:105788008EE8030069462846049401F0B1FC00380D
:1057980018BF01200AB070BD01200AB070BD00BF5B
:1057A80030B5046883B00D46E3694BB1A3680020A7
:1057B800E26A616A9B00009004F11C0001F092FD0E
:1057C800A3680748A26A9B00216A009004F11800A8
:1057D80001F088FD0020C4E9005003B030BD00BFCF
:1057E800C94A000810B4074B4FF07E5130240022FC
:1057F800032019619C60D8605DF8044B5961C3E9C6
:105808000622704748A00724F6EE007A9FED166A34
:1058180020EE207A0160F7EE006A80ED036A80EDE1
:10582800020A27EE277AC6EE877AF4EEE67AF1EED8
:1058380010FA11DDF0EE667A4FF07E514FF0000C51
:1058480002760022C0ED017AC0F814C001614376E7
:105858008276C0ED070A7047F4EEC67AF1EE10FAC8
:10586800EAD5F0EE467AE7E7000000000268037E1A
:10587800128807EE902AFBEEC87A1BB1B7EE007AC1
:1058880077EE677AD0ED056A90ED047A77EEE67ADE
:10589800437E67EE877A0BB1F1EE677A90ED030AE3
:1058A80090ED017A77EEC07AA7EE270A80ED030A19
:1058B800704700BF837E80ED020AABB9D0ED077A4E
:1058C80027EE800AF6EE007AB7EE007A20EE270A75
:1058D800C7EE007AF4EEC77AF1EE10FA07DDF0EEC3
:1058E800477AC0ED017A7047DFED067AE8E7F5EE12
:1058F800C07AF1EE10FAF4D5DFED037AC0ED017A43
:10590800704700BF6F12033B0000000030B585B040
:1059180004460025ADF80C10ADF80820ADF80430A9
:1059280001F004FEBDF80C204FF48073206004F1F0
:1059380018002283BDF808206383E383A2832571BE
:1059480000F0A4FB04F11C0000F0A0FB9FED060A88
:10595800019904F1080000F047F84FF6FF736562FB
:10596800238405B030BD00BF00000000F8B5044630
:1059780001F0DCFD002623682671834205D104F17D
:105988000800BDE8F84000F049B8012794F8205015
:10599800206004F11800BD40277100F053FC6DB27F
:1059A800284394F82150BD4084F8200004F11C00DD
:1059B80000F048FC94F820306DB2666203F00303EF
:1059C8002843022BC0B284F8210009D000F003005C
:1059D8000228D4D1002BD2D14FF0FF336362CEE737
:1059E8008307CCD16762CAE770B5044682B0C1F3B9
:1059F8000726CDB2ADF8041001F098FD4FF480727F
:105A08004FF001232060A01DA571A280E671A3605C
:105A180002B0BDE8704000F039BB00BF38B504469D
:105A280001F084FD002223682271834210D00122F4
:105A3800A57AE37A954020602271A01D6DB243B922
:105A480000F000FC40B22843C0B27F28A0720AD000
:105A580038BD00F0F7FBB0FA80F040092843C0B227
:105A68007F28A072F4D101F061FD07EE900AF8EEEC
:105A7800677AC4ED037A38BD82B04FF0000C032377
:105A8800ADF80410BDF8042080F810C002804380EF
:105A980002B070472DE9F04FBE4E00258FB0BE4CC6
:105AA800037006F1400342600746019288462022AF
:105AB80029463046C4F85831C4F85461CDE9035535
:105AC800CDE90555CDE90755CDE90955CDE90B5582
